{
  "transactions": [
    {
      "hash": "0x5aceaca1c4f8b099ccba884b6f00fc17b3741841d5136582cded7eed15ca59ab",
      "transactionType": "CALL",
      "contractName": null,
      "contractAddress": "0x80cf106b844597ccd7689790167835dd64de0e99",
      "function": "putOnSale(uint256,uint256)",
      "arguments": [
        "0",
        "4000"
      ],
      "transaction": {
        "from": "0xce23256ae677765a41e8d7e4d099359771615ca4",
        "to": "0x80cf106b844597ccd7689790167835dd64de0e99",
        "gas": "0x200c4",
        "value": "0x0",
        "input": "0x36f7992b00000000000000000000000000000000000000000000000000000000000000000000000000000000000000000000000000000000000000000000000000000fa0",
        "nonce": "0xb1",
        "chainId": "0xaa36a7"
      },
      "additionalContracts": [],
      "isFixedGasLimit": false
    }
  ],
  "receipts": [
    {
      "status": "0x1",
      "cumulativeGasUsed": "0xfd00ff",
      "logs": [
        {
          "address": "0x80cf106b844597ccd7689790167835dd64de0e99",
          "topics": [
            "0x7c11ba8301c87f8a6d59779bcbe2b7446e865bd1a4359a69e5c400212e0a5795",
            "0x0000000000000000000000000000000000000000000000000000000000000000"
          ],
          "data": "0x0000000000000000000000000000000000000000000000000000000000000fa0",
          "blockHash": "0xb77beb79a72b8864af83faf64183e07496aacedc48ce97360c70deda02679a8e",
          "blockNumber": "0x83a877",
          "blockTimestamp": "0x685c5f60",
          "transactionHash": "0x5aceaca1c4f8b099ccba884b6f00fc17b3741841d5136582cded7eed15ca59ab",
          "transactionIndex": "0x7b",
          "logIndex": "0xba",
          "removed": false
        }
      ],
      "logsBloom": "0x00000000000000000000000000000000000000000000000000000000000000000008000000000000000000000000000000000000000000000000000000000000000000008000000000000000000000000000000100000000000000000000000000000000020000000000000000000800000000000000000000000000000000000000000000000000000000000000000000000000000000000000000000200000000000000000000000000000000000000000000000000000000000000000000000000000000000000000000200000000000000000000000000080000000020000000000000000000000000000000000000000000000000000000000000000000",
      "type": "0x2",
      "transactionHash": "0x5aceaca1c4f8b099ccba884b6f00fc17b3741841d5136582cded7eed15ca59ab",
      "transactionIndex": "0x7b",
      "blockHash": "0xb77beb79a72b8864af83faf64183e07496aacedc48ce97360c70deda02679a8e",
      "blockNumber": "0x83a877",
      "gasUsed": "0x1733d",
      "effectiveGasPrice": "0x178495f1",
      "from": "0xce23256ae677765a41e8d7e4d099359771615ca4",
      "to": "0x80cf106b844597ccd7689790167835dd64de0e99",
      "contractAddress": null
    }
  ],
  "libraries": [],
  "pending": [],
  "returns": {},
  "timestamp": 1750884195,
  "chain": 11155111,
  "commit": null
}