{
  "transactions": [
    {
      "hash": "0xd85ff3798edf297cf7e3b8b2e3b87b818dcecdf8771ff70764758146c56ad002",
      "transactionType": "CALL",
      "contractName": null,
      "contractAddress": "0x176658a721f279f828cb271e0405b0d1e3a065ef",
      "function": "putOnSale(uint256,uint256)",
      "arguments": [
        "1",
        "4000"
      ],
      "transaction": {
        "from": "0xce23256ae677765a41e8d7e4d099359771615ca4",
        "to": "0x176658a721f279f828cb271e0405b0d1e3a065ef",
        "gas": "0x23084",
        "value": "0x0",
        "input": "0x36f7992b00000000000000000000000000000000000000000000000000000000000000010000000000000000000000000000000000000000000000000000000000000fa0",
        "nonce": "0x8c",
        "chainId": "0xaa36a7"
      },
      "additionalContracts": [],
      "isFixedGasLimit": false
    }
  ],
  "receipts": [
    {
      "status": "0x1",
      "cumulativeGasUsed": "0xe561ec",
      "logs": [
        {
          "address": "0x176658a721f279f828cb271e0405b0d1e3a065ef",
          "topics": [
            "0x7c11ba8301c87f8a6d59779bcbe2b7446e865bd1a4359a69e5c400212e0a5795",
            "0x0000000000000000000000000000000000000000000000000000000000000001"
          ],
          "data": "0x0000000000000000000000000000000000000000000000000000000000000fa0",
          "blockHash": "0xf6ad07f53be93a288034434f854c0dfecd5e8d397d33399a944300793834a0fc",
          "blockNumber": "0x83a2dc",
          "blockTimestamp": "0x685c1c04",
          "transactionHash": "0xd85ff3798edf297cf7e3b8b2e3b87b818dcecdf8771ff70764758146c56ad002",
          "transactionIndex": "0x8f",
          "logIndex": "0xf1",
          "removed": false
        }
      ],
      "logsBloom": "0x00000000000000000000000000000000000000000000000000000000000000000000000000000000000000000000000000000000000000000000000000040000000000000000000000000000000000000000000100040000000000000000000000000000000000000000000000000000000000000000000001000000000000000000000000000000000000000400000000000000000000000000000000200000000000000000000000000000000000000000000000000000000000000000000000000000000000000000000200000000000000000000000000000000000040000000000000000000000080000000000000000000000000000000000000000000",
      "type": "0x2",
      "transactionHash": "0xd85ff3798edf297cf7e3b8b2e3b87b818dcecdf8771ff70764758146c56ad002",
      "transactionIndex": "0x8f",
      "blockHash": "0xf6ad07f53be93a288034434f854c0dfecd5e8d397d33399a944300793834a0fc",
      "blockNumber": "0x83a2dc",
      "gasUsed": "0x17f43",
      "effectiveGasPrice": "0x1500fef86",
      "from": "0xce23256ae677765a41e8d7e4d099359771615ca4",
      "to": "0x176658a721f279f828cb271e0405b0d1e3a065ef",
      "contractAddress": null
    }
  ],
  "libraries": [],
  "pending": [],
  "returns": {},
  "timestamp": 1750866941,
  "chain": 11155111,
  "commit": null
}