{
  "transactions": [
    {
      "hash": "0xdd5c0c8c5b77acfdd70ba47e3cfa57063cd1dad5682edc4eb8624ae296b20f3a",
      "transactionType": "CALL",
      "contractName": null,
      "contractAddress": "0x5a939425c4f35ccf78db5fcc2711a8e9036a325f",
      "function": "buy(uint256,uint256)",
      "arguments": [
        "400000000000000000000",
        "4"
      ],
      "transaction": {
        "from": "0x129aa6ab9afc5135a72cef4868175cf906942a14",
        "to": "0x5a939425c4f35ccf78db5fcc2711a8e9036a325f",
        "gas": "0xe1961",
        "value": "0x0",
        "input": "0xd6febde8000000000000000000000000000000000000000000000015af1d78b58c4000000000000000000000000000000000000000000000000000000000000000000004",
        "nonce": "0xd",
        "chainId": "0xaa36a7"
      },
      "additionalContracts": [],
      "isFixedGasLimit": false
    }
  ],
  "receipts": [
    {
      "status": "0x1",
      "cumulativeGasUsed": "0x10477c4",
      "logs": [
        {
          "address": "0x5a939425c4f35ccf78db5fcc2711a8e9036a325f",
          "topics": [
            "0xddf252ad1be2c89b69c2b068fc378daa952ba7f163c4a11628f55a4df523b3ef",
            "0x0000000000000000000000000000000000000000000000000000000000000000",
            "0x000000000000000000000000129aa6ab9afc5135a72cef4868175cf906942a14",
            "0x0000000000000000000000000000000000000000000000000000000000000004"
          ],
          "data": "0x",
          "blockHash": "0x96c63b83c501c629753ca12f5d632085c943ce8d1a9fe92dfec9fbd69e463e77",
          "blockNumber": "0x847234",
          "blockTimestamp": "0x6865ddcc",
          "transactionHash": "0xdd5c0c8c5b77acfdd70ba47e3cfa57063cd1dad5682edc4eb8624ae296b20f3a",
          "transactionIndex": "0x10b",
          "logIndex": "0x131",
          "removed": false
        },
        {
          "address": "0x5a939425c4f35ccf78db5fcc2711a8e9036a325f",
          "topics": [
            "0x1cbc5ab135991bd2b6a4b034a04aa2aa086dac1371cb9b16b8b5e2ed6b036bed",
            "0x000000000000000000000000129aa6ab9afc5135a72cef4868175cf906942a14",
            "0x0000000000000000000000000000000000000000000000000000000000000004"
          ],
          "data": "0x000000000000000000000000000000000000000000000015af1d78b58c400000",
          "blockHash": "0x96c63b83c501c629753ca12f5d632085c943ce8d1a9fe92dfec9fbd69e463e77",
          "blockNumber": "0x847234",
          "blockTimestamp": "0x6865ddcc",
          "transactionHash": "0xdd5c0c8c5b77acfdd70ba47e3cfa57063cd1dad5682edc4eb8624ae296b20f3a",
          "transactionIndex": "0x10b",
          "logIndex": "0x132",
          "removed": false
        },
        {
          "address": "0x5a939425c4f35ccf78db5fcc2711a8e9036a325f",
          "topics": [
            "0xddf252ad1be2c89b69c2b068fc378daa952ba7f163c4a11628f55a4df523b3ef",
            "0x0000000000000000000000000000000000000000000000000000000000000000",
            "0x000000000000000000000000129aa6ab9afc5135a72cef4868175cf906942a14",
            "0x0000000000000000000000000000000000000000000000000000000000000005"
          ],
          "data": "0x",
          "blockHash": "0x96c63b83c501c629753ca12f5d632085c943ce8d1a9fe92dfec9fbd69e463e77",
          "blockNumber": "0x847234",
          "blockTimestamp": "0x6865ddcc",
          "transactionHash": "0xdd5c0c8c5b77acfdd70ba47e3cfa57063cd1dad5682edc4eb8624ae296b20f3a",
          "transactionIndex": "0x10b",
          "logIndex": "0x133",
          "removed": false
        },
        {
          "address": "0x5a939425c4f35ccf78db5fcc2711a8e9036a325f",
          "topics": [
            "0x1cbc5ab135991bd2b6a4b034a04aa2aa086dac1371cb9b16b8b5e2ed6b036bed",
            "0x000000000000000000000000129aa6ab9afc5135a72cef4868175cf906942a14",
            "0x0000000000000000000000000000000000000000000000000000000000000005"
          ],
          "data": "0x000000000000000000000000000000000000000000000015af1d78b58c400000",
          "blockHash": "0x96c63b83c501c629753ca12f5d632085c943ce8d1a9fe92dfec9fbd69e463e77",
          "blockNumber": "0x847234",
          "blockTimestamp": "0x6865ddcc",
          "transactionHash": "0xdd5c0c8c5b77acfdd70ba47e3cfa57063cd1dad5682edc4eb8624ae296b20f3a",
          "transactionIndex": "0x10b",
          "logIndex": "0x134",
          "removed": false
        },
        {
          "address": "0x5a939425c4f35ccf78db5fcc2711a8e9036a325f",
          "topics": [
            "0xddf252ad1be2c89b69c2b068fc378daa952ba7f163c4a11628f55a4df523b3ef",
            "0x0000000000000000000000000000000000000000000000000000000000000000",
            "0x000000000000000000000000129aa6ab9afc5135a72cef4868175cf906942a14",
            "0x0000000000000000000000000000000000000000000000000000000000000006"
          ],
          "data": "0x",
          "blockHash": "0x96c63b83c501c629753ca12f5d632085c943ce8d1a9fe92dfec9fbd69e463e77",
          "blockNumber": "0x847234",
          "blockTimestamp": "0x6865ddcc",
          "transactionHash": "0xdd5c0c8c5b77acfdd70ba47e3cfa57063cd1dad5682edc4eb8624ae296b20f3a",
          "transactionIndex": "0x10b",
          "logIndex": "0x135",
          "removed": false
        },
        {
          "address": "0x5a939425c4f35ccf78db5fcc2711a8e9036a325f",
          "topics": [
            "0x1cbc5ab135991bd2b6a4b034a04aa2aa086dac1371cb9b16b8b5e2ed6b036bed",
            "0x000000000000000000000000129aa6ab9afc5135a72cef4868175cf906942a14",
            "0x0000000000000000000000000000000000000000000000000000000000000006"
          ],
          "data": "0x000000000000000000000000000000000000000000000015af1d78b58c400000",
          "blockHash": "0x96c63b83c501c629753ca12f5d632085c943ce8d1a9fe92dfec9fbd69e463e77",
          "blockNumber": "0x847234",
          "blockTimestamp": "0x6865ddcc",
          "transactionHash": "0xdd5c0c8c5b77acfdd70ba47e3cfa57063cd1dad5682edc4eb8624ae296b20f3a",
          "transactionIndex": "0x10b",
          "logIndex": "0x136",
          "removed": false
        },
        {
          "address": "0x5a939425c4f35ccf78db5fcc2711a8e9036a325f",
          "topics": [
            "0xddf252ad1be2c89b69c2b068fc378daa952ba7f163c4a11628f55a4df523b3ef",
            "0x0000000000000000000000000000000000000000000000000000000000000000",
            "0x000000000000000000000000129aa6ab9afc5135a72cef4868175cf906942a14",
            "0x0000000000000000000000000000000000000000000000000000000000000007"
          ],
          "data": "0x",
          "blockHash": "0x96c63b83c501c629753ca12f5d632085c943ce8d1a9fe92dfec9fbd69e463e77",
          "blockNumber": "0x847234",
          "blockTimestamp": "0x6865ddcc",
          "transactionHash": "0xdd5c0c8c5b77acfdd70ba47e3cfa57063cd1dad5682edc4eb8624ae296b20f3a",
          "transactionIndex": "0x10b",
          "logIndex": "0x137",
          "removed": false
        },
        {
          "address": "0x5a939425c4f35ccf78db5fcc2711a8e9036a325f",
          "topics": [
            "0x1cbc5ab135991bd2b6a4b034a04aa2aa086dac1371cb9b16b8b5e2ed6b036bed",
            "0x000000000000000000000000129aa6ab9afc5135a72cef4868175cf906942a14",
            "0x0000000000000000000000000000000000000000000000000000000000000007"
          ],
          "data": "0x000000000000000000000000000000000000000000000015af1d78b58c400000",
          "blockHash": "0x96c63b83c501c629753ca12f5d632085c943ce8d1a9fe92dfec9fbd69e463e77",
          "blockNumber": "0x847234",
          "blockTimestamp": "0x6865ddcc",
          "transactionHash": "0xdd5c0c8c5b77acfdd70ba47e3cfa57063cd1dad5682edc4eb8624ae296b20f3a",
          "transactionIndex": "0x10b",
          "logIndex": "0x138",
          "removed": false
        },
        {
          "address": "0x34abd99554ef53edba3b6abebb97df2864cfa07c",
          "topics": [
            "0x8c5be1e5ebec7d5bd14f71427d1e84f3dd0314c0f7b2291e5b200ac8c7c3b925",
            "0x000000000000000000000000129aa6ab9afc5135a72cef4868175cf906942a14",
            "0x0000000000000000000000005a939425c4f35ccf78db5fcc2711a8e9036a325f"
          ],
          "data": "0x00000000000000000000000000000000000000000008453e599e1e7219000000",
          "blockHash": "0x96c63b83c501c629753ca12f5d632085c943ce8d1a9fe92dfec9fbd69e463e77",
          "blockNumber": "0x847234",
          "blockTimestamp": "0x6865ddcc",
          "transactionHash": "0xdd5c0c8c5b77acfdd70ba47e3cfa57063cd1dad5682edc4eb8624ae296b20f3a",
          "transactionIndex": "0x10b",
          "logIndex": "0x139",
          "removed": false
        },
        {
          "address": "0x34abd99554ef53edba3b6abebb97df2864cfa07c",
          "topics": [
            "0xddf252ad1be2c89b69c2b068fc378daa952ba7f163c4a11628f55a4df523b3ef",
            "0x000000000000000000000000129aa6ab9afc5135a72cef4868175cf906942a14",
            "0x000000000000000000000000ce23256ae677765a41e8d7e4d099359771615ca4"
          ],
          "data": "0x000000000000000000000000000000000000000000000056bc75e2d631000000",
          "blockHash": "0x96c63b83c501c629753ca12f5d632085c943ce8d1a9fe92dfec9fbd69e463e77",
          "blockNumber": "0x847234",
          "blockTimestamp": "0x6865ddcc",
          "transactionHash": "0xdd5c0c8c5b77acfdd70ba47e3cfa57063cd1dad5682edc4eb8624ae296b20f3a",
          "transactionIndex": "0x10b",
          "logIndex": "0x13a",
          "removed": false
        },
        {
          "address": "0x34abd99554ef53edba3b6abebb97df2864cfa07c",
          "topics": [
            "0x8c5be1e5ebec7d5bd14f71427d1e84f3dd0314c0f7b2291e5b200ac8c7c3b925",
            "0x000000000000000000000000129aa6ab9afc5135a72cef4868175cf906942a14",
            "0x0000000000000000000000005a939425c4f35ccf78db5fcc2711a8e9036a325f"
          ],
          "data": "0x00000000000000000000000000000000000000000008453d7b92b337a2c00000",
          "blockHash": "0x96c63b83c501c629753ca12f5d632085c943ce8d1a9fe92dfec9fbd69e463e77",
          "blockNumber": "0x847234",
          "blockTimestamp": "0x6865ddcc",
          "transactionHash": "0xdd5c0c8c5b77acfdd70ba47e3cfa57063cd1dad5682edc4eb8624ae296b20f3a",
          "transactionIndex": "0x10b",
          "logIndex": "0x13b",
          "removed": false
        },
        {
          "address": "0x34abd99554ef53edba3b6abebb97df2864cfa07c",
          "topics": [
            "0xddf252ad1be2c89b69c2b068fc378daa952ba7f163c4a11628f55a4df523b3ef",
            "0x000000000000000000000000129aa6ab9afc5135a72cef4868175cf906942a14",
            "0x000000000000000000000000ce23256ae677765a41e8d7e4d099359771615ca4"
          ],
          "data": "0x000000000000000000000000000000000000000000000000de0b6b3a76400000",
          "blockHash": "0x96c63b83c501c629753ca12f5d632085c943ce8d1a9fe92dfec9fbd69e463e77",
          "blockNumber": "0x847234",
          "blockTimestamp": "0x6865ddcc",
          "transactionHash": "0xdd5c0c8c5b77acfdd70ba47e3cfa57063cd1dad5682edc4eb8624ae296b20f3a",
          "transactionIndex": "0x10b",
          "logIndex": "0x13c",
          "removed": false
        }
      ],
      "logsBloom": "0x00000000000000000000000000000000000000000000000000400000000000000000000200000002100000000000000000001000000400000000000000200000000030000010000800000008000000000000008000001000002000000000000008000000020080000000000000000800000000000000000000000010000000000000000400000100000000000000001000000800000000000000000000000000020000000400000040000000000000000000000000000001002000080800000000000002000000000000000000000000000000008002000000000100000020000010000004000000000000000000000000000000000000000000000000000000",
      "type": "0x2",
      "transactionHash": "0xdd5c0c8c5b77acfdd70ba47e3cfa57063cd1dad5682edc4eb8624ae296b20f3a",
      "transactionIndex": "0x10b",
      "blockHash": "0x96c63b83c501c629753ca12f5d632085c943ce8d1a9fe92dfec9fbd69e463e77",
      "blockNumber": "0x847234",
      "gasUsed": "0xa3520",
      "effectiveGasPrice": "0x294dc935",
      "from": "0x129aa6ab9afc5135a72cef4868175cf906942a14",
      "to": "0x5a939425c4f35ccf78db5fcc2711a8e9036a325f",
      "contractAddress": null
    }
  ],
  "libraries": [],
  "pending": [],
  "returns": {},
  "timestamp": 1751506382,
  "chain": 11155111,
  "commit": null
}