{
  "transactions": [
    {
      "hash": "0xe3aa3ac44f097ac1cec48d4cdfb512769c9f465935653f965220ebe8a638960d",
      "transactionType": "CALL",
      "contractName": null,
      "contractAddress": "0xceca2e1bca3b27d8435f99f61cea52e51a8ee6cb",
      "function": "putOnSale(uint256,uint256)",
      "arguments": [
        "11",
        "40000000000000000000000"
      ],
      "transaction": {
        "from": "0xce23256ae677765a41e8d7e4d099359771615ca4",
        "to": "0xceca2e1bca3b27d8435f99f61cea52e51a8ee6cb",
        "gas": "0x267ac",
        "value": "0x0",
        "input": "0x36f7992b000000000000000000000000000000000000000000000000000000000000000b000000000000000000000000000000000000000000000878678326eac9000000",
        "nonce": "0x106",
        "chainId": "0xaa36a7"
      },
      "additionalContracts": [],
      "isFixedGasLimit": false
    }
  ],
  "receipts": [
    {
      "status": "0x1",
      "cumulativeGasUsed": "0x16baf0b",
      "logs": [
        {
          "address": "0xceca2e1bca3b27d8435f99f61cea52e51a8ee6cb",
          "topics": [
            "0x7c11ba8301c87f8a6d59779bcbe2b7446e865bd1a4359a69e5c400212e0a5795",
            "0x000000000000000000000000000000000000000000000000000000000000000b"
          ],
          "data": "0x000000000000000000000000000000000000000000000878678326eac9000000",
          "blockHash": "0x8d45071d0d8a5c4764f7de44f44e299495eae75c15aef0bc919460063dba745e",
          "blockNumber": "0x845849",
          "blockTimestamp": "0x6864a62c",
          "transactionHash": "0xe3aa3ac44f097ac1cec48d4cdfb512769c9f465935653f965220ebe8a638960d",
          "transactionIndex": "0x186",
          "logIndex": "0x23c",
          "removed": false
        }
      ],
      "logsBloom": "0x00000000000000000000004000000000000000000000000000000000000000000000000000000000000000000000000000000000000000000000000000000000000000000000000000000000000000000000000100000000000000000000000000000000000000000000000000000040000000000000000000000000000000000000000000000000000000000000000000000000000000040000000000200000000000000000000000000000000000000000000000000000000000000000000000000000000000000000000200000000002000000000000000000000000000000000000000000000000008000000000000000000000000040000000000000000",
      "type": "0x2",
      "transactionHash": "0xe3aa3ac44f097ac1cec48d4cdfb512769c9f465935653f965220ebe8a638960d",
      "transactionIndex": "0x186",
      "blockHash": "0x8d45071d0d8a5c4764f7de44f44e299495eae75c15aef0bc919460063dba745e",
      "blockNumber": "0x845849",
      "gasUsed": "0x1a4f9",
      "effectiveGasPrice": "0x33adfbafc",
      "from": "0xce23256ae677765a41e8d7e4d099359771615ca4",
      "to": "0xceca2e1bca3b27d8435f99f61cea52e51a8ee6cb",
      "contractAddress": null
    }
  ],
  "libraries": [],
  "pending": [],
  "returns": {},
  "timestamp": 1751426603,
  "chain": 11155111,
  "commit": null
}