{
  "transactions": [
    {
      "hash": "0x00f512b7c919073699b116ab3d8db96443a99bcb4d04818e5b152313b8d7cb7a",
      "transactionType": "CALL",
      "contractName": null,
      "contractAddress": "0x64f533e45b9597b5a5c50339b848933c4f433042",
      "function": "buy(uint256,uint256)",
      "arguments": [
        "100",
        "4"
      ],
      "transaction": {
        "from": "0xce23256ae677765a41e8d7e4d099359771615ca4",
        "to": "0x64f533e45b9597b5a5c50339b848933c4f433042",
        "gas": "0xe3533",
        "value": "0x0",
        "input": "0xd6febde800000000000000000000000000000000000000000000000000000000000000640000000000000000000000000000000000000000000000000000000000000004",
        "nonce": "0x86",
        "chainId": "0xaa36a7"
      },
      "additionalContracts": [],
      "isFixedGasLimit": false
    }
  ],
  "receipts": [
    {
      "status": "0x1",
      "cumulativeGasUsed": "0x1afe18b",
      "logs": [
        {
          "address": "0x64f533e45b9597b5a5c50339b848933c4f433042",
          "topics": [
            "0xddf252ad1be2c89b69c2b068fc378daa952ba7f163c4a11628f55a4df523b3ef",
            "0x0000000000000000000000000000000000000000000000000000000000000000",
            "0x000000000000000000000000ce23256ae677765a41e8d7e4d099359771615ca4",
            "0x0000000000000000000000000000000000000000000000000000000000000000"
          ],
          "data": "0x",
          "blockHash": "0xc46b3c505ba8337e39bd9911b7fb8635f4cec1a6d88f51d20b0216d0af5584b5",
          "blockNumber": "0x83a28d",
          "blockTimestamp": "0x685c1850",
          "transactionHash": "0x00f512b7c919073699b116ab3d8db96443a99bcb4d04818e5b152313b8d7cb7a",
          "transactionIndex": "0xef",
          "logIndex": "0x1a5",
          "removed": false
        },
        {
          "address": "0x64f533e45b9597b5a5c50339b848933c4f433042",
          "topics": [
            "0x1cbc5ab135991bd2b6a4b034a04aa2aa086dac1371cb9b16b8b5e2ed6b036bed",
            "0x000000000000000000000000ce23256ae677765a41e8d7e4d099359771615ca4",
            "0x0000000000000000000000000000000000000000000000000000000000000000"
          ],
          "data": "0x0000000000000000000000000000000000000000000000000000000000000064",
          "blockHash": "0xc46b3c505ba8337e39bd9911b7fb8635f4cec1a6d88f51d20b0216d0af5584b5",
          "blockNumber": "0x83a28d",
          "blockTimestamp": "0x685c1850",
          "transactionHash": "0x00f512b7c919073699b116ab3d8db96443a99bcb4d04818e5b152313b8d7cb7a",
          "transactionIndex": "0xef",
          "logIndex": "0x1a6",
          "removed": false
        },
        {
          "address": "0x64f533e45b9597b5a5c50339b848933c4f433042",
          "topics": [
            "0xddf252ad1be2c89b69c2b068fc378daa952ba7f163c4a11628f55a4df523b3ef",
            "0x0000000000000000000000000000000000000000000000000000000000000000",
            "0x000000000000000000000000ce23256ae677765a41e8d7e4d099359771615ca4",
            "0x0000000000000000000000000000000000000000000000000000000000000001"
          ],
          "data": "0x",
          "blockHash": "0xc46b3c505ba8337e39bd9911b7fb8635f4cec1a6d88f51d20b0216d0af5584b5",
          "blockNumber": "0x83a28d",
          "blockTimestamp": "0x685c1850",
          "transactionHash": "0x00f512b7c919073699b116ab3d8db96443a99bcb4d04818e5b152313b8d7cb7a",
          "transactionIndex": "0xef",
          "logIndex": "0x1a7",
          "removed": false
        },
        {
          "address": "0x64f533e45b9597b5a5c50339b848933c4f433042",
          "topics": [
            "0x1cbc5ab135991bd2b6a4b034a04aa2aa086dac1371cb9b16b8b5e2ed6b036bed",
            "0x000000000000000000000000ce23256ae677765a41e8d7e4d099359771615ca4",
            "0x0000000000000000000000000000000000000000000000000000000000000001"
          ],
          "data": "0x0000000000000000000000000000000000000000000000000000000000000064",
          "blockHash": "0xc46b3c505ba8337e39bd9911b7fb8635f4cec1a6d88f51d20b0216d0af5584b5",
          "blockNumber": "0x83a28d",
          "blockTimestamp": "0x685c1850",
          "transactionHash": "0x00f512b7c919073699b116ab3d8db96443a99bcb4d04818e5b152313b8d7cb7a",
          "transactionIndex": "0xef",
          "logIndex": "0x1a8",
          "removed": false
        },
        {
          "address": "0x64f533e45b9597b5a5c50339b848933c4f433042",
          "topics": [
            "0xddf252ad1be2c89b69c2b068fc378daa952ba7f163c4a11628f55a4df523b3ef",
            "0x0000000000000000000000000000000000000000000000000000000000000000",
            "0x000000000000000000000000ce23256ae677765a41e8d7e4d099359771615ca4",
            "0x0000000000000000000000000000000000000000000000000000000000000002"
          ],
          "data": "0x",
          "blockHash": "0xc46b3c505ba8337e39bd9911b7fb8635f4cec1a6d88f51d20b0216d0af5584b5",
          "blockNumber": "0x83a28d",
          "blockTimestamp": "0x685c1850",
          "transactionHash": "0x00f512b7c919073699b116ab3d8db96443a99bcb4d04818e5b152313b8d7cb7a",
          "transactionIndex": "0xef",
          "logIndex": "0x1a9",
          "removed": false
        },
        {
          "address": "0x64f533e45b9597b5a5c50339b848933c4f433042",
          "topics": [
            "0x1cbc5ab135991bd2b6a4b034a04aa2aa086dac1371cb9b16b8b5e2ed6b036bed",
            "0x000000000000000000000000ce23256ae677765a41e8d7e4d099359771615ca4",
            "0x0000000000000000000000000000000000000000000000000000000000000002"
          ],
          "data": "0x0000000000000000000000000000000000000000000000000000000000000064",
          "blockHash": "0xc46b3c505ba8337e39bd9911b7fb8635f4cec1a6d88f51d20b0216d0af5584b5",
          "blockNumber": "0x83a28d",
          "blockTimestamp": "0x685c1850",
          "transactionHash": "0x00f512b7c919073699b116ab3d8db96443a99bcb4d04818e5b152313b8d7cb7a",
          "transactionIndex": "0xef",
          "logIndex": "0x1aa",
          "removed": false
        },
        {
          "address": "0x64f533e45b9597b5a5c50339b848933c4f433042",
          "topics": [
            "0xddf252ad1be2c89b69c2b068fc378daa952ba7f163c4a11628f55a4df523b3ef",
            "0x0000000000000000000000000000000000000000000000000000000000000000",
            "0x000000000000000000000000ce23256ae677765a41e8d7e4d099359771615ca4",
            "0x0000000000000000000000000000000000000000000000000000000000000003"
          ],
          "data": "0x",
          "blockHash": "0xc46b3c505ba8337e39bd9911b7fb8635f4cec1a6d88f51d20b0216d0af5584b5",
          "blockNumber": "0x83a28d",
          "blockTimestamp": "0x685c1850",
          "transactionHash": "0x00f512b7c919073699b116ab3d8db96443a99bcb4d04818e5b152313b8d7cb7a",
          "transactionIndex": "0xef",
          "logIndex": "0x1ab",
          "removed": false
        },
        {
          "address": "0x64f533e45b9597b5a5c50339b848933c4f433042",
          "topics": [
            "0x1cbc5ab135991bd2b6a4b034a04aa2aa086dac1371cb9b16b8b5e2ed6b036bed",
            "0x000000000000000000000000ce23256ae677765a41e8d7e4d099359771615ca4",
            "0x0000000000000000000000000000000000000000000000000000000000000003"
          ],
          "data": "0x0000000000000000000000000000000000000000000000000000000000000064",
          "blockHash": "0xc46b3c505ba8337e39bd9911b7fb8635f4cec1a6d88f51d20b0216d0af5584b5",
          "blockNumber": "0x83a28d",
          "blockTimestamp": "0x685c1850",
          "transactionHash": "0x00f512b7c919073699b116ab3d8db96443a99bcb4d04818e5b152313b8d7cb7a",
          "transactionIndex": "0xef",
          "logIndex": "0x1ac",
          "removed": false
        }
      ],
      "logsBloom": "0x04000000000000000000000000000000000000000000000000400000000000000000000200000000000000000000000000000000020000000000000800040000000000000000000000000008000000000000000000041000000000000000000000000000020000000000000000000800000000000000000000000010000000000000000000000100000000000000000000000000000000000000000000000000000000000400000040000100000000000000000000800000000000000000400000000002000000000000000000000000000100000000000000000000000060000000000000000000000000000000000000000000008000000000000100000000",
      "type": "0x2",
      "transactionHash": "0x00f512b7c919073699b116ab3d8db96443a99bcb4d04818e5b152313b8d7cb7a",
      "transactionIndex": "0xef",
      "blockHash": "0xc46b3c505ba8337e39bd9911b7fb8635f4cec1a6d88f51d20b0216d0af5584b5",
      "blockNumber": "0x83a28d",
      "gasUsed": "0x9b6fa",
      "effectiveGasPrice": "0xed9fcedc",
      "from": "0xce23256ae677765a41e8d7e4d099359771615ca4",
      "to": "0x64f533e45b9597b5a5c50339b848933c4f433042",
      "contractAddress": null
    }
  ],
  "libraries": [],
  "pending": [],
  "returns": {},
  "timestamp": 1750865993,
  "chain": 11155111,
  "commit": null
}