{
  "transactions": [
    {
      "hash": "0x16fd4fe188a598fa4614bfee6829ed73795da9b76cac477188c1d7043ae47381",
      "transactionType": "CALL",
      "contractName": null,
      "contractAddress": "0x64f533e45b9597b5a5c50339b848933c4f433042",
      "function": "buy(uint256,uint256)",
      "arguments": [
        "100",
        "4"
      ],
      "transaction": {
        "from": "0xce23256ae677765a41e8d7e4d099359771615ca4",
        "to": "0x64f533e45b9597b5a5c50339b848933c4f433042",
        "gas": "0xd3c30",
        "value": "0x0",
        "input": "0xd6febde800000000000000000000000000000000000000000000000000000000000000640000000000000000000000000000000000000000000000000000000000000004",
        "nonce": "0x89",
        "chainId": "0xaa36a7"
      },
      "additionalContracts": [],
      "isFixedGasLimit": false
    }
  ],
  "receipts": [
    {
      "status": "0x1",
      "cumulativeGasUsed": "0xba9b95",
      "logs": [
        {
          "address": "0x64f533e45b9597b5a5c50339b848933c4f433042",
          "topics": [
            "0xddf252ad1be2c89b69c2b068fc378daa952ba7f163c4a11628f55a4df523b3ef",
            "0x0000000000000000000000000000000000000000000000000000000000000000",
            "0x000000000000000000000000ce23256ae677765a41e8d7e4d099359771615ca4",
            "0x0000000000000000000000000000000000000000000000000000000000000004"
          ],
          "data": "0x",
          "blockHash": "0x65be75c38d7b4afadf29ecb69fd37b242288ee7082b519fab1e174cb903a34aa",
          "blockNumber": "0x83a2c9",
          "blockTimestamp": "0x685c1b20",
          "transactionHash": "0x16fd4fe188a598fa4614bfee6829ed73795da9b76cac477188c1d7043ae47381",
          "transactionIndex": "0x6c",
          "logIndex": "0xc1",
          "removed": false
        },
        {
          "address": "0x64f533e45b9597b5a5c50339b848933c4f433042",
          "topics": [
            "0x1cbc5ab135991bd2b6a4b034a04aa2aa086dac1371cb9b16b8b5e2ed6b036bed",
            "0x000000000000000000000000ce23256ae677765a41e8d7e4d099359771615ca4",
            "0x0000000000000000000000000000000000000000000000000000000000000004"
          ],
          "data": "0x0000000000000000000000000000000000000000000000000000000000000064",
          "blockHash": "0x65be75c38d7b4afadf29ecb69fd37b242288ee7082b519fab1e174cb903a34aa",
          "blockNumber": "0x83a2c9",
          "blockTimestamp": "0x685c1b20",
          "transactionHash": "0x16fd4fe188a598fa4614bfee6829ed73795da9b76cac477188c1d7043ae47381",
          "transactionIndex": "0x6c",
          "logIndex": "0xc2",
          "removed": false
        },
        {
          "address": "0x64f533e45b9597b5a5c50339b848933c4f433042",
          "topics": [
            "0xddf252ad1be2c89b69c2b068fc378daa952ba7f163c4a11628f55a4df523b3ef",
            "0x0000000000000000000000000000000000000000000000000000000000000000",
            "0x000000000000000000000000ce23256ae677765a41e8d7e4d099359771615ca4",
            "0x0000000000000000000000000000000000000000000000000000000000000005"
          ],
          "data": "0x",
          "blockHash": "0x65be75c38d7b4afadf29ecb69fd37b242288ee7082b519fab1e174cb903a34aa",
          "blockNumber": "0x83a2c9",
          "blockTimestamp": "0x685c1b20",
          "transactionHash": "0x16fd4fe188a598fa4614bfee6829ed73795da9b76cac477188c1d7043ae47381",
          "transactionIndex": "0x6c",
          "logIndex": "0xc3",
          "removed": false
        },
        {
          "address": "0x64f533e45b9597b5a5c50339b848933c4f433042",
          "topics": [
            "0x1cbc5ab135991bd2b6a4b034a04aa2aa086dac1371cb9b16b8b5e2ed6b036bed",
            "0x000000000000000000000000ce23256ae677765a41e8d7e4d099359771615ca4",
            "0x0000000000000000000000000000000000000000000000000000000000000005"
          ],
          "data": "0x0000000000000000000000000000000000000000000000000000000000000064",
          "blockHash": "0x65be75c38d7b4afadf29ecb69fd37b242288ee7082b519fab1e174cb903a34aa",
          "blockNumber": "0x83a2c9",
          "blockTimestamp": "0x685c1b20",
          "transactionHash": "0x16fd4fe188a598fa4614bfee6829ed73795da9b76cac477188c1d7043ae47381",
          "transactionIndex": "0x6c",
          "logIndex": "0xc4",
          "removed": false
        },
        {
          "address": "0x64f533e45b9597b5a5c50339b848933c4f433042",
          "topics": [
            "0xddf252ad1be2c89b69c2b068fc378daa952ba7f163c4a11628f55a4df523b3ef",
            "0x0000000000000000000000000000000000000000000000000000000000000000",
            "0x000000000000000000000000ce23256ae677765a41e8d7e4d099359771615ca4",
            "0x0000000000000000000000000000000000000000000000000000000000000006"
          ],
          "data": "0x",
          "blockHash": "0x65be75c38d7b4afadf29ecb69fd37b242288ee7082b519fab1e174cb903a34aa",
          "blockNumber": "0x83a2c9",
          "blockTimestamp": "0x685c1b20",
          "transactionHash": "0x16fd4fe188a598fa4614bfee6829ed73795da9b76cac477188c1d7043ae47381",
          "transactionIndex": "0x6c",
          "logIndex": "0xc5",
          "removed": false
        },
        {
          "address": "0x64f533e45b9597b5a5c50339b848933c4f433042",
          "topics": [
            "0x1cbc5ab135991bd2b6a4b034a04aa2aa086dac1371cb9b16b8b5e2ed6b036bed",
            "0x000000000000000000000000ce23256ae677765a41e8d7e4d099359771615ca4",
            "0x0000000000000000000000000000000000000000000000000000000000000006"
          ],
          "data": "0x0000000000000000000000000000000000000000000000000000000000000064",
          "blockHash": "0x65be75c38d7b4afadf29ecb69fd37b242288ee7082b519fab1e174cb903a34aa",
          "blockNumber": "0x83a2c9",
          "blockTimestamp": "0x685c1b20",
          "transactionHash": "0x16fd4fe188a598fa4614bfee6829ed73795da9b76cac477188c1d7043ae47381",
          "transactionIndex": "0x6c",
          "logIndex": "0xc6",
          "removed": false
        },
        {
          "address": "0x64f533e45b9597b5a5c50339b848933c4f433042",
          "topics": [
            "0xddf252ad1be2c89b69c2b068fc378daa952ba7f163c4a11628f55a4df523b3ef",
            "0x0000000000000000000000000000000000000000000000000000000000000000",
            "0x000000000000000000000000ce23256ae677765a41e8d7e4d099359771615ca4",
            "0x0000000000000000000000000000000000000000000000000000000000000007"
          ],
          "data": "0x",
          "blockHash": "0x65be75c38d7b4afadf29ecb69fd37b242288ee7082b519fab1e174cb903a34aa",
          "blockNumber": "0x83a2c9",
          "blockTimestamp": "0x685c1b20",
          "transactionHash": "0x16fd4fe188a598fa4614bfee6829ed73795da9b76cac477188c1d7043ae47381",
          "transactionIndex": "0x6c",
          "logIndex": "0xc7",
          "removed": false
        },
        {
          "address": "0x64f533e45b9597b5a5c50339b848933c4f433042",
          "topics": [
            "0x1cbc5ab135991bd2b6a4b034a04aa2aa086dac1371cb9b16b8b5e2ed6b036bed",
            "0x000000000000000000000000ce23256ae677765a41e8d7e4d099359771615ca4",
            "0x0000000000000000000000000000000000000000000000000000000000000007"
          ],
          "data": "0x0000000000000000000000000000000000000000000000000000000000000064",
          "blockHash": "0x65be75c38d7b4afadf29ecb69fd37b242288ee7082b519fab1e174cb903a34aa",
          "blockNumber": "0x83a2c9",
          "blockTimestamp": "0x685c1b20",
          "transactionHash": "0x16fd4fe188a598fa4614bfee6829ed73795da9b76cac477188c1d7043ae47381",
          "transactionIndex": "0x6c",
          "logIndex": "0xc8",
          "removed": false
        }
      ],
      "logsBloom": "0x00000000000000000000000000000000000000000000000000400000000000000000000200000000000000000000000000001000000400000000000800000000000030000000000000000008000000000000000000001000000000000000000008000000020000000000000000000800000000000000000000000010000000000000000400000100000000000000001000000800000000000000000000000000000000000400000040000000000000000000000000000000002000080000000000000002000000000000000000000000000100008000000000000100000020000000000000000000000000000000000000000000000000000000000100000000",
      "type": "0x2",
      "transactionHash": "0x16fd4fe188a598fa4614bfee6829ed73795da9b76cac477188c1d7043ae47381",
      "transactionIndex": "0x6c",
      "blockHash": "0x65be75c38d7b4afadf29ecb69fd37b242288ee7082b519fab1e174cb903a34aa",
      "blockNumber": "0x83a2c9",
      "gasUsed": "0x994fe",
      "effectiveGasPrice": "0x1bacff50d",
      "from": "0xce23256ae677765a41e8d7e4d099359771615ca4",
      "to": "0x64f533e45b9597b5a5c50339b848933c4f433042",
      "contractAddress": null
    }
  ],
  "libraries": [],
  "pending": [],
  "returns": {},
  "timestamp": 1750866713,
  "chain": 11155111,
  "commit": null
}