{
  "transactions": [
    {
      "hash": "0x5690b8bda7ee43b074d5e0ec1d417e2870441e908d81112a4d022df0d4bd5ead",
      "transactionType": "CALL",
      "contractName": null,
      "contractAddress": "0x80cf106b844597ccd7689790167835dd64de0e99",
      "function": "putOnSale(uint256,uint256)",
      "arguments": [
        "5",
        "4000"
      ],
      "transaction": {
        "from": "0xce23256ae677765a41e8d7e4d099359771615ca4",
        "to": "0x80cf106b844597ccd7689790167835dd64de0e99",
        "gas": "0x23d14",
        "value": "0x0",
        "input": "0x36f7992b00000000000000000000000000000000000000000000000000000000000000050000000000000000000000000000000000000000000000000000000000000fa0",
        "nonce": "0xb3",
        "chainId": "0xaa36a7"
      },
      "additionalContracts": [],
      "isFixedGasLimit": false
    }
  ],
  "receipts": [
    {
      "status": "0x1",
      "cumulativeGasUsed": "0x12333a1",
      "logs": [
        {
          "address": "0x80cf106b844597ccd7689790167835dd64de0e99",
          "topics": [
            "0x7c11ba8301c87f8a6d59779bcbe2b7446e865bd1a4359a69e5c400212e0a5795",
            "0x0000000000000000000000000000000000000000000000000000000000000005"
          ],
          "data": "0x0000000000000000000000000000000000000000000000000000000000000fa0",
          "blockHash": "0x631a8227fddb6aba8e5270dedff292a5a1296ad06974f51271c375ff0ab6ce08",
          "blockNumber": "0x83a88a",
          "blockTimestamp": "0x685c6044",
          "transactionHash": "0x5690b8bda7ee43b074d5e0ec1d417e2870441e908d81112a4d022df0d4bd5ead",
          "transactionIndex": "0x7b",
          "logIndex": "0xea",
          "removed": false
        }
      ],
      "logsBloom": "0x00000000000000000000000000000000000000000000000000000000000000000008000000000000000000000000000000000000000000000000000000000000000010008000000000000000000000000000000100000000000000000000000000000000000000000000000000000000000000000000000000000000000000000000000000000000000000000000001000000800000000000000000000200000000000000000000000000000000000000000000000000000000000000000000000000000000000000000000200000000000000000000000000080000000000000000000000000000000000000000000000000000000000000000000000000000",
      "type": "0x2",
      "transactionHash": "0x5690b8bda7ee43b074d5e0ec1d417e2870441e908d81112a4d022df0d4bd5ead",
      "transactionIndex": "0x7b",
      "blockHash": "0x631a8227fddb6aba8e5270dedff292a5a1296ad06974f51271c375ff0ab6ce08",
      "blockNumber": "0x83a88a",
      "gasUsed": "0x187da",
      "effectiveGasPrice": "0xde531b4",
      "from": "0xce23256ae677765a41e8d7e4d099359771615ca4",
      "to": "0x80cf106b844597ccd7689790167835dd64de0e99",
      "contractAddress": null
    }
  ],
  "libraries": [],
  "pending": [],
  "returns": {},
  "timestamp": 1750884420,
  "chain": 11155111,
  "commit": null
}