{
  "transactions": [
    {
      "hash": "0x6fc8161d8f801a65fb870535680e2ade1f435962a7fbbf80dc4f6e6a2368c404",
      "transactionType": "CALL",
      "contractName": null,
      "contractAddress": "0x560cb009b499015cadfab0a75b645183fdab44a6",
      "function": "putOnSale(uint256,uint256)",
      "arguments": [
        "2",
        "4000"
      ],
      "transaction": {
        "from": "0xce23256ae677765a41e8d7e4d099359771615ca4",
        "to": "0x560cb009b499015cadfab0a75b645183fdab44a6",
        "gas": "0x21270",
        "value": "0x0",
        "input": "0x36f7992b00000000000000000000000000000000000000000000000000000000000000020000000000000000000000000000000000000000000000000000000000000fa0",
        "nonce": "0xa1",
        "chainId": "0xaa36a7"
      },
      "additionalContracts": [],
      "isFixedGasLimit": false
    }
  ],
  "receipts": [
    {
      "status": "0x1",
      "cumulativeGasUsed": "0x1acae09",
      "logs": [
        {
          "address": "0x560cb009b499015cadfab0a75b645183fdab44a6",
          "topics": [
            "0x7c11ba8301c87f8a6d59779bcbe2b7446e865bd1a4359a69e5c400212e0a5795",
            "0x0000000000000000000000000000000000000000000000000000000000000002"
          ],
          "data": "0x0000000000000000000000000000000000000000000000000000000000000fa0",
          "blockHash": "0x2f4285411e89b815b695be6e2ac2edb6ff20d0630cf98df36083606e4100785d",
          "blockNumber": "0x83a6c9",
          "blockTimestamp": "0x685c4b20",
          "transactionHash": "0x6fc8161d8f801a65fb870535680e2ade1f435962a7fbbf80dc4f6e6a2368c404",
          "transactionIndex": "0x84",
          "logIndex": "0xf1",
          "removed": false
        }
      ],
      "logsBloom": "0x04000000000000000000000000000000000000000000000000000000000000000000000000000000000000000000000000000000000000000000000000000000000000000000000008000000000000000000000100000000000000000000000000000000000000000000000000080000000000000000000000000000000000000000000000000000000000000000000000000000000000000000000000200000000000000000000000000100000000000000000000000800000000000000000000000000000000000000000200000000000000000000000000000000000000000000000000000000000000000000000000000000008000000000000000000000",
      "type": "0x2",
      "transactionHash": "0x6fc8161d8f801a65fb870535680e2ade1f435962a7fbbf80dc4f6e6a2368c404",
      "transactionIndex": "0x84",
      "blockHash": "0x2f4285411e89b815b695be6e2ac2edb6ff20d0630cf98df36083606e4100785d",
      "blockNumber": "0x83a6c9",
      "gasUsed": "0x16ab2",
      "effectiveGasPrice": "0x171ef620",
      "from": "0xce23256ae677765a41e8d7e4d099359771615ca4",
      "to": "0x560cb009b499015cadfab0a75b645183fdab44a6",
      "contractAddress": null
    }
  ],
  "libraries": [],
  "pending": [],
  "returns": {},
  "timestamp": 1750879002,
  "chain": 11155111,
  "commit": null
}