{
  "transactions": [
    {
      "hash": "0x1958a4b9e79e250a42b65ce3b246315b1cd06bf03a0349ad62dde714b0591b33",
      "transactionType": "CALL",
      "contractName": null,
      "contractAddress": "0xceca2e1bca3b27d8435f99f61cea52e51a8ee6cb",
      "function": "buy(uint256,uint256)",
      "arguments": [
        "40000000000000000000000",
        "4"
      ],
      "transaction": {
        "from": "0xce23256ae677765a41e8d7e4d099359771615ca4",
        "to": "0xceca2e1bca3b27d8435f99f61cea52e51a8ee6cb",
        "gas": "0xed4d9",
        "value": "0x0",
        "input": "0xd6febde8000000000000000000000000000000000000000000000878678326eac90000000000000000000000000000000000000000000000000000000000000000000004",
        "nonce": "0x109",
        "chainId": "0xaa36a7"
      },
      "additionalContracts": [],
      "isFixedGasLimit": false
    }
  ],
  "receipts": [
    {
      "status": "0x1",
      "cumulativeGasUsed": "0xff404a",
      "logs": [
        {
          "address": "0xceca2e1bca3b27d8435f99f61cea52e51a8ee6cb",
          "topics": [
            "0xddf252ad1be2c89b69c2b068fc378daa952ba7f163c4a11628f55a4df523b3ef",
            "0x0000000000000000000000000000000000000000000000000000000000000000",
            "0x000000000000000000000000ce23256ae677765a41e8d7e4d099359771615ca4",
            "0x000000000000000000000000000000000000000000000000000000000000000c"
          ],
          "data": "0x",
          "blockHash": "0x3e190cecbdb48ad8f73ed1a3584b395ee311c9405a6f08533882f4a0d3a430eb",
          "blockNumber": "0x845909",
          "blockTimestamp": "0x6864af2c",
          "transactionHash": "0x1958a4b9e79e250a42b65ce3b246315b1cd06bf03a0349ad62dde714b0591b33",
          "transactionIndex": "0x14b",
          "logIndex": "0x173",
          "removed": false
        },
        {
          "address": "0xceca2e1bca3b27d8435f99f61cea52e51a8ee6cb",
          "topics": [
            "0x1cbc5ab135991bd2b6a4b034a04aa2aa086dac1371cb9b16b8b5e2ed6b036bed",
            "0x000000000000000000000000ce23256ae677765a41e8d7e4d099359771615ca4",
            "0x000000000000000000000000000000000000000000000000000000000000000c"
          ],
          "data": "0x000000000000000000000000000000000000000000000878678326eac9000000",
          "blockHash": "0x3e190cecbdb48ad8f73ed1a3584b395ee311c9405a6f08533882f4a0d3a430eb",
          "blockNumber": "0x845909",
          "blockTimestamp": "0x6864af2c",
          "transactionHash": "0x1958a4b9e79e250a42b65ce3b246315b1cd06bf03a0349ad62dde714b0591b33",
          "transactionIndex": "0x14b",
          "logIndex": "0x174",
          "removed": false
        },
        {
          "address": "0xceca2e1bca3b27d8435f99f61cea52e51a8ee6cb",
          "topics": [
            "0xddf252ad1be2c89b69c2b068fc378daa952ba7f163c4a11628f55a4df523b3ef",
            "0x0000000000000000000000000000000000000000000000000000000000000000",
            "0x000000000000000000000000ce23256ae677765a41e8d7e4d099359771615ca4",
            "0x000000000000000000000000000000000000000000000000000000000000000d"
          ],
          "data": "0x",
          "blockHash": "0x3e190cecbdb48ad8f73ed1a3584b395ee311c9405a6f08533882f4a0d3a430eb",
          "blockNumber": "0x845909",
          "blockTimestamp": "0x6864af2c",
          "transactionHash": "0x1958a4b9e79e250a42b65ce3b246315b1cd06bf03a0349ad62dde714b0591b33",
          "transactionIndex": "0x14b",
          "logIndex": "0x175",
          "removed": false
        },
        {
          "address": "0xceca2e1bca3b27d8435f99f61cea52e51a8ee6cb",
          "topics": [
            "0x1cbc5ab135991bd2b6a4b034a04aa2aa086dac1371cb9b16b8b5e2ed6b036bed",
            "0x000000000000000000000000ce23256ae677765a41e8d7e4d099359771615ca4",
            "0x000000000000000000000000000000000000000000000000000000000000000d"
          ],
          "data": "0x000000000000000000000000000000000000000000000878678326eac9000000",
          "blockHash": "0x3e190cecbdb48ad8f73ed1a3584b395ee311c9405a6f08533882f4a0d3a430eb",
          "blockNumber": "0x845909",
          "blockTimestamp": "0x6864af2c",
          "transactionHash": "0x1958a4b9e79e250a42b65ce3b246315b1cd06bf03a0349ad62dde714b0591b33",
          "transactionIndex": "0x14b",
          "logIndex": "0x176",
          "removed": false
        },
        {
          "address": "0xceca2e1bca3b27d8435f99f61cea52e51a8ee6cb",
          "topics": [
            "0xddf252ad1be2c89b69c2b068fc378daa952ba7f163c4a11628f55a4df523b3ef",
            "0x0000000000000000000000000000000000000000000000000000000000000000",
            "0x000000000000000000000000ce23256ae677765a41e8d7e4d099359771615ca4",
            "0x000000000000000000000000000000000000000000000000000000000000000e"
          ],
          "data": "0x",
          "blockHash": "0x3e190cecbdb48ad8f73ed1a3584b395ee311c9405a6f08533882f4a0d3a430eb",
          "blockNumber": "0x845909",
          "blockTimestamp": "0x6864af2c",
          "transactionHash": "0x1958a4b9e79e250a42b65ce3b246315b1cd06bf03a0349ad62dde714b0591b33",
          "transactionIndex": "0x14b",
          "logIndex": "0x177",
          "removed": false
        },
        {
          "address": "0xceca2e1bca3b27d8435f99f61cea52e51a8ee6cb",
          "topics": [
            "0x1cbc5ab135991bd2b6a4b034a04aa2aa086dac1371cb9b16b8b5e2ed6b036bed",
            "0x000000000000000000000000ce23256ae677765a41e8d7e4d099359771615ca4",
            "0x000000000000000000000000000000000000000000000000000000000000000e"
          ],
          "data": "0x000000000000000000000000000000000000000000000878678326eac9000000",
          "blockHash": "0x3e190cecbdb48ad8f73ed1a3584b395ee311c9405a6f08533882f4a0d3a430eb",
          "blockNumber": "0x845909",
          "blockTimestamp": "0x6864af2c",
          "transactionHash": "0x1958a4b9e79e250a42b65ce3b246315b1cd06bf03a0349ad62dde714b0591b33",
          "transactionIndex": "0x14b",
          "logIndex": "0x178",
          "removed": false
        },
        {
          "address": "0xceca2e1bca3b27d8435f99f61cea52e51a8ee6cb",
          "topics": [
            "0xddf252ad1be2c89b69c2b068fc378daa952ba7f163c4a11628f55a4df523b3ef",
            "0x0000000000000000000000000000000000000000000000000000000000000000",
            "0x000000000000000000000000ce23256ae677765a41e8d7e4d099359771615ca4",
            "0x000000000000000000000000000000000000000000000000000000000000000f"
          ],
          "data": "0x",
          "blockHash": "0x3e190cecbdb48ad8f73ed1a3584b395ee311c9405a6f08533882f4a0d3a430eb",
          "blockNumber": "0x845909",
          "blockTimestamp": "0x6864af2c",
          "transactionHash": "0x1958a4b9e79e250a42b65ce3b246315b1cd06bf03a0349ad62dde714b0591b33",
          "transactionIndex": "0x14b",
          "logIndex": "0x179",
          "removed": false
        },
        {
          "address": "0xceca2e1bca3b27d8435f99f61cea52e51a8ee6cb",
          "topics": [
            "0x1cbc5ab135991bd2b6a4b034a04aa2aa086dac1371cb9b16b8b5e2ed6b036bed",
            "0x000000000000000000000000ce23256ae677765a41e8d7e4d099359771615ca4",
            "0x000000000000000000000000000000000000000000000000000000000000000f"
          ],
          "data": "0x000000000000000000000000000000000000000000000878678326eac9000000",
          "blockHash": "0x3e190cecbdb48ad8f73ed1a3584b395ee311c9405a6f08533882f4a0d3a430eb",
          "blockNumber": "0x845909",
          "blockTimestamp": "0x6864af2c",
          "transactionHash": "0x1958a4b9e79e250a42b65ce3b246315b1cd06bf03a0349ad62dde714b0591b33",
          "transactionIndex": "0x14b",
          "logIndex": "0x17a",
          "removed": false
        },
        {
          "address": "0x34abd99554ef53edba3b6abebb97df2864cfa07c",
          "topics": [
            "0x8c5be1e5ebec7d5bd14f71427d1e84f3dd0314c0f7b2291e5b200ac8c7c3b925",
            "0x000000000000000000000000ce23256ae677765a41e8d7e4d099359771615ca4",
            "0x000000000000000000000000ceca2e1bca3b27d8435f99f61cea52e51a8ee6cb"
          ],
          "data": "0x00000000000000000000000000000000000000000008017b1d84e71bd1000000",
          "blockHash": "0x3e190cecbdb48ad8f73ed1a3584b395ee311c9405a6f08533882f4a0d3a430eb",
          "blockNumber": "0x845909",
          "blockTimestamp": "0x6864af2c",
          "transactionHash": "0x1958a4b9e79e250a42b65ce3b246315b1cd06bf03a0349ad62dde714b0591b33",
          "transactionIndex": "0x14b",
          "logIndex": "0x17b",
          "removed": false
        },
        {
          "address": "0x34abd99554ef53edba3b6abebb97df2864cfa07c",
          "topics": [
            "0xddf252ad1be2c89b69c2b068fc378daa952ba7f163c4a11628f55a4df523b3ef",
            "0x000000000000000000000000ce23256ae677765a41e8d7e4d099359771615ca4",
            "0x0000000000000000000000008d6051dedbe3b08590674b0c4324c1d8b3ad2a00"
          ],
          "data": "0x0000000000000000000000000000000000000000000021e19e0c9bab24000000",
          "blockHash": "0x3e190cecbdb48ad8f73ed1a3584b395ee311c9405a6f08533882f4a0d3a430eb",
          "blockNumber": "0x845909",
          "blockTimestamp": "0x6864af2c",
          "transactionHash": "0x1958a4b9e79e250a42b65ce3b246315b1cd06bf03a0349ad62dde714b0591b33",
          "transactionIndex": "0x14b",
          "logIndex": "0x17c",
          "removed": false
        },
        {
          "address": "0x34abd99554ef53edba3b6abebb97df2864cfa07c",
          "topics": [
            "0x8c5be1e5ebec7d5bd14f71427d1e84f3dd0314c0f7b2291e5b200ac8c7c3b925",
            "0x000000000000000000000000ce23256ae677765a41e8d7e4d099359771615ca4",
            "0x000000000000000000000000ceca2e1bca3b27d8435f99f61cea52e51a8ee6cb"
          ],
          "data": "0x000000000000000000000000000000000000000000080124610f0445a0000000",
          "blockHash": "0x3e190cecbdb48ad8f73ed1a3584b395ee311c9405a6f08533882f4a0d3a430eb",
          "blockNumber": "0x845909",
          "blockTimestamp": "0x6864af2c",
          "transactionHash": "0x1958a4b9e79e250a42b65ce3b246315b1cd06bf03a0349ad62dde714b0591b33",
          "transactionIndex": "0x14b",
          "logIndex": "0x17d",
          "removed": false
        },
        {
          "address": "0x34abd99554ef53edba3b6abebb97df2864cfa07c",
          "topics": [
            "0xddf252ad1be2c89b69c2b068fc378daa952ba7f163c4a11628f55a4df523b3ef",
            "0x000000000000000000000000ce23256ae677765a41e8d7e4d099359771615ca4",
            "0x0000000000000000000000008d6051dedbe3b08590674b0c4324c1d8b3ad2a00"
          ],
          "data": "0x000000000000000000000000000000000000000000000056bc75e2d631000000",
          "blockHash": "0x3e190cecbdb48ad8f73ed1a3584b395ee311c9405a6f08533882f4a0d3a430eb",
          "blockNumber": "0x845909",
          "blockTimestamp": "0x6864af2c",
          "transactionHash": "0x1958a4b9e79e250a42b65ce3b246315b1cd06bf03a0349ad62dde714b0591b33",
          "transactionIndex": "0x14b",
          "logIndex": "0x17e",
          "removed": false
        }
      ],
      "logsBloom": "0x00000000000000000040000000000000000002000000000000400000000000000200000200000200000000000000000000000000000000000000000000200000000000000000000800000008000000000002008000001000000000000002000000000000020000000000000000000840200000000000000000000010000020000000000000000900000000000000000008000000000000040000000000000000020000000400000040000000000080000000000000008020000000000000000000000002000000000000000000000000000000000002000000000000000020220010000204000000080008000000000000000000000000000000000000000000",
      "type": "0x2",
      "transactionHash": "0x1958a4b9e79e250a42b65ce3b246315b1cd06bf03a0349ad62dde714b0591b33",
      "transactionIndex": "0x14b",
      "blockHash": "0x3e190cecbdb48ad8f73ed1a3584b395ee311c9405a6f08533882f4a0d3a430eb",
      "blockNumber": "0x845909",
      "gasUsed": "0xa2423",
      "effectiveGasPrice": "0x55cd322ba",
      "from": "0xce23256ae677765a41e8d7e4d099359771615ca4",
      "to": "0xceca2e1bca3b27d8435f99f61cea52e51a8ee6cb",
      "contractAddress": null
    }
  ],
  "libraries": [],
  "pending": [],
  "returns": {},
  "timestamp": 1751428907,
  "chain": 11155111,
  "commit": null
}