{
  "transactions": [
    {
      "hash": "0x572a58924e0c07fac9f42ee5819ade7d9e4408b23bc886a885f702da02433b5c",
      "transactionType": "CALL",
      "contractName": null,
      "contractAddress": "0x04de9eb6d60337dce0f98675703627a8942d0e8a",
      "function": "buy(uint256,uint256)",
      "arguments": [
        "100000000000000000000",
        "4"
      ],
      "transaction": {
        "from": "0xce23256ae677765a41e8d7e4d099359771615ca4",
        "to": "0x04de9eb6d60337dce0f98675703627a8942d0e8a",
        "gas": "0xe3060",
        "value": "0x0",
        "input": "0xd6febde80000000000000000000000000000000000000000000000056bc75e2d631000000000000000000000000000000000000000000000000000000000000000000004",
        "nonce": "0xf4",
        "chainId": "0xaa36a7"
      },
      "additionalContracts": [],
      "isFixedGasLimit": false
    }
  ],
  "receipts": [
    {
      "status": "0x1",
      "cumulativeGasUsed": "0xc3c203",
      "logs": [
        {
          "address": "0x04de9eb6d60337dce0f98675703627a8942d0e8a",
          "topics": [
            "0xddf252ad1be2c89b69c2b068fc378daa952ba7f163c4a11628f55a4df523b3ef",
            "0x0000000000000000000000000000000000000000000000000000000000000000",
            "0x000000000000000000000000ce23256ae677765a41e8d7e4d099359771615ca4",
            "0x0000000000000000000000000000000000000000000000000000000000000000"
          ],
          "data": "0x",
          "blockHash": "0x7b9605f24101b4518de2e7472d8ff367bcc9c7cece1bcf697245c26f99a969a0",
          "blockNumber": "0x83baa2",
          "blockTimestamp": "0x685d3b08",
          "transactionHash": "0x572a58924e0c07fac9f42ee5819ade7d9e4408b23bc886a885f702da02433b5c",
          "transactionIndex": "0x81",
          "logIndex": "0xcb",
          "removed": false
        },
        {
          "address": "0x04de9eb6d60337dce0f98675703627a8942d0e8a",
          "topics": [
            "0x1cbc5ab135991bd2b6a4b034a04aa2aa086dac1371cb9b16b8b5e2ed6b036bed",
            "0x000000000000000000000000ce23256ae677765a41e8d7e4d099359771615ca4",
            "0x0000000000000000000000000000000000000000000000000000000000000000"
          ],
          "data": "0x0000000000000000000000000000000000000000000000056bc75e2d63100000",
          "blockHash": "0x7b9605f24101b4518de2e7472d8ff367bcc9c7cece1bcf697245c26f99a969a0",
          "blockNumber": "0x83baa2",
          "blockTimestamp": "0x685d3b08",
          "transactionHash": "0x572a58924e0c07fac9f42ee5819ade7d9e4408b23bc886a885f702da02433b5c",
          "transactionIndex": "0x81",
          "logIndex": "0xcc",
          "removed": false
        },
        {
          "address": "0x04de9eb6d60337dce0f98675703627a8942d0e8a",
          "topics": [
            "0xddf252ad1be2c89b69c2b068fc378daa952ba7f163c4a11628f55a4df523b3ef",
            "0x0000000000000000000000000000000000000000000000000000000000000000",
            "0x000000000000000000000000ce23256ae677765a41e8d7e4d099359771615ca4",
            "0x0000000000000000000000000000000000000000000000000000000000000001"
          ],
          "data": "0x",
          "blockHash": "0x7b9605f24101b4518de2e7472d8ff367bcc9c7cece1bcf697245c26f99a969a0",
          "blockNumber": "0x83baa2",
          "blockTimestamp": "0x685d3b08",
          "transactionHash": "0x572a58924e0c07fac9f42ee5819ade7d9e4408b23bc886a885f702da02433b5c",
          "transactionIndex": "0x81",
          "logIndex": "0xcd",
          "removed": false
        },
        {
          "address": "0x04de9eb6d60337dce0f98675703627a8942d0e8a",
          "topics": [
            "0x1cbc5ab135991bd2b6a4b034a04aa2aa086dac1371cb9b16b8b5e2ed6b036bed",
            "0x000000000000000000000000ce23256ae677765a41e8d7e4d099359771615ca4",
            "0x0000000000000000000000000000000000000000000000000000000000000001"
          ],
          "data": "0x0000000000000000000000000000000000000000000000056bc75e2d63100000",
          "blockHash": "0x7b9605f24101b4518de2e7472d8ff367bcc9c7cece1bcf697245c26f99a969a0",
          "blockNumber": "0x83baa2",
          "blockTimestamp": "0x685d3b08",
          "transactionHash": "0x572a58924e0c07fac9f42ee5819ade7d9e4408b23bc886a885f702da02433b5c",
          "transactionIndex": "0x81",
          "logIndex": "0xce",
          "removed": false
        },
        {
          "address": "0x04de9eb6d60337dce0f98675703627a8942d0e8a",
          "topics": [
            "0xddf252ad1be2c89b69c2b068fc378daa952ba7f163c4a11628f55a4df523b3ef",
            "0x0000000000000000000000000000000000000000000000000000000000000000",
            "0x000000000000000000000000ce23256ae677765a41e8d7e4d099359771615ca4",
            "0x0000000000000000000000000000000000000000000000000000000000000002"
          ],
          "data": "0x",
          "blockHash": "0x7b9605f24101b4518de2e7472d8ff367bcc9c7cece1bcf697245c26f99a969a0",
          "blockNumber": "0x83baa2",
          "blockTimestamp": "0x685d3b08",
          "transactionHash": "0x572a58924e0c07fac9f42ee5819ade7d9e4408b23bc886a885f702da02433b5c",
          "transactionIndex": "0x81",
          "logIndex": "0xcf",
          "removed": false
        },
        {
          "address": "0x04de9eb6d60337dce0f98675703627a8942d0e8a",
          "topics": [
            "0x1cbc5ab135991bd2b6a4b034a04aa2aa086dac1371cb9b16b8b5e2ed6b036bed",
            "0x000000000000000000000000ce23256ae677765a41e8d7e4d099359771615ca4",
            "0x0000000000000000000000000000000000000000000000000000000000000002"
          ],
          "data": "0x0000000000000000000000000000000000000000000000056bc75e2d63100000",
          "blockHash": "0x7b9605f24101b4518de2e7472d8ff367bcc9c7cece1bcf697245c26f99a969a0",
          "blockNumber": "0x83baa2",
          "blockTimestamp": "0x685d3b08",
          "transactionHash": "0x572a58924e0c07fac9f42ee5819ade7d9e4408b23bc886a885f702da02433b5c",
          "transactionIndex": "0x81",
          "logIndex": "0xd0",
          "removed": false
        },
        {
          "address": "0x04de9eb6d60337dce0f98675703627a8942d0e8a",
          "topics": [
            "0xddf252ad1be2c89b69c2b068fc378daa952ba7f163c4a11628f55a4df523b3ef",
            "0x0000000000000000000000000000000000000000000000000000000000000000",
            "0x000000000000000000000000ce23256ae677765a41e8d7e4d099359771615ca4",
            "0x0000000000000000000000000000000000000000000000000000000000000003"
          ],
          "data": "0x",
          "blockHash": "0x7b9605f24101b4518de2e7472d8ff367bcc9c7cece1bcf697245c26f99a969a0",
          "blockNumber": "0x83baa2",
          "blockTimestamp": "0x685d3b08",
          "transactionHash": "0x572a58924e0c07fac9f42ee5819ade7d9e4408b23bc886a885f702da02433b5c",
          "transactionIndex": "0x81",
          "logIndex": "0xd1",
          "removed": false
        },
        {
          "address": "0x04de9eb6d60337dce0f98675703627a8942d0e8a",
          "topics": [
            "0x1cbc5ab135991bd2b6a4b034a04aa2aa086dac1371cb9b16b8b5e2ed6b036bed",
            "0x000000000000000000000000ce23256ae677765a41e8d7e4d099359771615ca4",
            "0x0000000000000000000000000000000000000000000000000000000000000003"
          ],
          "data": "0x0000000000000000000000000000000000000000000000056bc75e2d63100000",
          "blockHash": "0x7b9605f24101b4518de2e7472d8ff367bcc9c7cece1bcf697245c26f99a969a0",
          "blockNumber": "0x83baa2",
          "blockTimestamp": "0x685d3b08",
          "transactionHash": "0x572a58924e0c07fac9f42ee5819ade7d9e4408b23bc886a885f702da02433b5c",
          "transactionIndex": "0x81",
          "logIndex": "0xd2",
          "removed": false
        },
        {
          "address": "0x34abd99554ef53edba3b6abebb97df2864cfa07c",
          "topics": [
            "0x8c5be1e5ebec7d5bd14f71427d1e84f3dd0314c0f7b2291e5b200ac8c7c3b925",
            "0x000000000000000000000000ce23256ae677765a41e8d7e4d099359771615ca4",
            "0x00000000000000000000000004de9eb6d60337dce0f98675703627a8942d0e8a"
          ],
          "data": "0x00000000000000000000000000000000000000000008457f66f68892bdc00000",
          "blockHash": "0x7b9605f24101b4518de2e7472d8ff367bcc9c7cece1bcf697245c26f99a969a0",
          "blockNumber": "0x83baa2",
          "blockTimestamp": "0x685d3b08",
          "transactionHash": "0x572a58924e0c07fac9f42ee5819ade7d9e4408b23bc886a885f702da02433b5c",
          "transactionIndex": "0x81",
          "logIndex": "0xd3",
          "removed": false
        },
        {
          "address": "0x34abd99554ef53edba3b6abebb97df2864cfa07c",
          "topics": [
            "0xddf252ad1be2c89b69c2b068fc378daa952ba7f163c4a11628f55a4df523b3ef",
            "0x000000000000000000000000ce23256ae677765a41e8d7e4d099359771615ca4",
            "0x0000000000000000000000008d6051dedbe3b08590674b0c4324c1d8b3ad2a00"
          ],
          "data": "0x000000000000000000000000000000000000000000000015af1d78b58c400000",
          "blockHash": "0x7b9605f24101b4518de2e7472d8ff367bcc9c7cece1bcf697245c26f99a969a0",
          "blockNumber": "0x83baa2",
          "blockTimestamp": "0x685d3b08",
          "transactionHash": "0x572a58924e0c07fac9f42ee5819ade7d9e4408b23bc886a885f702da02433b5c",
          "transactionIndex": "0x81",
          "logIndex": "0xd4",
          "removed": false
        },
        {
          "address": "0x34abd99554ef53edba3b6abebb97df2864cfa07c",
          "topics": [
            "0x8c5be1e5ebec7d5bd14f71427d1e84f3dd0314c0f7b2291e5b200ac8c7c3b925",
            "0x000000000000000000000000ce23256ae677765a41e8d7e4d099359771615ca4",
            "0x00000000000000000000000004de9eb6d60337dce0f98675703627a8942d0e8a"
          ],
          "data": "0x00000000000000000000000000000000000000000008457f2f73adc420300000",
          "blockHash": "0x7b9605f24101b4518de2e7472d8ff367bcc9c7cece1bcf697245c26f99a969a0",
          "blockNumber": "0x83baa2",
          "blockTimestamp": "0x685d3b08",
          "transactionHash": "0x572a58924e0c07fac9f42ee5819ade7d9e4408b23bc886a885f702da02433b5c",
          "transactionIndex": "0x81",
          "logIndex": "0xd5",
          "removed": false
        },
        {
          "address": "0x34abd99554ef53edba3b6abebb97df2864cfa07c",
          "topics": [
            "0xddf252ad1be2c89b69c2b068fc378daa952ba7f163c4a11628f55a4df523b3ef",
            "0x000000000000000000000000ce23256ae677765a41e8d7e4d099359771615ca4",
            "0x0000000000000000000000008d6051dedbe3b08590674b0c4324c1d8b3ad2a00"
          ],
          "data": "0x0000000000000000000000000000000000000000000000003782dace9d900000",
          "blockHash": "0x7b9605f24101b4518de2e7472d8ff367bcc9c7cece1bcf697245c26f99a969a0",
          "blockNumber": "0x83baa2",
          "blockTimestamp": "0x685d3b08",
          "transactionHash": "0x572a58924e0c07fac9f42ee5819ade7d9e4408b23bc886a885f702da02433b5c",
          "transactionIndex": "0x81",
          "logIndex": "0xd6",
          "removed": false
        }
      ],
      "logsBloom": "0x04000000000000000000000000000000000000000000000000400000000000000200000200000000000000000000000000000000020000000000000000240000000000000000000000000008000000000000408000041000000000000000000000000000020000001000000000000800000000000000000000000010000020000000000000000100000000000000000000000000000000000000000000000000020000000400000040000100000080000000000000800000000000000000400000000002000800000000000000000000000000000002000000000000000060000010000804000000000000000000000000000000008000001000000000000020",
      "type": "0x2",
      "transactionHash": "0x572a58924e0c07fac9f42ee5819ade7d9e4408b23bc886a885f702da02433b5c",
      "transactionIndex": "0x81",
      "blockHash": "0x7b9605f24101b4518de2e7472d8ff367bcc9c7cece1bcf697245c26f99a969a0",
      "blockNumber": "0x83baa2",
      "gasUsed": "0xa45c7",
      "effectiveGasPrice": "0x1abd28ee",
      "from": "0xce23256ae677765a41e8d7e4d099359771615ca4",
      "to": "0x04de9eb6d60337dce0f98675703627a8942d0e8a",
      "contractAddress": null
    }
  ],
  "libraries": [],
  "pending": [],
  "returns": {},
  "timestamp": 1750940424,
  "chain": 11155111,
  "commit": null
}