{
  "transactions": [
    {
      "hash": "0x62fbcfc0c0f04676c93e756d17efe3aa96f36aa844e3ee2238c38e6fb4d35bf7",
      "transactionType": "CALL",
      "contractName": null,
      "contractAddress": "0x5bb4aafec8d02933bbeb6b5242d9191c0ff63dfc",
      "function": "buy(uint256,uint256)",
      "arguments": [
        "1000",
        "2"
      ],
      "transaction": {
        "from": "0xce23256ae677765a41e8d7e4d099359771615ca4",
        "to": "0x5bb4aafec8d02933bbeb6b5242d9191c0ff63dfc",
        "gas": "0x763e6",
        "value": "0x0",
        "input": "0xd6febde800000000000000000000000000000000000000000000000000000000000003e80000000000000000000000000000000000000000000000000000000000000002",
        "nonce": "0x4b",
        "chainId": "0xaa36a7"
      },
      "additionalContracts": [],
      "isFixedGasLimit": false
    }
  ],
  "receipts": [
    {
      "status": "0x1",
      "cumulativeGasUsed": "0x209bd53",
      "logs": [
        {
          "address": "0x5bb4aafec8d02933bbeb6b5242d9191c0ff63dfc",
          "topics": [
            "0xddf252ad1be2c89b69c2b068fc378daa952ba7f163c4a11628f55a4df523b3ef",
            "0x0000000000000000000000000000000000000000000000000000000000000000",
            "0x000000000000000000000000ce23256ae677765a41e8d7e4d099359771615ca4",
            "0x0000000000000000000000000000000000000000000000000000000000000000"
          ],
          "data": "0x",
          "blockHash": "0x155242cb7e9c2668c48dfc66709f9270efb25892cc01f43e1dfe790e889e379e",
          "blockNumber": "0x8319f2",
          "blockTimestamp": "0x6855ab30",
          "transactionHash": "0x62fbcfc0c0f04676c93e756d17efe3aa96f36aa844e3ee2238c38e6fb4d35bf7",
          "transactionIndex": "0x42",
          "logIndex": "0x66",
          "removed": false
        },
        {
          "address": "0x5bb4aafec8d02933bbeb6b5242d9191c0ff63dfc",
          "topics": [
            "0x1cbc5ab135991bd2b6a4b034a04aa2aa086dac1371cb9b16b8b5e2ed6b036bed",
            "0x000000000000000000000000ce23256ae677765a41e8d7e4d099359771615ca4",
            "0x0000000000000000000000000000000000000000000000000000000000000000"
          ],
          "data": "0x00000000000000000000000000000000000000000000000000000000000003e8",
          "blockHash": "0x155242cb7e9c2668c48dfc66709f9270efb25892cc01f43e1dfe790e889e379e",
          "blockNumber": "0x8319f2",
          "blockTimestamp": "0x6855ab30",
          "transactionHash": "0x62fbcfc0c0f04676c93e756d17efe3aa96f36aa844e3ee2238c38e6fb4d35bf7",
          "transactionIndex": "0x42",
          "logIndex": "0x67",
          "removed": false
        },
        {
          "address": "0x5bb4aafec8d02933bbeb6b5242d9191c0ff63dfc",
          "topics": [
            "0xddf252ad1be2c89b69c2b068fc378daa952ba7f163c4a11628f55a4df523b3ef",
            "0x0000000000000000000000000000000000000000000000000000000000000000",
            "0x000000000000000000000000ce23256ae677765a41e8d7e4d099359771615ca4",
            "0x0000000000000000000000000000000000000000000000000000000000000001"
          ],
          "data": "0x",
          "blockHash": "0x155242cb7e9c2668c48dfc66709f9270efb25892cc01f43e1dfe790e889e379e",
          "blockNumber": "0x8319f2",
          "blockTimestamp": "0x6855ab30",
          "transactionHash": "0x62fbcfc0c0f04676c93e756d17efe3aa96f36aa844e3ee2238c38e6fb4d35bf7",
          "transactionIndex": "0x42",
          "logIndex": "0x68",
          "removed": false
        },
        {
          "address": "0x5bb4aafec8d02933bbeb6b5242d9191c0ff63dfc",
          "topics": [
            "0x1cbc5ab135991bd2b6a4b034a04aa2aa086dac1371cb9b16b8b5e2ed6b036bed",
            "0x000000000000000000000000ce23256ae677765a41e8d7e4d099359771615ca4",
            "0x0000000000000000000000000000000000000000000000000000000000000001"
          ],
          "data": "0x00000000000000000000000000000000000000000000000000000000000003e8",
          "blockHash": "0x155242cb7e9c2668c48dfc66709f9270efb25892cc01f43e1dfe790e889e379e",
          "blockNumber": "0x8319f2",
          "blockTimestamp": "0x6855ab30",
          "transactionHash": "0x62fbcfc0c0f04676c93e756d17efe3aa96f36aa844e3ee2238c38e6fb4d35bf7",
          "transactionIndex": "0x42",
          "logIndex": "0x69",
          "removed": false
        }
      ],
      "logsBloom": "0x00000000000000000000000000000000000000000000000000400000000000000000000200000000000000000000000000000000000000000000000000040000000000000200000040000008000000000000000000041000000000000000000000000000020000000000000000000800000000000000000000000010000000000000000000000100000000000000000000000000000000000000000000000000000000000400000040000000000000000000000000000000000000000000000000000002000000000400000000000000000000000000000000000000000060000000000000000000000000000000000000000000000000000000000000000000",
      "type": "0x2",
      "transactionHash": "0x62fbcfc0c0f04676c93e756d17efe3aa96f36aa844e3ee2238c38e6fb4d35bf7",
      "transactionIndex": "0x42",
      "blockHash": "0x155242cb7e9c2668c48dfc66709f9270efb25892cc01f43e1dfe790e889e379e",
      "blockNumber": "0x8319f2",
      "gasUsed": "0x559b4",
      "effectiveGasPrice": "0x11c14b",
      "from": "0xce23256ae677765a41e8d7e4d099359771615ca4",
      "to": "0x5bb4aafec8d02933bbeb6b5242d9191c0ff63dfc",
      "contractAddress": null
    }
  ],
  "libraries": [],
  "pending": [],
  "returns": {},
  "timestamp": 1750444849,
  "chain": 11155111,
  "commit": null
}