{
  "transactions": [
    {
      "hash": "0x77574e01c7b549cc99193b9728135589f969faaadbaf52c184425bc97b1df4a4",
      "transactionType": "CALL",
      "contractName": null,
      "contractAddress": "0xcf4658e9074bc3a7d3faec07cb3752375eac271c",
      "function": "buy(address,uint256,uint256)",
      "arguments": [
        "0xcE23256ae677765a41E8D7E4d099359771615ca4",
        "1000",
        "4"
      ],
      "transaction": {
        "from": "0xce23256ae677765a41e8d7e4d099359771615ca4",
        "to": "0xcf4658e9074bc3a7d3faec07cb3752375eac271c",
        "gas": "0xed694",
        "value": "0x0",
        "input": "0xa59ac6dd000000000000000000000000ce23256ae677765a41e8d7e4d099359771615ca400000000000000000000000000000000000000000000000000000000000003e80000000000000000000000000000000000000000000000000000000000000004",
        "nonce": "0xe1",
        "chainId": "0xaa36a7"
      },
      "additionalContracts": [],
      "isFixedGasLimit": false
    }
  ],
  "receipts": [
    {
      "status": "0x1",
      "cumulativeGasUsed": "0x79ea42",
      "logs": [
        {
          "address": "0xcf4658e9074bc3a7d3faec07cb3752375eac271c",
          "topics": [
            "0xddf252ad1be2c89b69c2b068fc378daa952ba7f163c4a11628f55a4df523b3ef",
            "0x0000000000000000000000000000000000000000000000000000000000000000",
            "0x000000000000000000000000ce23256ae677765a41e8d7e4d099359771615ca4",
            "0x0000000000000000000000000000000000000000000000000000000000000008"
          ],
          "data": "0x",
          "blockHash": "0xc04d4a8b73e50fb90be3231b781523626305964a209703c2b7ac1b03faf2834d",
          "blockNumber": "0x83abc2",
          "blockTimestamp": "0x685c86f0",
          "transactionHash": "0x77574e01c7b549cc99193b9728135589f969faaadbaf52c184425bc97b1df4a4",
          "transactionIndex": "0x6e",
          "logIndex": "0x72",
          "removed": false
        },
        {
          "address": "0xcf4658e9074bc3a7d3faec07cb3752375eac271c",
          "topics": [
            "0x1cbc5ab135991bd2b6a4b034a04aa2aa086dac1371cb9b16b8b5e2ed6b036bed",
            "0x000000000000000000000000ce23256ae677765a41e8d7e4d099359771615ca4",
            "0x0000000000000000000000000000000000000000000000000000000000000008"
          ],
          "data": "0x00000000000000000000000000000000000000000000000000000000000003e8",
          "blockHash": "0xc04d4a8b73e50fb90be3231b781523626305964a209703c2b7ac1b03faf2834d",
          "blockNumber": "0x83abc2",
          "blockTimestamp": "0x685c86f0",
          "transactionHash": "0x77574e01c7b549cc99193b9728135589f969faaadbaf52c184425bc97b1df4a4",
          "transactionIndex": "0x6e",
          "logIndex": "0x73",
          "removed": false
        },
        {
          "address": "0xcf4658e9074bc3a7d3faec07cb3752375eac271c",
          "topics": [
            "0xddf252ad1be2c89b69c2b068fc378daa952ba7f163c4a11628f55a4df523b3ef",
            "0x0000000000000000000000000000000000000000000000000000000000000000",
            "0x000000000000000000000000ce23256ae677765a41e8d7e4d099359771615ca4",
            "0x0000000000000000000000000000000000000000000000000000000000000009"
          ],
          "data": "0x",
          "blockHash": "0xc04d4a8b73e50fb90be3231b781523626305964a209703c2b7ac1b03faf2834d",
          "blockNumber": "0x83abc2",
          "blockTimestamp": "0x685c86f0",
          "transactionHash": "0x77574e01c7b549cc99193b9728135589f969faaadbaf52c184425bc97b1df4a4",
          "transactionIndex": "0x6e",
          "logIndex": "0x74",
          "removed": false
        },
        {
          "address": "0xcf4658e9074bc3a7d3faec07cb3752375eac271c",
          "topics": [
            "0x1cbc5ab135991bd2b6a4b034a04aa2aa086dac1371cb9b16b8b5e2ed6b036bed",
            "0x000000000000000000000000ce23256ae677765a41e8d7e4d099359771615ca4",
            "0x0000000000000000000000000000000000000000000000000000000000000009"
          ],
          "data": "0x00000000000000000000000000000000000000000000000000000000000003e8",
          "blockHash": "0xc04d4a8b73e50fb90be3231b781523626305964a209703c2b7ac1b03faf2834d",
          "blockNumber": "0x83abc2",
          "blockTimestamp": "0x685c86f0",
          "transactionHash": "0x77574e01c7b549cc99193b9728135589f969faaadbaf52c184425bc97b1df4a4",
          "transactionIndex": "0x6e",
          "logIndex": "0x75",
          "removed": false
        },
        {
          "address": "0xcf4658e9074bc3a7d3faec07cb3752375eac271c",
          "topics": [
            "0xddf252ad1be2c89b69c2b068fc378daa952ba7f163c4a11628f55a4df523b3ef",
            "0x0000000000000000000000000000000000000000000000000000000000000000",
            "0x000000000000000000000000ce23256ae677765a41e8d7e4d099359771615ca4",
            "0x000000000000000000000000000000000000000000000000000000000000000a"
          ],
          "data": "0x",
          "blockHash": "0xc04d4a8b73e50fb90be3231b781523626305964a209703c2b7ac1b03faf2834d",
          "blockNumber": "0x83abc2",
          "blockTimestamp": "0x685c86f0",
          "transactionHash": "0x77574e01c7b549cc99193b9728135589f969faaadbaf52c184425bc97b1df4a4",
          "transactionIndex": "0x6e",
          "logIndex": "0x76",
          "removed": false
        },
        {
          "address": "0xcf4658e9074bc3a7d3faec07cb3752375eac271c",
          "topics": [
            "0x1cbc5ab135991bd2b6a4b034a04aa2aa086dac1371cb9b16b8b5e2ed6b036bed",
            "0x000000000000000000000000ce23256ae677765a41e8d7e4d099359771615ca4",
            "0x000000000000000000000000000000000000000000000000000000000000000a"
          ],
          "data": "0x00000000000000000000000000000000000000000000000000000000000003e8",
          "blockHash": "0xc04d4a8b73e50fb90be3231b781523626305964a209703c2b7ac1b03faf2834d",
          "blockNumber": "0x83abc2",
          "blockTimestamp": "0x685c86f0",
          "transactionHash": "0x77574e01c7b549cc99193b9728135589f969faaadbaf52c184425bc97b1df4a4",
          "transactionIndex": "0x6e",
          "logIndex": "0x77",
          "removed": false
        },
        {
          "address": "0xcf4658e9074bc3a7d3faec07cb3752375eac271c",
          "topics": [
            "0xddf252ad1be2c89b69c2b068fc378daa952ba7f163c4a11628f55a4df523b3ef",
            "0x0000000000000000000000000000000000000000000000000000000000000000",
            "0x000000000000000000000000ce23256ae677765a41e8d7e4d099359771615ca4",
            "0x000000000000000000000000000000000000000000000000000000000000000b"
          ],
          "data": "0x",
          "blockHash": "0xc04d4a8b73e50fb90be3231b781523626305964a209703c2b7ac1b03faf2834d",
          "blockNumber": "0x83abc2",
          "blockTimestamp": "0x685c86f0",
          "transactionHash": "0x77574e01c7b549cc99193b9728135589f969faaadbaf52c184425bc97b1df4a4",
          "transactionIndex": "0x6e",
          "logIndex": "0x78",
          "removed": false
        },
        {
          "address": "0xcf4658e9074bc3a7d3faec07cb3752375eac271c",
          "topics": [
            "0x1cbc5ab135991bd2b6a4b034a04aa2aa086dac1371cb9b16b8b5e2ed6b036bed",
            "0x000000000000000000000000ce23256ae677765a41e8d7e4d099359771615ca4",
            "0x000000000000000000000000000000000000000000000000000000000000000b"
          ],
          "data": "0x00000000000000000000000000000000000000000000000000000000000003e8",
          "blockHash": "0xc04d4a8b73e50fb90be3231b781523626305964a209703c2b7ac1b03faf2834d",
          "blockNumber": "0x83abc2",
          "blockTimestamp": "0x685c86f0",
          "transactionHash": "0x77574e01c7b549cc99193b9728135589f969faaadbaf52c184425bc97b1df4a4",
          "transactionIndex": "0x6e",
          "logIndex": "0x79",
          "removed": false
        },
        {
          "address": "0x34abd99554ef53edba3b6abebb97df2864cfa07c",
          "topics": [
            "0x8c5be1e5ebec7d5bd14f71427d1e84f3dd0314c0f7b2291e5b200ac8c7c3b925",
            "0x000000000000000000000000ce23256ae677765a41e8d7e4d099359771615ca4",
            "0x000000000000000000000000cf4658e9074bc3a7d3faec07cb3752375eac271c"
          ],
          "data": "0x0000000000000000000000000000000000000000000000d8d726b7177a7ff060",
          "blockHash": "0xc04d4a8b73e50fb90be3231b781523626305964a209703c2b7ac1b03faf2834d",
          "blockNumber": "0x83abc2",
          "blockTimestamp": "0x685c86f0",
          "transactionHash": "0x77574e01c7b549cc99193b9728135589f969faaadbaf52c184425bc97b1df4a4",
          "transactionIndex": "0x6e",
          "logIndex": "0x7a",
          "removed": false
        },
        {
          "address": "0x34abd99554ef53edba3b6abebb97df2864cfa07c",
          "topics": [
            "0xddf252ad1be2c89b69c2b068fc378daa952ba7f163c4a11628f55a4df523b3ef",
            "0x000000000000000000000000ce23256ae677765a41e8d7e4d099359771615ca4",
            "0x0000000000000000000000008d6051dedbe3b08590674b0c4324c1d8b3ad2a00"
          ],
          "data": "0x0000000000000000000000000000000000000000000000000000000000000fa0",
          "blockHash": "0xc04d4a8b73e50fb90be3231b781523626305964a209703c2b7ac1b03faf2834d",
          "blockNumber": "0x83abc2",
          "blockTimestamp": "0x685c86f0",
          "transactionHash": "0x77574e01c7b549cc99193b9728135589f969faaadbaf52c184425bc97b1df4a4",
          "transactionIndex": "0x6e",
          "logIndex": "0x7b",
          "removed": false
        },
        {
          "address": "0x34abd99554ef53edba3b6abebb97df2864cfa07c",
          "topics": [
            "0x8c5be1e5ebec7d5bd14f71427d1e84f3dd0314c0f7b2291e5b200ac8c7c3b925",
            "0x000000000000000000000000ce23256ae677765a41e8d7e4d099359771615ca4",
            "0x000000000000000000000000cf4658e9074bc3a7d3faec07cb3752375eac271c"
          ],
          "data": "0x0000000000000000000000000000000000000000000000d8d726b7177a7ff038",
          "blockHash": "0xc04d4a8b73e50fb90be3231b781523626305964a209703c2b7ac1b03faf2834d",
          "blockNumber": "0x83abc2",
          "blockTimestamp": "0x685c86f0",
          "transactionHash": "0x77574e01c7b549cc99193b9728135589f969faaadbaf52c184425bc97b1df4a4",
          "transactionIndex": "0x6e",
          "logIndex": "0x7c",
          "removed": false
        },
        {
          "address": "0x34abd99554ef53edba3b6abebb97df2864cfa07c",
          "topics": [
            "0xddf252ad1be2c89b69c2b068fc378daa952ba7f163c4a11628f55a4df523b3ef",
            "0x000000000000000000000000ce23256ae677765a41e8d7e4d099359771615ca4",
            "0x0000000000000000000000008d6051dedbe3b08590674b0c4324c1d8b3ad2a00"
          ],
          "data": "0x0000000000000000000000000000000000000000000000000000000000000028",
          "blockHash": "0xc04d4a8b73e50fb90be3231b781523626305964a209703c2b7ac1b03faf2834d",
          "blockNumber": "0x83abc2",
          "blockTimestamp": "0x685c86f0",
          "transactionHash": "0x77574e01c7b549cc99193b9728135589f969faaadbaf52c184425bc97b1df4a4",
          "transactionIndex": "0x6e",
          "logIndex": "0x7d",
          "removed": false
        }
      ],
      "logsBloom": "0x00000000000000000000004000000000000000000000000000400000000000000200000200000000000000000000000000000000040080000020000000200000000000000000000000000008000000000000008000001000000000000000012000000000020000000000000000000800000000000400000000000010000020000080000000000100010000000000000000001000000000000000000000100000020000000400000040000000000080000800000000000000000000000000000040000002000000000000000000000000002000000002000000000000000020000010000004000000000000000000000000000000000000040000000000800000",
      "type": "0x2",
      "transactionHash": "0x77574e01c7b549cc99193b9728135589f969faaadbaf52c184425bc97b1df4a4",
      "transactionIndex": "0x6e",
      "blockHash": "0xc04d4a8b73e50fb90be3231b781523626305964a209703c2b7ac1b03faf2834d",
      "blockNumber": "0x83abc2",
      "gasUsed": "0xa2552",
      "effectiveGasPrice": "0x122944d",
      "from": "0xce23256ae677765a41e8d7e4d099359771615ca4",
      "to": "0xcf4658e9074bc3a7d3faec07cb3752375eac271c",
      "contractAddress": null
    }
  ],
  "libraries": [],
  "pending": [],
  "returns": {},
  "timestamp": 1750894321,
  "chain": 11155111,
  "commit": null
}