{
  "transactions": [
    {
      "hash": "0x4cad46d4fa10f03dba1cec66fe1baa7ad7951bf814564cf4b7ff34ffe86fae12",
      "transactionType": "CALL",
      "contractName": null,
      "contractAddress": "0xceca2e1bca3b27d8435f99f61cea52e51a8ee6cb",
      "function": "putOnSale(uint256,uint256)",
      "arguments": [
        "4",
        "400000000000000000000"
      ],
      "transaction": {
        "from": "0x129aa6ab9afc5135a72cef4868175cf906942a14",
        "to": "0xceca2e1bca3b27d8435f99f61cea52e51a8ee6cb",
        "gas": "0x21d91",
        "value": "0x0",
        "input": "0x36f7992b0000000000000000000000000000000000000000000000000000000000000004000000000000000000000000000000000000000000000015af1d78b58c400000",
        "nonce": "0x6",
        "chainId": "0xaa36a7"
      },
      "additionalContracts": [],
      "isFixedGasLimit": false
    }
  ],
  "receipts": [
    {
      "status": "0x1",
      "cumulativeGasUsed": "0x162ca51",
      "logs": [
        {
          "address": "0xceca2e1bca3b27d8435f99f61cea52e51a8ee6cb",
          "topics": [
            "0x7c11ba8301c87f8a6d59779bcbe2b7446e865bd1a4359a69e5c400212e0a5795",
            "0x0000000000000000000000000000000000000000000000000000000000000004"
          ],
          "data": "0x000000000000000000000000000000000000000000000015af1d78b58c400000",
          "blockHash": "0x1b290fa58a2e5c3ad639f7d09a435904f350eb3a766b6afe52307ff636786601",
          "blockNumber": "0x845753",
          "blockTimestamp": "0x68649aa4",
          "transactionHash": "0x4cad46d4fa10f03dba1cec66fe1baa7ad7951bf814564cf4b7ff34ffe86fae12",
          "transactionIndex": "0x136",
          "logIndex": "0x295",
          "removed": false
        }
      ],
      "logsBloom": "0x00000000000000000000000000000000000000000000000000000000000000000000000000000000000000000000000000000000000000000000000000000000000000000000000000000000000000000000000100000000000000000000000008000000000000000000000000000040000000000000000000000000000000000000000000000000000000000000000000000000000000040000000000200000000000000000000000000000000000000000000000000000002000000000000000000000000000000000000200000000000000008000000000000000000000000000000000000000000008000000000000000000000000000000000000000000",
      "type": "0x2",
      "transactionHash": "0x4cad46d4fa10f03dba1cec66fe1baa7ad7951bf814564cf4b7ff34ffe86fae12",
      "transactionIndex": "0x136",
      "blockHash": "0x1b290fa58a2e5c3ad639f7d09a435904f350eb3a766b6afe52307ff636786601",
      "blockNumber": "0x845753",
      "gasUsed": "0x18816",
      "effectiveGasPrice": "0x619c4a82",
      "from": "0x129aa6ab9afc5135a72cef4868175cf906942a14",
      "to": "0xceca2e1bca3b27d8435f99f61cea52e51a8ee6cb",
      "contractAddress": null
    }
  ],
  "libraries": [],
  "pending": [],
  "returns": {},
  "timestamp": 1751423653,
  "chain": 11155111,
  "commit": null
}