{
  "transactions": [
    {
      "hash": "0xbc93cad4743ddf3a2f5acaad774b70416d0aa7bf69fe261300d6a809cc6036ba",
      "transactionType": "CALL",
      "contractName": null,
      "contractAddress": "0xcf4658e9074bc3a7d3faec07cb3752375eac271c",
      "function": "buy(address,uint256,uint256)",
      "arguments": [
        "0xcE23256ae677765a41E8D7E4d099359771615ca4",
        "1000",
        "4"
      ],
      "transaction": {
        "from": "0xce23256ae677765a41e8d7e4d099359771615ca4",
        "to": "0xcf4658e9074bc3a7d3faec07cb3752375eac271c",
        "gas": "0xed694",
        "value": "0x0",
        "input": "0xa59ac6dd000000000000000000000000ce23256ae677765a41e8d7e4d099359771615ca400000000000000000000000000000000000000000000000000000000000003e80000000000000000000000000000000000000000000000000000000000000004",
        "nonce": "0xdc",
        "chainId": "0xaa36a7"
      },
      "additionalContracts": [],
      "isFixedGasLimit": false
    }
  ],
  "receipts": [
    {
      "status": "0x1",
      "cumulativeGasUsed": "0x2c73d9c",
      "logs": [
        {
          "address": "0xcf4658e9074bc3a7d3faec07cb3752375eac271c",
          "topics": [
            "0xddf252ad1be2c89b69c2b068fc378daa952ba7f163c4a11628f55a4df523b3ef",
            "0x0000000000000000000000000000000000000000000000000000000000000000",
            "0x000000000000000000000000ce23256ae677765a41e8d7e4d099359771615ca4",
            "0x0000000000000000000000000000000000000000000000000000000000000004"
          ],
          "data": "0x",
          "blockHash": "0x7a8296659025b73cf2a39035a756de89e3400914566998040a4320bd78279dbc",
          "blockNumber": "0x83aba6",
          "blockTimestamp": "0x685c85a0",
          "transactionHash": "0xbc93cad4743ddf3a2f5acaad774b70416d0aa7bf69fe261300d6a809cc6036ba",
          "transactionIndex": "0xbe",
          "logIndex": "0xde",
          "removed": false
        },
        {
          "address": "0xcf4658e9074bc3a7d3faec07cb3752375eac271c",
          "topics": [
            "0x1cbc5ab135991bd2b6a4b034a04aa2aa086dac1371cb9b16b8b5e2ed6b036bed",
            "0x000000000000000000000000ce23256ae677765a41e8d7e4d099359771615ca4",
            "0x0000000000000000000000000000000000000000000000000000000000000004"
          ],
          "data": "0x00000000000000000000000000000000000000000000000000000000000003e8",
          "blockHash": "0x7a8296659025b73cf2a39035a756de89e3400914566998040a4320bd78279dbc",
          "blockNumber": "0x83aba6",
          "blockTimestamp": "0x685c85a0",
          "transactionHash": "0xbc93cad4743ddf3a2f5acaad774b70416d0aa7bf69fe261300d6a809cc6036ba",
          "transactionIndex": "0xbe",
          "logIndex": "0xdf",
          "removed": false
        },
        {
          "address": "0xcf4658e9074bc3a7d3faec07cb3752375eac271c",
          "topics": [
            "0xddf252ad1be2c89b69c2b068fc378daa952ba7f163c4a11628f55a4df523b3ef",
            "0x0000000000000000000000000000000000000000000000000000000000000000",
            "0x000000000000000000000000ce23256ae677765a41e8d7e4d099359771615ca4",
            "0x0000000000000000000000000000000000000000000000000000000000000005"
          ],
          "data": "0x",
          "blockHash": "0x7a8296659025b73cf2a39035a756de89e3400914566998040a4320bd78279dbc",
          "blockNumber": "0x83aba6",
          "blockTimestamp": "0x685c85a0",
          "transactionHash": "0xbc93cad4743ddf3a2f5acaad774b70416d0aa7bf69fe261300d6a809cc6036ba",
          "transactionIndex": "0xbe",
          "logIndex": "0xe0",
          "removed": false
        },
        {
          "address": "0xcf4658e9074bc3a7d3faec07cb3752375eac271c",
          "topics": [
            "0x1cbc5ab135991bd2b6a4b034a04aa2aa086dac1371cb9b16b8b5e2ed6b036bed",
            "0x000000000000000000000000ce23256ae677765a41e8d7e4d099359771615ca4",
            "0x0000000000000000000000000000000000000000000000000000000000000005"
          ],
          "data": "0x00000000000000000000000000000000000000000000000000000000000003e8",
          "blockHash": "0x7a8296659025b73cf2a39035a756de89e3400914566998040a4320bd78279dbc",
          "blockNumber": "0x83aba6",
          "blockTimestamp": "0x685c85a0",
          "transactionHash": "0xbc93cad4743ddf3a2f5acaad774b70416d0aa7bf69fe261300d6a809cc6036ba",
          "transactionIndex": "0xbe",
          "logIndex": "0xe1",
          "removed": false
        },
        {
          "address": "0xcf4658e9074bc3a7d3faec07cb3752375eac271c",
          "topics": [
            "0xddf252ad1be2c89b69c2b068fc378daa952ba7f163c4a11628f55a4df523b3ef",
            "0x0000000000000000000000000000000000000000000000000000000000000000",
            "0x000000000000000000000000ce23256ae677765a41e8d7e4d099359771615ca4",
            "0x0000000000000000000000000000000000000000000000000000000000000006"
          ],
          "data": "0x",
          "blockHash": "0x7a8296659025b73cf2a39035a756de89e3400914566998040a4320bd78279dbc",
          "blockNumber": "0x83aba6",
          "blockTimestamp": "0x685c85a0",
          "transactionHash": "0xbc93cad4743ddf3a2f5acaad774b70416d0aa7bf69fe261300d6a809cc6036ba",
          "transactionIndex": "0xbe",
          "logIndex": "0xe2",
          "removed": false
        },
        {
          "address": "0xcf4658e9074bc3a7d3faec07cb3752375eac271c",
          "topics": [
            "0x1cbc5ab135991bd2b6a4b034a04aa2aa086dac1371cb9b16b8b5e2ed6b036bed",
            "0x000000000000000000000000ce23256ae677765a41e8d7e4d099359771615ca4",
            "0x0000000000000000000000000000000000000000000000000000000000000006"
          ],
          "data": "0x00000000000000000000000000000000000000000000000000000000000003e8",
          "blockHash": "0x7a8296659025b73cf2a39035a756de89e3400914566998040a4320bd78279dbc",
          "blockNumber": "0x83aba6",
          "blockTimestamp": "0x685c85a0",
          "transactionHash": "0xbc93cad4743ddf3a2f5acaad774b70416d0aa7bf69fe261300d6a809cc6036ba",
          "transactionIndex": "0xbe",
          "logIndex": "0xe3",
          "removed": false
        },
        {
          "address": "0xcf4658e9074bc3a7d3faec07cb3752375eac271c",
          "topics": [
            "0xddf252ad1be2c89b69c2b068fc378daa952ba7f163c4a11628f55a4df523b3ef",
            "0x0000000000000000000000000000000000000000000000000000000000000000",
            "0x000000000000000000000000ce23256ae677765a41e8d7e4d099359771615ca4",
            "0x0000000000000000000000000000000000000000000000000000000000000007"
          ],
          "data": "0x",
          "blockHash": "0x7a8296659025b73cf2a39035a756de89e3400914566998040a4320bd78279dbc",
          "blockNumber": "0x83aba6",
          "blockTimestamp": "0x685c85a0",
          "transactionHash": "0xbc93cad4743ddf3a2f5acaad774b70416d0aa7bf69fe261300d6a809cc6036ba",
          "transactionIndex": "0xbe",
          "logIndex": "0xe4",
          "removed": false
        },
        {
          "address": "0xcf4658e9074bc3a7d3faec07cb3752375eac271c",
          "topics": [
            "0x1cbc5ab135991bd2b6a4b034a04aa2aa086dac1371cb9b16b8b5e2ed6b036bed",
            "0x000000000000000000000000ce23256ae677765a41e8d7e4d099359771615ca4",
            "0x0000000000000000000000000000000000000000000000000000000000000007"
          ],
          "data": "0x00000000000000000000000000000000000000000000000000000000000003e8",
          "blockHash": "0x7a8296659025b73cf2a39035a756de89e3400914566998040a4320bd78279dbc",
          "blockNumber": "0x83aba6",
          "blockTimestamp": "0x685c85a0",
          "transactionHash": "0xbc93cad4743ddf3a2f5acaad774b70416d0aa7bf69fe261300d6a809cc6036ba",
          "transactionIndex": "0xbe",
          "logIndex": "0xe5",
          "removed": false
        },
        {
          "address": "0x34abd99554ef53edba3b6abebb97df2864cfa07c",
          "topics": [
            "0x8c5be1e5ebec7d5bd14f71427d1e84f3dd0314c0f7b2291e5b200ac8c7c3b925",
            "0x000000000000000000000000ce23256ae677765a41e8d7e4d099359771615ca4",
            "0x000000000000000000000000cf4658e9074bc3a7d3faec07cb3752375eac271c"
          ],
          "data": "0x000000000000000000000000000000000000000000000015af1d78b58c3ff060",
          "blockHash": "0x7a8296659025b73cf2a39035a756de89e3400914566998040a4320bd78279dbc",
          "blockNumber": "0x83aba6",
          "blockTimestamp": "0x685c85a0",
          "transactionHash": "0xbc93cad4743ddf3a2f5acaad774b70416d0aa7bf69fe261300d6a809cc6036ba",
          "transactionIndex": "0xbe",
          "logIndex": "0xe6",
          "removed": false
        },
        {
          "address": "0x34abd99554ef53edba3b6abebb97df2864cfa07c",
          "topics": [
            "0xddf252ad1be2c89b69c2b068fc378daa952ba7f163c4a11628f55a4df523b3ef",
            "0x000000000000000000000000ce23256ae677765a41e8d7e4d099359771615ca4",
            "0x0000000000000000000000008d6051dedbe3b08590674b0c4324c1d8b3ad2a00"
          ],
          "data": "0x0000000000000000000000000000000000000000000000000000000000000fa0",
          "blockHash": "0x7a8296659025b73cf2a39035a756de89e3400914566998040a4320bd78279dbc",
          "blockNumber": "0x83aba6",
          "blockTimestamp": "0x685c85a0",
          "transactionHash": "0xbc93cad4743ddf3a2f5acaad774b70416d0aa7bf69fe261300d6a809cc6036ba",
          "transactionIndex": "0xbe",
          "logIndex": "0xe7",
          "removed": false
        },
        {
          "address": "0x34abd99554ef53edba3b6abebb97df2864cfa07c",
          "topics": [
            "0x8c5be1e5ebec7d5bd14f71427d1e84f3dd0314c0f7b2291e5b200ac8c7c3b925",
            "0x000000000000000000000000ce23256ae677765a41e8d7e4d099359771615ca4",
            "0x000000000000000000000000cf4658e9074bc3a7d3faec07cb3752375eac271c"
          ],
          "data": "0x000000000000000000000000000000000000000000000015af1d78b58c3ff038",
          "blockHash": "0x7a8296659025b73cf2a39035a756de89e3400914566998040a4320bd78279dbc",
          "blockNumber": "0x83aba6",
          "blockTimestamp": "0x685c85a0",
          "transactionHash": "0xbc93cad4743ddf3a2f5acaad774b70416d0aa7bf69fe261300d6a809cc6036ba",
          "transactionIndex": "0xbe",
          "logIndex": "0xe8",
          "removed": false
        },
        {
          "address": "0x34abd99554ef53edba3b6abebb97df2864cfa07c",
          "topics": [
            "0xddf252ad1be2c89b69c2b068fc378daa952ba7f163c4a11628f55a4df523b3ef",
            "0x000000000000000000000000ce23256ae677765a41e8d7e4d099359771615ca4",
            "0x0000000000000000000000008d6051dedbe3b08590674b0c4324c1d8b3ad2a00"
          ],
          "data": "0x0000000000000000000000000000000000000000000000000000000000000028",
          "blockHash": "0x7a8296659025b73cf2a39035a756de89e3400914566998040a4320bd78279dbc",
          "blockNumber": "0x83aba6",
          "blockTimestamp": "0x685c85a0",
          "transactionHash": "0xbc93cad4743ddf3a2f5acaad774b70416d0aa7bf69fe261300d6a809cc6036ba",
          "transactionIndex": "0xbe",
          "logIndex": "0xe9",
          "removed": false
        }
      ],
      "logsBloom": "0x00000000000000000000000000000000000000000000000000400000000000000200000200000000000000000000000000001000000400000000000000200000000030000000000000000008000000000000008000001000000000000000012008000000020000000000000000000800000000000400000000000010000020000000000400000100000000000000001000000800000000000000000000100000020000000400000040000000000080000800000000000000002000080000000000000002000000000000000000000000000000008002000000000100000020000010000004000000000000000000000000000000000000000000000000000000",
      "type": "0x2",
      "transactionHash": "0xbc93cad4743ddf3a2f5acaad774b70416d0aa7bf69fe261300d6a809cc6036ba",
      "transactionIndex": "0xbe",
      "blockHash": "0x7a8296659025b73cf2a39035a756de89e3400914566998040a4320bd78279dbc",
      "blockNumber": "0x83aba6",
      "gasUsed": "0xa2552",
      "effectiveGasPrice": "0x613040",
      "from": "0xce23256ae677765a41e8d7e4d099359771615ca4",
      "to": "0xcf4658e9074bc3a7d3faec07cb3752375eac271c",
      "contractAddress": null
    }
  ],
  "libraries": [],
  "pending": [],
  "returns": {},
  "timestamp": 1750893985,
  "chain": 11155111,
  "commit": null
}