{
  "transactions": [
    {
      "hash": "0x52ff45f0877e82bbe62926ae742ccf802e84d2665cf57f688658d44431b41ba6",
      "transactionType": "CALL",
      "contractName": null,
      "contractAddress": "0x80cf106b844597ccd7689790167835dd64de0e99",
      "function": "buy(address,uint256,uint256)",
      "arguments": [
        "0x2AE29E74B7c1B3d4BD5484f26918bE598eAa39F2",
        "1000",
        "2"
      ],
      "transaction": {
        "from": "0xce23256ae677765a41e8d7e4d099359771615ca4",
        "to": "0x80cf106b844597ccd7689790167835dd64de0e99",
        "gas": "0x70d08",
        "value": "0x0",
        "input": "0xa59ac6dd0000000000000000000000002ae29e74b7c1b3d4bd5484f26918be598eaa39f200000000000000000000000000000000000000000000000000000000000003e80000000000000000000000000000000000000000000000000000000000000002",
        "nonce": "0xae",
        "chainId": "0xaa36a7"
      },
      "additionalContracts": [],
      "isFixedGasLimit": false
    }
  ],
  "receipts": [
    {
      "status": "0x1",
      "cumulativeGasUsed": "0xea1b94",
      "logs": [
        {
          "address": "0x80cf106b844597ccd7689790167835dd64de0e99",
          "topics": [
            "0xddf252ad1be2c89b69c2b068fc378daa952ba7f163c4a11628f55a4df523b3ef",
            "0x0000000000000000000000000000000000000000000000000000000000000000",
            "0x0000000000000000000000002ae29e74b7c1b3d4bd5484f26918be598eaa39f2",
            "0x0000000000000000000000000000000000000000000000000000000000000002"
          ],
          "data": "0x",
          "blockHash": "0xb1a2e9c856b63c95cc5075934293abbaf676e03f650a65155f49c8adb6e21212",
          "blockNumber": "0x83a852",
          "blockTimestamp": "0x685c5da4",
          "transactionHash": "0x52ff45f0877e82bbe62926ae742ccf802e84d2665cf57f688658d44431b41ba6",
          "transactionIndex": "0x59",
          "logIndex": "0x7f",
          "removed": false
        },
        {
          "address": "0x80cf106b844597ccd7689790167835dd64de0e99",
          "topics": [
            "0x1cbc5ab135991bd2b6a4b034a04aa2aa086dac1371cb9b16b8b5e2ed6b036bed",
            "0x000000000000000000000000ce23256ae677765a41e8d7e4d099359771615ca4",
            "0x0000000000000000000000000000000000000000000000000000000000000002"
          ],
          "data": "0x00000000000000000000000000000000000000000000000000000000000003e8",
          "blockHash": "0xb1a2e9c856b63c95cc5075934293abbaf676e03f650a65155f49c8adb6e21212",
          "blockNumber": "0x83a852",
          "blockTimestamp": "0x685c5da4",
          "transactionHash": "0x52ff45f0877e82bbe62926ae742ccf802e84d2665cf57f688658d44431b41ba6",
          "transactionIndex": "0x59",
          "logIndex": "0x80",
          "removed": false
        },
        {
          "address": "0x80cf106b844597ccd7689790167835dd64de0e99",
          "topics": [
            "0xddf252ad1be2c89b69c2b068fc378daa952ba7f163c4a11628f55a4df523b3ef",
            "0x0000000000000000000000000000000000000000000000000000000000000000",
            "0x0000000000000000000000002ae29e74b7c1b3d4bd5484f26918be598eaa39f2",
            "0x0000000000000000000000000000000000000000000000000000000000000003"
          ],
          "data": "0x",
          "blockHash": "0xb1a2e9c856b63c95cc5075934293abbaf676e03f650a65155f49c8adb6e21212",
          "blockNumber": "0x83a852",
          "blockTimestamp": "0x685c5da4",
          "transactionHash": "0x52ff45f0877e82bbe62926ae742ccf802e84d2665cf57f688658d44431b41ba6",
          "transactionIndex": "0x59",
          "logIndex": "0x81",
          "removed": false
        },
        {
          "address": "0x80cf106b844597ccd7689790167835dd64de0e99",
          "topics": [
            "0x1cbc5ab135991bd2b6a4b034a04aa2aa086dac1371cb9b16b8b5e2ed6b036bed",
            "0x000000000000000000000000ce23256ae677765a41e8d7e4d099359771615ca4",
            "0x0000000000000000000000000000000000000000000000000000000000000003"
          ],
          "data": "0x00000000000000000000000000000000000000000000000000000000000003e8",
          "blockHash": "0xb1a2e9c856b63c95cc5075934293abbaf676e03f650a65155f49c8adb6e21212",
          "blockNumber": "0x83a852",
          "blockTimestamp": "0x685c5da4",
          "transactionHash": "0x52ff45f0877e82bbe62926ae742ccf802e84d2665cf57f688658d44431b41ba6",
          "transactionIndex": "0x59",
          "logIndex": "0x82",
          "removed": false
        }
      ],
      "logsBloom": "0x04000000000000000000000000000000000000000000000000400800000000000008000200000000000000000000000000000000020080000000000000000000000000008000000000000008000000000000000000001000000000000000000000000000020000000000000000000800000000000000000000000010000000000000000000000100000000000000000000000000000000000000000000000000000000000400000040000500000000000000000000800000000000000000400000000002000000000000000000000000000000000000000000080000000020000000000000000000000000000000000000000000008000000000000000000000",
      "type": "0x2",
      "transactionHash": "0x52ff45f0877e82bbe62926ae742ccf802e84d2665cf57f688658d44431b41ba6",
      "transactionIndex": "0x59",
      "blockHash": "0xb1a2e9c856b63c95cc5075934293abbaf676e03f650a65155f49c8adb6e21212",
      "blockNumber": "0x83a852",
      "gasUsed": "0x51ad0",
      "effectiveGasPrice": "0xbe5889b",
      "from": "0xce23256ae677765a41e8d7e4d099359771615ca4",
      "to": "0x80cf106b844597ccd7689790167835dd64de0e99",
      "contractAddress": null
    }
  ],
  "libraries": [],
  "pending": [],
  "returns": {},
  "timestamp": 1750883750,
  "chain": 11155111,
  "commit": null
}