{
  "transactions": [
    {
      "hash": "0x41ee8f40adcce6326544c306e082b8b90f3c1aaa4e16d71c3d1d2103970b8f2d",
      "transactionType": "CALL",
      "contractName": null,
      "contractAddress": "0x91d89ee3a5b24c2d6dc02168f6140c70a0613df7",
      "function": "buy(uint256,uint256)",
      "arguments": [
        "1000",
        "4"
      ],
      "transaction": {
        "from": "0xce23256ae677765a41e8d7e4d099359771615ca4",
        "to": "0x91d89ee3a5b24c2d6dc02168f6140c70a0613df7",
        "gas": "0xe011c",
        "value": "0x0",
        "input": "0xd6febde800000000000000000000000000000000000000000000000000000000000003e80000000000000000000000000000000000000000000000000000000000000004",
        "nonce": "0xe9",
        "chainId": "0xaa36a7"
      },
      "additionalContracts": [],
      "isFixedGasLimit": false
    }
  ],
  "receipts": [
    {
      "status": "0x1",
      "cumulativeGasUsed": "0x19f2e5e",
      "logs": [
        {
          "address": "0x91d89ee3a5b24c2d6dc02168f6140c70a0613df7",
          "topics": [
            "0xddf252ad1be2c89b69c2b068fc378daa952ba7f163c4a11628f55a4df523b3ef",
            "0x0000000000000000000000000000000000000000000000000000000000000000",
            "0x000000000000000000000000ce23256ae677765a41e8d7e4d099359771615ca4",
            "0x0000000000000000000000000000000000000000000000000000000000000008"
          ],
          "data": "0x",
          "blockHash": "0x317093218d3629a7473f5dd82b87771337c91fa94c04da8613c0c32b3984385a",
          "blockNumber": "0x83aceb",
          "blockTimestamp": "0x685c9500",
          "transactionHash": "0x41ee8f40adcce6326544c306e082b8b90f3c1aaa4e16d71c3d1d2103970b8f2d",
          "transactionIndex": "0xc3",
          "logIndex": "0x109",
          "removed": false
        },
        {
          "address": "0x91d89ee3a5b24c2d6dc02168f6140c70a0613df7",
          "topics": [
            "0x1cbc5ab135991bd2b6a4b034a04aa2aa086dac1371cb9b16b8b5e2ed6b036bed",
            "0x000000000000000000000000ce23256ae677765a41e8d7e4d099359771615ca4",
            "0x0000000000000000000000000000000000000000000000000000000000000008"
          ],
          "data": "0x00000000000000000000000000000000000000000000000000000000000003e8",
          "blockHash": "0x317093218d3629a7473f5dd82b87771337c91fa94c04da8613c0c32b3984385a",
          "blockNumber": "0x83aceb",
          "blockTimestamp": "0x685c9500",
          "transactionHash": "0x41ee8f40adcce6326544c306e082b8b90f3c1aaa4e16d71c3d1d2103970b8f2d",
          "transactionIndex": "0xc3",
          "logIndex": "0x10a",
          "removed": false
        },
        {
          "address": "0x91d89ee3a5b24c2d6dc02168f6140c70a0613df7",
          "topics": [
            "0xddf252ad1be2c89b69c2b068fc378daa952ba7f163c4a11628f55a4df523b3ef",
            "0x0000000000000000000000000000000000000000000000000000000000000000",
            "0x000000000000000000000000ce23256ae677765a41e8d7e4d099359771615ca4",
            "0x0000000000000000000000000000000000000000000000000000000000000009"
          ],
          "data": "0x",
          "blockHash": "0x317093218d3629a7473f5dd82b87771337c91fa94c04da8613c0c32b3984385a",
          "blockNumber": "0x83aceb",
          "blockTimestamp": "0x685c9500",
          "transactionHash": "0x41ee8f40adcce6326544c306e082b8b90f3c1aaa4e16d71c3d1d2103970b8f2d",
          "transactionIndex": "0xc3",
          "logIndex": "0x10b",
          "removed": false
        },
        {
          "address": "0x91d89ee3a5b24c2d6dc02168f6140c70a0613df7",
          "topics": [
            "0x1cbc5ab135991bd2b6a4b034a04aa2aa086dac1371cb9b16b8b5e2ed6b036bed",
            "0x000000000000000000000000ce23256ae677765a41e8d7e4d099359771615ca4",
            "0x0000000000000000000000000000000000000000000000000000000000000009"
          ],
          "data": "0x00000000000000000000000000000000000000000000000000000000000003e8",
          "blockHash": "0x317093218d3629a7473f5dd82b87771337c91fa94c04da8613c0c32b3984385a",
          "blockNumber": "0x83aceb",
          "blockTimestamp": "0x685c9500",
          "transactionHash": "0x41ee8f40adcce6326544c306e082b8b90f3c1aaa4e16d71c3d1d2103970b8f2d",
          "transactionIndex": "0xc3",
          "logIndex": "0x10c",
          "removed": false
        },
        {
          "address": "0x91d89ee3a5b24c2d6dc02168f6140c70a0613df7",
          "topics": [
            "0xddf252ad1be2c89b69c2b068fc378daa952ba7f163c4a11628f55a4df523b3ef",
            "0x0000000000000000000000000000000000000000000000000000000000000000",
            "0x000000000000000000000000ce23256ae677765a41e8d7e4d099359771615ca4",
            "0x000000000000000000000000000000000000000000000000000000000000000a"
          ],
          "data": "0x",
          "blockHash": "0x317093218d3629a7473f5dd82b87771337c91fa94c04da8613c0c32b3984385a",
          "blockNumber": "0x83aceb",
          "blockTimestamp": "0x685c9500",
          "transactionHash": "0x41ee8f40adcce6326544c306e082b8b90f3c1aaa4e16d71c3d1d2103970b8f2d",
          "transactionIndex": "0xc3",
          "logIndex": "0x10d",
          "removed": false
        },
        {
          "address": "0x91d89ee3a5b24c2d6dc02168f6140c70a0613df7",
          "topics": [
            "0x1cbc5ab135991bd2b6a4b034a04aa2aa086dac1371cb9b16b8b5e2ed6b036bed",
            "0x000000000000000000000000ce23256ae677765a41e8d7e4d099359771615ca4",
            "0x000000000000000000000000000000000000000000000000000000000000000a"
          ],
          "data": "0x00000000000000000000000000000000000000000000000000000000000003e8",
          "blockHash": "0x317093218d3629a7473f5dd82b87771337c91fa94c04da8613c0c32b3984385a",
          "blockNumber": "0x83aceb",
          "blockTimestamp": "0x685c9500",
          "transactionHash": "0x41ee8f40adcce6326544c306e082b8b90f3c1aaa4e16d71c3d1d2103970b8f2d",
          "transactionIndex": "0xc3",
          "logIndex": "0x10e",
          "removed": false
        },
        {
          "address": "0x91d89ee3a5b24c2d6dc02168f6140c70a0613df7",
          "topics": [
            "0xddf252ad1be2c89b69c2b068fc378daa952ba7f163c4a11628f55a4df523b3ef",
            "0x0000000000000000000000000000000000000000000000000000000000000000",
            "0x000000000000000000000000ce23256ae677765a41e8d7e4d099359771615ca4",
            "0x000000000000000000000000000000000000000000000000000000000000000b"
          ],
          "data": "0x",
          "blockHash": "0x317093218d3629a7473f5dd82b87771337c91fa94c04da8613c0c32b3984385a",
          "blockNumber": "0x83aceb",
          "blockTimestamp": "0x685c9500",
          "transactionHash": "0x41ee8f40adcce6326544c306e082b8b90f3c1aaa4e16d71c3d1d2103970b8f2d",
          "transactionIndex": "0xc3",
          "logIndex": "0x10f",
          "removed": false
        },
        {
          "address": "0x91d89ee3a5b24c2d6dc02168f6140c70a0613df7",
          "topics": [
            "0x1cbc5ab135991bd2b6a4b034a04aa2aa086dac1371cb9b16b8b5e2ed6b036bed",
            "0x000000000000000000000000ce23256ae677765a41e8d7e4d099359771615ca4",
            "0x000000000000000000000000000000000000000000000000000000000000000b"
          ],
          "data": "0x00000000000000000000000000000000000000000000000000000000000003e8",
          "blockHash": "0x317093218d3629a7473f5dd82b87771337c91fa94c04da8613c0c32b3984385a",
          "blockNumber": "0x83aceb",
          "blockTimestamp": "0x685c9500",
          "transactionHash": "0x41ee8f40adcce6326544c306e082b8b90f3c1aaa4e16d71c3d1d2103970b8f2d",
          "transactionIndex": "0xc3",
          "logIndex": "0x110",
          "removed": false
        },
        {
          "address": "0x34abd99554ef53edba3b6abebb97df2864cfa07c",
          "topics": [
            "0x8c5be1e5ebec7d5bd14f71427d1e84f3dd0314c0f7b2291e5b200ac8c7c3b925",
            "0x000000000000000000000000ce23256ae677765a41e8d7e4d099359771615ca4",
            "0x00000000000000000000000091d89ee3a5b24c2d6dc02168f6140c70a0613df7"
          ],
          "data": "0x0000000000000000000000000000000000000000000000d8d726b7177a7fe098",
          "blockHash": "0x317093218d3629a7473f5dd82b87771337c91fa94c04da8613c0c32b3984385a",
          "blockNumber": "0x83aceb",
          "blockTimestamp": "0x685c9500",
          "transactionHash": "0x41ee8f40adcce6326544c306e082b8b90f3c1aaa4e16d71c3d1d2103970b8f2d",
          "transactionIndex": "0xc3",
          "logIndex": "0x111",
          "removed": false
        },
        {
          "address": "0x34abd99554ef53edba3b6abebb97df2864cfa07c",
          "topics": [
            "0xddf252ad1be2c89b69c2b068fc378daa952ba7f163c4a11628f55a4df523b3ef",
            "0x000000000000000000000000ce23256ae677765a41e8d7e4d099359771615ca4",
            "0x0000000000000000000000008d6051dedbe3b08590674b0c4324c1d8b3ad2a00"
          ],
          "data": "0x0000000000000000000000000000000000000000000000000000000000000fa0",
          "blockHash": "0x317093218d3629a7473f5dd82b87771337c91fa94c04da8613c0c32b3984385a",
          "blockNumber": "0x83aceb",
          "blockTimestamp": "0x685c9500",
          "transactionHash": "0x41ee8f40adcce6326544c306e082b8b90f3c1aaa4e16d71c3d1d2103970b8f2d",
          "transactionIndex": "0xc3",
          "logIndex": "0x112",
          "removed": false
        },
        {
          "address": "0x34abd99554ef53edba3b6abebb97df2864cfa07c",
          "topics": [
            "0x8c5be1e5ebec7d5bd14f71427d1e84f3dd0314c0f7b2291e5b200ac8c7c3b925",
            "0x000000000000000000000000ce23256ae677765a41e8d7e4d099359771615ca4",
            "0x00000000000000000000000091d89ee3a5b24c2d6dc02168f6140c70a0613df7"
          ],
          "data": "0x0000000000000000000000000000000000000000000000d8d726b7177a7fe070",
          "blockHash": "0x317093218d3629a7473f5dd82b87771337c91fa94c04da8613c0c32b3984385a",
          "blockNumber": "0x83aceb",
          "blockTimestamp": "0x685c9500",
          "transactionHash": "0x41ee8f40adcce6326544c306e082b8b90f3c1aaa4e16d71c3d1d2103970b8f2d",
          "transactionIndex": "0xc3",
          "logIndex": "0x113",
          "removed": false
        },
        {
          "address": "0x34abd99554ef53edba3b6abebb97df2864cfa07c",
          "topics": [
            "0xddf252ad1be2c89b69c2b068fc378daa952ba7f163c4a11628f55a4df523b3ef",
            "0x000000000000000000000000ce23256ae677765a41e8d7e4d099359771615ca4",
            "0x0000000000000000000000008d6051dedbe3b08590674b0c4324c1d8b3ad2a00"
          ],
          "data": "0x0000000000000000000000000000000000000000000000000000000000000028",
          "blockHash": "0x317093218d3629a7473f5dd82b87771337c91fa94c04da8613c0c32b3984385a",
          "blockNumber": "0x83aceb",
          "blockTimestamp": "0x685c9500",
          "transactionHash": "0x41ee8f40adcce6326544c306e082b8b90f3c1aaa4e16d71c3d1d2103970b8f2d",
          "transactionIndex": "0xc3",
          "logIndex": "0x114",
          "removed": false
        }
      ],
      "logsBloom": "0x00000000000000000000004000000000000000000000000000400000000000000200000200000000000000000000000000000002040080000020000000200000000000000000000000000008000000000000008000001000000000000000000000000000020000000000000000000800000000000000000000000010000020000080000000000100018008000000000000001000000000000000000000000000020000000400000040000000000080000000000002000000000000000000000040000002000000000000000000000000002000000002000000000000000020000010000004000000000000000000000000000400000000040000000000800020",
      "type": "0x2",
      "transactionHash": "0x41ee8f40adcce6326544c306e082b8b90f3c1aaa4e16d71c3d1d2103970b8f2d",
      "transactionIndex": "0xc3",
      "blockHash": "0x317093218d3629a7473f5dd82b87771337c91fa94c04da8613c0c32b3984385a",
      "blockNumber": "0x83aceb",
      "gasUsed": "0xa238f",
      "effectiveGasPrice": "0x2837ca",
      "from": "0xce23256ae677765a41e8d7e4d099359771615ca4",
      "to": "0x91d89ee3a5b24c2d6dc02168f6140c70a0613df7",
      "contractAddress": null
    }
  ],
  "libraries": [],
  "pending": [],
  "returns": {},
  "timestamp": 1750897921,
  "chain": 11155111,
  "commit": null
}