{
  "transactions": [
    {
      "hash": "0xfa8eef2ca30cfa50cc482440d2046ef60c92db54eda130b98327b12f6477a422",
      "transactionType": "CALL",
      "contractName": null,
      "contractAddress": "0xceca2e1bca3b27d8435f99f61cea52e51a8ee6cb",
      "function": "putOnSale(uint256,uint256)",
      "arguments": [
        "1",
        "400000000000000000000"
      ],
      "transaction": {
        "from": "0xce23256ae677765a41e8d7e4d099359771615ca4",
        "to": "0xceca2e1bca3b27d8435f99f61cea52e51a8ee6cb",
        "gas": "0x29108",
        "value": "0x0",
        "input": "0x36f7992b0000000000000000000000000000000000000000000000000000000000000001000000000000000000000000000000000000000000000015af1d78b58c400000",
        "nonce": "0x100",
        "chainId": "0xaa36a7"
      },
      "additionalContracts": [],
      "isFixedGasLimit": false
    }
  ],
  "receipts": [
    {
      "status": "0x1",
      "cumulativeGasUsed": "0x2770abc",
      "logs": [
        {
          "address": "0xceca2e1bca3b27d8435f99f61cea52e51a8ee6cb",
          "topics": [
            "0x7c11ba8301c87f8a6d59779bcbe2b7446e865bd1a4359a69e5c400212e0a5795",
            "0x0000000000000000000000000000000000000000000000000000000000000001"
          ],
          "data": "0x000000000000000000000000000000000000000000000015af1d78b58c400000",
          "blockHash": "0x5d9f41bd5f538f7652c3ea19c5daab1282dc60628a600aafaa4d53c8e9835f57",
          "blockNumber": "0x845528",
          "blockTimestamp": "0x68648094",
          "transactionHash": "0xfa8eef2ca30cfa50cc482440d2046ef60c92db54eda130b98327b12f6477a422",
          "transactionIndex": "0x172",
          "logIndex": "0x2e1",
          "removed": false
        }
      ],
      "logsBloom": "0x00000000000000000000000000000000000000000000000000000000000000000000000000000000000000000000000000000000000000000000000000040000000000000000000000000000000000000000000100040000000000000000000000000000000000000000000000000040000000000000000000000000000000000000000000000000000000000000000000000000000000040000000000200000000000000000000000000000000000000000000000000000000000000000000000000000000000000000000200000000000000000000000000000000000040000000000000000000000008000000000000000000000000000000000000000000",
      "type": "0x2",
      "transactionHash": "0xfa8eef2ca30cfa50cc482440d2046ef60c92db54eda130b98327b12f6477a422",
      "transactionIndex": "0x172",
      "blockHash": "0x5d9f41bd5f538f7652c3ea19c5daab1282dc60628a600aafaa4d53c8e9835f57",
      "blockNumber": "0x845528",
      "gasUsed": "0x1c141",
      "effectiveGasPrice": "0xd584e3",
      "from": "0xce23256ae677765a41e8d7e4d099359771615ca4",
      "to": "0xceca2e1bca3b27d8435f99f61cea52e51a8ee6cb",
      "contractAddress": null
    }
  ],
  "libraries": [],
  "pending": [],
  "returns": {},
  "timestamp": 1751416980,
  "chain": 11155111,
  "commit": null
}