{
  "transactions": [
    {
      "hash": "0x9150e14b83f248e66a7bf00617c16a5ba4f0b69c3febd381745a9c71817e6d58",
      "transactionType": "CALL",
      "contractName": null,
      "contractAddress": "0x176658a721f279f828cb271e0405b0d1e3a065ef",
      "function": "putOnSale(uint256,uint256)",
      "arguments": [
        "2",
        "4000"
      ],
      "transaction": {
        "from": "0xce23256ae677765a41e8d7e4d099359771615ca4",
        "to": "0x176658a721f279f828cb271e0405b0d1e3a065ef",
        "gas": "0x26056",
        "value": "0x0",
        "input": "0x36f7992b00000000000000000000000000000000000000000000000000000000000000020000000000000000000000000000000000000000000000000000000000000fa0",
        "nonce": "0x8b",
        "chainId": "0xaa36a7"
      },
      "additionalContracts": [],
      "isFixedGasLimit": false
    }
  ],
  "receipts": [
    {
      "status": "0x1",
      "cumulativeGasUsed": "0x145a9df",
      "logs": [
        {
          "address": "0x176658a721f279f828cb271e0405b0d1e3a065ef",
          "topics": [
            "0x7c11ba8301c87f8a6d59779bcbe2b7446e865bd1a4359a69e5c400212e0a5795",
            "0x0000000000000000000000000000000000000000000000000000000000000002"
          ],
          "data": "0x0000000000000000000000000000000000000000000000000000000000000fa0",
          "blockHash": "0x6d5dd0dd3e774203268f951c2b9a8474104fea41216ea075bf4ca720722d3a17",
          "blockNumber": "0x83a2d4",
          "blockTimestamp": "0x685c1ba4",
          "transactionHash": "0x9150e14b83f248e66a7bf00617c16a5ba4f0b69c3febd381745a9c71817e6d58",
          "transactionIndex": "0x9f",
          "logIndex": "0x13b",
          "removed": false
        }
      ],
      "logsBloom": "0x04000000000000000000000000000000000000000000000000000000000000000000000000000000000000000000000000000000000000000000000000000000000000000000000000000000000000000000000100000000000000000000000000000000000000000000000000000000000000000000000001000000000000000000000000000000000000000400000000000000000000000000000000200000000000000000000000000100000000000000000000000000000000000000000000000000000000000000000200000000000000000000000000000000000000000000000000000000000080000000000000000000008000000000000000000000",
      "type": "0x2",
      "transactionHash": "0x9150e14b83f248e66a7bf00617c16a5ba4f0b69c3febd381745a9c71817e6d58",
      "transactionIndex": "0x9f",
      "blockHash": "0x6d5dd0dd3e774203268f951c2b9a8474104fea41216ea075bf4ca720722d3a17",
      "blockNumber": "0x83a2d4",
      "gasUsed": "0x1b86e",
      "effectiveGasPrice": "0x19472d8d0",
      "from": "0xce23256ae677765a41e8d7e4d099359771615ca4",
      "to": "0x176658a721f279f828cb271e0405b0d1e3a065ef",
      "contractAddress": null
    }
  ],
  "libraries": [],
  "pending": [],
  "returns": {},
  "timestamp": 1750866846,
  "chain": 11155111,
  "commit": null
}