{
  "transactions": [
    {
      "hash": "0x73e0e00a69390692346340e2efe90cf8982a30b1c685c9838ef095d1e9c829ef",
      "transactionType": "CALL",
      "contractName": null,
      "contractAddress": "0x968ddc74f684be52890afce41b880bdb57e1f027",
      "function": "buy(uint256,uint256)",
      "arguments": [
        "1000",
        "4"
      ],
      "transaction": {
        "from": "0xce23256ae677765a41e8d7e4d099359771615ca4",
        "to": "0x968ddc74f684be52890afce41b880bdb57e1f027",
        "gas": "0xd3c23",
        "value": "0x0",
        "input": "0xd6febde800000000000000000000000000000000000000000000000000000000000003e80000000000000000000000000000000000000000000000000000000000000004",
        "nonce": "0x65",
        "chainId": "0xaa36a7"
      },
      "additionalContracts": [],
      "isFixedGasLimit": false
    }
  ],
  "receipts": [
    {
      "status": "0x1",
      "cumulativeGasUsed": "0x5dc8e1",
      "logs": [
        {
          "address": "0x968ddc74f684be52890afce41b880bdb57e1f027",
          "topics": [
            "0xddf252ad1be2c89b69c2b068fc378daa952ba7f163c4a11628f55a4df523b3ef",
            "0x0000000000000000000000000000000000000000000000000000000000000000",
            "0x000000000000000000000000ce23256ae677765a41e8d7e4d099359771615ca4",
            "0x0000000000000000000000000000000000000000000000000000000000000037"
          ],
          "data": "0x",
          "blockHash": "0xc41168c7a76cee1283ba120b12ad5d1e45f1742a58887c931e92cb8187bcdabd",
          "blockNumber": "0x83217c",
          "blockTimestamp": "0x685605b4",
          "transactionHash": "0x73e0e00a69390692346340e2efe90cf8982a30b1c685c9838ef095d1e9c829ef",
          "transactionIndex": "0x47",
          "logIndex": "0x3f",
          "removed": false
        },
        {
          "address": "0x968ddc74f684be52890afce41b880bdb57e1f027",
          "topics": [
            "0x1cbc5ab135991bd2b6a4b034a04aa2aa086dac1371cb9b16b8b5e2ed6b036bed",
            "0x000000000000000000000000ce23256ae677765a41e8d7e4d099359771615ca4",
            "0x0000000000000000000000000000000000000000000000000000000000000037"
          ],
          "data": "0x00000000000000000000000000000000000000000000000000000000000003e8",
          "blockHash": "0xc41168c7a76cee1283ba120b12ad5d1e45f1742a58887c931e92cb8187bcdabd",
          "blockNumber": "0x83217c",
          "blockTimestamp": "0x685605b4",
          "transactionHash": "0x73e0e00a69390692346340e2efe90cf8982a30b1c685c9838ef095d1e9c829ef",
          "transactionIndex": "0x47",
          "logIndex": "0x40",
          "removed": false
        },
        {
          "address": "0x968ddc74f684be52890afce41b880bdb57e1f027",
          "topics": [
            "0xddf252ad1be2c89b69c2b068fc378daa952ba7f163c4a11628f55a4df523b3ef",
            "0x0000000000000000000000000000000000000000000000000000000000000000",
            "0x000000000000000000000000ce23256ae677765a41e8d7e4d099359771615ca4",
            "0x0000000000000000000000000000000000000000000000000000000000000038"
          ],
          "data": "0x",
          "blockHash": "0xc41168c7a76cee1283ba120b12ad5d1e45f1742a58887c931e92cb8187bcdabd",
          "blockNumber": "0x83217c",
          "blockTimestamp": "0x685605b4",
          "transactionHash": "0x73e0e00a69390692346340e2efe90cf8982a30b1c685c9838ef095d1e9c829ef",
          "transactionIndex": "0x47",
          "logIndex": "0x41",
          "removed": false
        },
        {
          "address": "0x968ddc74f684be52890afce41b880bdb57e1f027",
          "topics": [
            "0x1cbc5ab135991bd2b6a4b034a04aa2aa086dac1371cb9b16b8b5e2ed6b036bed",
            "0x000000000000000000000000ce23256ae677765a41e8d7e4d099359771615ca4",
            "0x0000000000000000000000000000000000000000000000000000000000000038"
          ],
          "data": "0x00000000000000000000000000000000000000000000000000000000000003e8",
          "blockHash": "0xc41168c7a76cee1283ba120b12ad5d1e45f1742a58887c931e92cb8187bcdabd",
          "blockNumber": "0x83217c",
          "blockTimestamp": "0x685605b4",
          "transactionHash": "0x73e0e00a69390692346340e2efe90cf8982a30b1c685c9838ef095d1e9c829ef",
          "transactionIndex": "0x47",
          "logIndex": "0x42",
          "removed": false
        },
        {
          "address": "0x968ddc74f684be52890afce41b880bdb57e1f027",
          "topics": [
            "0xddf252ad1be2c89b69c2b068fc378daa952ba7f163c4a11628f55a4df523b3ef",
            "0x0000000000000000000000000000000000000000000000000000000000000000",
            "0x000000000000000000000000ce23256ae677765a41e8d7e4d099359771615ca4",
            "0x0000000000000000000000000000000000000000000000000000000000000039"
          ],
          "data": "0x",
          "blockHash": "0xc41168c7a76cee1283ba120b12ad5d1e45f1742a58887c931e92cb8187bcdabd",
          "blockNumber": "0x83217c",
          "blockTimestamp": "0x685605b4",
          "transactionHash": "0x73e0e00a69390692346340e2efe90cf8982a30b1c685c9838ef095d1e9c829ef",
          "transactionIndex": "0x47",
          "logIndex": "0x43",
          "removed": false
        },
        {
          "address": "0x968ddc74f684be52890afce41b880bdb57e1f027",
          "topics": [
            "0x1cbc5ab135991bd2b6a4b034a04aa2aa086dac1371cb9b16b8b5e2ed6b036bed",
            "0x000000000000000000000000ce23256ae677765a41e8d7e4d099359771615ca4",
            "0x0000000000000000000000000000000000000000000000000000000000000039"
          ],
          "data": "0x00000000000000000000000000000000000000000000000000000000000003e8",
          "blockHash": "0xc41168c7a76cee1283ba120b12ad5d1e45f1742a58887c931e92cb8187bcdabd",
          "blockNumber": "0x83217c",
          "blockTimestamp": "0x685605b4",
          "transactionHash": "0x73e0e00a69390692346340e2efe90cf8982a30b1c685c9838ef095d1e9c829ef",
          "transactionIndex": "0x47",
          "logIndex": "0x44",
          "removed": false
        },
        {
          "address": "0x968ddc74f684be52890afce41b880bdb57e1f027",
          "topics": [
            "0xddf252ad1be2c89b69c2b068fc378daa952ba7f163c4a11628f55a4df523b3ef",
            "0x0000000000000000000000000000000000000000000000000000000000000000",
            "0x000000000000000000000000ce23256ae677765a41e8d7e4d099359771615ca4",
            "0x000000000000000000000000000000000000000000000000000000000000003a"
          ],
          "data": "0x",
          "blockHash": "0xc41168c7a76cee1283ba120b12ad5d1e45f1742a58887c931e92cb8187bcdabd",
          "blockNumber": "0x83217c",
          "blockTimestamp": "0x685605b4",
          "transactionHash": "0x73e0e00a69390692346340e2efe90cf8982a30b1c685c9838ef095d1e9c829ef",
          "transactionIndex": "0x47",
          "logIndex": "0x45",
          "removed": false
        },
        {
          "address": "0x968ddc74f684be52890afce41b880bdb57e1f027",
          "topics": [
            "0x1cbc5ab135991bd2b6a4b034a04aa2aa086dac1371cb9b16b8b5e2ed6b036bed",
            "0x000000000000000000000000ce23256ae677765a41e8d7e4d099359771615ca4",
            "0x000000000000000000000000000000000000000000000000000000000000003a"
          ],
          "data": "0x00000000000000000000000000000000000000000000000000000000000003e8",
          "blockHash": "0xc41168c7a76cee1283ba120b12ad5d1e45f1742a58887c931e92cb8187bcdabd",
          "blockNumber": "0x83217c",
          "blockTimestamp": "0x685605b4",
          "transactionHash": "0x73e0e00a69390692346340e2efe90cf8982a30b1c685c9838ef095d1e9c829ef",
          "transactionIndex": "0x47",
          "logIndex": "0x46",
          "removed": false
        }
      ],
      "logsBloom": "0x00000000200000000000000000002000000000000000000000400000000000000080000220000000000020000000000000000000000000000000000000000000000000000000000000000008000000020000000800001000000000000000000000000000020000000000000000000800000000002000000000800010004000000000000000000100000000000000000000000080000000000000000000000000000000000400000040000080020000000000000000000000000000000000000000000002000000000000000000000000000000000000000000000000000020000000000000000000000000000000000000000000100000000200000000000000",
      "type": "0x2",
      "transactionHash": "0x73e0e00a69390692346340e2efe90cf8982a30b1c685c9838ef095d1e9c829ef",
      "transactionIndex": "0x47",
      "blockHash": "0xc41168c7a76cee1283ba120b12ad5d1e45f1742a58887c931e92cb8187bcdabd",
      "blockNumber": "0x83217c",
      "gasUsed": "0x994f4",
      "effectiveGasPrice": "0x124fb6",
      "from": "0xce23256ae677765a41e8d7e4d099359771615ca4",
      "to": "0x968ddc74f684be52890afce41b880bdb57e1f027",
      "contractAddress": null
    }
  ],
  "libraries": [],
  "pending": [],
  "returns": {},
  "timestamp": 1750468020,
  "chain": 11155111,
  "commit": null
}