{
  "transactions": [
    {
      "hash": "0xdce3f425e4e18b30591968dd6c276e4c5e75695be972b3fc3f9539a77f3b08a2",
      "transactionType": "CALL",
      "contractName": null,
      "contractAddress": "0x4f5b0cc493ea9321bc5d5a1dfd8bcc2b7c6db7ea",
      "function": "putOnSale(uint256,uint256)",
      "arguments": [
        "1",
        "4000"
      ],
      "transaction": {
        "from": "0xce23256ae677765a41e8d7e4d099359771615ca4",
        "to": "0x4f5b0cc493ea9321bc5d5a1dfd8bcc2b7c6db7ea",
        "gas": "0x26c34",
        "value": "0x0",
        "input": "0x36f7992b00000000000000000000000000000000000000000000000000000000000000010000000000000000000000000000000000000000000000000000000000000fa0",
        "nonce": "0xb8",
        "chainId": "0xaa36a7"
      },
      "additionalContracts": [],
      "isFixedGasLimit": false
    }
  ],
  "receipts": [
    {
      "status": "0x1",
      "cumulativeGasUsed": "0x35c52f3",
      "logs": [
        {
          "address": "0x4f5b0cc493ea9321bc5d5a1dfd8bcc2b7c6db7ea",
          "topics": [
            "0x7c11ba8301c87f8a6d59779bcbe2b7446e865bd1a4359a69e5c400212e0a5795",
            "0x0000000000000000000000000000000000000000000000000000000000000001"
          ],
          "data": "0x0000000000000000000000000000000000000000000000000000000000000fa0",
          "blockHash": "0x536e548c72bbc13b84806feb9cad6d3d0d700ed4db60b324cf2caadc91550ff5",
          "blockNumber": "0x83a8b2",
          "blockTimestamp": "0x685c6224",
          "transactionHash": "0xdce3f425e4e18b30591968dd6c276e4c5e75695be972b3fc3f9539a77f3b08a2",
          "transactionIndex": "0x60",
          "logIndex": "0xa2",
          "removed": false
        }
      ],
      "logsBloom": "0x00000000000000000000000000000000000000000000000000000000000000000000000000000000000000000000000000000000000000000800000000040000000000000000000000000000000000000000000100040000000000000000000000000000000000000000000000000000000000000000000000000000000000000000000000000000000000000000000000000000000000000000000000200000000000000000000000000000000000000000000000000000001000000000000000000000000000000000000200000000000000000000000000000000000040000000000000000000000000008000000000000000000000000000000000000000",
      "type": "0x2",
      "transactionHash": "0xdce3f425e4e18b30591968dd6c276e4c5e75695be972b3fc3f9539a77f3b08a2",
      "transactionIndex": "0x60",
      "blockHash": "0x536e548c72bbc13b84806feb9cad6d3d0d700ed4db60b324cf2caadc91550ff5",
      "blockNumber": "0x83a8b2",
      "gasUsed": "0x1c105",
      "effectiveGasPrice": "0x1ead8ef4",
      "from": "0xce23256ae677765a41e8d7e4d099359771615ca4",
      "to": "0x4f5b0cc493ea9321bc5d5a1dfd8bcc2b7c6db7ea",
      "contractAddress": null
    }
  ],
  "libraries": [],
  "pending": [],
  "returns": {},
  "timestamp": 1750884900,
  "chain": 11155111,
  "commit": null
}