{
  "transactions": [
    {
      "hash": "0x351b2626b5a77ae087fbe49159aff512c8878f25c256ec41e75ea6e05f08dac6",
      "transactionType": "CALL",
      "contractName": null,
      "contractAddress": "0x0877d5424c5eb15c1266b65e3945be86d5dadbe2",
      "function": "claim(uint256[],address)",
      "arguments": [
        "[1, 3]",
        "0xcE23256ae677765a41E8D7E4d099359771615ca4"
      ],
      "transaction": {
        "from": "0xce23256ae677765a41e8d7e4d099359771615ca4",
        "to": "0x0877d5424c5eb15c1266b65e3945be86d5dadbe2",
        "gas": "0x23a42",
        "value": "0x0",
        "input": "0x8c574b480000000000000000000000000000000000000000000000000000000000000040000000000000000000000000ce23256ae677765a41e8d7e4d099359771615ca4000000000000000000000000000000000000000000000000000000000000000200000000000000000000000000000000000000000000000000000000000000010000000000000000000000000000000000000000000000000000000000000003",
        "nonce": "0xaa",
        "chainId": "0xaa36a7"
      },
      "additionalContracts": [],
      "isFixedGasLimit": false
    }
  ],
  "receipts": [
    {
      "status": "0x1",
      "cumulativeGasUsed": "0x11e9a46",
      "logs": [
        {
          "address": "0x0877d5424c5eb15c1266b65e3945be86d5dadbe2",
          "topics": [
            "0x8c5be1e5ebec7d5bd14f71427d1e84f3dd0314c0f7b2291e5b200ac8c7c3b925",
            "0x000000000000000000000000ce23256ae677765a41e8d7e4d099359771615ca4",
            "0x0000000000000000000000000000000000000000000000000000000000000000",
            "0x0000000000000000000000000000000000000000000000000000000000000001"
          ],
          "data": "0x",
          "blockHash": "0x668d3e3f22ec7728ff4e8147ff0d197934d7c836a3154f5fb75c5c109ce0757c",
          "blockNumber": "0x83a735",
          "blockTimestamp": "0x685c5030",
          "transactionHash": "0x351b2626b5a77ae087fbe49159aff512c8878f25c256ec41e75ea6e05f08dac6",
          "transactionIndex": "0x64",
          "logIndex": "0x84",
          "removed": false
        },
        {
          "address": "0x0877d5424c5eb15c1266b65e3945be86d5dadbe2",
          "topics": [
            "0xddf252ad1be2c89b69c2b068fc378daa952ba7f163c4a11628f55a4df523b3ef",
            "0x000000000000000000000000ce23256ae677765a41e8d7e4d099359771615ca4",
            "0x0000000000000000000000000000000000000000000000000000000000000000",
            "0x0000000000000000000000000000000000000000000000000000000000000001"
          ],
          "data": "0x",
          "blockHash": "0x668d3e3f22ec7728ff4e8147ff0d197934d7c836a3154f5fb75c5c109ce0757c",
          "blockNumber": "0x83a735",
          "blockTimestamp": "0x685c5030",
          "transactionHash": "0x351b2626b5a77ae087fbe49159aff512c8878f25c256ec41e75ea6e05f08dac6",
          "transactionIndex": "0x64",
          "logIndex": "0x85",
          "removed": false
        },
        {
          "address": "0x0877d5424c5eb15c1266b65e3945be86d5dadbe2",
          "topics": [
            "0x47cee97cb7acd717b3c0aa1435d004cd5b3c8c57d70dbceb4e4458bbd60e39d4",
            "0x000000000000000000000000ce23256ae677765a41e8d7e4d099359771615ca4",
            "0x0000000000000000000000000000000000000000000000000000000000000001"
          ],
          "data": "0x",
          "blockHash": "0x668d3e3f22ec7728ff4e8147ff0d197934d7c836a3154f5fb75c5c109ce0757c",
          "blockNumber": "0x83a735",
          "blockTimestamp": "0x685c5030",
          "transactionHash": "0x351b2626b5a77ae087fbe49159aff512c8878f25c256ec41e75ea6e05f08dac6",
          "transactionIndex": "0x64",
          "logIndex": "0x86",
          "removed": false
        },
        {
          "address": "0x0877d5424c5eb15c1266b65e3945be86d5dadbe2",
          "topics": [
            "0x8c5be1e5ebec7d5bd14f71427d1e84f3dd0314c0f7b2291e5b200ac8c7c3b925",
            "0x000000000000000000000000ce23256ae677765a41e8d7e4d099359771615ca4",
            "0x0000000000000000000000000000000000000000000000000000000000000000",
            "0x0000000000000000000000000000000000000000000000000000000000000003"
          ],
          "data": "0x",
          "blockHash": "0x668d3e3f22ec7728ff4e8147ff0d197934d7c836a3154f5fb75c5c109ce0757c",
          "blockNumber": "0x83a735",
          "blockTimestamp": "0x685c5030",
          "transactionHash": "0x351b2626b5a77ae087fbe49159aff512c8878f25c256ec41e75ea6e05f08dac6",
          "transactionIndex": "0x64",
          "logIndex": "0x87",
          "removed": false
        },
        {
          "address": "0x0877d5424c5eb15c1266b65e3945be86d5dadbe2",
          "topics": [
            "0xddf252ad1be2c89b69c2b068fc378daa952ba7f163c4a11628f55a4df523b3ef",
            "0x000000000000000000000000ce23256ae677765a41e8d7e4d099359771615ca4",
            "0x0000000000000000000000000000000000000000000000000000000000000000",
            "0x0000000000000000000000000000000000000000000000000000000000000003"
          ],
          "data": "0x",
          "blockHash": "0x668d3e3f22ec7728ff4e8147ff0d197934d7c836a3154f5fb75c5c109ce0757c",
          "blockNumber": "0x83a735",
          "blockTimestamp": "0x685c5030",
          "transactionHash": "0x351b2626b5a77ae087fbe49159aff512c8878f25c256ec41e75ea6e05f08dac6",
          "transactionIndex": "0x64",
          "logIndex": "0x88",
          "removed": false
        },
        {
          "address": "0x0877d5424c5eb15c1266b65e3945be86d5dadbe2",
          "topics": [
            "0x47cee97cb7acd717b3c0aa1435d004cd5b3c8c57d70dbceb4e4458bbd60e39d4",
            "0x000000000000000000000000ce23256ae677765a41e8d7e4d099359771615ca4",
            "0x0000000000000000000000000000000000000000000000000000000000000003"
          ],
          "data": "0x",
          "blockHash": "0x668d3e3f22ec7728ff4e8147ff0d197934d7c836a3154f5fb75c5c109ce0757c",
          "blockNumber": "0x83a735",
          "blockTimestamp": "0x685c5030",
          "transactionHash": "0x351b2626b5a77ae087fbe49159aff512c8878f25c256ec41e75ea6e05f08dac6",
          "transactionIndex": "0x64",
          "logIndex": "0x89",
          "removed": false
        }
      ],
      "logsBloom": "0x00000000000000000000000000000000000000000000000000400000000000000000000000000000000000000000000000000010020000000100000000240000000000000000000000000008000000000000000000041000000000000000000000000000020000000000000000000800000000000000000000000010000000022000000000000100000000000000000000000000000000000000000000000000020000000000000000000000000000000000000000820000000100000000400000000002000000000000000000000000000000000000000000000000000060000010000000000000000000000000000000000000000000000000000000000000",
      "type": "0x2",
      "transactionHash": "0x351b2626b5a77ae087fbe49159aff512c8878f25c256ec41e75ea6e05f08dac6",
      "transactionIndex": "0x64",
      "blockHash": "0x668d3e3f22ec7728ff4e8147ff0d197934d7c836a3154f5fb75c5c109ce0757c",
      "blockNumber": "0x83a735",
      "gasUsed": "0x19cdc",
      "effectiveGasPrice": "0x16505315",
      "from": "0xce23256ae677765a41e8d7e4d099359771615ca4",
      "to": "0x0877d5424c5eb15c1266b65e3945be86d5dadbe2",
      "contractAddress": null
    }
  ],
  "libraries": [],
  "pending": [],
  "returns": {},
  "timestamp": 1750880305,
  "chain": 11155111,
  "commit": null
}