{
  "transactions": [
    {
      "hash": "0x02e09ff5b04f5a33ba97bb231861ed2fd866b15792f80a697c863037c82dbd31",
      "transactionType": "CALL",
      "contractName": null,
      "contractAddress": "0x5a939425c4f35ccf78db5fcc2711a8e9036a325f",
      "function": "claim(uint256)",
      "arguments": [
        "2"
      ],
      "transaction": {
        "from": "0xce23256ae677765a41e8d7e4d099359771615ca4",
        "to": "0x5a939425c4f35ccf78db5fcc2711a8e9036a325f",
        "gas": "0x227e0",
        "value": "0x0",
        "input": "0x379607f50000000000000000000000000000000000000000000000000000000000000002",
        "nonce": "0x11d",
        "chainId": "0xaa36a7"
      },
      "additionalContracts": [],
      "isFixedGasLimit": false
    }
  ],
  "receipts": [
    {
      "status": "0x1",
      "cumulativeGasUsed": "0x1d43b1e",
      "logs": [
        {
          "address": "0x5a939425c4f35ccf78db5fcc2711a8e9036a325f",
          "topics": [
            "0x8c5be1e5ebec7d5bd14f71427d1e84f3dd0314c0f7b2291e5b200ac8c7c3b925",
            "0x000000000000000000000000ce23256ae677765a41e8d7e4d099359771615ca4",
            "0x0000000000000000000000000000000000000000000000000000000000000000",
            "0x0000000000000000000000000000000000000000000000000000000000000002"
          ],
          "data": "0x",
          "blockHash": "0x79188916b96d73437558b0f54fbdc164fa7167e55541ae74b0a7b73d383a22f0",
          "blockNumber": "0x846f9b",
          "blockTimestamp": "0x6865be94",
          "transactionHash": "0x02e09ff5b04f5a33ba97bb231861ed2fd866b15792f80a697c863037c82dbd31",
          "transactionIndex": "0x141",
          "logIndex": "0x1a0",
          "removed": false
        },
        {
          "address": "0x5a939425c4f35ccf78db5fcc2711a8e9036a325f",
          "topics": [
            "0xddf252ad1be2c89b69c2b068fc378daa952ba7f163c4a11628f55a4df523b3ef",
            "0x000000000000000000000000ce23256ae677765a41e8d7e4d099359771615ca4",
            "0x0000000000000000000000000000000000000000000000000000000000000000",
            "0x0000000000000000000000000000000000000000000000000000000000000002"
          ],
          "data": "0x",
          "blockHash": "0x79188916b96d73437558b0f54fbdc164fa7167e55541ae74b0a7b73d383a22f0",
          "blockNumber": "0x846f9b",
          "blockTimestamp": "0x6865be94",
          "transactionHash": "0x02e09ff5b04f5a33ba97bb231861ed2fd866b15792f80a697c863037c82dbd31",
          "transactionIndex": "0x141",
          "logIndex": "0x1a1",
          "removed": false
        },
        {
          "address": "0x5a939425c4f35ccf78db5fcc2711a8e9036a325f",
          "topics": [
            "0x47cee97cb7acd717b3c0aa1435d004cd5b3c8c57d70dbceb4e4458bbd60e39d4",
            "0x000000000000000000000000ce23256ae677765a41e8d7e4d099359771615ca4",
            "0x0000000000000000000000000000000000000000000000000000000000000002"
          ],
          "data": "0x",
          "blockHash": "0x79188916b96d73437558b0f54fbdc164fa7167e55541ae74b0a7b73d383a22f0",
          "blockNumber": "0x846f9b",
          "blockTimestamp": "0x6865be94",
          "transactionHash": "0x02e09ff5b04f5a33ba97bb231861ed2fd866b15792f80a697c863037c82dbd31",
          "transactionIndex": "0x141",
          "logIndex": "0x1a2",
          "removed": false
        },
        {
          "address": "0x34abd99554ef53edba3b6abebb97df2864cfa07c",
          "topics": [
            "0x8c5be1e5ebec7d5bd14f71427d1e84f3dd0314c0f7b2291e5b200ac8c7c3b925",
            "0x000000000000000000000000ce23256ae677765a41e8d7e4d099359771615ca4",
            "0x0000000000000000000000005a939425c4f35ccf78db5fcc2711a8e9036a325f"
          ],
          "data": "0x000000000000000000000000000000000000000000084594de912679ac700000",
          "blockHash": "0x79188916b96d73437558b0f54fbdc164fa7167e55541ae74b0a7b73d383a22f0",
          "blockNumber": "0x846f9b",
          "blockTimestamp": "0x6865be94",
          "transactionHash": "0x02e09ff5b04f5a33ba97bb231861ed2fd866b15792f80a697c863037c82dbd31",
          "transactionIndex": "0x141",
          "logIndex": "0x1a3",
          "removed": false
        },
        {
          "address": "0x34abd99554ef53edba3b6abebb97df2864cfa07c",
          "topics": [
            "0xddf252ad1be2c89b69c2b068fc378daa952ba7f163c4a11628f55a4df523b3ef",
            "0x000000000000000000000000ce23256ae677765a41e8d7e4d099359771615ca4",
            "0x000000000000000000000000ce23256ae677765a41e8d7e4d099359771615ca4"
          ],
          "data": "0x0000000000000000000000000000000000000000000000003782dace9d900000",
          "blockHash": "0x79188916b96d73437558b0f54fbdc164fa7167e55541ae74b0a7b73d383a22f0",
          "blockNumber": "0x846f9b",
          "blockTimestamp": "0x6865be94",
          "transactionHash": "0x02e09ff5b04f5a33ba97bb231861ed2fd866b15792f80a697c863037c82dbd31",
          "transactionIndex": "0x141",
          "logIndex": "0x1a4",
          "removed": false
        }
      ],
      "logsBloom": "0x04000000000000000000000000000000000000000000000000400000000000000000000000000002100000000000000000000010000000000100000000200000000000000000000000000008000000000000008000001000002000000000000000000000020000000000000000000800000000000000000000000010000000000000000000000100000000000000000000000000000000000000000000000000020000000000000000000100000000000000000000020001000000000800000000000002000000000000000000000000000000000002000000000000000020000010000004000000000000000000000000000000008000000000000000000000",
      "type": "0x2",
      "transactionHash": "0x02e09ff5b04f5a33ba97bb231861ed2fd866b15792f80a697c863037c82dbd31",
      "transactionIndex": "0x141",
      "blockHash": "0x79188916b96d73437558b0f54fbdc164fa7167e55541ae74b0a7b73d383a22f0",
      "blockNumber": "0x846f9b",
      "gasUsed": "0x18f8d",
      "effectiveGasPrice": "0x7136e3",
      "from": "0xce23256ae677765a41e8d7e4d099359771615ca4",
      "to": "0x5a939425c4f35ccf78db5fcc2711a8e9036a325f",
      "contractAddress": null
    }
  ],
  "libraries": [],
  "pending": [],
  "returns": {},
  "timestamp": 1751498389,
  "chain": 11155111,
  "commit": null
}