{
  "transactions": [
    {
      "hash": "0xaf3410ffffb69c71bbd88ccf74fed7695338d52a2b5088554bfe60cd98990abd",
      "transactionType": "CALL",
      "contractName": null,
      "contractAddress": "0x5bb4aafec8d02933bbeb6b5242d9191c0ff63dfc",
      "function": "buy(uint256,uint256)",
      "arguments": [
        "1000",
        "2"
      ],
      "transaction": {
        "from": "0xce23256ae677765a41e8d7e4d099359771615ca4",
        "to": "0x5bb4aafec8d02933bbeb6b5242d9191c0ff63dfc",
        "gas": "0x734f5",
        "value": "0x0",
        "input": "0xd6febde800000000000000000000000000000000000000000000000000000000000003e80000000000000000000000000000000000000000000000000000000000000002",
        "nonce": "0x4c",
        "chainId": "0xaa36a7"
      },
      "additionalContracts": [],
      "isFixedGasLimit": false
    }
  ],
  "receipts": [
    {
      "status": "0x1",
      "cumulativeGasUsed": "0x1605679",
      "logs": [
        {
          "address": "0x5bb4aafec8d02933bbeb6b5242d9191c0ff63dfc",
          "topics": [
            "0xddf252ad1be2c89b69c2b068fc378daa952ba7f163c4a11628f55a4df523b3ef",
            "0x0000000000000000000000000000000000000000000000000000000000000000",
            "0x000000000000000000000000ce23256ae677765a41e8d7e4d099359771615ca4",
            "0x0000000000000000000000000000000000000000000000000000000000000002"
          ],
          "data": "0x",
          "blockHash": "0x08a0ed9792db1de5ad4333fbeb94d0dc08ee4bc151a6de4523bf3ddcdaf90f66",
          "blockNumber": "0x8319ff",
          "blockTimestamp": "0x6855abcc",
          "transactionHash": "0xaf3410ffffb69c71bbd88ccf74fed7695338d52a2b5088554bfe60cd98990abd",
          "transactionIndex": "0x4a",
          "logIndex": "0x67",
          "removed": false
        },
        {
          "address": "0x5bb4aafec8d02933bbeb6b5242d9191c0ff63dfc",
          "topics": [
            "0x1cbc5ab135991bd2b6a4b034a04aa2aa086dac1371cb9b16b8b5e2ed6b036bed",
            "0x000000000000000000000000ce23256ae677765a41e8d7e4d099359771615ca4",
            "0x0000000000000000000000000000000000000000000000000000000000000002"
          ],
          "data": "0x00000000000000000000000000000000000000000000000000000000000003e8",
          "blockHash": "0x08a0ed9792db1de5ad4333fbeb94d0dc08ee4bc151a6de4523bf3ddcdaf90f66",
          "blockNumber": "0x8319ff",
          "blockTimestamp": "0x6855abcc",
          "transactionHash": "0xaf3410ffffb69c71bbd88ccf74fed7695338d52a2b5088554bfe60cd98990abd",
          "transactionIndex": "0x4a",
          "logIndex": "0x68",
          "removed": false
        },
        {
          "address": "0x5bb4aafec8d02933bbeb6b5242d9191c0ff63dfc",
          "topics": [
            "0xddf252ad1be2c89b69c2b068fc378daa952ba7f163c4a11628f55a4df523b3ef",
            "0x0000000000000000000000000000000000000000000000000000000000000000",
            "0x000000000000000000000000ce23256ae677765a41e8d7e4d099359771615ca4",
            "0x0000000000000000000000000000000000000000000000000000000000000003"
          ],
          "data": "0x",
          "blockHash": "0x08a0ed9792db1de5ad4333fbeb94d0dc08ee4bc151a6de4523bf3ddcdaf90f66",
          "blockNumber": "0x8319ff",
          "blockTimestamp": "0x6855abcc",
          "transactionHash": "0xaf3410ffffb69c71bbd88ccf74fed7695338d52a2b5088554bfe60cd98990abd",
          "transactionIndex": "0x4a",
          "logIndex": "0x69",
          "removed": false
        },
        {
          "address": "0x5bb4aafec8d02933bbeb6b5242d9191c0ff63dfc",
          "topics": [
            "0x1cbc5ab135991bd2b6a4b034a04aa2aa086dac1371cb9b16b8b5e2ed6b036bed",
            "0x000000000000000000000000ce23256ae677765a41e8d7e4d099359771615ca4",
            "0x0000000000000000000000000000000000000000000000000000000000000003"
          ],
          "data": "0x00000000000000000000000000000000000000000000000000000000000003e8",
          "blockHash": "0x08a0ed9792db1de5ad4333fbeb94d0dc08ee4bc151a6de4523bf3ddcdaf90f66",
          "blockNumber": "0x8319ff",
          "blockTimestamp": "0x6855abcc",
          "transactionHash": "0xaf3410ffffb69c71bbd88ccf74fed7695338d52a2b5088554bfe60cd98990abd",
          "transactionIndex": "0x4a",
          "logIndex": "0x6a",
          "removed": false
        }
      ],
      "logsBloom": "0x04000000000000000000000000000000000000000000000000400000000000000000000200000000000000000000000000000000020000000000000000000000000000000200000040000008000000000000000000001000000000000000000000000000020000000000000000000800000000000000000000000010000000000000000000000100000000000000000000000000000000000000000000000000000000000400000040000100000000000000000000800000000000000000400000000002000000000400000000000000000000000000000000000000000020000000000000000000000000000000000000000000008000000000000000000000",
      "type": "0x2",
      "transactionHash": "0xaf3410ffffb69c71bbd88ccf74fed7695338d52a2b5088554bfe60cd98990abd",
      "transactionIndex": "0x4a",
      "blockHash": "0x08a0ed9792db1de5ad4333fbeb94d0dc08ee4bc151a6de4523bf3ddcdaf90f66",
      "blockNumber": "0x8319ff",
      "gasUsed": "0x537b8",
      "effectiveGasPrice": "0x11348b",
      "from": "0xce23256ae677765a41e8d7e4d099359771615ca4",
      "to": "0x5bb4aafec8d02933bbeb6b5242d9191c0ff63dfc",
      "contractAddress": null
    }
  ],
  "libraries": [],
  "pending": [],
  "returns": {},
  "timestamp": 1750445004,
  "chain": 11155111,
  "commit": null
}