{
  "transactions": [
    {
      "hash": "0xb90ee3c63d3772905fca7a2706c47b07501e4f945b8033c8ade4022121cacf95",
      "transactionType": "CALL",
      "contractName": null,
      "contractAddress": "0x91d89ee3a5b24c2d6dc02168f6140c70a0613df7",
      "function": "buy(uint256,uint256)",
      "arguments": [
        "1000",
        "4"
      ],
      "transaction": {
        "from": "0xce23256ae677765a41e8d7e4d099359771615ca4",
        "to": "0x91d89ee3a5b24c2d6dc02168f6140c70a0613df7",
        "gas": "0xe011c",
        "value": "0x0",
        "input": "0xd6febde800000000000000000000000000000000000000000000000000000000000003e80000000000000000000000000000000000000000000000000000000000000004",
        "nonce": "0xea",
        "chainId": "0xaa36a7"
      },
      "additionalContracts": [],
      "isFixedGasLimit": false
    }
  ],
  "receipts": [
    {
      "status": "0x1",
      "cumulativeGasUsed": "0x1300c16",
      "logs": [
        {
          "address": "0x91d89ee3a5b24c2d6dc02168f6140c70a0613df7",
          "topics": [
            "0xddf252ad1be2c89b69c2b068fc378daa952ba7f163c4a11628f55a4df523b3ef",
            "0x0000000000000000000000000000000000000000000000000000000000000000",
            "0x000000000000000000000000ce23256ae677765a41e8d7e4d099359771615ca4",
            "0x000000000000000000000000000000000000000000000000000000000000000c"
          ],
          "data": "0x",
          "blockHash": "0x50190454817cb454ed6cebc07c017a6223c06c754e078936a74e0466da0a767e",
          "blockNumber": "0x83acef",
          "blockTimestamp": "0x685c9530",
          "transactionHash": "0xb90ee3c63d3772905fca7a2706c47b07501e4f945b8033c8ade4022121cacf95",
          "transactionIndex": "0x99",
          "logIndex": "0xc3",
          "removed": false
        },
        {
          "address": "0x91d89ee3a5b24c2d6dc02168f6140c70a0613df7",
          "topics": [
            "0x1cbc5ab135991bd2b6a4b034a04aa2aa086dac1371cb9b16b8b5e2ed6b036bed",
            "0x000000000000000000000000ce23256ae677765a41e8d7e4d099359771615ca4",
            "0x000000000000000000000000000000000000000000000000000000000000000c"
          ],
          "data": "0x00000000000000000000000000000000000000000000000000000000000003e8",
          "blockHash": "0x50190454817cb454ed6cebc07c017a6223c06c754e078936a74e0466da0a767e",
          "blockNumber": "0x83acef",
          "blockTimestamp": "0x685c9530",
          "transactionHash": "0xb90ee3c63d3772905fca7a2706c47b07501e4f945b8033c8ade4022121cacf95",
          "transactionIndex": "0x99",
          "logIndex": "0xc4",
          "removed": false
        },
        {
          "address": "0x91d89ee3a5b24c2d6dc02168f6140c70a0613df7",
          "topics": [
            "0xddf252ad1be2c89b69c2b068fc378daa952ba7f163c4a11628f55a4df523b3ef",
            "0x0000000000000000000000000000000000000000000000000000000000000000",
            "0x000000000000000000000000ce23256ae677765a41e8d7e4d099359771615ca4",
            "0x000000000000000000000000000000000000000000000000000000000000000d"
          ],
          "data": "0x",
          "blockHash": "0x50190454817cb454ed6cebc07c017a6223c06c754e078936a74e0466da0a767e",
          "blockNumber": "0x83acef",
          "blockTimestamp": "0x685c9530",
          "transactionHash": "0xb90ee3c63d3772905fca7a2706c47b07501e4f945b8033c8ade4022121cacf95",
          "transactionIndex": "0x99",
          "logIndex": "0xc5",
          "removed": false
        },
        {
          "address": "0x91d89ee3a5b24c2d6dc02168f6140c70a0613df7",
          "topics": [
            "0x1cbc5ab135991bd2b6a4b034a04aa2aa086dac1371cb9b16b8b5e2ed6b036bed",
            "0x000000000000000000000000ce23256ae677765a41e8d7e4d099359771615ca4",
            "0x000000000000000000000000000000000000000000000000000000000000000d"
          ],
          "data": "0x00000000000000000000000000000000000000000000000000000000000003e8",
          "blockHash": "0x50190454817cb454ed6cebc07c017a6223c06c754e078936a74e0466da0a767e",
          "blockNumber": "0x83acef",
          "blockTimestamp": "0x685c9530",
          "transactionHash": "0xb90ee3c63d3772905fca7a2706c47b07501e4f945b8033c8ade4022121cacf95",
          "transactionIndex": "0x99",
          "logIndex": "0xc6",
          "removed": false
        },
        {
          "address": "0x91d89ee3a5b24c2d6dc02168f6140c70a0613df7",
          "topics": [
            "0xddf252ad1be2c89b69c2b068fc378daa952ba7f163c4a11628f55a4df523b3ef",
            "0x0000000000000000000000000000000000000000000000000000000000000000",
            "0x000000000000000000000000ce23256ae677765a41e8d7e4d099359771615ca4",
            "0x000000000000000000000000000000000000000000000000000000000000000e"
          ],
          "data": "0x",
          "blockHash": "0x50190454817cb454ed6cebc07c017a6223c06c754e078936a74e0466da0a767e",
          "blockNumber": "0x83acef",
          "blockTimestamp": "0x685c9530",
          "transactionHash": "0xb90ee3c63d3772905fca7a2706c47b07501e4f945b8033c8ade4022121cacf95",
          "transactionIndex": "0x99",
          "logIndex": "0xc7",
          "removed": false
        },
        {
          "address": "0x91d89ee3a5b24c2d6dc02168f6140c70a0613df7",
          "topics": [
            "0x1cbc5ab135991bd2b6a4b034a04aa2aa086dac1371cb9b16b8b5e2ed6b036bed",
            "0x000000000000000000000000ce23256ae677765a41e8d7e4d099359771615ca4",
            "0x000000000000000000000000000000000000000000000000000000000000000e"
          ],
          "data": "0x00000000000000000000000000000000000000000000000000000000000003e8",
          "blockHash": "0x50190454817cb454ed6cebc07c017a6223c06c754e078936a74e0466da0a767e",
          "blockNumber": "0x83acef",
          "blockTimestamp": "0x685c9530",
          "transactionHash": "0xb90ee3c63d3772905fca7a2706c47b07501e4f945b8033c8ade4022121cacf95",
          "transactionIndex": "0x99",
          "logIndex": "0xc8",
          "removed": false
        },
        {
          "address": "0x91d89ee3a5b24c2d6dc02168f6140c70a0613df7",
          "topics": [
            "0xddf252ad1be2c89b69c2b068fc378daa952ba7f163c4a11628f55a4df523b3ef",
            "0x0000000000000000000000000000000000000000000000000000000000000000",
            "0x000000000000000000000000ce23256ae677765a41e8d7e4d099359771615ca4",
            "0x000000000000000000000000000000000000000000000000000000000000000f"
          ],
          "data": "0x",
          "blockHash": "0x50190454817cb454ed6cebc07c017a6223c06c754e078936a74e0466da0a767e",
          "blockNumber": "0x83acef",
          "blockTimestamp": "0x685c9530",
          "transactionHash": "0xb90ee3c63d3772905fca7a2706c47b07501e4f945b8033c8ade4022121cacf95",
          "transactionIndex": "0x99",
          "logIndex": "0xc9",
          "removed": false
        },
        {
          "address": "0x91d89ee3a5b24c2d6dc02168f6140c70a0613df7",
          "topics": [
            "0x1cbc5ab135991bd2b6a4b034a04aa2aa086dac1371cb9b16b8b5e2ed6b036bed",
            "0x000000000000000000000000ce23256ae677765a41e8d7e4d099359771615ca4",
            "0x000000000000000000000000000000000000000000000000000000000000000f"
          ],
          "data": "0x00000000000000000000000000000000000000000000000000000000000003e8",
          "blockHash": "0x50190454817cb454ed6cebc07c017a6223c06c754e078936a74e0466da0a767e",
          "blockNumber": "0x83acef",
          "blockTimestamp": "0x685c9530",
          "transactionHash": "0xb90ee3c63d3772905fca7a2706c47b07501e4f945b8033c8ade4022121cacf95",
          "transactionIndex": "0x99",
          "logIndex": "0xca",
          "removed": false
        },
        {
          "address": "0x34abd99554ef53edba3b6abebb97df2864cfa07c",
          "topics": [
            "0x8c5be1e5ebec7d5bd14f71427d1e84f3dd0314c0f7b2291e5b200ac8c7c3b925",
            "0x000000000000000000000000ce23256ae677765a41e8d7e4d099359771615ca4",
            "0x00000000000000000000000091d89ee3a5b24c2d6dc02168f6140c70a0613df7"
          ],
          "data": "0x0000000000000000000000000000000000000000000000d8d726b7177a7fd0d0",
          "blockHash": "0x50190454817cb454ed6cebc07c017a6223c06c754e078936a74e0466da0a767e",
          "blockNumber": "0x83acef",
          "blockTimestamp": "0x685c9530",
          "transactionHash": "0xb90ee3c63d3772905fca7a2706c47b07501e4f945b8033c8ade4022121cacf95",
          "transactionIndex": "0x99",
          "logIndex": "0xcb",
          "removed": false
        },
        {
          "address": "0x34abd99554ef53edba3b6abebb97df2864cfa07c",
          "topics": [
            "0xddf252ad1be2c89b69c2b068fc378daa952ba7f163c4a11628f55a4df523b3ef",
            "0x000000000000000000000000ce23256ae677765a41e8d7e4d099359771615ca4",
            "0x0000000000000000000000008d6051dedbe3b08590674b0c4324c1d8b3ad2a00"
          ],
          "data": "0x0000000000000000000000000000000000000000000000000000000000000fa0",
          "blockHash": "0x50190454817cb454ed6cebc07c017a6223c06c754e078936a74e0466da0a767e",
          "blockNumber": "0x83acef",
          "blockTimestamp": "0x685c9530",
          "transactionHash": "0xb90ee3c63d3772905fca7a2706c47b07501e4f945b8033c8ade4022121cacf95",
          "transactionIndex": "0x99",
          "logIndex": "0xcc",
          "removed": false
        },
        {
          "address": "0x34abd99554ef53edba3b6abebb97df2864cfa07c",
          "topics": [
            "0x8c5be1e5ebec7d5bd14f71427d1e84f3dd0314c0f7b2291e5b200ac8c7c3b925",
            "0x000000000000000000000000ce23256ae677765a41e8d7e4d099359771615ca4",
            "0x00000000000000000000000091d89ee3a5b24c2d6dc02168f6140c70a0613df7"
          ],
          "data": "0x0000000000000000000000000000000000000000000000d8d726b7177a7fd0a8",
          "blockHash": "0x50190454817cb454ed6cebc07c017a6223c06c754e078936a74e0466da0a767e",
          "blockNumber": "0x83acef",
          "blockTimestamp": "0x685c9530",
          "transactionHash": "0xb90ee3c63d3772905fca7a2706c47b07501e4f945b8033c8ade4022121cacf95",
          "transactionIndex": "0x99",
          "logIndex": "0xcd",
          "removed": false
        },
        {
          "address": "0x34abd99554ef53edba3b6abebb97df2864cfa07c",
          "topics": [
            "0xddf252ad1be2c89b69c2b068fc378daa952ba7f163c4a11628f55a4df523b3ef",
            "0x000000000000000000000000ce23256ae677765a41e8d7e4d099359771615ca4",
            "0x0000000000000000000000008d6051dedbe3b08590674b0c4324c1d8b3ad2a00"
          ],
          "data": "0x0000000000000000000000000000000000000000000000000000000000000028",
          "blockHash": "0x50190454817cb454ed6cebc07c017a6223c06c754e078936a74e0466da0a767e",
          "blockNumber": "0x83acef",
          "blockTimestamp": "0x685c9530",
          "transactionHash": "0xb90ee3c63d3772905fca7a2706c47b07501e4f945b8033c8ade4022121cacf95",
          "transactionIndex": "0x99",
          "logIndex": "0xce",
          "removed": false
        }
      ],
      "logsBloom": "0x00000000000000000040000000000000000002000000000000400000000000000200000200000200000000000000000000000002000000000000000000200000000000000000000800000008000000000002008000001000000000000002000000000000020000000000000000000800000000000000000000000010000020000000000000000900008008000000000008000000000000000000000000000000020000000400000040000000000080000000000002000020000000000000000000000002000000000000000000000000000000000002000000000000000020220010000204000000000000000000000000000400000000000000000000000020",
      "type": "0x2",
      "transactionHash": "0xb90ee3c63d3772905fca7a2706c47b07501e4f945b8033c8ade4022121cacf95",
      "transactionIndex": "0x99",
      "blockHash": "0x50190454817cb454ed6cebc07c017a6223c06c754e078936a74e0466da0a767e",
      "blockNumber": "0x83acef",
      "gasUsed": "0xa238f",
      "effectiveGasPrice": "0x262860",
      "from": "0xce23256ae677765a41e8d7e4d099359771615ca4",
      "to": "0x91d89ee3a5b24c2d6dc02168f6140c70a0613df7",
      "contractAddress": null
    }
  ],
  "libraries": [],
  "pending": [],
  "returns": {},
  "timestamp": 1750897970,
  "chain": 11155111,
  "commit": null
}