{
  "transactions": [
    {
      "hash": "0x05ef695a79bd8c8198e5f66c100762146e4d8059dbe970eb86d64060692bb5e2",
      "transactionType": "CALL",
      "contractName": null,
      "contractAddress": "0x4f5b0cc493ea9321bc5d5a1dfd8bcc2b7c6db7ea",
      "function": "claim(uint256[])",
      "arguments": [
        "[1, 3]"
      ],
      "transaction": {
        "from": "0xce23256ae677765a41e8d7e4d099359771615ca4",
        "to": "0x4f5b0cc493ea9321bc5d5a1dfd8bcc2b7c6db7ea",
        "gas": "0x24182",
        "value": "0x0",
        "input": "0x6ba4c1380000000000000000000000000000000000000000000000000000000000000020000000000000000000000000000000000000000000000000000000000000000200000000000000000000000000000000000000000000000000000000000000010000000000000000000000000000000000000000000000000000000000000003",
        "nonce": "0xb9",
        "chainId": "0xaa36a7"
      },
      "additionalContracts": [],
      "isFixedGasLimit": false
    }
  ],
  "receipts": [
    {
      "status": "0x1",
      "cumulativeGasUsed": "0xb88832",
      "logs": [
        {
          "address": "0x4f5b0cc493ea9321bc5d5a1dfd8bcc2b7c6db7ea",
          "topics": [
            "0x8c5be1e5ebec7d5bd14f71427d1e84f3dd0314c0f7b2291e5b200ac8c7c3b925",
            "0x000000000000000000000000ce23256ae677765a41e8d7e4d099359771615ca4",
            "0x0000000000000000000000000000000000000000000000000000000000000000",
            "0x0000000000000000000000000000000000000000000000000000000000000001"
          ],
          "data": "0x",
          "blockHash": "0x8cb1c889620c425a1b5bd348c1529d5cf3c971698560e58a56d7fb8dd97703e0",
          "blockNumber": "0x83a8b6",
          "blockTimestamp": "0x685c6254",
          "transactionHash": "0x05ef695a79bd8c8198e5f66c100762146e4d8059dbe970eb86d64060692bb5e2",
          "transactionIndex": "0x43",
          "logIndex": "0x6d",
          "removed": false
        },
        {
          "address": "0x4f5b0cc493ea9321bc5d5a1dfd8bcc2b7c6db7ea",
          "topics": [
            "0xddf252ad1be2c89b69c2b068fc378daa952ba7f163c4a11628f55a4df523b3ef",
            "0x000000000000000000000000ce23256ae677765a41e8d7e4d099359771615ca4",
            "0x0000000000000000000000000000000000000000000000000000000000000000",
            "0x0000000000000000000000000000000000000000000000000000000000000001"
          ],
          "data": "0x",
          "blockHash": "0x8cb1c889620c425a1b5bd348c1529d5cf3c971698560e58a56d7fb8dd97703e0",
          "blockNumber": "0x83a8b6",
          "blockTimestamp": "0x685c6254",
          "transactionHash": "0x05ef695a79bd8c8198e5f66c100762146e4d8059dbe970eb86d64060692bb5e2",
          "transactionIndex": "0x43",
          "logIndex": "0x6e",
          "removed": false
        },
        {
          "address": "0x4f5b0cc493ea9321bc5d5a1dfd8bcc2b7c6db7ea",
          "topics": [
            "0x47cee97cb7acd717b3c0aa1435d004cd5b3c8c57d70dbceb4e4458bbd60e39d4",
            "0x000000000000000000000000ce23256ae677765a41e8d7e4d099359771615ca4",
            "0x0000000000000000000000000000000000000000000000000000000000000001"
          ],
          "data": "0x",
          "blockHash": "0x8cb1c889620c425a1b5bd348c1529d5cf3c971698560e58a56d7fb8dd97703e0",
          "blockNumber": "0x83a8b6",
          "blockTimestamp": "0x685c6254",
          "transactionHash": "0x05ef695a79bd8c8198e5f66c100762146e4d8059dbe970eb86d64060692bb5e2",
          "transactionIndex": "0x43",
          "logIndex": "0x6f",
          "removed": false
        },
        {
          "address": "0x4f5b0cc493ea9321bc5d5a1dfd8bcc2b7c6db7ea",
          "topics": [
            "0x8c5be1e5ebec7d5bd14f71427d1e84f3dd0314c0f7b2291e5b200ac8c7c3b925",
            "0x000000000000000000000000ce23256ae677765a41e8d7e4d099359771615ca4",
            "0x0000000000000000000000000000000000000000000000000000000000000000",
            "0x0000000000000000000000000000000000000000000000000000000000000003"
          ],
          "data": "0x",
          "blockHash": "0x8cb1c889620c425a1b5bd348c1529d5cf3c971698560e58a56d7fb8dd97703e0",
          "blockNumber": "0x83a8b6",
          "blockTimestamp": "0x685c6254",
          "transactionHash": "0x05ef695a79bd8c8198e5f66c100762146e4d8059dbe970eb86d64060692bb5e2",
          "transactionIndex": "0x43",
          "logIndex": "0x70",
          "removed": false
        },
        {
          "address": "0x4f5b0cc493ea9321bc5d5a1dfd8bcc2b7c6db7ea",
          "topics": [
            "0xddf252ad1be2c89b69c2b068fc378daa952ba7f163c4a11628f55a4df523b3ef",
            "0x000000000000000000000000ce23256ae677765a41e8d7e4d099359771615ca4",
            "0x0000000000000000000000000000000000000000000000000000000000000000",
            "0x0000000000000000000000000000000000000000000000000000000000000003"
          ],
          "data": "0x",
          "blockHash": "0x8cb1c889620c425a1b5bd348c1529d5cf3c971698560e58a56d7fb8dd97703e0",
          "blockNumber": "0x83a8b6",
          "blockTimestamp": "0x685c6254",
          "transactionHash": "0x05ef695a79bd8c8198e5f66c100762146e4d8059dbe970eb86d64060692bb5e2",
          "transactionIndex": "0x43",
          "logIndex": "0x71",
          "removed": false
        },
        {
          "address": "0x4f5b0cc493ea9321bc5d5a1dfd8bcc2b7c6db7ea",
          "topics": [
            "0x47cee97cb7acd717b3c0aa1435d004cd5b3c8c57d70dbceb4e4458bbd60e39d4",
            "0x000000000000000000000000ce23256ae677765a41e8d7e4d099359771615ca4",
            "0x0000000000000000000000000000000000000000000000000000000000000003"
          ],
          "data": "0x",
          "blockHash": "0x8cb1c889620c425a1b5bd348c1529d5cf3c971698560e58a56d7fb8dd97703e0",
          "blockNumber": "0x83a8b6",
          "blockTimestamp": "0x685c6254",
          "transactionHash": "0x05ef695a79bd8c8198e5f66c100762146e4d8059dbe970eb86d64060692bb5e2",
          "transactionIndex": "0x43",
          "logIndex": "0x72",
          "removed": false
        }
      ],
      "logsBloom": "0x00000000000000000000000000000000000000000000000000400000000000000000000000000000000000000000000000000010020000000900000000240000000000000000000000000008000000000000000000041000000000000000000000000000020000000000000000000800000000000000000000000010000000000000000000000100000000000000000000000000000000000000000000000000020000000000000000000000000000000000000000820000001000000000400000000002000000000000000000000000000000000000000000000000000060000010000000000000000000008000000000000000000000000000000000000000",
      "type": "0x2",
      "transactionHash": "0x05ef695a79bd8c8198e5f66c100762146e4d8059dbe970eb86d64060692bb5e2",
      "transactionIndex": "0x43",
      "blockHash": "0x8cb1c889620c425a1b5bd348c1529d5cf3c971698560e58a56d7fb8dd97703e0",
      "blockNumber": "0x83a8b6",
      "gasUsed": "0x1a21c",
      "effectiveGasPrice": "0x2d797a37",
      "from": "0xce23256ae677765a41e8d7e4d099359771615ca4",
      "to": "0x4f5b0cc493ea9321bc5d5a1dfd8bcc2b7c6db7ea",
      "contractAddress": null
    }
  ],
  "libraries": [],
  "pending": [],
  "returns": {},
  "timestamp": 1750884950,
  "chain": 11155111,
  "commit": null
}