{
  "transactions": [
    {
      "hash": "0x21397df6733581d19cd104f3e874b7c19a6c19c668be7d3ba8c207634c885f21",
      "transactionType": "CALL",
      "contractName": null,
      "contractAddress": "0xe4c2f1c920dfc99ad1ea84180f2a69ce24c8f554",
      "function": "putOnSale(uint256,uint256)",
      "arguments": [
        "2",
        "4000"
      ],
      "transaction": {
        "from": "0xce23256ae677765a41e8d7e4d099359771615ca4",
        "to": "0xe4c2f1c920dfc99ad1ea84180f2a69ce24c8f554",
        "gas": "0x26056",
        "value": "0x0",
        "input": "0x36f7992b00000000000000000000000000000000000000000000000000000000000000020000000000000000000000000000000000000000000000000000000000000fa0",
        "nonce": "0xa2",
        "chainId": "0xaa36a7"
      },
      "additionalContracts": [],
      "isFixedGasLimit": false
    }
  ],
  "receipts": [
    {
      "status": "0x1",
      "cumulativeGasUsed": "0xe7eb31",
      "logs": [
        {
          "address": "0xe4c2f1c920dfc99ad1ea84180f2a69ce24c8f554",
          "topics": [
            "0x7c11ba8301c87f8a6d59779bcbe2b7446e865bd1a4359a69e5c400212e0a5795",
            "0x0000000000000000000000000000000000000000000000000000000000000002"
          ],
          "data": "0x0000000000000000000000000000000000000000000000000000000000000fa0",
          "blockHash": "0xd75136077f22658491456e174dee46946c3923a646e792046476b425f9a5bc60",
          "blockNumber": "0x83a6d0",
          "blockTimestamp": "0x685c4b74",
          "transactionHash": "0x21397df6733581d19cd104f3e874b7c19a6c19c668be7d3ba8c207634c885f21",
          "transactionIndex": "0x69",
          "logIndex": "0xa1",
          "removed": false
        }
      ],
      "logsBloom": "0x04000000000000000000000000000000000000000000000000000000000000000000000000000000000000000000000000000000000000000000000000000000000000000000000000000000000000000000000100000000000000000000400000000000000000000000000000000000000000000000000000000000000000000000000000000000000000000000000000000000000000000000000000200000400000000000000000000100000000000000000000000000000000000000000000000000000000000000000200000000000000000000000000000000000000000000000000000000000000000040000000000000008000000000000000000000",
      "type": "0x2",
      "transactionHash": "0x21397df6733581d19cd104f3e874b7c19a6c19c668be7d3ba8c207634c885f21",
      "transactionIndex": "0x69",
      "blockHash": "0xd75136077f22658491456e174dee46946c3923a646e792046476b425f9a5bc60",
      "blockNumber": "0x83a6d0",
      "gasUsed": "0x1b86e",
      "effectiveGasPrice": "0x1fb060a1",
      "from": "0xce23256ae677765a41e8d7e4d099359771615ca4",
      "to": "0xe4c2f1c920dfc99ad1ea84180f2a69ce24c8f554",
      "contractAddress": null
    }
  ],
  "libraries": [],
  "pending": [],
  "returns": {},
  "timestamp": 1750879085,
  "chain": 11155111,
  "commit": null
}