{
  "transactions": [
    {
      "hash": "0x27c7182c293cd4ebba3fb9d66d20bdedb0296314234c9614d7a1c6574fa905bb",
      "transactionType": "CALL",
      "contractName": null,
      "contractAddress": "0x968ddc74f684be52890afce41b880bdb57e1f027",
      "function": "buy(uint256,uint256)",
      "arguments": [
        "1000",
        "4"
      ],
      "transaction": {
        "from": "0xce23256ae677765a41e8d7e4d099359771615ca4",
        "to": "0x968ddc74f684be52890afce41b880bdb57e1f027",
        "gas": "0xd3c23",
        "value": "0x0",
        "input": "0xd6febde800000000000000000000000000000000000000000000000000000000000003e80000000000000000000000000000000000000000000000000000000000000004",
        "nonce": "0x5b",
        "chainId": "0xaa36a7"
      },
      "additionalContracts": [],
      "isFixedGasLimit": false
    }
  ],
  "receipts": [
    {
      "status": "0x1",
      "cumulativeGasUsed": "0xa30919",
      "logs": [
        {
          "address": "0x968ddc74f684be52890afce41b880bdb57e1f027",
          "topics": [
            "0xddf252ad1be2c89b69c2b068fc378daa952ba7f163c4a11628f55a4df523b3ef",
            "0x0000000000000000000000000000000000000000000000000000000000000000",
            "0x000000000000000000000000ce23256ae677765a41e8d7e4d099359771615ca4",
            "0x000000000000000000000000000000000000000000000000000000000000001b"
          ],
          "data": "0x",
          "blockHash": "0x6eab4cb9297eb628e39144286ec9ca564a9441f296b815bd30a167f462f9e161",
          "blockNumber": "0x8320f7",
          "blockTimestamp": "0x6855ff78",
          "transactionHash": "0x27c7182c293cd4ebba3fb9d66d20bdedb0296314234c9614d7a1c6574fa905bb",
          "transactionIndex": "0x8b",
          "logIndex": "0x7d",
          "removed": false
        },
        {
          "address": "0x968ddc74f684be52890afce41b880bdb57e1f027",
          "topics": [
            "0x1cbc5ab135991bd2b6a4b034a04aa2aa086dac1371cb9b16b8b5e2ed6b036bed",
            "0x000000000000000000000000ce23256ae677765a41e8d7e4d099359771615ca4",
            "0x000000000000000000000000000000000000000000000000000000000000001b"
          ],
          "data": "0x00000000000000000000000000000000000000000000000000000000000003e8",
          "blockHash": "0x6eab4cb9297eb628e39144286ec9ca564a9441f296b815bd30a167f462f9e161",
          "blockNumber": "0x8320f7",
          "blockTimestamp": "0x6855ff78",
          "transactionHash": "0x27c7182c293cd4ebba3fb9d66d20bdedb0296314234c9614d7a1c6574fa905bb",
          "transactionIndex": "0x8b",
          "logIndex": "0x7e",
          "removed": false
        },
        {
          "address": "0x968ddc74f684be52890afce41b880bdb57e1f027",
          "topics": [
            "0xddf252ad1be2c89b69c2b068fc378daa952ba7f163c4a11628f55a4df523b3ef",
            "0x0000000000000000000000000000000000000000000000000000000000000000",
            "0x000000000000000000000000ce23256ae677765a41e8d7e4d099359771615ca4",
            "0x000000000000000000000000000000000000000000000000000000000000001c"
          ],
          "data": "0x",
          "blockHash": "0x6eab4cb9297eb628e39144286ec9ca564a9441f296b815bd30a167f462f9e161",
          "blockNumber": "0x8320f7",
          "blockTimestamp": "0x6855ff78",
          "transactionHash": "0x27c7182c293cd4ebba3fb9d66d20bdedb0296314234c9614d7a1c6574fa905bb",
          "transactionIndex": "0x8b",
          "logIndex": "0x7f",
          "removed": false
        },
        {
          "address": "0x968ddc74f684be52890afce41b880bdb57e1f027",
          "topics": [
            "0x1cbc5ab135991bd2b6a4b034a04aa2aa086dac1371cb9b16b8b5e2ed6b036bed",
            "0x000000000000000000000000ce23256ae677765a41e8d7e4d099359771615ca4",
            "0x000000000000000000000000000000000000000000000000000000000000001c"
          ],
          "data": "0x00000000000000000000000000000000000000000000000000000000000003e8",
          "blockHash": "0x6eab4cb9297eb628e39144286ec9ca564a9441f296b815bd30a167f462f9e161",
          "blockNumber": "0x8320f7",
          "blockTimestamp": "0x6855ff78",
          "transactionHash": "0x27c7182c293cd4ebba3fb9d66d20bdedb0296314234c9614d7a1c6574fa905bb",
          "transactionIndex": "0x8b",
          "logIndex": "0x80",
          "removed": false
        },
        {
          "address": "0x968ddc74f684be52890afce41b880bdb57e1f027",
          "topics": [
            "0xddf252ad1be2c89b69c2b068fc378daa952ba7f163c4a11628f55a4df523b3ef",
            "0x0000000000000000000000000000000000000000000000000000000000000000",
            "0x000000000000000000000000ce23256ae677765a41e8d7e4d099359771615ca4",
            "0x000000000000000000000000000000000000000000000000000000000000001d"
          ],
          "data": "0x",
          "blockHash": "0x6eab4cb9297eb628e39144286ec9ca564a9441f296b815bd30a167f462f9e161",
          "blockNumber": "0x8320f7",
          "blockTimestamp": "0x6855ff78",
          "transactionHash": "0x27c7182c293cd4ebba3fb9d66d20bdedb0296314234c9614d7a1c6574fa905bb",
          "transactionIndex": "0x8b",
          "logIndex": "0x81",
          "removed": false
        },
        {
          "address": "0x968ddc74f684be52890afce41b880bdb57e1f027",
          "topics": [
            "0x1cbc5ab135991bd2b6a4b034a04aa2aa086dac1371cb9b16b8b5e2ed6b036bed",
            "0x000000000000000000000000ce23256ae677765a41e8d7e4d099359771615ca4",
            "0x000000000000000000000000000000000000000000000000000000000000001d"
          ],
          "data": "0x00000000000000000000000000000000000000000000000000000000000003e8",
          "blockHash": "0x6eab4cb9297eb628e39144286ec9ca564a9441f296b815bd30a167f462f9e161",
          "blockNumber": "0x8320f7",
          "blockTimestamp": "0x6855ff78",
          "transactionHash": "0x27c7182c293cd4ebba3fb9d66d20bdedb0296314234c9614d7a1c6574fa905bb",
          "transactionIndex": "0x8b",
          "logIndex": "0x82",
          "removed": false
        },
        {
          "address": "0x968ddc74f684be52890afce41b880bdb57e1f027",
          "topics": [
            "0xddf252ad1be2c89b69c2b068fc378daa952ba7f163c4a11628f55a4df523b3ef",
            "0x0000000000000000000000000000000000000000000000000000000000000000",
            "0x000000000000000000000000ce23256ae677765a41e8d7e4d099359771615ca4",
            "0x000000000000000000000000000000000000000000000000000000000000001e"
          ],
          "data": "0x",
          "blockHash": "0x6eab4cb9297eb628e39144286ec9ca564a9441f296b815bd30a167f462f9e161",
          "blockNumber": "0x8320f7",
          "blockTimestamp": "0x6855ff78",
          "transactionHash": "0x27c7182c293cd4ebba3fb9d66d20bdedb0296314234c9614d7a1c6574fa905bb",
          "transactionIndex": "0x8b",
          "logIndex": "0x83",
          "removed": false
        },
        {
          "address": "0x968ddc74f684be52890afce41b880bdb57e1f027",
          "topics": [
            "0x1cbc5ab135991bd2b6a4b034a04aa2aa086dac1371cb9b16b8b5e2ed6b036bed",
            "0x000000000000000000000000ce23256ae677765a41e8d7e4d099359771615ca4",
            "0x000000000000000000000000000000000000000000000000000000000000001e"
          ],
          "data": "0x00000000000000000000000000000000000000000000000000000000000003e8",
          "blockHash": "0x6eab4cb9297eb628e39144286ec9ca564a9441f296b815bd30a167f462f9e161",
          "blockNumber": "0x8320f7",
          "blockTimestamp": "0x6855ff78",
          "transactionHash": "0x27c7182c293cd4ebba3fb9d66d20bdedb0296314234c9614d7a1c6574fa905bb",
          "transactionIndex": "0x8b",
          "logIndex": "0x84",
          "removed": false
        }
      ],
      "logsBloom": "0x00000080000000000000000000000000000000000010000000400000000000000000000220000000000000000400000000000000000000200000000200000000000000000000008000000008000000000000000800001010000000000000000000000000020000000000000000000800000000000000000000800010000000000000000000000100000000000000000200000000000000000000000000000000000000000500000040000002000000000000000000008000000000000000000000000002000000000000000000000000000000000000000000000000000020000000000000000000080000000000000000000000000000000000000000000000",
      "type": "0x2",
      "transactionHash": "0x27c7182c293cd4ebba3fb9d66d20bdedb0296314234c9614d7a1c6574fa905bb",
      "transactionIndex": "0x8b",
      "blockHash": "0x6eab4cb9297eb628e39144286ec9ca564a9441f296b815bd30a167f462f9e161",
      "blockNumber": "0x8320f7",
      "gasUsed": "0x994f4",
      "effectiveGasPrice": "0xf425a",
      "from": "0xce23256ae677765a41e8d7e4d099359771615ca4",
      "to": "0x968ddc74f684be52890afce41b880bdb57e1f027",
      "contractAddress": null
    }
  ],
  "libraries": [],
  "pending": [],
  "returns": {},
  "timestamp": 1750466426,
  "chain": 11155111,
  "commit": null
}