{
  "transactions": [
    {
      "hash": "0x8f1797dc77f253886a669dd03576edc5e16fe1bd0564310cbef74c1942f1037a",
      "transactionType": "CALL",
      "contractName": null,
      "contractAddress": "0x04de9eb6d60337dce0f98675703627a8942d0e8a",
      "function": "buy(uint256,uint256)",
      "arguments": [
        "100000000000000000000",
        "4"
      ],
      "transaction": {
        "from": "0x129aa6ab9afc5135a72cef4868175cf906942a14",
        "to": "0x04de9eb6d60337dce0f98675703627a8942d0e8a",
        "gas": "0xdad87",
        "value": "0x0",
        "input": "0xd6febde80000000000000000000000000000000000000000000000056bc75e2d631000000000000000000000000000000000000000000000000000000000000000000004",
        "nonce": "0x3",
        "chainId": "0xaa36a7"
      },
      "additionalContracts": [],
      "isFixedGasLimit": false
    }
  ],
  "receipts": [
    {
      "status": "0x1",
      "cumulativeGasUsed": "0x1486578",
      "logs": [
        {
          "address": "0x04de9eb6d60337dce0f98675703627a8942d0e8a",
          "topics": [
            "0xddf252ad1be2c89b69c2b068fc378daa952ba7f163c4a11628f55a4df523b3ef",
            "0x0000000000000000000000000000000000000000000000000000000000000000",
            "0x000000000000000000000000129aa6ab9afc5135a72cef4868175cf906942a14",
            "0x0000000000000000000000000000000000000000000000000000000000000008"
          ],
          "data": "0x",
          "blockHash": "0xd98cf08a32c3455ddff15c2eef15431e7bf422a798214ecff7931feba85d9c5c",
          "blockNumber": "0x83bd2b",
          "blockTimestamp": "0x685d5ae8",
          "transactionHash": "0x8f1797dc77f253886a669dd03576edc5e16fe1bd0564310cbef74c1942f1037a",
          "transactionIndex": "0xfc",
          "logIndex": "0x119",
          "removed": false
        },
        {
          "address": "0x04de9eb6d60337dce0f98675703627a8942d0e8a",
          "topics": [
            "0x1cbc5ab135991bd2b6a4b034a04aa2aa086dac1371cb9b16b8b5e2ed6b036bed",
            "0x000000000000000000000000129aa6ab9afc5135a72cef4868175cf906942a14",
            "0x0000000000000000000000000000000000000000000000000000000000000008"
          ],
          "data": "0x0000000000000000000000000000000000000000000000056bc75e2d63100000",
          "blockHash": "0xd98cf08a32c3455ddff15c2eef15431e7bf422a798214ecff7931feba85d9c5c",
          "blockNumber": "0x83bd2b",
          "blockTimestamp": "0x685d5ae8",
          "transactionHash": "0x8f1797dc77f253886a669dd03576edc5e16fe1bd0564310cbef74c1942f1037a",
          "transactionIndex": "0xfc",
          "logIndex": "0x11a",
          "removed": false
        },
        {
          "address": "0x04de9eb6d60337dce0f98675703627a8942d0e8a",
          "topics": [
            "0xddf252ad1be2c89b69c2b068fc378daa952ba7f163c4a11628f55a4df523b3ef",
            "0x0000000000000000000000000000000000000000000000000000000000000000",
            "0x000000000000000000000000129aa6ab9afc5135a72cef4868175cf906942a14",
            "0x0000000000000000000000000000000000000000000000000000000000000009"
          ],
          "data": "0x",
          "blockHash": "0xd98cf08a32c3455ddff15c2eef15431e7bf422a798214ecff7931feba85d9c5c",
          "blockNumber": "0x83bd2b",
          "blockTimestamp": "0x685d5ae8",
          "transactionHash": "0x8f1797dc77f253886a669dd03576edc5e16fe1bd0564310cbef74c1942f1037a",
          "transactionIndex": "0xfc",
          "logIndex": "0x11b",
          "removed": false
        },
        {
          "address": "0x04de9eb6d60337dce0f98675703627a8942d0e8a",
          "topics": [
            "0x1cbc5ab135991bd2b6a4b034a04aa2aa086dac1371cb9b16b8b5e2ed6b036bed",
            "0x000000000000000000000000129aa6ab9afc5135a72cef4868175cf906942a14",
            "0x0000000000000000000000000000000000000000000000000000000000000009"
          ],
          "data": "0x0000000000000000000000000000000000000000000000056bc75e2d63100000",
          "blockHash": "0xd98cf08a32c3455ddff15c2eef15431e7bf422a798214ecff7931feba85d9c5c",
          "blockNumber": "0x83bd2b",
          "blockTimestamp": "0x685d5ae8",
          "transactionHash": "0x8f1797dc77f253886a669dd03576edc5e16fe1bd0564310cbef74c1942f1037a",
          "transactionIndex": "0xfc",
          "logIndex": "0x11c",
          "removed": false
        },
        {
          "address": "0x04de9eb6d60337dce0f98675703627a8942d0e8a",
          "topics": [
            "0xddf252ad1be2c89b69c2b068fc378daa952ba7f163c4a11628f55a4df523b3ef",
            "0x0000000000000000000000000000000000000000000000000000000000000000",
            "0x000000000000000000000000129aa6ab9afc5135a72cef4868175cf906942a14",
            "0x000000000000000000000000000000000000000000000000000000000000000a"
          ],
          "data": "0x",
          "blockHash": "0xd98cf08a32c3455ddff15c2eef15431e7bf422a798214ecff7931feba85d9c5c",
          "blockNumber": "0x83bd2b",
          "blockTimestamp": "0x685d5ae8",
          "transactionHash": "0x8f1797dc77f253886a669dd03576edc5e16fe1bd0564310cbef74c1942f1037a",
          "transactionIndex": "0xfc",
          "logIndex": "0x11d",
          "removed": false
        },
        {
          "address": "0x04de9eb6d60337dce0f98675703627a8942d0e8a",
          "topics": [
            "0x1cbc5ab135991bd2b6a4b034a04aa2aa086dac1371cb9b16b8b5e2ed6b036bed",
            "0x000000000000000000000000129aa6ab9afc5135a72cef4868175cf906942a14",
            "0x000000000000000000000000000000000000000000000000000000000000000a"
          ],
          "data": "0x0000000000000000000000000000000000000000000000056bc75e2d63100000",
          "blockHash": "0xd98cf08a32c3455ddff15c2eef15431e7bf422a798214ecff7931feba85d9c5c",
          "blockNumber": "0x83bd2b",
          "blockTimestamp": "0x685d5ae8",
          "transactionHash": "0x8f1797dc77f253886a669dd03576edc5e16fe1bd0564310cbef74c1942f1037a",
          "transactionIndex": "0xfc",
          "logIndex": "0x11e",
          "removed": false
        },
        {
          "address": "0x04de9eb6d60337dce0f98675703627a8942d0e8a",
          "topics": [
            "0xddf252ad1be2c89b69c2b068fc378daa952ba7f163c4a11628f55a4df523b3ef",
            "0x0000000000000000000000000000000000000000000000000000000000000000",
            "0x000000000000000000000000129aa6ab9afc5135a72cef4868175cf906942a14",
            "0x000000000000000000000000000000000000000000000000000000000000000b"
          ],
          "data": "0x",
          "blockHash": "0xd98cf08a32c3455ddff15c2eef15431e7bf422a798214ecff7931feba85d9c5c",
          "blockNumber": "0x83bd2b",
          "blockTimestamp": "0x685d5ae8",
          "transactionHash": "0x8f1797dc77f253886a669dd03576edc5e16fe1bd0564310cbef74c1942f1037a",
          "transactionIndex": "0xfc",
          "logIndex": "0x11f",
          "removed": false
        },
        {
          "address": "0x04de9eb6d60337dce0f98675703627a8942d0e8a",
          "topics": [
            "0x1cbc5ab135991bd2b6a4b034a04aa2aa086dac1371cb9b16b8b5e2ed6b036bed",
            "0x000000000000000000000000129aa6ab9afc5135a72cef4868175cf906942a14",
            "0x000000000000000000000000000000000000000000000000000000000000000b"
          ],
          "data": "0x0000000000000000000000000000000000000000000000056bc75e2d63100000",
          "blockHash": "0xd98cf08a32c3455ddff15c2eef15431e7bf422a798214ecff7931feba85d9c5c",
          "blockNumber": "0x83bd2b",
          "blockTimestamp": "0x685d5ae8",
          "transactionHash": "0x8f1797dc77f253886a669dd03576edc5e16fe1bd0564310cbef74c1942f1037a",
          "transactionIndex": "0xfc",
          "logIndex": "0x120",
          "removed": false
        },
        {
          "address": "0x34abd99554ef53edba3b6abebb97df2864cfa07c",
          "topics": [
            "0x8c5be1e5ebec7d5bd14f71427d1e84f3dd0314c0f7b2291e5b200ac8c7c3b925",
            "0x000000000000000000000000129aa6ab9afc5135a72cef4868175cf906942a14",
            "0x00000000000000000000000004de9eb6d60337dce0f98675703627a8942d0e8a"
          ],
          "data": "0x0000000000000000000000000000000000000000000002086ac3510526000000",
          "blockHash": "0xd98cf08a32c3455ddff15c2eef15431e7bf422a798214ecff7931feba85d9c5c",
          "blockNumber": "0x83bd2b",
          "blockTimestamp": "0x685d5ae8",
          "transactionHash": "0x8f1797dc77f253886a669dd03576edc5e16fe1bd0564310cbef74c1942f1037a",
          "transactionIndex": "0xfc",
          "logIndex": "0x121",
          "removed": false
        },
        {
          "address": "0x34abd99554ef53edba3b6abebb97df2864cfa07c",
          "topics": [
            "0xddf252ad1be2c89b69c2b068fc378daa952ba7f163c4a11628f55a4df523b3ef",
            "0x000000000000000000000000129aa6ab9afc5135a72cef4868175cf906942a14",
            "0x0000000000000000000000008d6051dedbe3b08590674b0c4324c1d8b3ad2a00"
          ],
          "data": "0x000000000000000000000000000000000000000000000015af1d78b58c400000",
          "blockHash": "0xd98cf08a32c3455ddff15c2eef15431e7bf422a798214ecff7931feba85d9c5c",
          "blockNumber": "0x83bd2b",
          "blockTimestamp": "0x685d5ae8",
          "transactionHash": "0x8f1797dc77f253886a669dd03576edc5e16fe1bd0564310cbef74c1942f1037a",
          "transactionIndex": "0xfc",
          "logIndex": "0x122",
          "removed": false
        },
        {
          "address": "0x34abd99554ef53edba3b6abebb97df2864cfa07c",
          "topics": [
            "0x8c5be1e5ebec7d5bd14f71427d1e84f3dd0314c0f7b2291e5b200ac8c7c3b925",
            "0x000000000000000000000000129aa6ab9afc5135a72cef4868175cf906942a14",
            "0x00000000000000000000000004de9eb6d60337dce0f98675703627a8942d0e8a"
          ],
          "data": "0x0000000000000000000000000000000000000000000002083340763688700000",
          "blockHash": "0xd98cf08a32c3455ddff15c2eef15431e7bf422a798214ecff7931feba85d9c5c",
          "blockNumber": "0x83bd2b",
          "blockTimestamp": "0x685d5ae8",
          "transactionHash": "0x8f1797dc77f253886a669dd03576edc5e16fe1bd0564310cbef74c1942f1037a",
          "transactionIndex": "0xfc",
          "logIndex": "0x123",
          "removed": false
        },
        {
          "address": "0x34abd99554ef53edba3b6abebb97df2864cfa07c",
          "topics": [
            "0xddf252ad1be2c89b69c2b068fc378daa952ba7f163c4a11628f55a4df523b3ef",
            "0x000000000000000000000000129aa6ab9afc5135a72cef4868175cf906942a14",
            "0x0000000000000000000000008d6051dedbe3b08590674b0c4324c1d8b3ad2a00"
          ],
          "data": "0x0000000000000000000000000000000000000000000000003782dace9d900000",
          "blockHash": "0xd98cf08a32c3455ddff15c2eef15431e7bf422a798214ecff7931feba85d9c5c",
          "blockNumber": "0x83bd2b",
          "blockTimestamp": "0x685d5ae8",
          "transactionHash": "0x8f1797dc77f253886a669dd03576edc5e16fe1bd0564310cbef74c1942f1037a",
          "transactionIndex": "0xfc",
          "logIndex": "0x124",
          "removed": false
        }
      ],
      "logsBloom": "0x00000000000000000000004000000000000000000000000000000000000000000200000200000000000000000000000000000000040080000020000000200000000000000010000800000008000000000000408000000000000000000000000000000000020080001000000000000800000000000000000000000010000020000080000000000000010000000000000000001000000000000000000000000000020000000400000040000000000080000000000000000000000000000000000040000002000800000000000000000000002000000002000000000000000020000010000804000000000000000000000000000000000000041000000000800020",
      "type": "0x2",
      "transactionHash": "0x8f1797dc77f253886a669dd03576edc5e16fe1bd0564310cbef74c1942f1037a",
      "transactionIndex": "0xfc",
      "blockHash": "0xd98cf08a32c3455ddff15c2eef15431e7bf422a798214ecff7931feba85d9c5c",
      "blockNumber": "0x83bd2b",
      "gasUsed": "0x9e70c",
      "effectiveGasPrice": "0x1d8b0f",
      "from": "0x129aa6ab9afc5135a72cef4868175cf906942a14",
      "to": "0x04de9eb6d60337dce0f98675703627a8942d0e8a",
      "contractAddress": null
    }
  ],
  "libraries": [],
  "pending": [],
  "returns": {},
  "timestamp": 1750948584,
  "chain": 11155111,
  "commit": null
}