{
  "transactions": [
    {
      "hash": "0xbff30028344409c70adf8b575f81d3ffbc74b093bad08d73d195e7a968810928",
      "transactionType": "CALL",
      "contractName": null,
      "contractAddress": "0x5dbf0c030fcdfaf95cbc1789bdd58cfae82f05e8",
      "function": "buy(address,uint256,uint256)",
      "arguments": [
        "0x2AE29E74B7c1B3d4BD5484f26918bE598eAa39F2",
        "1000",
        "4"
      ],
      "transaction": {
        "from": "0xce23256ae677765a41e8d7e4d099359771615ca4",
        "to": "0x5dbf0c030fcdfaf95cbc1789bdd58cfae82f05e8",
        "gas": "0xd0751",
        "value": "0x0",
        "input": "0xa59ac6dd0000000000000000000000002ae29e74b7c1b3d4bd5484f26918be598eaa39f200000000000000000000000000000000000000000000000000000000000003e80000000000000000000000000000000000000000000000000000000000000004",
        "nonce": "0xd1",
        "chainId": "0xaa36a7"
      },
      "additionalContracts": [],
      "isFixedGasLimit": false
    }
  ],
  "receipts": [
    {
      "status": "0x1",
      "cumulativeGasUsed": "0xa21589",
      "logs": [
        {
          "address": "0x5dbf0c030fcdfaf95cbc1789bdd58cfae82f05e8",
          "topics": [
            "0xddf252ad1be2c89b69c2b068fc378daa952ba7f163c4a11628f55a4df523b3ef",
            "0x0000000000000000000000000000000000000000000000000000000000000000",
            "0x0000000000000000000000002ae29e74b7c1b3d4bd5484f26918be598eaa39f2",
            "0x0000000000000000000000000000000000000000000000000000000000000014"
          ],
          "data": "0x",
          "blockHash": "0x4c2ca6312353b7d77324fd6607a9f591714fa548c2d2772e344864df22cb5ee2",
          "blockNumber": "0x83ab09",
          "blockTimestamp": "0x685c7e44",
          "transactionHash": "0xbff30028344409c70adf8b575f81d3ffbc74b093bad08d73d195e7a968810928",
          "transactionIndex": "0x7a",
          "logIndex": "0x71",
          "removed": false
        },
        {
          "address": "0x5dbf0c030fcdfaf95cbc1789bdd58cfae82f05e8",
          "topics": [
            "0x1cbc5ab135991bd2b6a4b034a04aa2aa086dac1371cb9b16b8b5e2ed6b036bed",
            "0x000000000000000000000000ce23256ae677765a41e8d7e4d099359771615ca4",
            "0x0000000000000000000000000000000000000000000000000000000000000014"
          ],
          "data": "0x00000000000000000000000000000000000000000000000000000000000003e8",
          "blockHash": "0x4c2ca6312353b7d77324fd6607a9f591714fa548c2d2772e344864df22cb5ee2",
          "blockNumber": "0x83ab09",
          "blockTimestamp": "0x685c7e44",
          "transactionHash": "0xbff30028344409c70adf8b575f81d3ffbc74b093bad08d73d195e7a968810928",
          "transactionIndex": "0x7a",
          "logIndex": "0x72",
          "removed": false
        },
        {
          "address": "0x5dbf0c030fcdfaf95cbc1789bdd58cfae82f05e8",
          "topics": [
            "0xddf252ad1be2c89b69c2b068fc378daa952ba7f163c4a11628f55a4df523b3ef",
            "0x0000000000000000000000000000000000000000000000000000000000000000",
            "0x0000000000000000000000002ae29e74b7c1b3d4bd5484f26918be598eaa39f2",
            "0x0000000000000000000000000000000000000000000000000000000000000015"
          ],
          "data": "0x",
          "blockHash": "0x4c2ca6312353b7d77324fd6607a9f591714fa548c2d2772e344864df22cb5ee2",
          "blockNumber": "0x83ab09",
          "blockTimestamp": "0x685c7e44",
          "transactionHash": "0xbff30028344409c70adf8b575f81d3ffbc74b093bad08d73d195e7a968810928",
          "transactionIndex": "0x7a",
          "logIndex": "0x73",
          "removed": false
        },
        {
          "address": "0x5dbf0c030fcdfaf95cbc1789bdd58cfae82f05e8",
          "topics": [
            "0x1cbc5ab135991bd2b6a4b034a04aa2aa086dac1371cb9b16b8b5e2ed6b036bed",
            "0x000000000000000000000000ce23256ae677765a41e8d7e4d099359771615ca4",
            "0x0000000000000000000000000000000000000000000000000000000000000015"
          ],
          "data": "0x00000000000000000000000000000000000000000000000000000000000003e8",
          "blockHash": "0x4c2ca6312353b7d77324fd6607a9f591714fa548c2d2772e344864df22cb5ee2",
          "blockNumber": "0x83ab09",
          "blockTimestamp": "0x685c7e44",
          "transactionHash": "0xbff30028344409c70adf8b575f81d3ffbc74b093bad08d73d195e7a968810928",
          "transactionIndex": "0x7a",
          "logIndex": "0x74",
          "removed": false
        },
        {
          "address": "0x5dbf0c030fcdfaf95cbc1789bdd58cfae82f05e8",
          "topics": [
            "0xddf252ad1be2c89b69c2b068fc378daa952ba7f163c4a11628f55a4df523b3ef",
            "0x0000000000000000000000000000000000000000000000000000000000000000",
            "0x0000000000000000000000002ae29e74b7c1b3d4bd5484f26918be598eaa39f2",
            "0x0000000000000000000000000000000000000000000000000000000000000016"
          ],
          "data": "0x",
          "blockHash": "0x4c2ca6312353b7d77324fd6607a9f591714fa548c2d2772e344864df22cb5ee2",
          "blockNumber": "0x83ab09",
          "blockTimestamp": "0x685c7e44",
          "transactionHash": "0xbff30028344409c70adf8b575f81d3ffbc74b093bad08d73d195e7a968810928",
          "transactionIndex": "0x7a",
          "logIndex": "0x75",
          "removed": false
        },
        {
          "address": "0x5dbf0c030fcdfaf95cbc1789bdd58cfae82f05e8",
          "topics": [
            "0x1cbc5ab135991bd2b6a4b034a04aa2aa086dac1371cb9b16b8b5e2ed6b036bed",
            "0x000000000000000000000000ce23256ae677765a41e8d7e4d099359771615ca4",
            "0x0000000000000000000000000000000000000000000000000000000000000016"
          ],
          "data": "0x00000000000000000000000000000000000000000000000000000000000003e8",
          "blockHash": "0x4c2ca6312353b7d77324fd6607a9f591714fa548c2d2772e344864df22cb5ee2",
          "blockNumber": "0x83ab09",
          "blockTimestamp": "0x685c7e44",
          "transactionHash": "0xbff30028344409c70adf8b575f81d3ffbc74b093bad08d73d195e7a968810928",
          "transactionIndex": "0x7a",
          "logIndex": "0x76",
          "removed": false
        },
        {
          "address": "0x5dbf0c030fcdfaf95cbc1789bdd58cfae82f05e8",
          "topics": [
            "0xddf252ad1be2c89b69c2b068fc378daa952ba7f163c4a11628f55a4df523b3ef",
            "0x0000000000000000000000000000000000000000000000000000000000000000",
            "0x0000000000000000000000002ae29e74b7c1b3d4bd5484f26918be598eaa39f2",
            "0x0000000000000000000000000000000000000000000000000000000000000017"
          ],
          "data": "0x",
          "blockHash": "0x4c2ca6312353b7d77324fd6607a9f591714fa548c2d2772e344864df22cb5ee2",
          "blockNumber": "0x83ab09",
          "blockTimestamp": "0x685c7e44",
          "transactionHash": "0xbff30028344409c70adf8b575f81d3ffbc74b093bad08d73d195e7a968810928",
          "transactionIndex": "0x7a",
          "logIndex": "0x77",
          "removed": false
        },
        {
          "address": "0x5dbf0c030fcdfaf95cbc1789bdd58cfae82f05e8",
          "topics": [
            "0x1cbc5ab135991bd2b6a4b034a04aa2aa086dac1371cb9b16b8b5e2ed6b036bed",
            "0x000000000000000000000000ce23256ae677765a41e8d7e4d099359771615ca4",
            "0x0000000000000000000000000000000000000000000000000000000000000017"
          ],
          "data": "0x00000000000000000000000000000000000000000000000000000000000003e8",
          "blockHash": "0x4c2ca6312353b7d77324fd6607a9f591714fa548c2d2772e344864df22cb5ee2",
          "blockNumber": "0x83ab09",
          "blockTimestamp": "0x685c7e44",
          "transactionHash": "0xbff30028344409c70adf8b575f81d3ffbc74b093bad08d73d195e7a968810928",
          "transactionIndex": "0x7a",
          "logIndex": "0x78",
          "removed": false
        }
      ],
      "logsBloom": "0x00000000000000000000080000000000000000000000000000400800000000000000000200000000000000000000000000003000000080000000001000000000001000000000000800000008000000000000000000001000000000000000000000000000020000000000000000000800200000000000000000000010000000000000000000000100000000000000000000000000000400000000000000000000000000000400000060000400010000000000000000000000000000120000000000000002000000000000000000000000000000000000000000000000000020002000000000000000000000000000000000000000000000000008000000080000",
      "type": "0x2",
      "transactionHash": "0xbff30028344409c70adf8b575f81d3ffbc74b093bad08d73d195e7a968810928",
      "transactionIndex": "0x7a",
      "blockHash": "0x4c2ca6312353b7d77324fd6607a9f591714fa548c2d2772e344864df22cb5ee2",
      "blockNumber": "0x83ab09",
      "gasUsed": "0x96eb6",
      "effectiveGasPrice": "0x4784d75",
      "from": "0xce23256ae677765a41e8d7e4d099359771615ca4",
      "to": "0x5dbf0c030fcdfaf95cbc1789bdd58cfae82f05e8",
      "contractAddress": null
    }
  ],
  "libraries": [],
  "pending": [],
  "returns": {},
  "timestamp": 1750892101,
  "chain": 11155111,
  "commit": null
}