{
  "transactions": [
    {
      "hash": "0x99c9cbf34f44d7c3865265230c03f76d3ae384e97c1f16f4501063b559d22fce",
      "transactionType": "CALL",
      "contractName": null,
      "contractAddress": "0xe530fe265c6f1f172522d6721bd17d0cd82ba457",
      "function": "buy(uint256,uint256)",
      "arguments": [
        "1000",
        "5"
      ],
      "transaction": {
        "from": "0xce23256ae677765a41e8d7e4d099359771615ca4",
        "to": "0xe530fe265c6f1f172522d6721bd17d0cd82ba457",
        "gas": "0x106eab",
        "value": "0x0",
        "input": "0xd6febde800000000000000000000000000000000000000000000000000000000000003e80000000000000000000000000000000000000000000000000000000000000005",
        "nonce": "0x3f",
        "chainId": "0xaa36a7"
      },
      "additionalContracts": [],
      "isFixedGasLimit": false
    }
  ],
  "receipts": [
    {
      "status": "0x1",
      "cumulativeGasUsed": "0xfdfaee",
      "logs": [
        {
          "address": "0xe530fe265c6f1f172522d6721bd17d0cd82ba457",
          "topics": [
            "0xddf252ad1be2c89b69c2b068fc378daa952ba7f163c4a11628f55a4df523b3ef",
            "0x0000000000000000000000000000000000000000000000000000000000000000",
            "0x000000000000000000000000ce23256ae677765a41e8d7e4d099359771615ca4",
            "0x0000000000000000000000000000000000000000000000000000000000000000"
          ],
          "data": "0x",
          "blockHash": "0xc7cfcd4dbd68c35fd3595ef0f51781aad3f5f71c7b5ed6bd6e8a7bf771f55fa9",
          "blockNumber": "0x830c7c",
          "blockTimestamp": "0x68550918",
          "transactionHash": "0x99c9cbf34f44d7c3865265230c03f76d3ae384e97c1f16f4501063b559d22fce",
          "transactionIndex": "0x71",
          "logIndex": "0x4f",
          "removed": false
        },
        {
          "address": "0xe530fe265c6f1f172522d6721bd17d0cd82ba457",
          "topics": [
            "0x1cbc5ab135991bd2b6a4b034a04aa2aa086dac1371cb9b16b8b5e2ed6b036bed",
            "0x000000000000000000000000ce23256ae677765a41e8d7e4d099359771615ca4",
            "0x0000000000000000000000000000000000000000000000000000000000000000"
          ],
          "data": "0x00000000000000000000000000000000000000000000000000000000000003e8",
          "blockHash": "0xc7cfcd4dbd68c35fd3595ef0f51781aad3f5f71c7b5ed6bd6e8a7bf771f55fa9",
          "blockNumber": "0x830c7c",
          "blockTimestamp": "0x68550918",
          "transactionHash": "0x99c9cbf34f44d7c3865265230c03f76d3ae384e97c1f16f4501063b559d22fce",
          "transactionIndex": "0x71",
          "logIndex": "0x50",
          "removed": false
        },
        {
          "address": "0xe530fe265c6f1f172522d6721bd17d0cd82ba457",
          "topics": [
            "0xddf252ad1be2c89b69c2b068fc378daa952ba7f163c4a11628f55a4df523b3ef",
            "0x0000000000000000000000000000000000000000000000000000000000000000",
            "0x000000000000000000000000ce23256ae677765a41e8d7e4d099359771615ca4",
            "0x0000000000000000000000000000000000000000000000000000000000000001"
          ],
          "data": "0x",
          "blockHash": "0xc7cfcd4dbd68c35fd3595ef0f51781aad3f5f71c7b5ed6bd6e8a7bf771f55fa9",
          "blockNumber": "0x830c7c",
          "blockTimestamp": "0x68550918",
          "transactionHash": "0x99c9cbf34f44d7c3865265230c03f76d3ae384e97c1f16f4501063b559d22fce",
          "transactionIndex": "0x71",
          "logIndex": "0x51",
          "removed": false
        },
        {
          "address": "0xe530fe265c6f1f172522d6721bd17d0cd82ba457",
          "topics": [
            "0x1cbc5ab135991bd2b6a4b034a04aa2aa086dac1371cb9b16b8b5e2ed6b036bed",
            "0x000000000000000000000000ce23256ae677765a41e8d7e4d099359771615ca4",
            "0x0000000000000000000000000000000000000000000000000000000000000001"
          ],
          "data": "0x00000000000000000000000000000000000000000000000000000000000003e8",
          "blockHash": "0xc7cfcd4dbd68c35fd3595ef0f51781aad3f5f71c7b5ed6bd6e8a7bf771f55fa9",
          "blockNumber": "0x830c7c",
          "blockTimestamp": "0x68550918",
          "transactionHash": "0x99c9cbf34f44d7c3865265230c03f76d3ae384e97c1f16f4501063b559d22fce",
          "transactionIndex": "0x71",
          "logIndex": "0x52",
          "removed": false
        },
        {
          "address": "0xe530fe265c6f1f172522d6721bd17d0cd82ba457",
          "topics": [
            "0xddf252ad1be2c89b69c2b068fc378daa952ba7f163c4a11628f55a4df523b3ef",
            "0x0000000000000000000000000000000000000000000000000000000000000000",
            "0x000000000000000000000000ce23256ae677765a41e8d7e4d099359771615ca4",
            "0x0000000000000000000000000000000000000000000000000000000000000002"
          ],
          "data": "0x",
          "blockHash": "0xc7cfcd4dbd68c35fd3595ef0f51781aad3f5f71c7b5ed6bd6e8a7bf771f55fa9",
          "blockNumber": "0x830c7c",
          "blockTimestamp": "0x68550918",
          "transactionHash": "0x99c9cbf34f44d7c3865265230c03f76d3ae384e97c1f16f4501063b559d22fce",
          "transactionIndex": "0x71",
          "logIndex": "0x53",
          "removed": false
        },
        {
          "address": "0xe530fe265c6f1f172522d6721bd17d0cd82ba457",
          "topics": [
            "0x1cbc5ab135991bd2b6a4b034a04aa2aa086dac1371cb9b16b8b5e2ed6b036bed",
            "0x000000000000000000000000ce23256ae677765a41e8d7e4d099359771615ca4",
            "0x0000000000000000000000000000000000000000000000000000000000000002"
          ],
          "data": "0x00000000000000000000000000000000000000000000000000000000000003e8",
          "blockHash": "0xc7cfcd4dbd68c35fd3595ef0f51781aad3f5f71c7b5ed6bd6e8a7bf771f55fa9",
          "blockNumber": "0x830c7c",
          "blockTimestamp": "0x68550918",
          "transactionHash": "0x99c9cbf34f44d7c3865265230c03f76d3ae384e97c1f16f4501063b559d22fce",
          "transactionIndex": "0x71",
          "logIndex": "0x54",
          "removed": false
        },
        {
          "address": "0xe530fe265c6f1f172522d6721bd17d0cd82ba457",
          "topics": [
            "0xddf252ad1be2c89b69c2b068fc378daa952ba7f163c4a11628f55a4df523b3ef",
            "0x0000000000000000000000000000000000000000000000000000000000000000",
            "0x000000000000000000000000ce23256ae677765a41e8d7e4d099359771615ca4",
            "0x0000000000000000000000000000000000000000000000000000000000000003"
          ],
          "data": "0x",
          "blockHash": "0xc7cfcd4dbd68c35fd3595ef0f51781aad3f5f71c7b5ed6bd6e8a7bf771f55fa9",
          "blockNumber": "0x830c7c",
          "blockTimestamp": "0x68550918",
          "transactionHash": "0x99c9cbf34f44d7c3865265230c03f76d3ae384e97c1f16f4501063b559d22fce",
          "transactionIndex": "0x71",
          "logIndex": "0x55",
          "removed": false
        },
        {
          "address": "0xe530fe265c6f1f172522d6721bd17d0cd82ba457",
          "topics": [
            "0x1cbc5ab135991bd2b6a4b034a04aa2aa086dac1371cb9b16b8b5e2ed6b036bed",
            "0x000000000000000000000000ce23256ae677765a41e8d7e4d099359771615ca4",
            "0x0000000000000000000000000000000000000000000000000000000000000003"
          ],
          "data": "0x00000000000000000000000000000000000000000000000000000000000003e8",
          "blockHash": "0xc7cfcd4dbd68c35fd3595ef0f51781aad3f5f71c7b5ed6bd6e8a7bf771f55fa9",
          "blockNumber": "0x830c7c",
          "blockTimestamp": "0x68550918",
          "transactionHash": "0x99c9cbf34f44d7c3865265230c03f76d3ae384e97c1f16f4501063b559d22fce",
          "transactionIndex": "0x71",
          "logIndex": "0x56",
          "removed": false
        },
        {
          "address": "0xe530fe265c6f1f172522d6721bd17d0cd82ba457",
          "topics": [
            "0xddf252ad1be2c89b69c2b068fc378daa952ba7f163c4a11628f55a4df523b3ef",
            "0x0000000000000000000000000000000000000000000000000000000000000000",
            "0x000000000000000000000000ce23256ae677765a41e8d7e4d099359771615ca4",
            "0x0000000000000000000000000000000000000000000000000000000000000004"
          ],
          "data": "0x",
          "blockHash": "0xc7cfcd4dbd68c35fd3595ef0f51781aad3f5f71c7b5ed6bd6e8a7bf771f55fa9",
          "blockNumber": "0x830c7c",
          "blockTimestamp": "0x68550918",
          "transactionHash": "0x99c9cbf34f44d7c3865265230c03f76d3ae384e97c1f16f4501063b559d22fce",
          "transactionIndex": "0x71",
          "logIndex": "0x57",
          "removed": false
        },
        {
          "address": "0xe530fe265c6f1f172522d6721bd17d0cd82ba457",
          "topics": [
            "0x1cbc5ab135991bd2b6a4b034a04aa2aa086dac1371cb9b16b8b5e2ed6b036bed",
            "0x000000000000000000000000ce23256ae677765a41e8d7e4d099359771615ca4",
            "0x0000000000000000000000000000000000000000000000000000000000000004"
          ],
          "data": "0x00000000000000000000000000000000000000000000000000000000000003e8",
          "blockHash": "0xc7cfcd4dbd68c35fd3595ef0f51781aad3f5f71c7b5ed6bd6e8a7bf771f55fa9",
          "blockNumber": "0x830c7c",
          "blockTimestamp": "0x68550918",
          "transactionHash": "0x99c9cbf34f44d7c3865265230c03f76d3ae384e97c1f16f4501063b559d22fce",
          "transactionIndex": "0x71",
          "logIndex": "0x58",
          "removed": false
        }
      ],
      "logsBloom": "0x04000000000000000000000000000000000000000000000000400000000000000000000200000000000000000000000000000000020000000100001000040000000000000000000000000008000000000000000000041000000000000000000008000000020000000000000000000800000000000000000000000410000000000000000000000100000000000000000000000000000000000000000000000000000000000400000040000100000000000000000000800000002000000000400000000002000000000000000000000000000000008000000000000000000060000000000000000000000000000000000000000000008000000000000000000000",
      "type": "0x2",
      "transactionHash": "0x99c9cbf34f44d7c3865265230c03f76d3ae384e97c1f16f4501063b559d22fce",
      "transactionIndex": "0x71",
      "blockHash": "0xc7cfcd4dbd68c35fd3595ef0f51781aad3f5f71c7b5ed6bd6e8a7bf771f55fa9",
      "blockNumber": "0x830c7c",
      "gasUsed": "0xbe58e",
      "effectiveGasPrice": "0x139f5c",
      "from": "0xce23256ae677765a41e8d7e4d099359771615ca4",
      "to": "0xe530fe265c6f1f172522d6721bd17d0cd82ba457",
      "contractAddress": null
    }
  ],
  "libraries": [],
  "pending": [],
  "returns": {},
  "timestamp": 1750403353,
  "chain": 11155111,
  "commit": null
}