{
  "transactions": [
    {
      "hash": "0x2fc3bfe5b79470eb5df6d43da7c8658b5fd2c91f9639ba605b7c23142144a579",
      "transactionType": "CALL",
      "contractName": null,
      "contractAddress": "0x560cb009b499015cadfab0a75b645183fdab44a6",
      "function": "buy(address,uint256,uint256)",
      "arguments": [
        "0xcE23256ae677765a41E8D7E4d099359771615ca4",
        "1000",
        "4"
      ],
      "transaction": {
        "from": "0xce23256ae677765a41e8d7e4d099359771615ca4",
        "to": "0x560cb009b499015cadfab0a75b645183fdab44a6",
        "gas": "0xe05c4",
        "value": "0x0",
        "input": "0xa59ac6dd000000000000000000000000ce23256ae677765a41e8d7e4d099359771615ca400000000000000000000000000000000000000000000000000000000000003e80000000000000000000000000000000000000000000000000000000000000004",
        "nonce": "0x9b",
        "chainId": "0xaa36a7"
      },
      "additionalContracts": [],
      "isFixedGasLimit": false
    }
  ],
  "receipts": [
    {
      "status": "0x1",
      "cumulativeGasUsed": "0x1a6d284",
      "logs": [
        {
          "address": "0x560cb009b499015cadfab0a75b645183fdab44a6",
          "topics": [
            "0xddf252ad1be2c89b69c2b068fc378daa952ba7f163c4a11628f55a4df523b3ef",
            "0x0000000000000000000000000000000000000000000000000000000000000000",
            "0x000000000000000000000000ce23256ae677765a41e8d7e4d099359771615ca4",
            "0x0000000000000000000000000000000000000000000000000000000000000008"
          ],
          "data": "0x",
          "blockHash": "0x0e225bf952f54fbe5be911ed4a15dc7a8adc2e4084a610b8a3f4dce16787e800",
          "blockNumber": "0x83a61c",
          "blockTimestamp": "0x685c4304",
          "transactionHash": "0x2fc3bfe5b79470eb5df6d43da7c8658b5fd2c91f9639ba605b7c23142144a579",
          "transactionIndex": "0x57",
          "logIndex": "0x9f",
          "removed": false
        },
        {
          "address": "0x560cb009b499015cadfab0a75b645183fdab44a6",
          "topics": [
            "0x1cbc5ab135991bd2b6a4b034a04aa2aa086dac1371cb9b16b8b5e2ed6b036bed",
            "0x000000000000000000000000ce23256ae677765a41e8d7e4d099359771615ca4",
            "0x0000000000000000000000000000000000000000000000000000000000000008"
          ],
          "data": "0x00000000000000000000000000000000000000000000000000000000000003e8",
          "blockHash": "0x0e225bf952f54fbe5be911ed4a15dc7a8adc2e4084a610b8a3f4dce16787e800",
          "blockNumber": "0x83a61c",
          "blockTimestamp": "0x685c4304",
          "transactionHash": "0x2fc3bfe5b79470eb5df6d43da7c8658b5fd2c91f9639ba605b7c23142144a579",
          "transactionIndex": "0x57",
          "logIndex": "0xa0",
          "removed": false
        },
        {
          "address": "0x560cb009b499015cadfab0a75b645183fdab44a6",
          "topics": [
            "0xddf252ad1be2c89b69c2b068fc378daa952ba7f163c4a11628f55a4df523b3ef",
            "0x0000000000000000000000000000000000000000000000000000000000000000",
            "0x000000000000000000000000ce23256ae677765a41e8d7e4d099359771615ca4",
            "0x0000000000000000000000000000000000000000000000000000000000000009"
          ],
          "data": "0x",
          "blockHash": "0x0e225bf952f54fbe5be911ed4a15dc7a8adc2e4084a610b8a3f4dce16787e800",
          "blockNumber": "0x83a61c",
          "blockTimestamp": "0x685c4304",
          "transactionHash": "0x2fc3bfe5b79470eb5df6d43da7c8658b5fd2c91f9639ba605b7c23142144a579",
          "transactionIndex": "0x57",
          "logIndex": "0xa1",
          "removed": false
        },
        {
          "address": "0x560cb009b499015cadfab0a75b645183fdab44a6",
          "topics": [
            "0x1cbc5ab135991bd2b6a4b034a04aa2aa086dac1371cb9b16b8b5e2ed6b036bed",
            "0x000000000000000000000000ce23256ae677765a41e8d7e4d099359771615ca4",
            "0x0000000000000000000000000000000000000000000000000000000000000009"
          ],
          "data": "0x00000000000000000000000000000000000000000000000000000000000003e8",
          "blockHash": "0x0e225bf952f54fbe5be911ed4a15dc7a8adc2e4084a610b8a3f4dce16787e800",
          "blockNumber": "0x83a61c",
          "blockTimestamp": "0x685c4304",
          "transactionHash": "0x2fc3bfe5b79470eb5df6d43da7c8658b5fd2c91f9639ba605b7c23142144a579",
          "transactionIndex": "0x57",
          "logIndex": "0xa2",
          "removed": false
        },
        {
          "address": "0x560cb009b499015cadfab0a75b645183fdab44a6",
          "topics": [
            "0xddf252ad1be2c89b69c2b068fc378daa952ba7f163c4a11628f55a4df523b3ef",
            "0x0000000000000000000000000000000000000000000000000000000000000000",
            "0x000000000000000000000000ce23256ae677765a41e8d7e4d099359771615ca4",
            "0x000000000000000000000000000000000000000000000000000000000000000a"
          ],
          "data": "0x",
          "blockHash": "0x0e225bf952f54fbe5be911ed4a15dc7a8adc2e4084a610b8a3f4dce16787e800",
          "blockNumber": "0x83a61c",
          "blockTimestamp": "0x685c4304",
          "transactionHash": "0x2fc3bfe5b79470eb5df6d43da7c8658b5fd2c91f9639ba605b7c23142144a579",
          "transactionIndex": "0x57",
          "logIndex": "0xa3",
          "removed": false
        },
        {
          "address": "0x560cb009b499015cadfab0a75b645183fdab44a6",
          "topics": [
            "0x1cbc5ab135991bd2b6a4b034a04aa2aa086dac1371cb9b16b8b5e2ed6b036bed",
            "0x000000000000000000000000ce23256ae677765a41e8d7e4d099359771615ca4",
            "0x000000000000000000000000000000000000000000000000000000000000000a"
          ],
          "data": "0x00000000000000000000000000000000000000000000000000000000000003e8",
          "blockHash": "0x0e225bf952f54fbe5be911ed4a15dc7a8adc2e4084a610b8a3f4dce16787e800",
          "blockNumber": "0x83a61c",
          "blockTimestamp": "0x685c4304",
          "transactionHash": "0x2fc3bfe5b79470eb5df6d43da7c8658b5fd2c91f9639ba605b7c23142144a579",
          "transactionIndex": "0x57",
          "logIndex": "0xa4",
          "removed": false
        },
        {
          "address": "0x560cb009b499015cadfab0a75b645183fdab44a6",
          "topics": [
            "0xddf252ad1be2c89b69c2b068fc378daa952ba7f163c4a11628f55a4df523b3ef",
            "0x0000000000000000000000000000000000000000000000000000000000000000",
            "0x000000000000000000000000ce23256ae677765a41e8d7e4d099359771615ca4",
            "0x000000000000000000000000000000000000000000000000000000000000000b"
          ],
          "data": "0x",
          "blockHash": "0x0e225bf952f54fbe5be911ed4a15dc7a8adc2e4084a610b8a3f4dce16787e800",
          "blockNumber": "0x83a61c",
          "blockTimestamp": "0x685c4304",
          "transactionHash": "0x2fc3bfe5b79470eb5df6d43da7c8658b5fd2c91f9639ba605b7c23142144a579",
          "transactionIndex": "0x57",
          "logIndex": "0xa5",
          "removed": false
        },
        {
          "address": "0x560cb009b499015cadfab0a75b645183fdab44a6",
          "topics": [
            "0x1cbc5ab135991bd2b6a4b034a04aa2aa086dac1371cb9b16b8b5e2ed6b036bed",
            "0x000000000000000000000000ce23256ae677765a41e8d7e4d099359771615ca4",
            "0x000000000000000000000000000000000000000000000000000000000000000b"
          ],
          "data": "0x00000000000000000000000000000000000000000000000000000000000003e8",
          "blockHash": "0x0e225bf952f54fbe5be911ed4a15dc7a8adc2e4084a610b8a3f4dce16787e800",
          "blockNumber": "0x83a61c",
          "blockTimestamp": "0x685c4304",
          "transactionHash": "0x2fc3bfe5b79470eb5df6d43da7c8658b5fd2c91f9639ba605b7c23142144a579",
          "transactionIndex": "0x57",
          "logIndex": "0xa6",
          "removed": false
        }
      ],
      "logsBloom": "0x00000000000000000000004000000000000000000000000000400000000000000000000200000000000000000000000000000000040080000020000000200000000000000000000008000008000000000000000000001000000000000000000000000000020000000000000000080800000000000000000000000010000000000080000000000100010000000000000000001000000000000000000000000000000000000400000040000000000000000000000000000800000000000000000040000002000000000000000000000000002000000000000000000000000020000000000000000000000000000000000000000000000000040000000000800000",
      "type": "0x2",
      "transactionHash": "0x2fc3bfe5b79470eb5df6d43da7c8658b5fd2c91f9639ba605b7c23142144a579",
      "transactionIndex": "0x57",
      "blockHash": "0x0e225bf952f54fbe5be911ed4a15dc7a8adc2e4084a610b8a3f4dce16787e800",
      "blockNumber": "0x83a61c",
      "gasUsed": "0x9968b",
      "effectiveGasPrice": "0x83a3432d",
      "from": "0xce23256ae677765a41e8d7e4d099359771615ca4",
      "to": "0x560cb009b499015cadfab0a75b645183fdab44a6",
      "contractAddress": null
    }
  ],
  "libraries": [],
  "pending": [],
  "returns": {},
  "timestamp": 1750876926,
  "chain": 11155111,
  "commit": null
}