{
  "transactions": [
    {
      "hash": "0xa7851d6be803f86ce2119a477155746b17fbcae836bf836e38fb04d49103e84a",
      "transactionType": "CALL",
      "contractName": null,
      "contractAddress": "0xceca2e1bca3b27d8435f99f61cea52e51a8ee6cb",
      "function": "putOnSale(uint256,uint256)",
      "arguments": [
        "24",
        "4000000000000000000"
      ],
      "transaction": {
        "from": "0x129aa6ab9afc5135a72cef4868175cf906942a14",
        "to": "0xceca2e1bca3b27d8435f99f61cea52e51a8ee6cb",
        "gas": "0x25fff",
        "value": "0x0",
        "input": "0x36f7992b00000000000000000000000000000000000000000000000000000000000000180000000000000000000000000000000000000000000000003782dace9d900000",
        "nonce": "0xb",
        "chainId": "0xaa36a7"
      },
      "additionalContracts": [],
      "isFixedGasLimit": false
    }
  ],
  "receipts": [
    {
      "status": "0x1",
      "cumulativeGasUsed": "0x17e1c87",
      "logs": [
        {
          "address": "0xceca2e1bca3b27d8435f99f61cea52e51a8ee6cb",
          "topics": [
            "0x7c11ba8301c87f8a6d59779bcbe2b7446e865bd1a4359a69e5c400212e0a5795",
            "0x0000000000000000000000000000000000000000000000000000000000000018"
          ],
          "data": "0x0000000000000000000000000000000000000000000000003782dace9d900000",
          "blockHash": "0x360fcb5c8bb2f99870249300338833396a1b1d2afcf65267c1e0d7cef92f6513",
          "blockNumber": "0x846e96",
          "blockTimestamp": "0x6865b258",
          "transactionHash": "0xa7851d6be803f86ce2119a477155746b17fbcae836bf836e38fb04d49103e84a",
          "transactionIndex": "0x16a",
          "logIndex": "0x1b1",
          "removed": false
        }
      ],
      "logsBloom": "0x00000000000000000000000000000000000000000000000000000000000000000000000000000000000000000000000000000000000000000000000000000000000000000000000000000000000000000040000100000000000000000000000000000000000000000000000000000040000000000000000000000000000000000000000000000000000000000000000000000000000000040000000000200000000000000000000000000000000000000000000000000000000000000000000000100000000000000000000200000000000000000000000020000000000000000000000000000000000008000000000000000000000000000000000000000000",
      "type": "0x2",
      "transactionHash": "0xa7851d6be803f86ce2119a477155746b17fbcae836bf836e38fb04d49103e84a",
      "transactionIndex": "0x16a",
      "blockHash": "0x360fcb5c8bb2f99870249300338833396a1b1d2afcf65267c1e0d7cef92f6513",
      "blockNumber": "0x846e96",
      "gasUsed": "0x1b82f",
      "effectiveGasPrice": "0xafed3c",
      "from": "0x129aa6ab9afc5135a72cef4868175cf906942a14",
      "to": "0xceca2e1bca3b27d8435f99f61cea52e51a8ee6cb",
      "contractAddress": null
    }
  ],
  "libraries": [],
  "pending": [],
  "returns": {},
  "timestamp": 1751495257,
  "chain": 11155111,
  "commit": null
}