{
  "transactions": [
    {
      "hash": "0x0f9676488ca58a59c30da6a656f508ced1846a71e7ffcd47c7395e1a58ccc2b6",
      "transactionType": "CALL",
      "contractName": null,
      "contractAddress": "0x0877d5424c5eb15c1266b65e3945be86d5dadbe2",
      "function": "buy(address,uint256,uint256)",
      "arguments": [
        "0xcE23256ae677765a41E8D7E4d099359771615ca4",
        "1000",
        "4"
      ],
      "transaction": {
        "from": "0xce23256ae677765a41e8d7e4d099359771615ca4",
        "to": "0x0877d5424c5eb15c1266b65e3945be86d5dadbe2",
        "gas": "0xd6d46",
        "value": "0x0",
        "input": "0xa59ac6dd000000000000000000000000ce23256ae677765a41e8d7e4d099359771615ca400000000000000000000000000000000000000000000000000000000000003e80000000000000000000000000000000000000000000000000000000000000004",
        "nonce": "0xa9",
        "chainId": "0xaa36a7"
      },
      "additionalContracts": [],
      "isFixedGasLimit": false
    }
  ],
  "receipts": [
    {
      "status": "0x1",
      "cumulativeGasUsed": "0x207af2f",
      "logs": [
        {
          "address": "0x0877d5424c5eb15c1266b65e3945be86d5dadbe2",
          "topics": [
            "0xddf252ad1be2c89b69c2b068fc378daa952ba7f163c4a11628f55a4df523b3ef",
            "0x0000000000000000000000000000000000000000000000000000000000000000",
            "0x000000000000000000000000ce23256ae677765a41e8d7e4d099359771615ca4",
            "0x0000000000000000000000000000000000000000000000000000000000000000"
          ],
          "data": "0x",
          "blockHash": "0x9870b1b131c71e586c6296e4c2c638c7e1c44087d775ce6e8106108a5f63562e",
          "blockNumber": "0x83a730",
          "blockTimestamp": "0x685c4ff4",
          "transactionHash": "0x0f9676488ca58a59c30da6a656f508ced1846a71e7ffcd47c7395e1a58ccc2b6",
          "transactionIndex": "0x5f",
          "logIndex": "0x9d",
          "removed": false
        },
        {
          "address": "0x0877d5424c5eb15c1266b65e3945be86d5dadbe2",
          "topics": [
            "0x1cbc5ab135991bd2b6a4b034a04aa2aa086dac1371cb9b16b8b5e2ed6b036bed",
            "0x000000000000000000000000ce23256ae677765a41e8d7e4d099359771615ca4",
            "0x0000000000000000000000000000000000000000000000000000000000000000"
          ],
          "data": "0x00000000000000000000000000000000000000000000000000000000000003e8",
          "blockHash": "0x9870b1b131c71e586c6296e4c2c638c7e1c44087d775ce6e8106108a5f63562e",
          "blockNumber": "0x83a730",
          "blockTimestamp": "0x685c4ff4",
          "transactionHash": "0x0f9676488ca58a59c30da6a656f508ced1846a71e7ffcd47c7395e1a58ccc2b6",
          "transactionIndex": "0x5f",
          "logIndex": "0x9e",
          "removed": false
        },
        {
          "address": "0x0877d5424c5eb15c1266b65e3945be86d5dadbe2",
          "topics": [
            "0xddf252ad1be2c89b69c2b068fc378daa952ba7f163c4a11628f55a4df523b3ef",
            "0x0000000000000000000000000000000000000000000000000000000000000000",
            "0x000000000000000000000000ce23256ae677765a41e8d7e4d099359771615ca4",
            "0x0000000000000000000000000000000000000000000000000000000000000001"
          ],
          "data": "0x",
          "blockHash": "0x9870b1b131c71e586c6296e4c2c638c7e1c44087d775ce6e8106108a5f63562e",
          "blockNumber": "0x83a730",
          "blockTimestamp": "0x685c4ff4",
          "transactionHash": "0x0f9676488ca58a59c30da6a656f508ced1846a71e7ffcd47c7395e1a58ccc2b6",
          "transactionIndex": "0x5f",
          "logIndex": "0x9f",
          "removed": false
        },
        {
          "address": "0x0877d5424c5eb15c1266b65e3945be86d5dadbe2",
          "topics": [
            "0x1cbc5ab135991bd2b6a4b034a04aa2aa086dac1371cb9b16b8b5e2ed6b036bed",
            "0x000000000000000000000000ce23256ae677765a41e8d7e4d099359771615ca4",
            "0x0000000000000000000000000000000000000000000000000000000000000001"
          ],
          "data": "0x00000000000000000000000000000000000000000000000000000000000003e8",
          "blockHash": "0x9870b1b131c71e586c6296e4c2c638c7e1c44087d775ce6e8106108a5f63562e",
          "blockNumber": "0x83a730",
          "blockTimestamp": "0x685c4ff4",
          "transactionHash": "0x0f9676488ca58a59c30da6a656f508ced1846a71e7ffcd47c7395e1a58ccc2b6",
          "transactionIndex": "0x5f",
          "logIndex": "0xa0",
          "removed": false
        },
        {
          "address": "0x0877d5424c5eb15c1266b65e3945be86d5dadbe2",
          "topics": [
            "0xddf252ad1be2c89b69c2b068fc378daa952ba7f163c4a11628f55a4df523b3ef",
            "0x0000000000000000000000000000000000000000000000000000000000000000",
            "0x000000000000000000000000ce23256ae677765a41e8d7e4d099359771615ca4",
            "0x0000000000000000000000000000000000000000000000000000000000000002"
          ],
          "data": "0x",
          "blockHash": "0x9870b1b131c71e586c6296e4c2c638c7e1c44087d775ce6e8106108a5f63562e",
          "blockNumber": "0x83a730",
          "blockTimestamp": "0x685c4ff4",
          "transactionHash": "0x0f9676488ca58a59c30da6a656f508ced1846a71e7ffcd47c7395e1a58ccc2b6",
          "transactionIndex": "0x5f",
          "logIndex": "0xa1",
          "removed": false
        },
        {
          "address": "0x0877d5424c5eb15c1266b65e3945be86d5dadbe2",
          "topics": [
            "0x1cbc5ab135991bd2b6a4b034a04aa2aa086dac1371cb9b16b8b5e2ed6b036bed",
            "0x000000000000000000000000ce23256ae677765a41e8d7e4d099359771615ca4",
            "0x0000000000000000000000000000000000000000000000000000000000000002"
          ],
          "data": "0x00000000000000000000000000000000000000000000000000000000000003e8",
          "blockHash": "0x9870b1b131c71e586c6296e4c2c638c7e1c44087d775ce6e8106108a5f63562e",
          "blockNumber": "0x83a730",
          "blockTimestamp": "0x685c4ff4",
          "transactionHash": "0x0f9676488ca58a59c30da6a656f508ced1846a71e7ffcd47c7395e1a58ccc2b6",
          "transactionIndex": "0x5f",
          "logIndex": "0xa2",
          "removed": false
        },
        {
          "address": "0x0877d5424c5eb15c1266b65e3945be86d5dadbe2",
          "topics": [
            "0xddf252ad1be2c89b69c2b068fc378daa952ba7f163c4a11628f55a4df523b3ef",
            "0x0000000000000000000000000000000000000000000000000000000000000000",
            "0x000000000000000000000000ce23256ae677765a41e8d7e4d099359771615ca4",
            "0x0000000000000000000000000000000000000000000000000000000000000003"
          ],
          "data": "0x",
          "blockHash": "0x9870b1b131c71e586c6296e4c2c638c7e1c44087d775ce6e8106108a5f63562e",
          "blockNumber": "0x83a730",
          "blockTimestamp": "0x685c4ff4",
          "transactionHash": "0x0f9676488ca58a59c30da6a656f508ced1846a71e7ffcd47c7395e1a58ccc2b6",
          "transactionIndex": "0x5f",
          "logIndex": "0xa3",
          "removed": false
        },
        {
          "address": "0x0877d5424c5eb15c1266b65e3945be86d5dadbe2",
          "topics": [
            "0x1cbc5ab135991bd2b6a4b034a04aa2aa086dac1371cb9b16b8b5e2ed6b036bed",
            "0x000000000000000000000000ce23256ae677765a41e8d7e4d099359771615ca4",
            "0x0000000000000000000000000000000000000000000000000000000000000003"
          ],
          "data": "0x00000000000000000000000000000000000000000000000000000000000003e8",
          "blockHash": "0x9870b1b131c71e586c6296e4c2c638c7e1c44087d775ce6e8106108a5f63562e",
          "blockNumber": "0x83a730",
          "blockTimestamp": "0x685c4ff4",
          "transactionHash": "0x0f9676488ca58a59c30da6a656f508ced1846a71e7ffcd47c7395e1a58ccc2b6",
          "transactionIndex": "0x5f",
          "logIndex": "0xa4",
          "removed": false
        }
      ],
      "logsBloom": "0x04000000000000000000000000000000000000000000000000400000000000000000000200000000000000000000000000000000020000000000000000040000000000000000000000000008000000000000000000041000000000000000000000000000020000000000000000000800000000000000000000000010000000022000000000000100000000000000000000000000000000000000000000000000000000000400000040000100000000000000000000800000000100000000400000000002000000000000000000000000000000000000000000000000000060000000000000000000000000000000000000000000008000000000000000000000",
      "type": "0x2",
      "transactionHash": "0x0f9676488ca58a59c30da6a656f508ced1846a71e7ffcd47c7395e1a58ccc2b6",
      "transactionIndex": "0x5f",
      "blockHash": "0x9870b1b131c71e586c6296e4c2c638c7e1c44087d775ce6e8106108a5f63562e",
      "blockNumber": "0x83a730",
      "gasUsed": "0x9b887",
      "effectiveGasPrice": "0x11a434ce",
      "from": "0xce23256ae677765a41e8d7e4d099359771615ca4",
      "to": "0x0877d5424c5eb15c1266b65e3945be86d5dadbe2",
      "contractAddress": null
    }
  ],
  "libraries": [],
  "pending": [],
  "returns": {},
  "timestamp": 1750880245,
  "chain": 11155111,
  "commit": null
}