{
  "transactions": [
    {
      "hash": "0xa3014e5292e053ef481b0e9bbf22cd23f7006df46fe297f2ea4ca457993b1709",
      "transactionType": "CALL",
      "contractName": null,
      "contractAddress": "0xceca2e1bca3b27d8435f99f61cea52e51a8ee6cb",
      "function": "putOnSale(uint256,uint256)",
      "arguments": [
        "0",
        "40000000000000000000000"
      ],
      "transaction": {
        "from": "0xce23256ae677765a41e8d7e4d099359771615ca4",
        "to": "0xceca2e1bca3b27d8435f99f61cea52e51a8ee6cb",
        "gas": "0x1b221",
        "value": "0x0",
        "input": "0x36f7992b0000000000000000000000000000000000000000000000000000000000000000000000000000000000000000000000000000000000000878678326eac9000000",
        "nonce": "0x102",
        "chainId": "0xaa36a7"
      },
      "additionalContracts": [],
      "isFixedGasLimit": false
    }
  ],
  "receipts": [
    {
      "status": "0x1",
      "cumulativeGasUsed": "0x1807c7a",
      "logs": [
        {
          "address": "0xceca2e1bca3b27d8435f99f61cea52e51a8ee6cb",
          "topics": [
            "0x7c11ba8301c87f8a6d59779bcbe2b7446e865bd1a4359a69e5c400212e0a5795",
            "0x0000000000000000000000000000000000000000000000000000000000000000"
          ],
          "data": "0x000000000000000000000000000000000000000000000878678326eac9000000",
          "blockHash": "0x3b9a4054a2cf63e249610c680b24e06f8b2691a2d990810c6ac05424553587e0",
          "blockNumber": "0x845786",
          "blockTimestamp": "0x68649d08",
          "transactionHash": "0xa3014e5292e053ef481b0e9bbf22cd23f7006df46fe297f2ea4ca457993b1709",
          "transactionIndex": "0x173",
          "logIndex": "0x277",
          "removed": false
        }
      ],
      "logsBloom": "0x00000000000000000000000000000000000000000000000000000000000000000000000000000000000000000000000000000000000000000000000000000000000000000000000000000000000000000000000100000000000000000000000000000000020000000000000000000840000000000000000000000000000000000000000000000000000000000000000000000000000000040000000000200000000000000000000000000000000000000000000000000000000000000000000000000000000000000000000200000000000000000000000000000000000020000000000000000000000008000000000000000000000000000000000000000000",
      "type": "0x2",
      "transactionHash": "0xa3014e5292e053ef481b0e9bbf22cd23f7006df46fe297f2ea4ca457993b1709",
      "transactionIndex": "0x173",
      "blockHash": "0x3b9a4054a2cf63e249610c680b24e06f8b2691a2d990810c6ac05424553587e0",
      "blockNumber": "0x845786",
      "gasUsed": "0x13a4e",
      "effectiveGasPrice": "0x8f400b28",
      "from": "0xce23256ae677765a41e8d7e4d099359771615ca4",
      "to": "0xceca2e1bca3b27d8435f99f61cea52e51a8ee6cb",
      "contractAddress": null
    }
  ],
  "libraries": [],
  "pending": [],
  "returns": {},
  "timestamp": 1751424264,
  "chain": 11155111,
  "commit": null
}