{
  "transactions": [
    {
      "hash": "0x72995e8040e13ca3fe89496ba93a72884fdba692f0eb6ffbdf179d6da9e147ab",
      "transactionType": "CALL",
      "contractName": null,
      "contractAddress": "0x05d56701d4878ccef19b681460343380420a8651",
      "function": "buy(uint256,uint256)",
      "arguments": [
        "1000",
        "4"
      ],
      "transaction": {
        "from": "0x129aa6ab9afc5135a72cef4868175cf906942a14",
        "to": "0x05d56701d4878ccef19b681460343380420a8651",
        "gas": "0xcf709",
        "value": "0x0",
        "input": "0xd6febde800000000000000000000000000000000000000000000000000000000000003e80000000000000000000000000000000000000000000000000000000000000004",
        "nonce": "0x1",
        "chainId": "0xaa36a7"
      },
      "additionalContracts": [],
      "isFixedGasLimit": false
    }
  ],
  "receipts": [
    {
      "status": "0x1",
      "cumulativeGasUsed": "0x31a64d0",
      "logs": [
        {
          "address": "0x05d56701d4878ccef19b681460343380420a8651",
          "topics": [
            "0xddf252ad1be2c89b69c2b068fc378daa952ba7f163c4a11628f55a4df523b3ef",
            "0x0000000000000000000000000000000000000000000000000000000000000000",
            "0x000000000000000000000000129aa6ab9afc5135a72cef4868175cf906942a14",
            "0x0000000000000000000000000000000000000000000000000000000000000010"
          ],
          "data": "0x",
          "blockHash": "0x8c72505930cecf478dea8dd52ab244fc36ded838c9752b4b7e2dd5f73bf9a248",
          "blockNumber": "0x83ba2b",
          "blockTimestamp": "0x685d352c",
          "transactionHash": "0x72995e8040e13ca3fe89496ba93a72884fdba692f0eb6ffbdf179d6da9e147ab",
          "transactionIndex": "0x174",
          "logIndex": "0x206",
          "removed": false
        },
        {
          "address": "0x05d56701d4878ccef19b681460343380420a8651",
          "topics": [
            "0x1cbc5ab135991bd2b6a4b034a04aa2aa086dac1371cb9b16b8b5e2ed6b036bed",
            "0x000000000000000000000000129aa6ab9afc5135a72cef4868175cf906942a14",
            "0x0000000000000000000000000000000000000000000000000000000000000010"
          ],
          "data": "0x00000000000000000000000000000000000000000000000000000000000003e8",
          "blockHash": "0x8c72505930cecf478dea8dd52ab244fc36ded838c9752b4b7e2dd5f73bf9a248",
          "blockNumber": "0x83ba2b",
          "blockTimestamp": "0x685d352c",
          "transactionHash": "0x72995e8040e13ca3fe89496ba93a72884fdba692f0eb6ffbdf179d6da9e147ab",
          "transactionIndex": "0x174",
          "logIndex": "0x207",
          "removed": false
        },
        {
          "address": "0x05d56701d4878ccef19b681460343380420a8651",
          "topics": [
            "0xddf252ad1be2c89b69c2b068fc378daa952ba7f163c4a11628f55a4df523b3ef",
            "0x0000000000000000000000000000000000000000000000000000000000000000",
            "0x000000000000000000000000129aa6ab9afc5135a72cef4868175cf906942a14",
            "0x0000000000000000000000000000000000000000000000000000000000000011"
          ],
          "data": "0x",
          "blockHash": "0x8c72505930cecf478dea8dd52ab244fc36ded838c9752b4b7e2dd5f73bf9a248",
          "blockNumber": "0x83ba2b",
          "blockTimestamp": "0x685d352c",
          "transactionHash": "0x72995e8040e13ca3fe89496ba93a72884fdba692f0eb6ffbdf179d6da9e147ab",
          "transactionIndex": "0x174",
          "logIndex": "0x208",
          "removed": false
        },
        {
          "address": "0x05d56701d4878ccef19b681460343380420a8651",
          "topics": [
            "0x1cbc5ab135991bd2b6a4b034a04aa2aa086dac1371cb9b16b8b5e2ed6b036bed",
            "0x000000000000000000000000129aa6ab9afc5135a72cef4868175cf906942a14",
            "0x0000000000000000000000000000000000000000000000000000000000000011"
          ],
          "data": "0x00000000000000000000000000000000000000000000000000000000000003e8",
          "blockHash": "0x8c72505930cecf478dea8dd52ab244fc36ded838c9752b4b7e2dd5f73bf9a248",
          "blockNumber": "0x83ba2b",
          "blockTimestamp": "0x685d352c",
          "transactionHash": "0x72995e8040e13ca3fe89496ba93a72884fdba692f0eb6ffbdf179d6da9e147ab",
          "transactionIndex": "0x174",
          "logIndex": "0x209",
          "removed": false
        },
        {
          "address": "0x05d56701d4878ccef19b681460343380420a8651",
          "topics": [
            "0xddf252ad1be2c89b69c2b068fc378daa952ba7f163c4a11628f55a4df523b3ef",
            "0x0000000000000000000000000000000000000000000000000000000000000000",
            "0x000000000000000000000000129aa6ab9afc5135a72cef4868175cf906942a14",
            "0x0000000000000000000000000000000000000000000000000000000000000012"
          ],
          "data": "0x",
          "blockHash": "0x8c72505930cecf478dea8dd52ab244fc36ded838c9752b4b7e2dd5f73bf9a248",
          "blockNumber": "0x83ba2b",
          "blockTimestamp": "0x685d352c",
          "transactionHash": "0x72995e8040e13ca3fe89496ba93a72884fdba692f0eb6ffbdf179d6da9e147ab",
          "transactionIndex": "0x174",
          "logIndex": "0x20a",
          "removed": false
        },
        {
          "address": "0x05d56701d4878ccef19b681460343380420a8651",
          "topics": [
            "0x1cbc5ab135991bd2b6a4b034a04aa2aa086dac1371cb9b16b8b5e2ed6b036bed",
            "0x000000000000000000000000129aa6ab9afc5135a72cef4868175cf906942a14",
            "0x0000000000000000000000000000000000000000000000000000000000000012"
          ],
          "data": "0x00000000000000000000000000000000000000000000000000000000000003e8",
          "blockHash": "0x8c72505930cecf478dea8dd52ab244fc36ded838c9752b4b7e2dd5f73bf9a248",
          "blockNumber": "0x83ba2b",
          "blockTimestamp": "0x685d352c",
          "transactionHash": "0x72995e8040e13ca3fe89496ba93a72884fdba692f0eb6ffbdf179d6da9e147ab",
          "transactionIndex": "0x174",
          "logIndex": "0x20b",
          "removed": false
        },
        {
          "address": "0x05d56701d4878ccef19b681460343380420a8651",
          "topics": [
            "0xddf252ad1be2c89b69c2b068fc378daa952ba7f163c4a11628f55a4df523b3ef",
            "0x0000000000000000000000000000000000000000000000000000000000000000",
            "0x000000000000000000000000129aa6ab9afc5135a72cef4868175cf906942a14",
            "0x0000000000000000000000000000000000000000000000000000000000000013"
          ],
          "data": "0x",
          "blockHash": "0x8c72505930cecf478dea8dd52ab244fc36ded838c9752b4b7e2dd5f73bf9a248",
          "blockNumber": "0x83ba2b",
          "blockTimestamp": "0x685d352c",
          "transactionHash": "0x72995e8040e13ca3fe89496ba93a72884fdba692f0eb6ffbdf179d6da9e147ab",
          "transactionIndex": "0x174",
          "logIndex": "0x20c",
          "removed": false
        },
        {
          "address": "0x05d56701d4878ccef19b681460343380420a8651",
          "topics": [
            "0x1cbc5ab135991bd2b6a4b034a04aa2aa086dac1371cb9b16b8b5e2ed6b036bed",
            "0x000000000000000000000000129aa6ab9afc5135a72cef4868175cf906942a14",
            "0x0000000000000000000000000000000000000000000000000000000000000013"
          ],
          "data": "0x00000000000000000000000000000000000000000000000000000000000003e8",
          "blockHash": "0x8c72505930cecf478dea8dd52ab244fc36ded838c9752b4b7e2dd5f73bf9a248",
          "blockNumber": "0x83ba2b",
          "blockTimestamp": "0x685d352c",
          "transactionHash": "0x72995e8040e13ca3fe89496ba93a72884fdba692f0eb6ffbdf179d6da9e147ab",
          "transactionIndex": "0x174",
          "logIndex": "0x20d",
          "removed": false
        }
      ],
      "logsBloom": "0x20000000100000000000000000800000000000000000000000000020000000000000000240000000000000000000000000000000000000000000000000000000000000000010000800000008000000000000000000000000000000000000000000000000020080000000000000000800000000004000000000000010040000000000000000000000000000000000040000000100000000000000000000000000000000000400000040000000200000000000000000000040000000000400000000001002000000000400000000000000000000000000000000000000000020000000200000000000000000000000000000000000000000000000000000000000",
      "type": "0x2",
      "transactionHash": "0x72995e8040e13ca3fe89496ba93a72884fdba692f0eb6ffbdf179d6da9e147ab",
      "transactionIndex": "0x174",
      "blockHash": "0x8c72505930cecf478dea8dd52ab244fc36ded838c9752b4b7e2dd5f73bf9a248",
      "blockNumber": "0x83ba2b",
      "gasUsed": "0x962ed",
      "effectiveGasPrice": "0x92388f6",
      "from": "0x129aa6ab9afc5135a72cef4868175cf906942a14",
      "to": "0x05d56701d4878ccef19b681460343380420a8651",
      "contractAddress": null
    }
  ],
  "libraries": [],
  "pending": [],
  "returns": {},
  "timestamp": 1750938924,
  "chain": 11155111,
  "commit": null
}