{
  "transactions": [
    {
      "hash": "0xde0fa0c5ec96944a248c36a8d6b63026c0da61c7fbcae4d979fdc528826f80b2",
      "transactionType": "CALL",
      "contractName": null,
      "contractAddress": "0x560cb009b499015cadfab0a75b645183fdab44a6",
      "function": "trade(address,address,uint256,uint256)",
      "arguments": [
        "0xcE23256ae677765a41E8D7E4d099359771615ca4",
        "0x2AE29E74B7c1B3d4BD5484f26918bE598eAa39F2",
        "2",
        "4000"
      ],
      "transaction": {
        "from": "0xce23256ae677765a41e8d7e4d099359771615ca4",
        "to": "0x560cb009b499015cadfab0a75b645183fdab44a6",
        "gas": "0x21088",
        "value": "0x0",
        "input": "0x4849b6c8000000000000000000000000ce23256ae677765a41e8d7e4d099359771615ca40000000000000000000000002ae29e74b7c1b3d4bd5484f26918be598eaa39f200000000000000000000000000000000000000000000000000000000000000020000000000000000000000000000000000000000000000000000000000000fa0",
        "nonce": "0x9d",
        "chainId": "0xaa36a7"
      },
      "additionalContracts": [],
      "isFixedGasLimit": false
    }
  ],
  "receipts": [
    {
      "status": "0x1",
      "cumulativeGasUsed": "0x170c257",
      "logs": [
        {
          "address": "0x560cb009b499015cadfab0a75b645183fdab44a6",
          "topics": [
            "0x4b5796113f074ebf8f11d5bcdeb6349b2fbe47abed78419cdcdbbc15c6fcf845",
            "0x000000000000000000000000ce23256ae677765a41e8d7e4d099359771615ca4",
            "0x0000000000000000000000002ae29e74b7c1b3d4bd5484f26918be598eaa39f2",
            "0x0000000000000000000000000000000000000000000000000000000000000002"
          ],
          "data": "0x0000000000000000000000000000000000000000000000000000000000000fa0",
          "blockHash": "0xa7c8b9990ab26b1b4e4e68e08c967c6ada88727fd1f53de90b5590cb6f3055d8",
          "blockNumber": "0x83a658",
          "blockTimestamp": "0x685c45d4",
          "transactionHash": "0xde0fa0c5ec96944a248c36a8d6b63026c0da61c7fbcae4d979fdc528826f80b2",
          "transactionIndex": "0x9c",
          "logIndex": "0x114",
          "removed": false
        },
        {
          "address": "0x560cb009b499015cadfab0a75b645183fdab44a6",
          "topics": [
            "0x8c5be1e5ebec7d5bd14f71427d1e84f3dd0314c0f7b2291e5b200ac8c7c3b925",
            "0x000000000000000000000000ce23256ae677765a41e8d7e4d099359771615ca4",
            "0x0000000000000000000000000000000000000000000000000000000000000000",
            "0x0000000000000000000000000000000000000000000000000000000000000002"
          ],
          "data": "0x",
          "blockHash": "0xa7c8b9990ab26b1b4e4e68e08c967c6ada88727fd1f53de90b5590cb6f3055d8",
          "blockNumber": "0x83a658",
          "blockTimestamp": "0x685c45d4",
          "transactionHash": "0xde0fa0c5ec96944a248c36a8d6b63026c0da61c7fbcae4d979fdc528826f80b2",
          "transactionIndex": "0x9c",
          "logIndex": "0x115",
          "removed": false
        },
        {
          "address": "0x560cb009b499015cadfab0a75b645183fdab44a6",
          "topics": [
            "0xddf252ad1be2c89b69c2b068fc378daa952ba7f163c4a11628f55a4df523b3ef",
            "0x000000000000000000000000ce23256ae677765a41e8d7e4d099359771615ca4",
            "0x0000000000000000000000002ae29e74b7c1b3d4bd5484f26918be598eaa39f2",
            "0x0000000000000000000000000000000000000000000000000000000000000002"
          ],
          "data": "0x",
          "blockHash": "0xa7c8b9990ab26b1b4e4e68e08c967c6ada88727fd1f53de90b5590cb6f3055d8",
          "blockNumber": "0x83a658",
          "blockTimestamp": "0x685c45d4",
          "transactionHash": "0xde0fa0c5ec96944a248c36a8d6b63026c0da61c7fbcae4d979fdc528826f80b2",
          "transactionIndex": "0x9c",
          "logIndex": "0x116",
          "removed": false
        }
      ],
      "logsBloom": "0x04000000000000000000000000001000000000000000000000400800000000000000000000000000000000000000000000000000000080000000000000200000000000000000000008000008000000000000000000001000000000000000000000000000020000000000000000080800000000000000000000000010000000000000000000000100000000000000000000000000000000000000000000000000020000000000000000000500000000000000000000000800000001000000000000000002000000000000000000000000000000000000000000000000000420000010000000000000000000000000000000000000008000000000000000000000",
      "type": "0x2",
      "transactionHash": "0xde0fa0c5ec96944a248c36a8d6b63026c0da61c7fbcae4d979fdc528826f80b2",
      "transactionIndex": "0x9c",
      "blockHash": "0xa7c8b9990ab26b1b4e4e68e08c967c6ada88727fd1f53de90b5590cb6f3055d8",
      "blockNumber": "0x83a658",
      "gasUsed": "0x17ea6",
      "effectiveGasPrice": "0x25915442",
      "from": "0xce23256ae677765a41e8d7e4d099359771615ca4",
      "to": "0x560cb009b499015cadfab0a75b645183fdab44a6",
      "contractAddress": null
    }
  ],
  "libraries": [],
  "pending": [],
  "returns": {},
  "timestamp": 1750877646,
  "chain": 11155111,
  "commit": null
}