{
  "transactions": [
    {
      "hash": "0x60969711ff68f0004f4b1d437df5f3ccac9d8d331c4766a645a2d3880957c1ee",
      "transactionType": "CALL",
      "contractName": null,
      "contractAddress": "0x9cdcb6446da733b6d37b486f918ba59caaa4f8a5",
      "function": "buy(uint256,uint256)",
      "arguments": [
        "100",
        "4"
      ],
      "transaction": {
        "from": "0xce23256ae677765a41e8d7e4d099359771615ca4",
        "to": "0x9cdcb6446da733b6d37b486f918ba59caaa4f8a5",
        "gas": "0xd3c13",
        "value": "0x0",
        "input": "0xd6febde800000000000000000000000000000000000000000000000000000000000000640000000000000000000000000000000000000000000000000000000000000004",
        "nonce": "0x84",
        "chainId": "0xaa36a7"
      },
      "additionalContracts": [],
      "isFixedGasLimit": false
    }
  ],
  "receipts": [
    {
      "status": "0x1",
      "cumulativeGasUsed": "0x1121b9a",
      "logs": [
        {
          "address": "0x9cdcb6446da733b6d37b486f918ba59caaa4f8a5",
          "topics": [
            "0xddf252ad1be2c89b69c2b068fc378daa952ba7f163c4a11628f55a4df523b3ef",
            "0x0000000000000000000000000000000000000000000000000000000000000000",
            "0x000000000000000000000000ce23256ae677765a41e8d7e4d099359771615ca4",
            "0x0000000000000000000000000000000000000000000000000000000000000008"
          ],
          "data": "0x",
          "blockHash": "0x7c7af577bd4f77b5b963073bf5a9ff19a4be8b7ae2a4d5e5888b3582e5a38bbb",
          "blockNumber": "0x83409a",
          "blockTimestamp": "0x68577ba0",
          "transactionHash": "0x60969711ff68f0004f4b1d437df5f3ccac9d8d331c4766a645a2d3880957c1ee",
          "transactionIndex": "0xa9",
          "logIndex": "0x99",
          "removed": false
        },
        {
          "address": "0x9cdcb6446da733b6d37b486f918ba59caaa4f8a5",
          "topics": [
            "0x1cbc5ab135991bd2b6a4b034a04aa2aa086dac1371cb9b16b8b5e2ed6b036bed",
            "0x000000000000000000000000ce23256ae677765a41e8d7e4d099359771615ca4",
            "0x0000000000000000000000000000000000000000000000000000000000000008"
          ],
          "data": "0x0000000000000000000000000000000000000000000000000000000000000064",
          "blockHash": "0x7c7af577bd4f77b5b963073bf5a9ff19a4be8b7ae2a4d5e5888b3582e5a38bbb",
          "blockNumber": "0x83409a",
          "blockTimestamp": "0x68577ba0",
          "transactionHash": "0x60969711ff68f0004f4b1d437df5f3ccac9d8d331c4766a645a2d3880957c1ee",
          "transactionIndex": "0xa9",
          "logIndex": "0x9a",
          "removed": false
        },
        {
          "address": "0x9cdcb6446da733b6d37b486f918ba59caaa4f8a5",
          "topics": [
            "0xddf252ad1be2c89b69c2b068fc378daa952ba7f163c4a11628f55a4df523b3ef",
            "0x0000000000000000000000000000000000000000000000000000000000000000",
            "0x000000000000000000000000ce23256ae677765a41e8d7e4d099359771615ca4",
            "0x0000000000000000000000000000000000000000000000000000000000000009"
          ],
          "data": "0x",
          "blockHash": "0x7c7af577bd4f77b5b963073bf5a9ff19a4be8b7ae2a4d5e5888b3582e5a38bbb",
          "blockNumber": "0x83409a",
          "blockTimestamp": "0x68577ba0",
          "transactionHash": "0x60969711ff68f0004f4b1d437df5f3ccac9d8d331c4766a645a2d3880957c1ee",
          "transactionIndex": "0xa9",
          "logIndex": "0x9b",
          "removed": false
        },
        {
          "address": "0x9cdcb6446da733b6d37b486f918ba59caaa4f8a5",
          "topics": [
            "0x1cbc5ab135991bd2b6a4b034a04aa2aa086dac1371cb9b16b8b5e2ed6b036bed",
            "0x000000000000000000000000ce23256ae677765a41e8d7e4d099359771615ca4",
            "0x0000000000000000000000000000000000000000000000000000000000000009"
          ],
          "data": "0x0000000000000000000000000000000000000000000000000000000000000064",
          "blockHash": "0x7c7af577bd4f77b5b963073bf5a9ff19a4be8b7ae2a4d5e5888b3582e5a38bbb",
          "blockNumber": "0x83409a",
          "blockTimestamp": "0x68577ba0",
          "transactionHash": "0x60969711ff68f0004f4b1d437df5f3ccac9d8d331c4766a645a2d3880957c1ee",
          "transactionIndex": "0xa9",
          "logIndex": "0x9c",
          "removed": false
        },
        {
          "address": "0x9cdcb6446da733b6d37b486f918ba59caaa4f8a5",
          "topics": [
            "0xddf252ad1be2c89b69c2b068fc378daa952ba7f163c4a11628f55a4df523b3ef",
            "0x0000000000000000000000000000000000000000000000000000000000000000",
            "0x000000000000000000000000ce23256ae677765a41e8d7e4d099359771615ca4",
            "0x000000000000000000000000000000000000000000000000000000000000000a"
          ],
          "data": "0x",
          "blockHash": "0x7c7af577bd4f77b5b963073bf5a9ff19a4be8b7ae2a4d5e5888b3582e5a38bbb",
          "blockNumber": "0x83409a",
          "blockTimestamp": "0x68577ba0",
          "transactionHash": "0x60969711ff68f0004f4b1d437df5f3ccac9d8d331c4766a645a2d3880957c1ee",
          "transactionIndex": "0xa9",
          "logIndex": "0x9d",
          "removed": false
        },
        {
          "address": "0x9cdcb6446da733b6d37b486f918ba59caaa4f8a5",
          "topics": [
            "0x1cbc5ab135991bd2b6a4b034a04aa2aa086dac1371cb9b16b8b5e2ed6b036bed",
            "0x000000000000000000000000ce23256ae677765a41e8d7e4d099359771615ca4",
            "0x000000000000000000000000000000000000000000000000000000000000000a"
          ],
          "data": "0x0000000000000000000000000000000000000000000000000000000000000064",
          "blockHash": "0x7c7af577bd4f77b5b963073bf5a9ff19a4be8b7ae2a4d5e5888b3582e5a38bbb",
          "blockNumber": "0x83409a",
          "blockTimestamp": "0x68577ba0",
          "transactionHash": "0x60969711ff68f0004f4b1d437df5f3ccac9d8d331c4766a645a2d3880957c1ee",
          "transactionIndex": "0xa9",
          "logIndex": "0x9e",
          "removed": false
        },
        {
          "address": "0x9cdcb6446da733b6d37b486f918ba59caaa4f8a5",
          "topics": [
            "0xddf252ad1be2c89b69c2b068fc378daa952ba7f163c4a11628f55a4df523b3ef",
            "0x0000000000000000000000000000000000000000000000000000000000000000",
            "0x000000000000000000000000ce23256ae677765a41e8d7e4d099359771615ca4",
            "0x000000000000000000000000000000000000000000000000000000000000000b"
          ],
          "data": "0x",
          "blockHash": "0x7c7af577bd4f77b5b963073bf5a9ff19a4be8b7ae2a4d5e5888b3582e5a38bbb",
          "blockNumber": "0x83409a",
          "blockTimestamp": "0x68577ba0",
          "transactionHash": "0x60969711ff68f0004f4b1d437df5f3ccac9d8d331c4766a645a2d3880957c1ee",
          "transactionIndex": "0xa9",
          "logIndex": "0x9f",
          "removed": false
        },
        {
          "address": "0x9cdcb6446da733b6d37b486f918ba59caaa4f8a5",
          "topics": [
            "0x1cbc5ab135991bd2b6a4b034a04aa2aa086dac1371cb9b16b8b5e2ed6b036bed",
            "0x000000000000000000000000ce23256ae677765a41e8d7e4d099359771615ca4",
            "0x000000000000000000000000000000000000000000000000000000000000000b"
          ],
          "data": "0x0000000000000000000000000000000000000000000000000000000000000064",
          "blockHash": "0x7c7af577bd4f77b5b963073bf5a9ff19a4be8b7ae2a4d5e5888b3582e5a38bbb",
          "blockNumber": "0x83409a",
          "blockTimestamp": "0x68577ba0",
          "transactionHash": "0x60969711ff68f0004f4b1d437df5f3ccac9d8d331c4766a645a2d3880957c1ee",
          "transactionIndex": "0xa9",
          "logIndex": "0xa0",
          "removed": false
        }
      ],
      "logsBloom": "0x00000000000000000004004000000000000000000000000000400000000000000000000200000000000000000000000000000000040080000020000000200000000000000000000000000008000000000010000000001000000000000000000000000000020000000000000000000800000000000000000000000010000000000080000000000100010000000000000000001000000000000000000000000000000000000400000040000000000000000000020000000000000000000000000040000002000000000000000000000000002000000000000000000000000020000000000000000000000000000000000000000000000000040000000000800000",
      "type": "0x2",
      "transactionHash": "0x60969711ff68f0004f4b1d437df5f3ccac9d8d331c4766a645a2d3880957c1ee",
      "transactionIndex": "0xa9",
      "blockHash": "0x7c7af577bd4f77b5b963073bf5a9ff19a4be8b7ae2a4d5e5888b3582e5a38bbb",
      "blockNumber": "0x83409a",
      "gasUsed": "0x994e8",
      "effectiveGasPrice": "0x7a352",
      "from": "0xce23256ae677765a41e8d7e4d099359771615ca4",
      "to": "0x9cdcb6446da733b6d37b486f918ba59caaa4f8a5",
      "contractAddress": null
    }
  ],
  "libraries": [],
  "pending": [],
  "returns": {},
  "timestamp": 1750563743,
  "chain": 11155111,
  "commit": null
}