{
  "transactions": [
    {
      "hash": "0x57506977c3de07cf9bc2148fce807246e90cf37774715e5be9e48a5023aefd50",
      "transactionType": "CALL",
      "contractName": null,
      "contractAddress": "0x5dbf0c030fcdfaf95cbc1789bdd58cfae82f05e8",
      "function": "buy(address,uint256,uint256)",
      "arguments": [
        "0xcE23256ae677765a41E8D7E4d099359771615ca4",
        "1000",
        "4"
      ],
      "transaction": {
        "from": "0xce23256ae677765a41e8d7e4d099359771615ca4",
        "to": "0x5dbf0c030fcdfaf95cbc1789bdd58cfae82f05e8",
        "gas": "0xe37d9",
        "value": "0x0",
        "input": "0xa59ac6dd000000000000000000000000ce23256ae677765a41e8d7e4d099359771615ca400000000000000000000000000000000000000000000000000000000000003e80000000000000000000000000000000000000000000000000000000000000004",
        "nonce": "0xc4",
        "chainId": "0xaa36a7"
      },
      "additionalContracts": [],
      "isFixedGasLimit": false
    }
  ],
  "receipts": [
    {
      "status": "0x1",
      "cumulativeGasUsed": "0x111edaf",
      "logs": [
        {
          "address": "0x5dbf0c030fcdfaf95cbc1789bdd58cfae82f05e8",
          "topics": [
            "0xddf252ad1be2c89b69c2b068fc378daa952ba7f163c4a11628f55a4df523b3ef",
            "0x0000000000000000000000000000000000000000000000000000000000000000",
            "0x000000000000000000000000ce23256ae677765a41e8d7e4d099359771615ca4",
            "0x0000000000000000000000000000000000000000000000000000000000000000"
          ],
          "data": "0x",
          "blockHash": "0x9b620851e63d8648018a7d4e29954bb630638378eba07f4ad24bf7dfd68a9441",
          "blockNumber": "0x83a94d",
          "blockTimestamp": "0x685c6974",
          "transactionHash": "0x57506977c3de07cf9bc2148fce807246e90cf37774715e5be9e48a5023aefd50",
          "transactionIndex": "0x71",
          "logIndex": "0x94",
          "removed": false
        },
        {
          "address": "0x5dbf0c030fcdfaf95cbc1789bdd58cfae82f05e8",
          "topics": [
            "0x1cbc5ab135991bd2b6a4b034a04aa2aa086dac1371cb9b16b8b5e2ed6b036bed",
            "0x000000000000000000000000ce23256ae677765a41e8d7e4d099359771615ca4",
            "0x0000000000000000000000000000000000000000000000000000000000000000"
          ],
          "data": "0x00000000000000000000000000000000000000000000000000000000000003e8",
          "blockHash": "0x9b620851e63d8648018a7d4e29954bb630638378eba07f4ad24bf7dfd68a9441",
          "blockNumber": "0x83a94d",
          "blockTimestamp": "0x685c6974",
          "transactionHash": "0x57506977c3de07cf9bc2148fce807246e90cf37774715e5be9e48a5023aefd50",
          "transactionIndex": "0x71",
          "logIndex": "0x95",
          "removed": false
        },
        {
          "address": "0x5dbf0c030fcdfaf95cbc1789bdd58cfae82f05e8",
          "topics": [
            "0xddf252ad1be2c89b69c2b068fc378daa952ba7f163c4a11628f55a4df523b3ef",
            "0x0000000000000000000000000000000000000000000000000000000000000000",
            "0x000000000000000000000000ce23256ae677765a41e8d7e4d099359771615ca4",
            "0x0000000000000000000000000000000000000000000000000000000000000001"
          ],
          "data": "0x",
          "blockHash": "0x9b620851e63d8648018a7d4e29954bb630638378eba07f4ad24bf7dfd68a9441",
          "blockNumber": "0x83a94d",
          "blockTimestamp": "0x685c6974",
          "transactionHash": "0x57506977c3de07cf9bc2148fce807246e90cf37774715e5be9e48a5023aefd50",
          "transactionIndex": "0x71",
          "logIndex": "0x96",
          "removed": false
        },
        {
          "address": "0x5dbf0c030fcdfaf95cbc1789bdd58cfae82f05e8",
          "topics": [
            "0x1cbc5ab135991bd2b6a4b034a04aa2aa086dac1371cb9b16b8b5e2ed6b036bed",
            "0x000000000000000000000000ce23256ae677765a41e8d7e4d099359771615ca4",
            "0x0000000000000000000000000000000000000000000000000000000000000001"
          ],
          "data": "0x00000000000000000000000000000000000000000000000000000000000003e8",
          "blockHash": "0x9b620851e63d8648018a7d4e29954bb630638378eba07f4ad24bf7dfd68a9441",
          "blockNumber": "0x83a94d",
          "blockTimestamp": "0x685c6974",
          "transactionHash": "0x57506977c3de07cf9bc2148fce807246e90cf37774715e5be9e48a5023aefd50",
          "transactionIndex": "0x71",
          "logIndex": "0x97",
          "removed": false
        },
        {
          "address": "0x5dbf0c030fcdfaf95cbc1789bdd58cfae82f05e8",
          "topics": [
            "0xddf252ad1be2c89b69c2b068fc378daa952ba7f163c4a11628f55a4df523b3ef",
            "0x0000000000000000000000000000000000000000000000000000000000000000",
            "0x000000000000000000000000ce23256ae677765a41e8d7e4d099359771615ca4",
            "0x0000000000000000000000000000000000000000000000000000000000000002"
          ],
          "data": "0x",
          "blockHash": "0x9b620851e63d8648018a7d4e29954bb630638378eba07f4ad24bf7dfd68a9441",
          "blockNumber": "0x83a94d",
          "blockTimestamp": "0x685c6974",
          "transactionHash": "0x57506977c3de07cf9bc2148fce807246e90cf37774715e5be9e48a5023aefd50",
          "transactionIndex": "0x71",
          "logIndex": "0x98",
          "removed": false
        },
        {
          "address": "0x5dbf0c030fcdfaf95cbc1789bdd58cfae82f05e8",
          "topics": [
            "0x1cbc5ab135991bd2b6a4b034a04aa2aa086dac1371cb9b16b8b5e2ed6b036bed",
            "0x000000000000000000000000ce23256ae677765a41e8d7e4d099359771615ca4",
            "0x0000000000000000000000000000000000000000000000000000000000000002"
          ],
          "data": "0x00000000000000000000000000000000000000000000000000000000000003e8",
          "blockHash": "0x9b620851e63d8648018a7d4e29954bb630638378eba07f4ad24bf7dfd68a9441",
          "blockNumber": "0x83a94d",
          "blockTimestamp": "0x685c6974",
          "transactionHash": "0x57506977c3de07cf9bc2148fce807246e90cf37774715e5be9e48a5023aefd50",
          "transactionIndex": "0x71",
          "logIndex": "0x99",
          "removed": false
        },
        {
          "address": "0x5dbf0c030fcdfaf95cbc1789bdd58cfae82f05e8",
          "topics": [
            "0xddf252ad1be2c89b69c2b068fc378daa952ba7f163c4a11628f55a4df523b3ef",
            "0x0000000000000000000000000000000000000000000000000000000000000000",
            "0x000000000000000000000000ce23256ae677765a41e8d7e4d099359771615ca4",
            "0x0000000000000000000000000000000000000000000000000000000000000003"
          ],
          "data": "0x",
          "blockHash": "0x9b620851e63d8648018a7d4e29954bb630638378eba07f4ad24bf7dfd68a9441",
          "blockNumber": "0x83a94d",
          "blockTimestamp": "0x685c6974",
          "transactionHash": "0x57506977c3de07cf9bc2148fce807246e90cf37774715e5be9e48a5023aefd50",
          "transactionIndex": "0x71",
          "logIndex": "0x9a",
          "removed": false
        },
        {
          "address": "0x5dbf0c030fcdfaf95cbc1789bdd58cfae82f05e8",
          "topics": [
            "0x1cbc5ab135991bd2b6a4b034a04aa2aa086dac1371cb9b16b8b5e2ed6b036bed",
            "0x000000000000000000000000ce23256ae677765a41e8d7e4d099359771615ca4",
            "0x0000000000000000000000000000000000000000000000000000000000000003"
          ],
          "data": "0x00000000000000000000000000000000000000000000000000000000000003e8",
          "blockHash": "0x9b620851e63d8648018a7d4e29954bb630638378eba07f4ad24bf7dfd68a9441",
          "blockNumber": "0x83a94d",
          "blockTimestamp": "0x685c6974",
          "transactionHash": "0x57506977c3de07cf9bc2148fce807246e90cf37774715e5be9e48a5023aefd50",
          "transactionIndex": "0x71",
          "logIndex": "0x9b",
          "removed": false
        }
      ],
      "logsBloom": "0x04000000000000000000080000000000000000000000000000400000000000000000000200000000000000000000000000000000020000000000000000040000000000000000000000000008000000000000000000041000000000000000000000000000020000000000000000000800000000000000000000000010000000000000000000000100000000000000000000000000000000000000000000000000000000000400000040000100000000000000000000800000000000120000400000000002000000000000000000000000000000000000000000000000000060000000000000000000000000000000000000000000008000000000000000000000",
      "type": "0x2",
      "transactionHash": "0x57506977c3de07cf9bc2148fce807246e90cf37774715e5be9e48a5023aefd50",
      "transactionIndex": "0x71",
      "blockHash": "0x9b620851e63d8648018a7d4e29954bb630638378eba07f4ad24bf7dfd68a9441",
      "blockNumber": "0x83a94d",
      "gasUsed": "0x9b8c9",
      "effectiveGasPrice": "0x955750d",
      "from": "0xce23256ae677765a41e8d7e4d099359771615ca4",
      "to": "0x5dbf0c030fcdfaf95cbc1789bdd58cfae82f05e8",
      "contractAddress": null
    }
  ],
  "libraries": [],
  "pending": [],
  "returns": {},
  "timestamp": 1750886772,
  "chain": 11155111,
  "commit": null
}