{
  "transactions": [
    {
      "hash": "0xff03fd6724a00bd5db483eb00fd763d315b7a5531dfa2d720edf78a2970a0af0",
      "transactionType": "CALL",
      "contractName": null,
      "contractAddress": "0xe4c2f1c920dfc99ad1ea84180f2a69ce24c8f554",
      "function": "trade(address,address,uint256,uint256)",
      "arguments": [
        "0xcE23256ae677765a41E8D7E4d099359771615ca4",
        "0x2AE29E74B7c1B3d4BD5484f26918bE598eAa39F2",
        "2",
        "4000"
      ],
      "transaction": {
        "from": "0xce23256ae677765a41e8d7e4d099359771615ca4",
        "to": "0xe4c2f1c920dfc99ad1ea84180f2a69ce24c8f554",
        "gas": "0x21088",
        "value": "0x0",
        "input": "0x4849b6c8000000000000000000000000ce23256ae677765a41e8d7e4d099359771615ca40000000000000000000000002ae29e74b7c1b3d4bd5484f26918be598eaa39f200000000000000000000000000000000000000000000000000000000000000020000000000000000000000000000000000000000000000000000000000000fa0",
        "nonce": "0xa3",
        "chainId": "0xaa36a7"
      },
      "additionalContracts": [],
      "isFixedGasLimit": false
    }
  ],
  "receipts": [
    {
      "status": "0x1",
      "cumulativeGasUsed": "0x1f6fc8b",
      "logs": [
        {
          "address": "0xe4c2f1c920dfc99ad1ea84180f2a69ce24c8f554",
          "topics": [
            "0x4b5796113f074ebf8f11d5bcdeb6349b2fbe47abed78419cdcdbbc15c6fcf845",
            "0x000000000000000000000000ce23256ae677765a41e8d7e4d099359771615ca4",
            "0x0000000000000000000000002ae29e74b7c1b3d4bd5484f26918be598eaa39f2",
            "0x0000000000000000000000000000000000000000000000000000000000000002"
          ],
          "data": "0x0000000000000000000000000000000000000000000000000000000000000fa0",
          "blockHash": "0xb57c739d17e8226d9d51fe3fe80cb108a1197558f4a36cce3a2ecad9cdf7661e",
          "blockNumber": "0x83a6d9",
          "blockTimestamp": "0x685c4be0",
          "transactionHash": "0xff03fd6724a00bd5db483eb00fd763d315b7a5531dfa2d720edf78a2970a0af0",
          "transactionIndex": "0x7a",
          "logIndex": "0xdb",
          "removed": false
        },
        {
          "address": "0xe4c2f1c920dfc99ad1ea84180f2a69ce24c8f554",
          "topics": [
            "0x8c5be1e5ebec7d5bd14f71427d1e84f3dd0314c0f7b2291e5b200ac8c7c3b925",
            "0x000000000000000000000000ce23256ae677765a41e8d7e4d099359771615ca4",
            "0x0000000000000000000000000000000000000000000000000000000000000000",
            "0x0000000000000000000000000000000000000000000000000000000000000002"
          ],
          "data": "0x",
          "blockHash": "0xb57c739d17e8226d9d51fe3fe80cb108a1197558f4a36cce3a2ecad9cdf7661e",
          "blockNumber": "0x83a6d9",
          "blockTimestamp": "0x685c4be0",
          "transactionHash": "0xff03fd6724a00bd5db483eb00fd763d315b7a5531dfa2d720edf78a2970a0af0",
          "transactionIndex": "0x7a",
          "logIndex": "0xdc",
          "removed": false
        },
        {
          "address": "0xe4c2f1c920dfc99ad1ea84180f2a69ce24c8f554",
          "topics": [
            "0xddf252ad1be2c89b69c2b068fc378daa952ba7f163c4a11628f55a4df523b3ef",
            "0x000000000000000000000000ce23256ae677765a41e8d7e4d099359771615ca4",
            "0x0000000000000000000000002ae29e74b7c1b3d4bd5484f26918be598eaa39f2",
            "0x0000000000000000000000000000000000000000000000000000000000000002"
          ],
          "data": "0x",
          "blockHash": "0xb57c739d17e8226d9d51fe3fe80cb108a1197558f4a36cce3a2ecad9cdf7661e",
          "blockNumber": "0x83a6d9",
          "blockTimestamp": "0x685c4be0",
          "transactionHash": "0xff03fd6724a00bd5db483eb00fd763d315b7a5531dfa2d720edf78a2970a0af0",
          "transactionIndex": "0x7a",
          "logIndex": "0xdd",
          "removed": false
        }
      ],
      "logsBloom": "0x04000000000000000000000000001000000000000000000000400800000000000000000000000000000000000000000000000000000080000000000000200000000000000000000000000008000000000000000000001000000000000000400000000000020000000000000000000800000000000000000000000010000000000000000000000100000000000000000000000000000000000000000000000000420000000000000000000500000000000000000000000000000001000000000000000002000000000000000000000000000000000000000000000000000420000010000000000000000000000040000000000000008000000000000000000000",
      "type": "0x2",
      "transactionHash": "0xff03fd6724a00bd5db483eb00fd763d315b7a5531dfa2d720edf78a2970a0af0",
      "transactionIndex": "0x7a",
      "blockHash": "0xb57c739d17e8226d9d51fe3fe80cb108a1197558f4a36cce3a2ecad9cdf7661e",
      "blockNumber": "0x83a6d9",
      "gasUsed": "0x17ea6",
      "effectiveGasPrice": "0x383808cb",
      "from": "0xce23256ae677765a41e8d7e4d099359771615ca4",
      "to": "0xe4c2f1c920dfc99ad1ea84180f2a69ce24c8f554",
      "contractAddress": null
    }
  ],
  "libraries": [],
  "pending": [],
  "returns": {},
  "timestamp": 1750879194,
  "chain": 11155111,
  "commit": null
}