{
  "transactions": [
    {
      "hash": "0xbb44bf962ff5033052097678c4e8d73d76b0b2e1ad8ea64b108f6e0f01e1aff9",
      "transactionType": "CALL",
      "contractName": null,
      "contractAddress": "0x4f5b0cc493ea9321bc5d5a1dfd8bcc2b7c6db7ea",
      "function": "buy(address,uint256,uint256)",
      "arguments": [
        "0xcE23256ae677765a41E8D7E4d099359771615ca4",
        "1000",
        "4"
      ],
      "transaction": {
        "from": "0xce23256ae677765a41e8d7e4d099359771615ca4",
        "to": "0x4f5b0cc493ea9321bc5d5a1dfd8bcc2b7c6db7ea",
        "gas": "0xe37d9",
        "value": "0x0",
        "input": "0xa59ac6dd000000000000000000000000ce23256ae677765a41e8d7e4d099359771615ca400000000000000000000000000000000000000000000000000000000000003e80000000000000000000000000000000000000000000000000000000000000004",
        "nonce": "0xb7",
        "chainId": "0xaa36a7"
      },
      "additionalContracts": [],
      "isFixedGasLimit": false
    }
  ],
  "receipts": [
    {
      "status": "0x1",
      "cumulativeGasUsed": "0x316b2a9",
      "logs": [
        {
          "address": "0x4f5b0cc493ea9321bc5d5a1dfd8bcc2b7c6db7ea",
          "topics": [
            "0xddf252ad1be2c89b69c2b068fc378daa952ba7f163c4a11628f55a4df523b3ef",
            "0x0000000000000000000000000000000000000000000000000000000000000000",
            "0x000000000000000000000000ce23256ae677765a41e8d7e4d099359771615ca4",
            "0x0000000000000000000000000000000000000000000000000000000000000000"
          ],
          "data": "0x",
          "blockHash": "0x8118b13e680feb8b8697ec1bc3b86c33943d1fbd8bed755f2359a820d016047d",
          "blockNumber": "0x83a8af",
          "blockTimestamp": "0x685c6200",
          "transactionHash": "0xbb44bf962ff5033052097678c4e8d73d76b0b2e1ad8ea64b108f6e0f01e1aff9",
          "transactionIndex": "0x4d",
          "logIndex": "0x7e",
          "removed": false
        },
        {
          "address": "0x4f5b0cc493ea9321bc5d5a1dfd8bcc2b7c6db7ea",
          "topics": [
            "0x1cbc5ab135991bd2b6a4b034a04aa2aa086dac1371cb9b16b8b5e2ed6b036bed",
            "0x000000000000000000000000ce23256ae677765a41e8d7e4d099359771615ca4",
            "0x0000000000000000000000000000000000000000000000000000000000000000"
          ],
          "data": "0x00000000000000000000000000000000000000000000000000000000000003e8",
          "blockHash": "0x8118b13e680feb8b8697ec1bc3b86c33943d1fbd8bed755f2359a820d016047d",
          "blockNumber": "0x83a8af",
          "blockTimestamp": "0x685c6200",
          "transactionHash": "0xbb44bf962ff5033052097678c4e8d73d76b0b2e1ad8ea64b108f6e0f01e1aff9",
          "transactionIndex": "0x4d",
          "logIndex": "0x7f",
          "removed": false
        },
        {
          "address": "0x4f5b0cc493ea9321bc5d5a1dfd8bcc2b7c6db7ea",
          "topics": [
            "0xddf252ad1be2c89b69c2b068fc378daa952ba7f163c4a11628f55a4df523b3ef",
            "0x0000000000000000000000000000000000000000000000000000000000000000",
            "0x000000000000000000000000ce23256ae677765a41e8d7e4d099359771615ca4",
            "0x0000000000000000000000000000000000000000000000000000000000000001"
          ],
          "data": "0x",
          "blockHash": "0x8118b13e680feb8b8697ec1bc3b86c33943d1fbd8bed755f2359a820d016047d",
          "blockNumber": "0x83a8af",
          "blockTimestamp": "0x685c6200",
          "transactionHash": "0xbb44bf962ff5033052097678c4e8d73d76b0b2e1ad8ea64b108f6e0f01e1aff9",
          "transactionIndex": "0x4d",
          "logIndex": "0x80",
          "removed": false
        },
        {
          "address": "0x4f5b0cc493ea9321bc5d5a1dfd8bcc2b7c6db7ea",
          "topics": [
            "0x1cbc5ab135991bd2b6a4b034a04aa2aa086dac1371cb9b16b8b5e2ed6b036bed",
            "0x000000000000000000000000ce23256ae677765a41e8d7e4d099359771615ca4",
            "0x0000000000000000000000000000000000000000000000000000000000000001"
          ],
          "data": "0x00000000000000000000000000000000000000000000000000000000000003e8",
          "blockHash": "0x8118b13e680feb8b8697ec1bc3b86c33943d1fbd8bed755f2359a820d016047d",
          "blockNumber": "0x83a8af",
          "blockTimestamp": "0x685c6200",
          "transactionHash": "0xbb44bf962ff5033052097678c4e8d73d76b0b2e1ad8ea64b108f6e0f01e1aff9",
          "transactionIndex": "0x4d",
          "logIndex": "0x81",
          "removed": false
        },
        {
          "address": "0x4f5b0cc493ea9321bc5d5a1dfd8bcc2b7c6db7ea",
          "topics": [
            "0xddf252ad1be2c89b69c2b068fc378daa952ba7f163c4a11628f55a4df523b3ef",
            "0x0000000000000000000000000000000000000000000000000000000000000000",
            "0x000000000000000000000000ce23256ae677765a41e8d7e4d099359771615ca4",
            "0x0000000000000000000000000000000000000000000000000000000000000002"
          ],
          "data": "0x",
          "blockHash": "0x8118b13e680feb8b8697ec1bc3b86c33943d1fbd8bed755f2359a820d016047d",
          "blockNumber": "0x83a8af",
          "blockTimestamp": "0x685c6200",
          "transactionHash": "0xbb44bf962ff5033052097678c4e8d73d76b0b2e1ad8ea64b108f6e0f01e1aff9",
          "transactionIndex": "0x4d",
          "logIndex": "0x82",
          "removed": false
        },
        {
          "address": "0x4f5b0cc493ea9321bc5d5a1dfd8bcc2b7c6db7ea",
          "topics": [
            "0x1cbc5ab135991bd2b6a4b034a04aa2aa086dac1371cb9b16b8b5e2ed6b036bed",
            "0x000000000000000000000000ce23256ae677765a41e8d7e4d099359771615ca4",
            "0x0000000000000000000000000000000000000000000000000000000000000002"
          ],
          "data": "0x00000000000000000000000000000000000000000000000000000000000003e8",
          "blockHash": "0x8118b13e680feb8b8697ec1bc3b86c33943d1fbd8bed755f2359a820d016047d",
          "blockNumber": "0x83a8af",
          "blockTimestamp": "0x685c6200",
          "transactionHash": "0xbb44bf962ff5033052097678c4e8d73d76b0b2e1ad8ea64b108f6e0f01e1aff9",
          "transactionIndex": "0x4d",
          "logIndex": "0x83",
          "removed": false
        },
        {
          "address": "0x4f5b0cc493ea9321bc5d5a1dfd8bcc2b7c6db7ea",
          "topics": [
            "0xddf252ad1be2c89b69c2b068fc378daa952ba7f163c4a11628f55a4df523b3ef",
            "0x0000000000000000000000000000000000000000000000000000000000000000",
            "0x000000000000000000000000ce23256ae677765a41e8d7e4d099359771615ca4",
            "0x0000000000000000000000000000000000000000000000000000000000000003"
          ],
          "data": "0x",
          "blockHash": "0x8118b13e680feb8b8697ec1bc3b86c33943d1fbd8bed755f2359a820d016047d",
          "blockNumber": "0x83a8af",
          "blockTimestamp": "0x685c6200",
          "transactionHash": "0xbb44bf962ff5033052097678c4e8d73d76b0b2e1ad8ea64b108f6e0f01e1aff9",
          "transactionIndex": "0x4d",
          "logIndex": "0x84",
          "removed": false
        },
        {
          "address": "0x4f5b0cc493ea9321bc5d5a1dfd8bcc2b7c6db7ea",
          "topics": [
            "0x1cbc5ab135991bd2b6a4b034a04aa2aa086dac1371cb9b16b8b5e2ed6b036bed",
            "0x000000000000000000000000ce23256ae677765a41e8d7e4d099359771615ca4",
            "0x0000000000000000000000000000000000000000000000000000000000000003"
          ],
          "data": "0x00000000000000000000000000000000000000000000000000000000000003e8",
          "blockHash": "0x8118b13e680feb8b8697ec1bc3b86c33943d1fbd8bed755f2359a820d016047d",
          "blockNumber": "0x83a8af",
          "blockTimestamp": "0x685c6200",
          "transactionHash": "0xbb44bf962ff5033052097678c4e8d73d76b0b2e1ad8ea64b108f6e0f01e1aff9",
          "transactionIndex": "0x4d",
          "logIndex": "0x85",
          "removed": false
        }
      ],
      "logsBloom": "0x04000000000000000000000000000000000000000000000000400000000000000000000200000000000000000000000000000000020000000800000000040000000000000000000000000008000000000000000000041000000000000000000000000000020000000000000000000800000000000000000000000010000000000000000000000100000000000000000000000000000000000000000000000000000000000400000040000100000000000000000000800000001000000000400000000002000000000000000000000000000000000000000000000000000060000000000000000000000000008000000000000000008000000000000000000000",
      "type": "0x2",
      "transactionHash": "0xbb44bf962ff5033052097678c4e8d73d76b0b2e1ad8ea64b108f6e0f01e1aff9",
      "transactionIndex": "0x4d",
      "blockHash": "0x8118b13e680feb8b8697ec1bc3b86c33943d1fbd8bed755f2359a820d016047d",
      "blockNumber": "0x83a8af",
      "gasUsed": "0x9b8c9",
      "effectiveGasPrice": "0x15a47732",
      "from": "0xce23256ae677765a41e8d7e4d099359771615ca4",
      "to": "0x4f5b0cc493ea9321bc5d5a1dfd8bcc2b7c6db7ea",
      "contractAddress": null
    }
  ],
  "libraries": [],
  "pending": [],
  "returns": {},
  "timestamp": 1750884865,
  "chain": 11155111,
  "commit": null
}