{
  "transactions": [
    {
      "hash": "0x6b9488f35e9be3526c39d33eb39270a36eb22206869c8b590258705a3a4f68d7",
      "transactionType": "CALL",
      "contractName": null,
      "contractAddress": "0x560cb009b499015cadfab0a75b645183fdab44a6",
      "function": "putOnSale(uint256,uint256)",
      "arguments": [
        "2",
        "4000"
      ],
      "transaction": {
        "from": "0xce23256ae677765a41e8d7e4d099359771615ca4",
        "to": "0x560cb009b499015cadfab0a75b645183fdab44a6",
        "gas": "0x26056",
        "value": "0x0",
        "input": "0x36f7992b00000000000000000000000000000000000000000000000000000000000000020000000000000000000000000000000000000000000000000000000000000fa0",
        "nonce": "0x9c",
        "chainId": "0xaa36a7"
      },
      "additionalContracts": [],
      "isFixedGasLimit": false
    }
  ],
  "receipts": [
    {
      "status": "0x1",
      "cumulativeGasUsed": "0x1172970",
      "logs": [
        {
          "address": "0x560cb009b499015cadfab0a75b645183fdab44a6",
          "topics": [
            "0x7c11ba8301c87f8a6d59779bcbe2b7446e865bd1a4359a69e5c400212e0a5795",
            "0x0000000000000000000000000000000000000000000000000000000000000002"
          ],
          "data": "0x0000000000000000000000000000000000000000000000000000000000000fa0",
          "blockHash": "0x20b1f4b5c834131c9a9f1e820e46d7ff619f3e6254c84d6ffe8fbf6906459136",
          "blockNumber": "0x83a63e",
          "blockTimestamp": "0x685c449c",
          "transactionHash": "0x6b9488f35e9be3526c39d33eb39270a36eb22206869c8b590258705a3a4f68d7",
          "transactionIndex": "0x97",
          "logIndex": "0xce",
          "removed": false
        }
      ],
      "logsBloom": "0x04000000000000000000000000000000000000000000000000000000000000000000000000000000000000000000000000000000000000000000000000000000000000000000000008000000000000000000000100000000000000000000000000000000000000000000000000080000000000000000000000000000000000000000000000000000000000000000000000000000000000000000000000200000000000000000000000000100000000000000000000000800000000000000000000000000000000000000000200000000000000000000000000000000000000000000000000000000000000000000000000000000008000000000000000000000",
      "type": "0x2",
      "transactionHash": "0x6b9488f35e9be3526c39d33eb39270a36eb22206869c8b590258705a3a4f68d7",
      "transactionIndex": "0x97",
      "blockHash": "0x20b1f4b5c834131c9a9f1e820e46d7ff619f3e6254c84d6ffe8fbf6906459136",
      "blockNumber": "0x83a63e",
      "gasUsed": "0x1b86e",
      "effectiveGasPrice": "0x53f3d648",
      "from": "0xce23256ae677765a41e8d7e4d099359771615ca4",
      "to": "0x560cb009b499015cadfab0a75b645183fdab44a6",
      "contractAddress": null
    }
  ],
  "libraries": [],
  "pending": [],
  "returns": {},
  "timestamp": 1750877333,
  "chain": 11155111,
  "commit": null
}