{
  "transactions": [
    {
      "hash": "0x957b6498790178c810fcb03476c95c3a9e66e507bda23b0e6e9fa576c518b74a",
      "transactionType": "CALL",
      "contractName": null,
      "contractAddress": "0x691eeea07e8dfdd9ddaeae6b27539bc72173d17f",
      "function": "buy(uint256,uint256)",
      "arguments": [
        "100",
        "4"
      ],
      "transaction": {
        "from": "0xce23256ae677765a41e8d7e4d099359771615ca4",
        "to": "0x691eeea07e8dfdd9ddaeae6b27539bc72173d17f",
        "gas": "0xd3c13",
        "value": "0x0",
        "input": "0xd6febde800000000000000000000000000000000000000000000000000000000000000640000000000000000000000000000000000000000000000000000000000000004",
        "nonce": "0x7c",
        "chainId": "0xaa36a7"
      },
      "additionalContracts": [],
      "isFixedGasLimit": false
    }
  ],
  "receipts": [
    {
      "status": "0x1",
      "cumulativeGasUsed": "0xd8ab46",
      "logs": [
        {
          "address": "0x691eeea07e8dfdd9ddaeae6b27539bc72173d17f",
          "topics": [
            "0xddf252ad1be2c89b69c2b068fc378daa952ba7f163c4a11628f55a4df523b3ef",
            "0x0000000000000000000000000000000000000000000000000000000000000000",
            "0x000000000000000000000000ce23256ae677765a41e8d7e4d099359771615ca4",
            "0x0000000000000000000000000000000000000000000000000000000000000004"
          ],
          "data": "0x",
          "blockHash": "0x60ea02b02c96e966ab7b285c289455f4c1af7fa1e63e4a6b406ab7dda3e55b83",
          "blockNumber": "0x833ee2",
          "blockTimestamp": "0x685766e8",
          "transactionHash": "0x957b6498790178c810fcb03476c95c3a9e66e507bda23b0e6e9fa576c518b74a",
          "transactionIndex": "0xa8",
          "logIndex": "0x93",
          "removed": false
        },
        {
          "address": "0x691eeea07e8dfdd9ddaeae6b27539bc72173d17f",
          "topics": [
            "0x1cbc5ab135991bd2b6a4b034a04aa2aa086dac1371cb9b16b8b5e2ed6b036bed",
            "0x000000000000000000000000ce23256ae677765a41e8d7e4d099359771615ca4",
            "0x0000000000000000000000000000000000000000000000000000000000000004"
          ],
          "data": "0x0000000000000000000000000000000000000000000000000000000000000064",
          "blockHash": "0x60ea02b02c96e966ab7b285c289455f4c1af7fa1e63e4a6b406ab7dda3e55b83",
          "blockNumber": "0x833ee2",
          "blockTimestamp": "0x685766e8",
          "transactionHash": "0x957b6498790178c810fcb03476c95c3a9e66e507bda23b0e6e9fa576c518b74a",
          "transactionIndex": "0xa8",
          "logIndex": "0x94",
          "removed": false
        },
        {
          "address": "0x691eeea07e8dfdd9ddaeae6b27539bc72173d17f",
          "topics": [
            "0xddf252ad1be2c89b69c2b068fc378daa952ba7f163c4a11628f55a4df523b3ef",
            "0x0000000000000000000000000000000000000000000000000000000000000000",
            "0x000000000000000000000000ce23256ae677765a41e8d7e4d099359771615ca4",
            "0x0000000000000000000000000000000000000000000000000000000000000005"
          ],
          "data": "0x",
          "blockHash": "0x60ea02b02c96e966ab7b285c289455f4c1af7fa1e63e4a6b406ab7dda3e55b83",
          "blockNumber": "0x833ee2",
          "blockTimestamp": "0x685766e8",
          "transactionHash": "0x957b6498790178c810fcb03476c95c3a9e66e507bda23b0e6e9fa576c518b74a",
          "transactionIndex": "0xa8",
          "logIndex": "0x95",
          "removed": false
        },
        {
          "address": "0x691eeea07e8dfdd9ddaeae6b27539bc72173d17f",
          "topics": [
            "0x1cbc5ab135991bd2b6a4b034a04aa2aa086dac1371cb9b16b8b5e2ed6b036bed",
            "0x000000000000000000000000ce23256ae677765a41e8d7e4d099359771615ca4",
            "0x0000000000000000000000000000000000000000000000000000000000000005"
          ],
          "data": "0x0000000000000000000000000000000000000000000000000000000000000064",
          "blockHash": "0x60ea02b02c96e966ab7b285c289455f4c1af7fa1e63e4a6b406ab7dda3e55b83",
          "blockNumber": "0x833ee2",
          "blockTimestamp": "0x685766e8",
          "transactionHash": "0x957b6498790178c810fcb03476c95c3a9e66e507bda23b0e6e9fa576c518b74a",
          "transactionIndex": "0xa8",
          "logIndex": "0x96",
          "removed": false
        },
        {
          "address": "0x691eeea07e8dfdd9ddaeae6b27539bc72173d17f",
          "topics": [
            "0xddf252ad1be2c89b69c2b068fc378daa952ba7f163c4a11628f55a4df523b3ef",
            "0x0000000000000000000000000000000000000000000000000000000000000000",
            "0x000000000000000000000000ce23256ae677765a41e8d7e4d099359771615ca4",
            "0x0000000000000000000000000000000000000000000000000000000000000006"
          ],
          "data": "0x",
          "blockHash": "0x60ea02b02c96e966ab7b285c289455f4c1af7fa1e63e4a6b406ab7dda3e55b83",
          "blockNumber": "0x833ee2",
          "blockTimestamp": "0x685766e8",
          "transactionHash": "0x957b6498790178c810fcb03476c95c3a9e66e507bda23b0e6e9fa576c518b74a",
          "transactionIndex": "0xa8",
          "logIndex": "0x97",
          "removed": false
        },
        {
          "address": "0x691eeea07e8dfdd9ddaeae6b27539bc72173d17f",
          "topics": [
            "0x1cbc5ab135991bd2b6a4b034a04aa2aa086dac1371cb9b16b8b5e2ed6b036bed",
            "0x000000000000000000000000ce23256ae677765a41e8d7e4d099359771615ca4",
            "0x0000000000000000000000000000000000000000000000000000000000000006"
          ],
          "data": "0x0000000000000000000000000000000000000000000000000000000000000064",
          "blockHash": "0x60ea02b02c96e966ab7b285c289455f4c1af7fa1e63e4a6b406ab7dda3e55b83",
          "blockNumber": "0x833ee2",
          "blockTimestamp": "0x685766e8",
          "transactionHash": "0x957b6498790178c810fcb03476c95c3a9e66e507bda23b0e6e9fa576c518b74a",
          "transactionIndex": "0xa8",
          "logIndex": "0x98",
          "removed": false
        },
        {
          "address": "0x691eeea07e8dfdd9ddaeae6b27539bc72173d17f",
          "topics": [
            "0xddf252ad1be2c89b69c2b068fc378daa952ba7f163c4a11628f55a4df523b3ef",
            "0x0000000000000000000000000000000000000000000000000000000000000000",
            "0x000000000000000000000000ce23256ae677765a41e8d7e4d099359771615ca4",
            "0x0000000000000000000000000000000000000000000000000000000000000007"
          ],
          "data": "0x",
          "blockHash": "0x60ea02b02c96e966ab7b285c289455f4c1af7fa1e63e4a6b406ab7dda3e55b83",
          "blockNumber": "0x833ee2",
          "blockTimestamp": "0x685766e8",
          "transactionHash": "0x957b6498790178c810fcb03476c95c3a9e66e507bda23b0e6e9fa576c518b74a",
          "transactionIndex": "0xa8",
          "logIndex": "0x99",
          "removed": false
        },
        {
          "address": "0x691eeea07e8dfdd9ddaeae6b27539bc72173d17f",
          "topics": [
            "0x1cbc5ab135991bd2b6a4b034a04aa2aa086dac1371cb9b16b8b5e2ed6b036bed",
            "0x000000000000000000000000ce23256ae677765a41e8d7e4d099359771615ca4",
            "0x0000000000000000000000000000000000000000000000000000000000000007"
          ],
          "data": "0x0000000000000000000000000000000000000000000000000000000000000064",
          "blockHash": "0x60ea02b02c96e966ab7b285c289455f4c1af7fa1e63e4a6b406ab7dda3e55b83",
          "blockNumber": "0x833ee2",
          "blockTimestamp": "0x685766e8",
          "transactionHash": "0x957b6498790178c810fcb03476c95c3a9e66e507bda23b0e6e9fa576c518b74a",
          "transactionIndex": "0xa8",
          "logIndex": "0x9a",
          "removed": false
        }
      ],
      "logsBloom": "0x00000000000000000000000000000000000000000000000000400000000000000000000200000000000000000000000000001000000400000000000000000000000030000000000000000008000000000000000000001000000000000000000008000000020000000000000000000800000000000000000000002010000000000000000400000100000000000000001000000800000000000000000000000000000000000400000040000000000000000000000000000000002000080000000000000002000000000000000400000000000100008000000000000100000020000000000000000000000000000000000000000000000000000000000000000000",
      "type": "0x2",
      "transactionHash": "0x957b6498790178c810fcb03476c95c3a9e66e507bda23b0e6e9fa576c518b74a",
      "transactionIndex": "0xa8",
      "blockHash": "0x60ea02b02c96e966ab7b285c289455f4c1af7fa1e63e4a6b406ab7dda3e55b83",
      "blockNumber": "0x833ee2",
      "gasUsed": "0x994e8",
      "effectiveGasPrice": "0xf4271",
      "from": "0xce23256ae677765a41e8d7e4d099359771615ca4",
      "to": "0x691eeea07e8dfdd9ddaeae6b27539bc72173d17f",
      "contractAddress": null
    }
  ],
  "libraries": [],
  "pending": [],
  "returns": {},
  "timestamp": 1750558438,
  "chain": 11155111,
  "commit": null
}