{
  "transactions": [
    {
      "hash": "0x6659ba1b50397708ca745ecac87cd8fb0cbc1b621c49751d06144c76d17b5235",
      "transactionType": "CALL",
      "contractName": null,
      "contractAddress": "0x91d89ee3a5b24c2d6dc02168f6140c70a0613df7",
      "function": "buy(uint256,uint256)",
      "arguments": [
        "1000",
        "4"
      ],
      "transaction": {
        "from": "0xce23256ae677765a41e8d7e4d099359771615ca4",
        "to": "0x91d89ee3a5b24c2d6dc02168f6140c70a0613df7",
        "gas": "0xe011c",
        "value": "0x0",
        "input": "0xd6febde800000000000000000000000000000000000000000000000000000000000003e80000000000000000000000000000000000000000000000000000000000000004",
        "nonce": "0xe8",
        "chainId": "0xaa36a7"
      },
      "additionalContracts": [],
      "isFixedGasLimit": false
    }
  ],
  "receipts": [
    {
      "status": "0x1",
      "cumulativeGasUsed": "0xa423cd",
      "logs": [
        {
          "address": "0x91d89ee3a5b24c2d6dc02168f6140c70a0613df7",
          "topics": [
            "0xddf252ad1be2c89b69c2b068fc378daa952ba7f163c4a11628f55a4df523b3ef",
            "0x0000000000000000000000000000000000000000000000000000000000000000",
            "0x000000000000000000000000ce23256ae677765a41e8d7e4d099359771615ca4",
            "0x0000000000000000000000000000000000000000000000000000000000000004"
          ],
          "data": "0x",
          "blockHash": "0x8bb9dd0534798ffd9c4404497fcb5b693eae6c89a7ba4c979fe5800098e39e98",
          "blockNumber": "0x83acda",
          "blockTimestamp": "0x685c941c",
          "transactionHash": "0x6659ba1b50397708ca745ecac87cd8fb0cbc1b621c49751d06144c76d17b5235",
          "transactionIndex": "0x4e",
          "logIndex": "0x60",
          "removed": false
        },
        {
          "address": "0x91d89ee3a5b24c2d6dc02168f6140c70a0613df7",
          "topics": [
            "0x1cbc5ab135991bd2b6a4b034a04aa2aa086dac1371cb9b16b8b5e2ed6b036bed",
            "0x000000000000000000000000ce23256ae677765a41e8d7e4d099359771615ca4",
            "0x0000000000000000000000000000000000000000000000000000000000000004"
          ],
          "data": "0x00000000000000000000000000000000000000000000000000000000000003e8",
          "blockHash": "0x8bb9dd0534798ffd9c4404497fcb5b693eae6c89a7ba4c979fe5800098e39e98",
          "blockNumber": "0x83acda",
          "blockTimestamp": "0x685c941c",
          "transactionHash": "0x6659ba1b50397708ca745ecac87cd8fb0cbc1b621c49751d06144c76d17b5235",
          "transactionIndex": "0x4e",
          "logIndex": "0x61",
          "removed": false
        },
        {
          "address": "0x91d89ee3a5b24c2d6dc02168f6140c70a0613df7",
          "topics": [
            "0xddf252ad1be2c89b69c2b068fc378daa952ba7f163c4a11628f55a4df523b3ef",
            "0x0000000000000000000000000000000000000000000000000000000000000000",
            "0x000000000000000000000000ce23256ae677765a41e8d7e4d099359771615ca4",
            "0x0000000000000000000000000000000000000000000000000000000000000005"
          ],
          "data": "0x",
          "blockHash": "0x8bb9dd0534798ffd9c4404497fcb5b693eae6c89a7ba4c979fe5800098e39e98",
          "blockNumber": "0x83acda",
          "blockTimestamp": "0x685c941c",
          "transactionHash": "0x6659ba1b50397708ca745ecac87cd8fb0cbc1b621c49751d06144c76d17b5235",
          "transactionIndex": "0x4e",
          "logIndex": "0x62",
          "removed": false
        },
        {
          "address": "0x91d89ee3a5b24c2d6dc02168f6140c70a0613df7",
          "topics": [
            "0x1cbc5ab135991bd2b6a4b034a04aa2aa086dac1371cb9b16b8b5e2ed6b036bed",
            "0x000000000000000000000000ce23256ae677765a41e8d7e4d099359771615ca4",
            "0x0000000000000000000000000000000000000000000000000000000000000005"
          ],
          "data": "0x00000000000000000000000000000000000000000000000000000000000003e8",
          "blockHash": "0x8bb9dd0534798ffd9c4404497fcb5b693eae6c89a7ba4c979fe5800098e39e98",
          "blockNumber": "0x83acda",
          "blockTimestamp": "0x685c941c",
          "transactionHash": "0x6659ba1b50397708ca745ecac87cd8fb0cbc1b621c49751d06144c76d17b5235",
          "transactionIndex": "0x4e",
          "logIndex": "0x63",
          "removed": false
        },
        {
          "address": "0x91d89ee3a5b24c2d6dc02168f6140c70a0613df7",
          "topics": [
            "0xddf252ad1be2c89b69c2b068fc378daa952ba7f163c4a11628f55a4df523b3ef",
            "0x0000000000000000000000000000000000000000000000000000000000000000",
            "0x000000000000000000000000ce23256ae677765a41e8d7e4d099359771615ca4",
            "0x0000000000000000000000000000000000000000000000000000000000000006"
          ],
          "data": "0x",
          "blockHash": "0x8bb9dd0534798ffd9c4404497fcb5b693eae6c89a7ba4c979fe5800098e39e98",
          "blockNumber": "0x83acda",
          "blockTimestamp": "0x685c941c",
          "transactionHash": "0x6659ba1b50397708ca745ecac87cd8fb0cbc1b621c49751d06144c76d17b5235",
          "transactionIndex": "0x4e",
          "logIndex": "0x64",
          "removed": false
        },
        {
          "address": "0x91d89ee3a5b24c2d6dc02168f6140c70a0613df7",
          "topics": [
            "0x1cbc5ab135991bd2b6a4b034a04aa2aa086dac1371cb9b16b8b5e2ed6b036bed",
            "0x000000000000000000000000ce23256ae677765a41e8d7e4d099359771615ca4",
            "0x0000000000000000000000000000000000000000000000000000000000000006"
          ],
          "data": "0x00000000000000000000000000000000000000000000000000000000000003e8",
          "blockHash": "0x8bb9dd0534798ffd9c4404497fcb5b693eae6c89a7ba4c979fe5800098e39e98",
          "blockNumber": "0x83acda",
          "blockTimestamp": "0x685c941c",
          "transactionHash": "0x6659ba1b50397708ca745ecac87cd8fb0cbc1b621c49751d06144c76d17b5235",
          "transactionIndex": "0x4e",
          "logIndex": "0x65",
          "removed": false
        },
        {
          "address": "0x91d89ee3a5b24c2d6dc02168f6140c70a0613df7",
          "topics": [
            "0xddf252ad1be2c89b69c2b068fc378daa952ba7f163c4a11628f55a4df523b3ef",
            "0x0000000000000000000000000000000000000000000000000000000000000000",
            "0x000000000000000000000000ce23256ae677765a41e8d7e4d099359771615ca4",
            "0x0000000000000000000000000000000000000000000000000000000000000007"
          ],
          "data": "0x",
          "blockHash": "0x8bb9dd0534798ffd9c4404497fcb5b693eae6c89a7ba4c979fe5800098e39e98",
          "blockNumber": "0x83acda",
          "blockTimestamp": "0x685c941c",
          "transactionHash": "0x6659ba1b50397708ca745ecac87cd8fb0cbc1b621c49751d06144c76d17b5235",
          "transactionIndex": "0x4e",
          "logIndex": "0x66",
          "removed": false
        },
        {
          "address": "0x91d89ee3a5b24c2d6dc02168f6140c70a0613df7",
          "topics": [
            "0x1cbc5ab135991bd2b6a4b034a04aa2aa086dac1371cb9b16b8b5e2ed6b036bed",
            "0x000000000000000000000000ce23256ae677765a41e8d7e4d099359771615ca4",
            "0x0000000000000000000000000000000000000000000000000000000000000007"
          ],
          "data": "0x00000000000000000000000000000000000000000000000000000000000003e8",
          "blockHash": "0x8bb9dd0534798ffd9c4404497fcb5b693eae6c89a7ba4c979fe5800098e39e98",
          "blockNumber": "0x83acda",
          "blockTimestamp": "0x685c941c",
          "transactionHash": "0x6659ba1b50397708ca745ecac87cd8fb0cbc1b621c49751d06144c76d17b5235",
          "transactionIndex": "0x4e",
          "logIndex": "0x67",
          "removed": false
        },
        {
          "address": "0x34abd99554ef53edba3b6abebb97df2864cfa07c",
          "topics": [
            "0x8c5be1e5ebec7d5bd14f71427d1e84f3dd0314c0f7b2291e5b200ac8c7c3b925",
            "0x000000000000000000000000ce23256ae677765a41e8d7e4d099359771615ca4",
            "0x00000000000000000000000091d89ee3a5b24c2d6dc02168f6140c70a0613df7"
          ],
          "data": "0x0000000000000000000000000000000000000000000000d8d726b7177a7ff060",
          "blockHash": "0x8bb9dd0534798ffd9c4404497fcb5b693eae6c89a7ba4c979fe5800098e39e98",
          "blockNumber": "0x83acda",
          "blockTimestamp": "0x685c941c",
          "transactionHash": "0x6659ba1b50397708ca745ecac87cd8fb0cbc1b621c49751d06144c76d17b5235",
          "transactionIndex": "0x4e",
          "logIndex": "0x68",
          "removed": false
        },
        {
          "address": "0x34abd99554ef53edba3b6abebb97df2864cfa07c",
          "topics": [
            "0xddf252ad1be2c89b69c2b068fc378daa952ba7f163c4a11628f55a4df523b3ef",
            "0x000000000000000000000000ce23256ae677765a41e8d7e4d099359771615ca4",
            "0x0000000000000000000000008d6051dedbe3b08590674b0c4324c1d8b3ad2a00"
          ],
          "data": "0x0000000000000000000000000000000000000000000000000000000000000fa0",
          "blockHash": "0x8bb9dd0534798ffd9c4404497fcb5b693eae6c89a7ba4c979fe5800098e39e98",
          "blockNumber": "0x83acda",
          "blockTimestamp": "0x685c941c",
          "transactionHash": "0x6659ba1b50397708ca745ecac87cd8fb0cbc1b621c49751d06144c76d17b5235",
          "transactionIndex": "0x4e",
          "logIndex": "0x69",
          "removed": false
        },
        {
          "address": "0x34abd99554ef53edba3b6abebb97df2864cfa07c",
          "topics": [
            "0x8c5be1e5ebec7d5bd14f71427d1e84f3dd0314c0f7b2291e5b200ac8c7c3b925",
            "0x000000000000000000000000ce23256ae677765a41e8d7e4d099359771615ca4",
            "0x00000000000000000000000091d89ee3a5b24c2d6dc02168f6140c70a0613df7"
          ],
          "data": "0x0000000000000000000000000000000000000000000000d8d726b7177a7ff038",
          "blockHash": "0x8bb9dd0534798ffd9c4404497fcb5b693eae6c89a7ba4c979fe5800098e39e98",
          "blockNumber": "0x83acda",
          "blockTimestamp": "0x685c941c",
          "transactionHash": "0x6659ba1b50397708ca745ecac87cd8fb0cbc1b621c49751d06144c76d17b5235",
          "transactionIndex": "0x4e",
          "logIndex": "0x6a",
          "removed": false
        },
        {
          "address": "0x34abd99554ef53edba3b6abebb97df2864cfa07c",
          "topics": [
            "0xddf252ad1be2c89b69c2b068fc378daa952ba7f163c4a11628f55a4df523b3ef",
            "0x000000000000000000000000ce23256ae677765a41e8d7e4d099359771615ca4",
            "0x0000000000000000000000008d6051dedbe3b08590674b0c4324c1d8b3ad2a00"
          ],
          "data": "0x0000000000000000000000000000000000000000000000000000000000000028",
          "blockHash": "0x8bb9dd0534798ffd9c4404497fcb5b693eae6c89a7ba4c979fe5800098e39e98",
          "blockNumber": "0x83acda",
          "blockTimestamp": "0x685c941c",
          "transactionHash": "0x6659ba1b50397708ca745ecac87cd8fb0cbc1b621c49751d06144c76d17b5235",
          "transactionIndex": "0x4e",
          "logIndex": "0x6b",
          "removed": false
        }
      ],
      "logsBloom": "0x00000000000000000000000000000000000000000000000000400000000000000200000200000000000000000000000000001002000400000000000000200000000030000000000000000008000000000000008000001000000000000000000008000000020000000000000000000800000000000000000000000010000020000000000400000100008008000000001000000800000000000000000000000000020000000400000040000000000080000000000002000000002000080000000000000002000000000000000000000000000000008002000000000100000020000010000004000000000000000000000000000400000000000000000000000020",
      "type": "0x2",
      "transactionHash": "0x6659ba1b50397708ca745ecac87cd8fb0cbc1b621c49751d06144c76d17b5235",
      "transactionIndex": "0x4e",
      "blockHash": "0x8bb9dd0534798ffd9c4404497fcb5b693eae6c89a7ba4c979fe5800098e39e98",
      "blockNumber": "0x83acda",
      "gasUsed": "0xa238f",
      "effectiveGasPrice": "0x2305c8",
      "from": "0xce23256ae677765a41e8d7e4d099359771615ca4",
      "to": "0x91d89ee3a5b24c2d6dc02168f6140c70a0613df7",
      "contractAddress": null
    }
  ],
  "libraries": [],
  "pending": [],
  "returns": {},
  "timestamp": 1750897693,
  "chain": 11155111,
  "commit": null
}