{
  "transactions": [
    {
      "hash": "0xde3df3d2fff31c9fa5cf37390cda9f4d268edf8c75461a012f1e1fcbb72500f7",
      "transactionType": "CALL",
      "contractName": null,
      "contractAddress": "0xe4c2f1c920dfc99ad1ea84180f2a69ce24c8f554",
      "function": "buy(address,uint256,uint256)",
      "arguments": [
        "0xcE23256ae677765a41E8D7E4d099359771615ca4",
        "1000",
        "4"
      ],
      "transaction": {
        "from": "0xce23256ae677765a41e8d7e4d099359771615ca4",
        "to": "0xe4c2f1c920dfc99ad1ea84180f2a69ce24c8f554",
        "gas": "0xe05c4",
        "value": "0x0",
        "input": "0xa59ac6dd000000000000000000000000ce23256ae677765a41e8d7e4d099359771615ca400000000000000000000000000000000000000000000000000000000000003e80000000000000000000000000000000000000000000000000000000000000004",
        "nonce": "0xa8",
        "chainId": "0xaa36a7"
      },
      "additionalContracts": [],
      "isFixedGasLimit": false
    }
  ],
  "receipts": [
    {
      "status": "0x1",
      "cumulativeGasUsed": "0x135fb7b",
      "logs": [
        {
          "address": "0xe4c2f1c920dfc99ad1ea84180f2a69ce24c8f554",
          "topics": [
            "0xddf252ad1be2c89b69c2b068fc378daa952ba7f163c4a11628f55a4df523b3ef",
            "0x0000000000000000000000000000000000000000000000000000000000000000",
            "0x000000000000000000000000ce23256ae677765a41e8d7e4d099359771615ca4",
            "0x000000000000000000000000000000000000000000000000000000000000000c"
          ],
          "data": "0x",
          "blockHash": "0x20705f8dc87a4833580574bedb48491b3484cc42bbd32c45b3c1439d1d10855b",
          "blockNumber": "0x83a72a",
          "blockTimestamp": "0x685c4fac",
          "transactionHash": "0xde3df3d2fff31c9fa5cf37390cda9f4d268edf8c75461a012f1e1fcbb72500f7",
          "transactionIndex": "0xe1",
          "logIndex": "0xa9",
          "removed": false
        },
        {
          "address": "0xe4c2f1c920dfc99ad1ea84180f2a69ce24c8f554",
          "topics": [
            "0x1cbc5ab135991bd2b6a4b034a04aa2aa086dac1371cb9b16b8b5e2ed6b036bed",
            "0x000000000000000000000000ce23256ae677765a41e8d7e4d099359771615ca4",
            "0x000000000000000000000000000000000000000000000000000000000000000c"
          ],
          "data": "0x00000000000000000000000000000000000000000000000000000000000003e8",
          "blockHash": "0x20705f8dc87a4833580574bedb48491b3484cc42bbd32c45b3c1439d1d10855b",
          "blockNumber": "0x83a72a",
          "blockTimestamp": "0x685c4fac",
          "transactionHash": "0xde3df3d2fff31c9fa5cf37390cda9f4d268edf8c75461a012f1e1fcbb72500f7",
          "transactionIndex": "0xe1",
          "logIndex": "0xaa",
          "removed": false
        },
        {
          "address": "0xe4c2f1c920dfc99ad1ea84180f2a69ce24c8f554",
          "topics": [
            "0xddf252ad1be2c89b69c2b068fc378daa952ba7f163c4a11628f55a4df523b3ef",
            "0x0000000000000000000000000000000000000000000000000000000000000000",
            "0x000000000000000000000000ce23256ae677765a41e8d7e4d099359771615ca4",
            "0x000000000000000000000000000000000000000000000000000000000000000d"
          ],
          "data": "0x",
          "blockHash": "0x20705f8dc87a4833580574bedb48491b3484cc42bbd32c45b3c1439d1d10855b",
          "blockNumber": "0x83a72a",
          "blockTimestamp": "0x685c4fac",
          "transactionHash": "0xde3df3d2fff31c9fa5cf37390cda9f4d268edf8c75461a012f1e1fcbb72500f7",
          "transactionIndex": "0xe1",
          "logIndex": "0xab",
          "removed": false
        },
        {
          "address": "0xe4c2f1c920dfc99ad1ea84180f2a69ce24c8f554",
          "topics": [
            "0x1cbc5ab135991bd2b6a4b034a04aa2aa086dac1371cb9b16b8b5e2ed6b036bed",
            "0x000000000000000000000000ce23256ae677765a41e8d7e4d099359771615ca4",
            "0x000000000000000000000000000000000000000000000000000000000000000d"
          ],
          "data": "0x00000000000000000000000000000000000000000000000000000000000003e8",
          "blockHash": "0x20705f8dc87a4833580574bedb48491b3484cc42bbd32c45b3c1439d1d10855b",
          "blockNumber": "0x83a72a",
          "blockTimestamp": "0x685c4fac",
          "transactionHash": "0xde3df3d2fff31c9fa5cf37390cda9f4d268edf8c75461a012f1e1fcbb72500f7",
          "transactionIndex": "0xe1",
          "logIndex": "0xac",
          "removed": false
        },
        {
          "address": "0xe4c2f1c920dfc99ad1ea84180f2a69ce24c8f554",
          "topics": [
            "0xddf252ad1be2c89b69c2b068fc378daa952ba7f163c4a11628f55a4df523b3ef",
            "0x0000000000000000000000000000000000000000000000000000000000000000",
            "0x000000000000000000000000ce23256ae677765a41e8d7e4d099359771615ca4",
            "0x000000000000000000000000000000000000000000000000000000000000000e"
          ],
          "data": "0x",
          "blockHash": "0x20705f8dc87a4833580574bedb48491b3484cc42bbd32c45b3c1439d1d10855b",
          "blockNumber": "0x83a72a",
          "blockTimestamp": "0x685c4fac",
          "transactionHash": "0xde3df3d2fff31c9fa5cf37390cda9f4d268edf8c75461a012f1e1fcbb72500f7",
          "transactionIndex": "0xe1",
          "logIndex": "0xad",
          "removed": false
        },
        {
          "address": "0xe4c2f1c920dfc99ad1ea84180f2a69ce24c8f554",
          "topics": [
            "0x1cbc5ab135991bd2b6a4b034a04aa2aa086dac1371cb9b16b8b5e2ed6b036bed",
            "0x000000000000000000000000ce23256ae677765a41e8d7e4d099359771615ca4",
            "0x000000000000000000000000000000000000000000000000000000000000000e"
          ],
          "data": "0x00000000000000000000000000000000000000000000000000000000000003e8",
          "blockHash": "0x20705f8dc87a4833580574bedb48491b3484cc42bbd32c45b3c1439d1d10855b",
          "blockNumber": "0x83a72a",
          "blockTimestamp": "0x685c4fac",
          "transactionHash": "0xde3df3d2fff31c9fa5cf37390cda9f4d268edf8c75461a012f1e1fcbb72500f7",
          "transactionIndex": "0xe1",
          "logIndex": "0xae",
          "removed": false
        },
        {
          "address": "0xe4c2f1c920dfc99ad1ea84180f2a69ce24c8f554",
          "topics": [
            "0xddf252ad1be2c89b69c2b068fc378daa952ba7f163c4a11628f55a4df523b3ef",
            "0x0000000000000000000000000000000000000000000000000000000000000000",
            "0x000000000000000000000000ce23256ae677765a41e8d7e4d099359771615ca4",
            "0x000000000000000000000000000000000000000000000000000000000000000f"
          ],
          "data": "0x",
          "blockHash": "0x20705f8dc87a4833580574bedb48491b3484cc42bbd32c45b3c1439d1d10855b",
          "blockNumber": "0x83a72a",
          "blockTimestamp": "0x685c4fac",
          "transactionHash": "0xde3df3d2fff31c9fa5cf37390cda9f4d268edf8c75461a012f1e1fcbb72500f7",
          "transactionIndex": "0xe1",
          "logIndex": "0xaf",
          "removed": false
        },
        {
          "address": "0xe4c2f1c920dfc99ad1ea84180f2a69ce24c8f554",
          "topics": [
            "0x1cbc5ab135991bd2b6a4b034a04aa2aa086dac1371cb9b16b8b5e2ed6b036bed",
            "0x000000000000000000000000ce23256ae677765a41e8d7e4d099359771615ca4",
            "0x000000000000000000000000000000000000000000000000000000000000000f"
          ],
          "data": "0x00000000000000000000000000000000000000000000000000000000000003e8",
          "blockHash": "0x20705f8dc87a4833580574bedb48491b3484cc42bbd32c45b3c1439d1d10855b",
          "blockNumber": "0x83a72a",
          "blockTimestamp": "0x685c4fac",
          "transactionHash": "0xde3df3d2fff31c9fa5cf37390cda9f4d268edf8c75461a012f1e1fcbb72500f7",
          "transactionIndex": "0xe1",
          "logIndex": "0xb0",
          "removed": false
        }
      ],
      "logsBloom": "0x00000000000000000040000000000000000002000000000000400000000000000000000200000200000000000000000000000000000000000000000000000000000000000000000800000008000000000002000000001000000000000002400000000000020000000000000000000800000000000000000000000010000000000000000000000900000000000000000008000000000000000000000000000000400000000400000040000000000000000000000000000020000000000000000000000002000000000000000000000000000000000000000000000000000020220000000200000000000000000040000000000000000000000000000000000000",
      "type": "0x2",
      "transactionHash": "0xde3df3d2fff31c9fa5cf37390cda9f4d268edf8c75461a012f1e1fcbb72500f7",
      "transactionIndex": "0xe1",
      "blockHash": "0x20705f8dc87a4833580574bedb48491b3484cc42bbd32c45b3c1439d1d10855b",
      "blockNumber": "0x83a72a",
      "gasUsed": "0x9968b",
      "effectiveGasPrice": "0xf461241",
      "from": "0xce23256ae677765a41e8d7e4d099359771615ca4",
      "to": "0xe4c2f1c920dfc99ad1ea84180f2a69ce24c8f554",
      "contractAddress": null
    }
  ],
  "libraries": [],
  "pending": [],
  "returns": {},
  "timestamp": 1750880173,
  "chain": 11155111,
  "commit": null
}