{
  "transactions": [
    {
      "hash": "0x167cf1e92f4fe1e7bc1e74360365caaa7e2fbfc4799b77cab0b7196904be2750",
      "transactionType": "CALL",
      "contractName": null,
      "contractAddress": "0x56b5c40b1bc8202f3633fcce4d0d8c95a18f7dec",
      "function": "buy(uint256,uint256)",
      "arguments": [
        "100",
        "4"
      ],
      "transaction": {
        "from": "0xce23256ae677765a41e8d7e4d099359771615ca4",
        "to": "0x56b5c40b1bc8202f3633fcce4d0d8c95a18f7dec",
        "gas": "0xe3533",
        "value": "0x0",
        "input": "0xd6febde800000000000000000000000000000000000000000000000000000000000000640000000000000000000000000000000000000000000000000000000000000004",
        "nonce": "0x95",
        "chainId": "0xaa36a7"
      },
      "additionalContracts": [],
      "isFixedGasLimit": false
    }
  ],
  "receipts": [
    {
      "status": "0x1",
      "cumulativeGasUsed": "0x2428816",
      "logs": [
        {
          "address": "0x56b5c40b1bc8202f3633fcce4d0d8c95a18f7dec",
          "topics": [
            "0xddf252ad1be2c89b69c2b068fc378daa952ba7f163c4a11628f55a4df523b3ef",
            "0x0000000000000000000000000000000000000000000000000000000000000000",
            "0x000000000000000000000000ce23256ae677765a41e8d7e4d099359771615ca4",
            "0x0000000000000000000000000000000000000000000000000000000000000000"
          ],
          "data": "0x",
          "blockHash": "0x8555bbe279999e7e3961bb948e87a080cd6adebe4bac24c30a7c2958b59f5db0",
          "blockNumber": "0x83a5ab",
          "blockTimestamp": "0x685c3db8",
          "transactionHash": "0x167cf1e92f4fe1e7bc1e74360365caaa7e2fbfc4799b77cab0b7196904be2750",
          "transactionIndex": "0xac",
          "logIndex": "0x10c",
          "removed": false
        },
        {
          "address": "0x56b5c40b1bc8202f3633fcce4d0d8c95a18f7dec",
          "topics": [
            "0x1cbc5ab135991bd2b6a4b034a04aa2aa086dac1371cb9b16b8b5e2ed6b036bed",
            "0x000000000000000000000000ce23256ae677765a41e8d7e4d099359771615ca4",
            "0x0000000000000000000000000000000000000000000000000000000000000000"
          ],
          "data": "0x0000000000000000000000000000000000000000000000000000000000000064",
          "blockHash": "0x8555bbe279999e7e3961bb948e87a080cd6adebe4bac24c30a7c2958b59f5db0",
          "blockNumber": "0x83a5ab",
          "blockTimestamp": "0x685c3db8",
          "transactionHash": "0x167cf1e92f4fe1e7bc1e74360365caaa7e2fbfc4799b77cab0b7196904be2750",
          "transactionIndex": "0xac",
          "logIndex": "0x10d",
          "removed": false
        },
        {
          "address": "0x56b5c40b1bc8202f3633fcce4d0d8c95a18f7dec",
          "topics": [
            "0xddf252ad1be2c89b69c2b068fc378daa952ba7f163c4a11628f55a4df523b3ef",
            "0x0000000000000000000000000000000000000000000000000000000000000000",
            "0x000000000000000000000000ce23256ae677765a41e8d7e4d099359771615ca4",
            "0x0000000000000000000000000000000000000000000000000000000000000001"
          ],
          "data": "0x",
          "blockHash": "0x8555bbe279999e7e3961bb948e87a080cd6adebe4bac24c30a7c2958b59f5db0",
          "blockNumber": "0x83a5ab",
          "blockTimestamp": "0x685c3db8",
          "transactionHash": "0x167cf1e92f4fe1e7bc1e74360365caaa7e2fbfc4799b77cab0b7196904be2750",
          "transactionIndex": "0xac",
          "logIndex": "0x10e",
          "removed": false
        },
        {
          "address": "0x56b5c40b1bc8202f3633fcce4d0d8c95a18f7dec",
          "topics": [
            "0x1cbc5ab135991bd2b6a4b034a04aa2aa086dac1371cb9b16b8b5e2ed6b036bed",
            "0x000000000000000000000000ce23256ae677765a41e8d7e4d099359771615ca4",
            "0x0000000000000000000000000000000000000000000000000000000000000001"
          ],
          "data": "0x0000000000000000000000000000000000000000000000000000000000000064",
          "blockHash": "0x8555bbe279999e7e3961bb948e87a080cd6adebe4bac24c30a7c2958b59f5db0",
          "blockNumber": "0x83a5ab",
          "blockTimestamp": "0x685c3db8",
          "transactionHash": "0x167cf1e92f4fe1e7bc1e74360365caaa7e2fbfc4799b77cab0b7196904be2750",
          "transactionIndex": "0xac",
          "logIndex": "0x10f",
          "removed": false
        },
        {
          "address": "0x56b5c40b1bc8202f3633fcce4d0d8c95a18f7dec",
          "topics": [
            "0xddf252ad1be2c89b69c2b068fc378daa952ba7f163c4a11628f55a4df523b3ef",
            "0x0000000000000000000000000000000000000000000000000000000000000000",
            "0x000000000000000000000000ce23256ae677765a41e8d7e4d099359771615ca4",
            "0x0000000000000000000000000000000000000000000000000000000000000002"
          ],
          "data": "0x",
          "blockHash": "0x8555bbe279999e7e3961bb948e87a080cd6adebe4bac24c30a7c2958b59f5db0",
          "blockNumber": "0x83a5ab",
          "blockTimestamp": "0x685c3db8",
          "transactionHash": "0x167cf1e92f4fe1e7bc1e74360365caaa7e2fbfc4799b77cab0b7196904be2750",
          "transactionIndex": "0xac",
          "logIndex": "0x110",
          "removed": false
        },
        {
          "address": "0x56b5c40b1bc8202f3633fcce4d0d8c95a18f7dec",
          "topics": [
            "0x1cbc5ab135991bd2b6a4b034a04aa2aa086dac1371cb9b16b8b5e2ed6b036bed",
            "0x000000000000000000000000ce23256ae677765a41e8d7e4d099359771615ca4",
            "0x0000000000000000000000000000000000000000000000000000000000000002"
          ],
          "data": "0x0000000000000000000000000000000000000000000000000000000000000064",
          "blockHash": "0x8555bbe279999e7e3961bb948e87a080cd6adebe4bac24c30a7c2958b59f5db0",
          "blockNumber": "0x83a5ab",
          "blockTimestamp": "0x685c3db8",
          "transactionHash": "0x167cf1e92f4fe1e7bc1e74360365caaa7e2fbfc4799b77cab0b7196904be2750",
          "transactionIndex": "0xac",
          "logIndex": "0x111",
          "removed": false
        },
        {
          "address": "0x56b5c40b1bc8202f3633fcce4d0d8c95a18f7dec",
          "topics": [
            "0xddf252ad1be2c89b69c2b068fc378daa952ba7f163c4a11628f55a4df523b3ef",
            "0x0000000000000000000000000000000000000000000000000000000000000000",
            "0x000000000000000000000000ce23256ae677765a41e8d7e4d099359771615ca4",
            "0x0000000000000000000000000000000000000000000000000000000000000003"
          ],
          "data": "0x",
          "blockHash": "0x8555bbe279999e7e3961bb948e87a080cd6adebe4bac24c30a7c2958b59f5db0",
          "blockNumber": "0x83a5ab",
          "blockTimestamp": "0x685c3db8",
          "transactionHash": "0x167cf1e92f4fe1e7bc1e74360365caaa7e2fbfc4799b77cab0b7196904be2750",
          "transactionIndex": "0xac",
          "logIndex": "0x112",
          "removed": false
        },
        {
          "address": "0x56b5c40b1bc8202f3633fcce4d0d8c95a18f7dec",
          "topics": [
            "0x1cbc5ab135991bd2b6a4b034a04aa2aa086dac1371cb9b16b8b5e2ed6b036bed",
            "0x000000000000000000000000ce23256ae677765a41e8d7e4d099359771615ca4",
            "0x0000000000000000000000000000000000000000000000000000000000000003"
          ],
          "data": "0x0000000000000000000000000000000000000000000000000000000000000064",
          "blockHash": "0x8555bbe279999e7e3961bb948e87a080cd6adebe4bac24c30a7c2958b59f5db0",
          "blockNumber": "0x83a5ab",
          "blockTimestamp": "0x685c3db8",
          "transactionHash": "0x167cf1e92f4fe1e7bc1e74360365caaa7e2fbfc4799b77cab0b7196904be2750",
          "transactionIndex": "0xac",
          "logIndex": "0x113",
          "removed": false
        }
      ],
      "logsBloom": "0x04000000000000000000000000000000000000000000000000400000000000000000000200000000000000000008000000000000020000000000020000040000004000000000000000000008000000000000000000041000000000000000000000000000020000000000000000000800000000000000000000000010000000000000000000000100000000000000000000000000000000000000000000000000000000000400000040000100000000000000000000800000000000000000400000000002000000000000000000000000000000000000000000000000000060000000000000000000000000000000000000000000008000000000000000000000",
      "type": "0x2",
      "transactionHash": "0x167cf1e92f4fe1e7bc1e74360365caaa7e2fbfc4799b77cab0b7196904be2750",
      "transactionIndex": "0xac",
      "blockHash": "0x8555bbe279999e7e3961bb948e87a080cd6adebe4bac24c30a7c2958b59f5db0",
      "blockNumber": "0x83a5ab",
      "gasUsed": "0x9b6fa",
      "effectiveGasPrice": "0x23695591",
      "from": "0xce23256ae677765a41e8d7e4d099359771615ca4",
      "to": "0x56b5c40b1bc8202f3633fcce4d0d8c95a18f7dec",
      "contractAddress": null
    }
  ],
  "libraries": [],
  "pending": [],
  "returns": {},
  "timestamp": 1750875571,
  "chain": 11155111,
  "commit": null
}