{
  "transactions": [
    {
      "hash": "0xa4ea81e3faf6770c2d1505f804e08add5676e04ebfa01ac944b9c13c708cb990",
      "transactionType": "CALL",
      "contractName": null,
      "contractAddress": "0x5dbf0c030fcdfaf95cbc1789bdd58cfae82f05e8",
      "function": "buy(address,uint256,uint256)",
      "arguments": [
        "0xcE23256ae677765a41E8D7E4d099359771615ca4",
        "1000",
        "4"
      ],
      "transaction": {
        "from": "0xce23256ae677765a41e8d7e4d099359771615ca4",
        "to": "0x5dbf0c030fcdfaf95cbc1789bdd58cfae82f05e8",
        "gas": "0xd3eb0",
        "value": "0x0",
        "input": "0xa59ac6dd000000000000000000000000ce23256ae677765a41e8d7e4d099359771615ca400000000000000000000000000000000000000000000000000000000000003e80000000000000000000000000000000000000000000000000000000000000004",
        "nonce": "0xce",
        "chainId": "0xaa36a7"
      },
      "additionalContracts": [],
      "isFixedGasLimit": false
    }
  ],
  "receipts": [
    {
      "status": "0x1",
      "cumulativeGasUsed": "0x1aaaea1",
      "logs": [
        {
          "address": "0x5dbf0c030fcdfaf95cbc1789bdd58cfae82f05e8",
          "topics": [
            "0xddf252ad1be2c89b69c2b068fc378daa952ba7f163c4a11628f55a4df523b3ef",
            "0x0000000000000000000000000000000000000000000000000000000000000000",
            "0x000000000000000000000000ce23256ae677765a41e8d7e4d099359771615ca4",
            "0x000000000000000000000000000000000000000000000000000000000000000c"
          ],
          "data": "0x",
          "blockHash": "0xabad0a0492987605d08796ee2e88cfd58daa1ede1a57d31ba09061f4434c1dea",
          "blockNumber": "0x83aa79",
          "blockTimestamp": "0x685c7784",
          "transactionHash": "0xa4ea81e3faf6770c2d1505f804e08add5676e04ebfa01ac944b9c13c708cb990",
          "transactionIndex": "0x8d",
          "logIndex": "0xca",
          "removed": false
        },
        {
          "address": "0x5dbf0c030fcdfaf95cbc1789bdd58cfae82f05e8",
          "topics": [
            "0x1cbc5ab135991bd2b6a4b034a04aa2aa086dac1371cb9b16b8b5e2ed6b036bed",
            "0x000000000000000000000000ce23256ae677765a41e8d7e4d099359771615ca4",
            "0x000000000000000000000000000000000000000000000000000000000000000c"
          ],
          "data": "0x00000000000000000000000000000000000000000000000000000000000003e8",
          "blockHash": "0xabad0a0492987605d08796ee2e88cfd58daa1ede1a57d31ba09061f4434c1dea",
          "blockNumber": "0x83aa79",
          "blockTimestamp": "0x685c7784",
          "transactionHash": "0xa4ea81e3faf6770c2d1505f804e08add5676e04ebfa01ac944b9c13c708cb990",
          "transactionIndex": "0x8d",
          "logIndex": "0xcb",
          "removed": false
        },
        {
          "address": "0x5dbf0c030fcdfaf95cbc1789bdd58cfae82f05e8",
          "topics": [
            "0xddf252ad1be2c89b69c2b068fc378daa952ba7f163c4a11628f55a4df523b3ef",
            "0x0000000000000000000000000000000000000000000000000000000000000000",
            "0x000000000000000000000000ce23256ae677765a41e8d7e4d099359771615ca4",
            "0x000000000000000000000000000000000000000000000000000000000000000d"
          ],
          "data": "0x",
          "blockHash": "0xabad0a0492987605d08796ee2e88cfd58daa1ede1a57d31ba09061f4434c1dea",
          "blockNumber": "0x83aa79",
          "blockTimestamp": "0x685c7784",
          "transactionHash": "0xa4ea81e3faf6770c2d1505f804e08add5676e04ebfa01ac944b9c13c708cb990",
          "transactionIndex": "0x8d",
          "logIndex": "0xcc",
          "removed": false
        },
        {
          "address": "0x5dbf0c030fcdfaf95cbc1789bdd58cfae82f05e8",
          "topics": [
            "0x1cbc5ab135991bd2b6a4b034a04aa2aa086dac1371cb9b16b8b5e2ed6b036bed",
            "0x000000000000000000000000ce23256ae677765a41e8d7e4d099359771615ca4",
            "0x000000000000000000000000000000000000000000000000000000000000000d"
          ],
          "data": "0x00000000000000000000000000000000000000000000000000000000000003e8",
          "blockHash": "0xabad0a0492987605d08796ee2e88cfd58daa1ede1a57d31ba09061f4434c1dea",
          "blockNumber": "0x83aa79",
          "blockTimestamp": "0x685c7784",
          "transactionHash": "0xa4ea81e3faf6770c2d1505f804e08add5676e04ebfa01ac944b9c13c708cb990",
          "transactionIndex": "0x8d",
          "logIndex": "0xcd",
          "removed": false
        },
        {
          "address": "0x5dbf0c030fcdfaf95cbc1789bdd58cfae82f05e8",
          "topics": [
            "0xddf252ad1be2c89b69c2b068fc378daa952ba7f163c4a11628f55a4df523b3ef",
            "0x0000000000000000000000000000000000000000000000000000000000000000",
            "0x000000000000000000000000ce23256ae677765a41e8d7e4d099359771615ca4",
            "0x000000000000000000000000000000000000000000000000000000000000000e"
          ],
          "data": "0x",
          "blockHash": "0xabad0a0492987605d08796ee2e88cfd58daa1ede1a57d31ba09061f4434c1dea",
          "blockNumber": "0x83aa79",
          "blockTimestamp": "0x685c7784",
          "transactionHash": "0xa4ea81e3faf6770c2d1505f804e08add5676e04ebfa01ac944b9c13c708cb990",
          "transactionIndex": "0x8d",
          "logIndex": "0xce",
          "removed": false
        },
        {
          "address": "0x5dbf0c030fcdfaf95cbc1789bdd58cfae82f05e8",
          "topics": [
            "0x1cbc5ab135991bd2b6a4b034a04aa2aa086dac1371cb9b16b8b5e2ed6b036bed",
            "0x000000000000000000000000ce23256ae677765a41e8d7e4d099359771615ca4",
            "0x000000000000000000000000000000000000000000000000000000000000000e"
          ],
          "data": "0x00000000000000000000000000000000000000000000000000000000000003e8",
          "blockHash": "0xabad0a0492987605d08796ee2e88cfd58daa1ede1a57d31ba09061f4434c1dea",
          "blockNumber": "0x83aa79",
          "blockTimestamp": "0x685c7784",
          "transactionHash": "0xa4ea81e3faf6770c2d1505f804e08add5676e04ebfa01ac944b9c13c708cb990",
          "transactionIndex": "0x8d",
          "logIndex": "0xcf",
          "removed": false
        },
        {
          "address": "0x5dbf0c030fcdfaf95cbc1789bdd58cfae82f05e8",
          "topics": [
            "0xddf252ad1be2c89b69c2b068fc378daa952ba7f163c4a11628f55a4df523b3ef",
            "0x0000000000000000000000000000000000000000000000000000000000000000",
            "0x000000000000000000000000ce23256ae677765a41e8d7e4d099359771615ca4",
            "0x000000000000000000000000000000000000000000000000000000000000000f"
          ],
          "data": "0x",
          "blockHash": "0xabad0a0492987605d08796ee2e88cfd58daa1ede1a57d31ba09061f4434c1dea",
          "blockNumber": "0x83aa79",
          "blockTimestamp": "0x685c7784",
          "transactionHash": "0xa4ea81e3faf6770c2d1505f804e08add5676e04ebfa01ac944b9c13c708cb990",
          "transactionIndex": "0x8d",
          "logIndex": "0xd0",
          "removed": false
        },
        {
          "address": "0x5dbf0c030fcdfaf95cbc1789bdd58cfae82f05e8",
          "topics": [
            "0x1cbc5ab135991bd2b6a4b034a04aa2aa086dac1371cb9b16b8b5e2ed6b036bed",
            "0x000000000000000000000000ce23256ae677765a41e8d7e4d099359771615ca4",
            "0x000000000000000000000000000000000000000000000000000000000000000f"
          ],
          "data": "0x00000000000000000000000000000000000000000000000000000000000003e8",
          "blockHash": "0xabad0a0492987605d08796ee2e88cfd58daa1ede1a57d31ba09061f4434c1dea",
          "blockNumber": "0x83aa79",
          "blockTimestamp": "0x685c7784",
          "transactionHash": "0xa4ea81e3faf6770c2d1505f804e08add5676e04ebfa01ac944b9c13c708cb990",
          "transactionIndex": "0x8d",
          "logIndex": "0xd1",
          "removed": false
        }
      ],
      "logsBloom": "0x00000000000000000040080000000000000002000000000000400000000000000000000200000200000000000000000000000000000000000000000000000000000000000000000800000008000000000002000000001000000000000002000000000000020000000000000000000800000000000000000000000010000000000000000000000900000000000000000008000000000000000000000000000000000000000400000040000000000000000000000000000020000000120000000000000002000000000000000000000000000000000000000000000000000020220000000200000000000000000000000000000000000000000000000000000000",
      "type": "0x2",
      "transactionHash": "0xa4ea81e3faf6770c2d1505f804e08add5676e04ebfa01ac944b9c13c708cb990",
      "transactionIndex": "0x8d",
      "blockHash": "0xabad0a0492987605d08796ee2e88cfd58daa1ede1a57d31ba09061f4434c1dea",
      "blockNumber": "0x83aa79",
      "gasUsed": "0x996cd",
      "effectiveGasPrice": "0x2bc016e",
      "from": "0xce23256ae677765a41e8d7e4d099359771615ca4",
      "to": "0x5dbf0c030fcdfaf95cbc1789bdd58cfae82f05e8",
      "contractAddress": null
    }
  ],
  "libraries": [],
  "pending": [],
  "returns": {},
  "timestamp": 1750890372,
  "chain": 11155111,
  "commit": null
}