{
  "transactions": [
    {
      "hash": "0xd53af569a91f9c8a7f95d67fecafcb6a41714357fba12b9a29d268365c6c7a99",
      "transactionType": "CALL",
      "contractName": null,
      "contractAddress": "0xceca2e1bca3b27d8435f99f61cea52e51a8ee6cb",
      "function": "buy(uint256,uint256)",
      "arguments": [
        "100000000000000000000",
        "4"
      ],
      "transaction": {
        "from": "0x129aa6ab9afc5135a72cef4868175cf906942a14",
        "to": "0xceca2e1bca3b27d8435f99f61cea52e51a8ee6cb",
        "gas": "0xdae01",
        "value": "0x0",
        "input": "0xd6febde80000000000000000000000000000000000000000000000056bc75e2d631000000000000000000000000000000000000000000000000000000000000000000004",
        "nonce": "0x5",
        "chainId": "0xaa36a7"
      },
      "additionalContracts": [],
      "isFixedGasLimit": false
    }
  ],
  "receipts": [
    {
      "status": "0x1",
      "cumulativeGasUsed": "0xd81e8f",
      "logs": [
        {
          "address": "0xceca2e1bca3b27d8435f99f61cea52e51a8ee6cb",
          "topics": [
            "0xddf252ad1be2c89b69c2b068fc378daa952ba7f163c4a11628f55a4df523b3ef",
            "0x0000000000000000000000000000000000000000000000000000000000000000",
            "0x000000000000000000000000129aa6ab9afc5135a72cef4868175cf906942a14",
            "0x0000000000000000000000000000000000000000000000000000000000000004"
          ],
          "data": "0x",
          "blockHash": "0x0cf7419385571f45a29622313c81a1eb501d0959b08ffbd78367b78dff9836e5",
          "blockNumber": "0x845746",
          "blockTimestamp": "0x68649a08",
          "transactionHash": "0xd53af569a91f9c8a7f95d67fecafcb6a41714357fba12b9a29d268365c6c7a99",
          "transactionIndex": "0xfa",
          "logIndex": "0x169",
          "removed": false
        },
        {
          "address": "0xceca2e1bca3b27d8435f99f61cea52e51a8ee6cb",
          "topics": [
            "0x1cbc5ab135991bd2b6a4b034a04aa2aa086dac1371cb9b16b8b5e2ed6b036bed",
            "0x000000000000000000000000129aa6ab9afc5135a72cef4868175cf906942a14",
            "0x0000000000000000000000000000000000000000000000000000000000000004"
          ],
          "data": "0x0000000000000000000000000000000000000000000000056bc75e2d63100000",
          "blockHash": "0x0cf7419385571f45a29622313c81a1eb501d0959b08ffbd78367b78dff9836e5",
          "blockNumber": "0x845746",
          "blockTimestamp": "0x68649a08",
          "transactionHash": "0xd53af569a91f9c8a7f95d67fecafcb6a41714357fba12b9a29d268365c6c7a99",
          "transactionIndex": "0xfa",
          "logIndex": "0x16a",
          "removed": false
        },
        {
          "address": "0xceca2e1bca3b27d8435f99f61cea52e51a8ee6cb",
          "topics": [
            "0xddf252ad1be2c89b69c2b068fc378daa952ba7f163c4a11628f55a4df523b3ef",
            "0x0000000000000000000000000000000000000000000000000000000000000000",
            "0x000000000000000000000000129aa6ab9afc5135a72cef4868175cf906942a14",
            "0x0000000000000000000000000000000000000000000000000000000000000005"
          ],
          "data": "0x",
          "blockHash": "0x0cf7419385571f45a29622313c81a1eb501d0959b08ffbd78367b78dff9836e5",
          "blockNumber": "0x845746",
          "blockTimestamp": "0x68649a08",
          "transactionHash": "0xd53af569a91f9c8a7f95d67fecafcb6a41714357fba12b9a29d268365c6c7a99",
          "transactionIndex": "0xfa",
          "logIndex": "0x16b",
          "removed": false
        },
        {
          "address": "0xceca2e1bca3b27d8435f99f61cea52e51a8ee6cb",
          "topics": [
            "0x1cbc5ab135991bd2b6a4b034a04aa2aa086dac1371cb9b16b8b5e2ed6b036bed",
            "0x000000000000000000000000129aa6ab9afc5135a72cef4868175cf906942a14",
            "0x0000000000000000000000000000000000000000000000000000000000000005"
          ],
          "data": "0x0000000000000000000000000000000000000000000000056bc75e2d63100000",
          "blockHash": "0x0cf7419385571f45a29622313c81a1eb501d0959b08ffbd78367b78dff9836e5",
          "blockNumber": "0x845746",
          "blockTimestamp": "0x68649a08",
          "transactionHash": "0xd53af569a91f9c8a7f95d67fecafcb6a41714357fba12b9a29d268365c6c7a99",
          "transactionIndex": "0xfa",
          "logIndex": "0x16c",
          "removed": false
        },
        {
          "address": "0xceca2e1bca3b27d8435f99f61cea52e51a8ee6cb",
          "topics": [
            "0xddf252ad1be2c89b69c2b068fc378daa952ba7f163c4a11628f55a4df523b3ef",
            "0x0000000000000000000000000000000000000000000000000000000000000000",
            "0x000000000000000000000000129aa6ab9afc5135a72cef4868175cf906942a14",
            "0x0000000000000000000000000000000000000000000000000000000000000006"
          ],
          "data": "0x",
          "blockHash": "0x0cf7419385571f45a29622313c81a1eb501d0959b08ffbd78367b78dff9836e5",
          "blockNumber": "0x845746",
          "blockTimestamp": "0x68649a08",
          "transactionHash": "0xd53af569a91f9c8a7f95d67fecafcb6a41714357fba12b9a29d268365c6c7a99",
          "transactionIndex": "0xfa",
          "logIndex": "0x16d",
          "removed": false
        },
        {
          "address": "0xceca2e1bca3b27d8435f99f61cea52e51a8ee6cb",
          "topics": [
            "0x1cbc5ab135991bd2b6a4b034a04aa2aa086dac1371cb9b16b8b5e2ed6b036bed",
            "0x000000000000000000000000129aa6ab9afc5135a72cef4868175cf906942a14",
            "0x0000000000000000000000000000000000000000000000000000000000000006"
          ],
          "data": "0x0000000000000000000000000000000000000000000000056bc75e2d63100000",
          "blockHash": "0x0cf7419385571f45a29622313c81a1eb501d0959b08ffbd78367b78dff9836e5",
          "blockNumber": "0x845746",
          "blockTimestamp": "0x68649a08",
          "transactionHash": "0xd53af569a91f9c8a7f95d67fecafcb6a41714357fba12b9a29d268365c6c7a99",
          "transactionIndex": "0xfa",
          "logIndex": "0x16e",
          "removed": false
        },
        {
          "address": "0xceca2e1bca3b27d8435f99f61cea52e51a8ee6cb",
          "topics": [
            "0xddf252ad1be2c89b69c2b068fc378daa952ba7f163c4a11628f55a4df523b3ef",
            "0x0000000000000000000000000000000000000000000000000000000000000000",
            "0x000000000000000000000000129aa6ab9afc5135a72cef4868175cf906942a14",
            "0x0000000000000000000000000000000000000000000000000000000000000007"
          ],
          "data": "0x",
          "blockHash": "0x0cf7419385571f45a29622313c81a1eb501d0959b08ffbd78367b78dff9836e5",
          "blockNumber": "0x845746",
          "blockTimestamp": "0x68649a08",
          "transactionHash": "0xd53af569a91f9c8a7f95d67fecafcb6a41714357fba12b9a29d268365c6c7a99",
          "transactionIndex": "0xfa",
          "logIndex": "0x16f",
          "removed": false
        },
        {
          "address": "0xceca2e1bca3b27d8435f99f61cea52e51a8ee6cb",
          "topics": [
            "0x1cbc5ab135991bd2b6a4b034a04aa2aa086dac1371cb9b16b8b5e2ed6b036bed",
            "0x000000000000000000000000129aa6ab9afc5135a72cef4868175cf906942a14",
            "0x0000000000000000000000000000000000000000000000000000000000000007"
          ],
          "data": "0x0000000000000000000000000000000000000000000000056bc75e2d63100000",
          "blockHash": "0x0cf7419385571f45a29622313c81a1eb501d0959b08ffbd78367b78dff9836e5",
          "blockNumber": "0x845746",
          "blockTimestamp": "0x68649a08",
          "transactionHash": "0xd53af569a91f9c8a7f95d67fecafcb6a41714357fba12b9a29d268365c6c7a99",
          "transactionIndex": "0xfa",
          "logIndex": "0x170",
          "removed": false
        },
        {
          "address": "0x34abd99554ef53edba3b6abebb97df2864cfa07c",
          "topics": [
            "0x8c5be1e5ebec7d5bd14f71427d1e84f3dd0314c0f7b2291e5b200ac8c7c3b925",
            "0x000000000000000000000000129aa6ab9afc5135a72cef4868175cf906942a14",
            "0x000000000000000000000000ceca2e1bca3b27d8435f99f61cea52e51a8ee6cb"
          ],
          "data": "0x00000000000000000000000000000000000000000008457f66f68892bdc00000",
          "blockHash": "0x0cf7419385571f45a29622313c81a1eb501d0959b08ffbd78367b78dff9836e5",
          "blockNumber": "0x845746",
          "blockTimestamp": "0x68649a08",
          "transactionHash": "0xd53af569a91f9c8a7f95d67fecafcb6a41714357fba12b9a29d268365c6c7a99",
          "transactionIndex": "0xfa",
          "logIndex": "0x171",
          "removed": false
        },
        {
          "address": "0x34abd99554ef53edba3b6abebb97df2864cfa07c",
          "topics": [
            "0xddf252ad1be2c89b69c2b068fc378daa952ba7f163c4a11628f55a4df523b3ef",
            "0x000000000000000000000000129aa6ab9afc5135a72cef4868175cf906942a14",
            "0x0000000000000000000000008d6051dedbe3b08590674b0c4324c1d8b3ad2a00"
          ],
          "data": "0x000000000000000000000000000000000000000000000015af1d78b58c400000",
          "blockHash": "0x0cf7419385571f45a29622313c81a1eb501d0959b08ffbd78367b78dff9836e5",
          "blockNumber": "0x845746",
          "blockTimestamp": "0x68649a08",
          "transactionHash": "0xd53af569a91f9c8a7f95d67fecafcb6a41714357fba12b9a29d268365c6c7a99",
          "transactionIndex": "0xfa",
          "logIndex": "0x172",
          "removed": false
        },
        {
          "address": "0x34abd99554ef53edba3b6abebb97df2864cfa07c",
          "topics": [
            "0x8c5be1e5ebec7d5bd14f71427d1e84f3dd0314c0f7b2291e5b200ac8c7c3b925",
            "0x000000000000000000000000129aa6ab9afc5135a72cef4868175cf906942a14",
            "0x000000000000000000000000ceca2e1bca3b27d8435f99f61cea52e51a8ee6cb"
          ],
          "data": "0x00000000000000000000000000000000000000000008457f2f73adc420300000",
          "blockHash": "0x0cf7419385571f45a29622313c81a1eb501d0959b08ffbd78367b78dff9836e5",
          "blockNumber": "0x845746",
          "blockTimestamp": "0x68649a08",
          "transactionHash": "0xd53af569a91f9c8a7f95d67fecafcb6a41714357fba12b9a29d268365c6c7a99",
          "transactionIndex": "0xfa",
          "logIndex": "0x173",
          "removed": false
        },
        {
          "address": "0x34abd99554ef53edba3b6abebb97df2864cfa07c",
          "topics": [
            "0xddf252ad1be2c89b69c2b068fc378daa952ba7f163c4a11628f55a4df523b3ef",
            "0x000000000000000000000000129aa6ab9afc5135a72cef4868175cf906942a14",
            "0x0000000000000000000000008d6051dedbe3b08590674b0c4324c1d8b3ad2a00"
          ],
          "data": "0x0000000000000000000000000000000000000000000000003782dace9d900000",
          "blockHash": "0x0cf7419385571f45a29622313c81a1eb501d0959b08ffbd78367b78dff9836e5",
          "blockNumber": "0x845746",
          "blockTimestamp": "0x68649a08",
          "transactionHash": "0xd53af569a91f9c8a7f95d67fecafcb6a41714357fba12b9a29d268365c6c7a99",
          "transactionIndex": "0xfa",
          "logIndex": "0x174",
          "removed": false
        }
      ],
      "logsBloom": "0x00000000000000000000000000000000000000000000000000000000000000000200000200000000000000000000000000001000000400000000000000200000000030000010000800000008000000000000008000000000000000000000000008000000020080000000000000000840200000000000000000000010000020000000000400000000000000000000001000000800000000040000000000000000020000000400000040000000000080000000000000008000002000080000000000000002000000000000000000000000000000008002000000000100000020000010000004000000080008000000000000000000000000000000000000000000",
      "type": "0x2",
      "transactionHash": "0xd53af569a91f9c8a7f95d67fecafcb6a41714357fba12b9a29d268365c6c7a99",
      "transactionIndex": "0xfa",
      "blockHash": "0x0cf7419385571f45a29622313c81a1eb501d0959b08ffbd78367b78dff9836e5",
      "blockNumber": "0x845746",
      "gasUsed": "0x9e764",
      "effectiveGasPrice": "0x5c206944",
      "from": "0x129aa6ab9afc5135a72cef4868175cf906942a14",
      "to": "0xceca2e1bca3b27d8435f99f61cea52e51a8ee6cb",
      "contractAddress": null
    }
  ],
  "libraries": [],
  "pending": [],
  "returns": {},
  "timestamp": 1751423497,
  "chain": 11155111,
  "commit": null
}