{
  "transactions": [
    {
      "hash": "0xb33cd11396bae72630b447c246a014016b46ab56b97cbbd7f9fc457c16239681",
      "transactionType": "CALL",
      "contractName": null,
      "contractAddress": "0xceca2e1bca3b27d8435f99f61cea52e51a8ee6cb",
      "function": "putOnSale(uint256,uint256)",
      "arguments": [
        "15",
        "400000000000000000000"
      ],
      "transaction": {
        "from": "0xce23256ae677765a41e8d7e4d099359771615ca4",
        "to": "0xceca2e1bca3b27d8435f99f61cea52e51a8ee6cb",
        "gas": "0x275c0",
        "value": "0x0",
        "input": "0x36f7992b000000000000000000000000000000000000000000000000000000000000000f000000000000000000000000000000000000000000000015af1d78b58c400000",
        "nonce": "0x10b",
        "chainId": "0xaa36a7"
      },
      "additionalContracts": [],
      "isFixedGasLimit": false
    }
  ],
  "receipts": [
    {
      "status": "0x1",
      "cumulativeGasUsed": "0x1188bf8",
      "logs": [
        {
          "address": "0xceca2e1bca3b27d8435f99f61cea52e51a8ee6cb",
          "topics": [
            "0x7c11ba8301c87f8a6d59779bcbe2b7446e865bd1a4359a69e5c400212e0a5795",
            "0x000000000000000000000000000000000000000000000000000000000000000f"
          ],
          "data": "0x000000000000000000000000000000000000000000000015af1d78b58c400000",
          "blockHash": "0x9692ba9775b5d3facda058f866fc12f9eaa9a887a53fc9dcd59eba0be3fafd7b",
          "blockNumber": "0x845a9f",
          "blockTimestamp": "0x6864c258",
          "transactionHash": "0xb33cd11396bae72630b447c246a014016b46ab56b97cbbd7f9fc457c16239681",
          "transactionIndex": "0x154",
          "logIndex": "0x1b3",
          "removed": false
        }
      ],
      "logsBloom": "0x00000000000000000000000000000000000000000000000000000000000000000000000000000000000000000000000000000000000000000000000000000000000000000000000000000000000000000000000100000000000000000002000000000000000000000000000000000040000000000000000000000000000000000000000000000800000000000000000000000000000000040000000000200000000000000000000000000000000000000000000000000000000000000000000000000000000000000000000200000000000000000000000000000000000000000000000200000000000008000000000000000000000000000000000000000000",
      "type": "0x2",
      "transactionHash": "0xb33cd11396bae72630b447c246a014016b46ab56b97cbbd7f9fc457c16239681",
      "transactionIndex": "0x154",
      "blockHash": "0x9692ba9775b5d3facda058f866fc12f9eaa9a887a53fc9dcd59eba0be3fafd7b",
      "blockNumber": "0x845a9f",
      "gasUsed": "0x1ae9a",
      "effectiveGasPrice": "0x1f5befe40",
      "from": "0xce23256ae677765a41e8d7e4d099359771615ca4",
      "to": "0xceca2e1bca3b27d8435f99f61cea52e51a8ee6cb",
      "contractAddress": null
    }
  ],
  "libraries": [],
  "pending": [],
  "returns": {},
  "timestamp": 1751433815,
  "chain": 11155111,
  "commit": null
}