{
  "transactions": [
    {
      "hash": "0x34a2b48b9a9a99501ac70aee5fee316c4b5eb063300a3f426977e1664f7c3be5",
      "transactionType": "CALL",
      "contractName": null,
      "contractAddress": "0x05d56701d4878ccef19b681460343380420a8651",
      "function": "buy(uint256,uint256)",
      "arguments": [
        "1000",
        "4"
      ],
      "transaction": {
        "from": "0x129aa6ab9afc5135a72cef4868175cf906942a14",
        "to": "0x05d56701d4878ccef19b681460343380420a8651",
        "gas": "0xce7ee",
        "value": "0x0",
        "input": "0xd6febde800000000000000000000000000000000000000000000000000000000000003e80000000000000000000000000000000000000000000000000000000000000004",
        "nonce": "0x0",
        "chainId": "0xaa36a7"
      },
      "additionalContracts": [],
      "isFixedGasLimit": false
    }
  ],
  "receipts": [
    {
      "status": "0x1",
      "cumulativeGasUsed": "0x12c01f2",
      "logs": [
        {
          "address": "0x05d56701d4878ccef19b681460343380420a8651",
          "topics": [
            "0xddf252ad1be2c89b69c2b068fc378daa952ba7f163c4a11628f55a4df523b3ef",
            "0x0000000000000000000000000000000000000000000000000000000000000000",
            "0x000000000000000000000000129aa6ab9afc5135a72cef4868175cf906942a14",
            "0x000000000000000000000000000000000000000000000000000000000000000c"
          ],
          "data": "0x",
          "blockHash": "0xb55ac8ef22e6614b9aef71cce5aef415c1093eae8a44d0980cca77776518ebbb",
          "blockNumber": "0x83ba10",
          "blockTimestamp": "0x685d33dc",
          "transactionHash": "0x34a2b48b9a9a99501ac70aee5fee316c4b5eb063300a3f426977e1664f7c3be5",
          "transactionIndex": "0xca",
          "logIndex": "0x18c",
          "removed": false
        },
        {
          "address": "0x05d56701d4878ccef19b681460343380420a8651",
          "topics": [
            "0x1cbc5ab135991bd2b6a4b034a04aa2aa086dac1371cb9b16b8b5e2ed6b036bed",
            "0x000000000000000000000000129aa6ab9afc5135a72cef4868175cf906942a14",
            "0x000000000000000000000000000000000000000000000000000000000000000c"
          ],
          "data": "0x00000000000000000000000000000000000000000000000000000000000003e8",
          "blockHash": "0xb55ac8ef22e6614b9aef71cce5aef415c1093eae8a44d0980cca77776518ebbb",
          "blockNumber": "0x83ba10",
          "blockTimestamp": "0x685d33dc",
          "transactionHash": "0x34a2b48b9a9a99501ac70aee5fee316c4b5eb063300a3f426977e1664f7c3be5",
          "transactionIndex": "0xca",
          "logIndex": "0x18d",
          "removed": false
        },
        {
          "address": "0x05d56701d4878ccef19b681460343380420a8651",
          "topics": [
            "0xddf252ad1be2c89b69c2b068fc378daa952ba7f163c4a11628f55a4df523b3ef",
            "0x0000000000000000000000000000000000000000000000000000000000000000",
            "0x000000000000000000000000129aa6ab9afc5135a72cef4868175cf906942a14",
            "0x000000000000000000000000000000000000000000000000000000000000000d"
          ],
          "data": "0x",
          "blockHash": "0xb55ac8ef22e6614b9aef71cce5aef415c1093eae8a44d0980cca77776518ebbb",
          "blockNumber": "0x83ba10",
          "blockTimestamp": "0x685d33dc",
          "transactionHash": "0x34a2b48b9a9a99501ac70aee5fee316c4b5eb063300a3f426977e1664f7c3be5",
          "transactionIndex": "0xca",
          "logIndex": "0x18e",
          "removed": false
        },
        {
          "address": "0x05d56701d4878ccef19b681460343380420a8651",
          "topics": [
            "0x1cbc5ab135991bd2b6a4b034a04aa2aa086dac1371cb9b16b8b5e2ed6b036bed",
            "0x000000000000000000000000129aa6ab9afc5135a72cef4868175cf906942a14",
            "0x000000000000000000000000000000000000000000000000000000000000000d"
          ],
          "data": "0x00000000000000000000000000000000000000000000000000000000000003e8",
          "blockHash": "0xb55ac8ef22e6614b9aef71cce5aef415c1093eae8a44d0980cca77776518ebbb",
          "blockNumber": "0x83ba10",
          "blockTimestamp": "0x685d33dc",
          "transactionHash": "0x34a2b48b9a9a99501ac70aee5fee316c4b5eb063300a3f426977e1664f7c3be5",
          "transactionIndex": "0xca",
          "logIndex": "0x18f",
          "removed": false
        },
        {
          "address": "0x05d56701d4878ccef19b681460343380420a8651",
          "topics": [
            "0xddf252ad1be2c89b69c2b068fc378daa952ba7f163c4a11628f55a4df523b3ef",
            "0x0000000000000000000000000000000000000000000000000000000000000000",
            "0x000000000000000000000000129aa6ab9afc5135a72cef4868175cf906942a14",
            "0x000000000000000000000000000000000000000000000000000000000000000e"
          ],
          "data": "0x",
          "blockHash": "0xb55ac8ef22e6614b9aef71cce5aef415c1093eae8a44d0980cca77776518ebbb",
          "blockNumber": "0x83ba10",
          "blockTimestamp": "0x685d33dc",
          "transactionHash": "0x34a2b48b9a9a99501ac70aee5fee316c4b5eb063300a3f426977e1664f7c3be5",
          "transactionIndex": "0xca",
          "logIndex": "0x190",
          "removed": false
        },
        {
          "address": "0x05d56701d4878ccef19b681460343380420a8651",
          "topics": [
            "0x1cbc5ab135991bd2b6a4b034a04aa2aa086dac1371cb9b16b8b5e2ed6b036bed",
            "0x000000000000000000000000129aa6ab9afc5135a72cef4868175cf906942a14",
            "0x000000000000000000000000000000000000000000000000000000000000000e"
          ],
          "data": "0x00000000000000000000000000000000000000000000000000000000000003e8",
          "blockHash": "0xb55ac8ef22e6614b9aef71cce5aef415c1093eae8a44d0980cca77776518ebbb",
          "blockNumber": "0x83ba10",
          "blockTimestamp": "0x685d33dc",
          "transactionHash": "0x34a2b48b9a9a99501ac70aee5fee316c4b5eb063300a3f426977e1664f7c3be5",
          "transactionIndex": "0xca",
          "logIndex": "0x191",
          "removed": false
        },
        {
          "address": "0x05d56701d4878ccef19b681460343380420a8651",
          "topics": [
            "0xddf252ad1be2c89b69c2b068fc378daa952ba7f163c4a11628f55a4df523b3ef",
            "0x0000000000000000000000000000000000000000000000000000000000000000",
            "0x000000000000000000000000129aa6ab9afc5135a72cef4868175cf906942a14",
            "0x000000000000000000000000000000000000000000000000000000000000000f"
          ],
          "data": "0x",
          "blockHash": "0xb55ac8ef22e6614b9aef71cce5aef415c1093eae8a44d0980cca77776518ebbb",
          "blockNumber": "0x83ba10",
          "blockTimestamp": "0x685d33dc",
          "transactionHash": "0x34a2b48b9a9a99501ac70aee5fee316c4b5eb063300a3f426977e1664f7c3be5",
          "transactionIndex": "0xca",
          "logIndex": "0x192",
          "removed": false
        },
        {
          "address": "0x05d56701d4878ccef19b681460343380420a8651",
          "topics": [
            "0x1cbc5ab135991bd2b6a4b034a04aa2aa086dac1371cb9b16b8b5e2ed6b036bed",
            "0x000000000000000000000000129aa6ab9afc5135a72cef4868175cf906942a14",
            "0x000000000000000000000000000000000000000000000000000000000000000f"
          ],
          "data": "0x00000000000000000000000000000000000000000000000000000000000003e8",
          "blockHash": "0xb55ac8ef22e6614b9aef71cce5aef415c1093eae8a44d0980cca77776518ebbb",
          "blockNumber": "0x83ba10",
          "blockTimestamp": "0x685d33dc",
          "transactionHash": "0x34a2b48b9a9a99501ac70aee5fee316c4b5eb063300a3f426977e1664f7c3be5",
          "transactionIndex": "0xca",
          "logIndex": "0x193",
          "removed": false
        }
      ],
      "logsBloom": "0x00000000000000000040000000000000000002000000000000000020000000000000000200000200000000000000000000000000000000000000000000000000000000000010000800000008000000000002000000000000000000000002000000000000020080000000000000000800000000000000000000000010000000000000000000000800000000000000000008000000000000000000000000000000000000000400000040000000200000000000000000000020000000000000000000000002000000000000000000000000000000000000000000000000000020220000200200000000000000000000000000000000000000000000000000000000",
      "type": "0x2",
      "transactionHash": "0x34a2b48b9a9a99501ac70aee5fee316c4b5eb063300a3f426977e1664f7c3be5",
      "transactionIndex": "0xca",
      "blockHash": "0xb55ac8ef22e6614b9aef71cce5aef415c1093eae8a44d0980cca77776518ebbb",
      "blockNumber": "0x83ba10",
      "gasUsed": "0x957fd",
      "effectiveGasPrice": "0x14a17006",
      "from": "0x129aa6ab9afc5135a72cef4868175cf906942a14",
      "to": "0x05d56701d4878ccef19b681460343380420a8651",
      "contractAddress": null
    }
  ],
  "libraries": [],
  "pending": [],
  "returns": {},
  "timestamp": 1750938590,
  "chain": 11155111,
  "commit": null
}