{
  "transactions": [
    {
      "hash": "0x5fdf34d3e9a1405df1fd63399e24ed0ea42a2048b769be31e288ce19fd26815c",
      "transactionType": "CALL",
      "contractName": null,
      "contractAddress": "0x5dbf0c030fcdfaf95cbc1789bdd58cfae82f05e8",
      "function": "trade(address,address,uint256,uint256)",
      "arguments": [
        "0xcE23256ae677765a41E8D7E4d099359771615ca4",
        "0x2AE29E74B7c1B3d4BD5484f26918bE598eAa39F2",
        "1",
        "4000"
      ],
      "transaction": {
        "from": "0xce23256ae677765a41e8d7e4d099359771615ca4",
        "to": "0x5dbf0c030fcdfaf95cbc1789bdd58cfae82f05e8",
        "gas": "0x210a7",
        "value": "0x0",
        "input": "0x4849b6c8000000000000000000000000ce23256ae677765a41e8d7e4d099359771615ca40000000000000000000000002ae29e74b7c1b3d4bd5484f26918be598eaa39f200000000000000000000000000000000000000000000000000000000000000010000000000000000000000000000000000000000000000000000000000000fa0",
        "nonce": "0xc7",
        "chainId": "0xaa36a7"
      },
      "additionalContracts": [],
      "isFixedGasLimit": false
    }
  ],
  "receipts": [
    {
      "status": "0x1",
      "cumulativeGasUsed": "0x15826e7",
      "logs": [
        {
          "address": "0x5dbf0c030fcdfaf95cbc1789bdd58cfae82f05e8",
          "topics": [
            "0x4b5796113f074ebf8f11d5bcdeb6349b2fbe47abed78419cdcdbbc15c6fcf845",
            "0x000000000000000000000000ce23256ae677765a41e8d7e4d099359771615ca4",
            "0x0000000000000000000000002ae29e74b7c1b3d4bd5484f26918be598eaa39f2",
            "0x0000000000000000000000000000000000000000000000000000000000000001"
          ],
          "data": "0x0000000000000000000000000000000000000000000000000000000000000fa0",
          "blockHash": "0x29c4d54a420f7c138ea9bddada4f99b6d48cf8c06540d9d3c00db41c4f60457d",
          "blockNumber": "0x83a961",
          "blockTimestamp": "0x685c6a64",
          "transactionHash": "0x5fdf34d3e9a1405df1fd63399e24ed0ea42a2048b769be31e288ce19fd26815c",
          "transactionIndex": "0x69",
          "logIndex": "0x90",
          "removed": false
        },
        {
          "address": "0x5dbf0c030fcdfaf95cbc1789bdd58cfae82f05e8",
          "topics": [
            "0x8c5be1e5ebec7d5bd14f71427d1e84f3dd0314c0f7b2291e5b200ac8c7c3b925",
            "0x000000000000000000000000ce23256ae677765a41e8d7e4d099359771615ca4",
            "0x0000000000000000000000000000000000000000000000000000000000000000",
            "0x0000000000000000000000000000000000000000000000000000000000000001"
          ],
          "data": "0x",
          "blockHash": "0x29c4d54a420f7c138ea9bddada4f99b6d48cf8c06540d9d3c00db41c4f60457d",
          "blockNumber": "0x83a961",
          "blockTimestamp": "0x685c6a64",
          "transactionHash": "0x5fdf34d3e9a1405df1fd63399e24ed0ea42a2048b769be31e288ce19fd26815c",
          "transactionIndex": "0x69",
          "logIndex": "0x91",
          "removed": false
        },
        {
          "address": "0x5dbf0c030fcdfaf95cbc1789bdd58cfae82f05e8",
          "topics": [
            "0xddf252ad1be2c89b69c2b068fc378daa952ba7f163c4a11628f55a4df523b3ef",
            "0x000000000000000000000000ce23256ae677765a41e8d7e4d099359771615ca4",
            "0x0000000000000000000000002ae29e74b7c1b3d4bd5484f26918be598eaa39f2",
            "0x0000000000000000000000000000000000000000000000000000000000000001"
          ],
          "data": "0x",
          "blockHash": "0x29c4d54a420f7c138ea9bddada4f99b6d48cf8c06540d9d3c00db41c4f60457d",
          "blockNumber": "0x83a961",
          "blockTimestamp": "0x685c6a64",
          "transactionHash": "0x5fdf34d3e9a1405df1fd63399e24ed0ea42a2048b769be31e288ce19fd26815c",
          "transactionIndex": "0x69",
          "logIndex": "0x92",
          "removed": false
        }
      ],
      "logsBloom": "0x00000000000000000000080000001000000000000000000000400800000000000000000000000000000000000000000000000000000080000000000000240000000000000000000000000008000000000000000000041000000000000000000000000000020000000000000000000800000000000000000000000010000000000000000000000100000000000000000000000000000000000000000000000000020000000000000000000400000000000000000000000000000001120000000000000002000000000000000000000000000000000000000000000000000460000010000000000000000000000000000000000000000000000000000000000000",
      "type": "0x2",
      "transactionHash": "0x5fdf34d3e9a1405df1fd63399e24ed0ea42a2048b769be31e288ce19fd26815c",
      "transactionIndex": "0x69",
      "blockHash": "0x29c4d54a420f7c138ea9bddada4f99b6d48cf8c06540d9d3c00db41c4f60457d",
      "blockNumber": "0x83a961",
      "gasUsed": "0x17ebd",
      "effectiveGasPrice": "0x4809ae0",
      "from": "0xce23256ae677765a41e8d7e4d099359771615ca4",
      "to": "0x5dbf0c030fcdfaf95cbc1789bdd58cfae82f05e8",
      "contractAddress": null
    }
  ],
  "libraries": [],
  "pending": [],
  "returns": {},
  "timestamp": 1750887013,
  "chain": 11155111,
  "commit": null
}