{
  "transactions": [
    {
      "hash": "0x60e187154c2aa34b3852876825df78316524a3649f045228c955ddc0c4e8b1d6",
      "transactionType": "CALL",
      "contractName": null,
      "contractAddress": "0x80cf106b844597ccd7689790167835dd64de0e99",
      "function": "buy(address,uint256,uint256)",
      "arguments": [
        "0xcE23256ae677765a41E8D7E4d099359771615ca4",
        "1000",
        "2"
      ],
      "transaction": {
        "from": "0xce23256ae677765a41e8d7e4d099359771615ca4",
        "to": "0x80cf106b844597ccd7689790167835dd64de0e99",
        "gas": "0x7a490",
        "value": "0x0",
        "input": "0xa59ac6dd000000000000000000000000ce23256ae677765a41e8d7e4d099359771615ca400000000000000000000000000000000000000000000000000000000000003e80000000000000000000000000000000000000000000000000000000000000002",
        "nonce": "0xb2",
        "chainId": "0xaa36a7"
      },
      "additionalContracts": [],
      "isFixedGasLimit": false
    }
  ],
  "receipts": [
    {
      "status": "0x1",
      "cumulativeGasUsed": "0xf4dfbf",
      "logs": [
        {
          "address": "0x80cf106b844597ccd7689790167835dd64de0e99",
          "topics": [
            "0xddf252ad1be2c89b69c2b068fc378daa952ba7f163c4a11628f55a4df523b3ef",
            "0x0000000000000000000000000000000000000000000000000000000000000000",
            "0x000000000000000000000000ce23256ae677765a41e8d7e4d099359771615ca4",
            "0x0000000000000000000000000000000000000000000000000000000000000004"
          ],
          "data": "0x",
          "blockHash": "0x54b9d1cb59db4022501b9a4efd31f30ce63bd9f176e08533869ca719c8f5f087",
          "blockNumber": "0x83a884",
          "blockTimestamp": "0x685c5ffc",
          "transactionHash": "0x60e187154c2aa34b3852876825df78316524a3649f045228c955ddc0c4e8b1d6",
          "transactionIndex": "0x52",
          "logIndex": "0xa3",
          "removed": false
        },
        {
          "address": "0x80cf106b844597ccd7689790167835dd64de0e99",
          "topics": [
            "0x1cbc5ab135991bd2b6a4b034a04aa2aa086dac1371cb9b16b8b5e2ed6b036bed",
            "0x000000000000000000000000ce23256ae677765a41e8d7e4d099359771615ca4",
            "0x0000000000000000000000000000000000000000000000000000000000000004"
          ],
          "data": "0x00000000000000000000000000000000000000000000000000000000000003e8",
          "blockHash": "0x54b9d1cb59db4022501b9a4efd31f30ce63bd9f176e08533869ca719c8f5f087",
          "blockNumber": "0x83a884",
          "blockTimestamp": "0x685c5ffc",
          "transactionHash": "0x60e187154c2aa34b3852876825df78316524a3649f045228c955ddc0c4e8b1d6",
          "transactionIndex": "0x52",
          "logIndex": "0xa4",
          "removed": false
        },
        {
          "address": "0x80cf106b844597ccd7689790167835dd64de0e99",
          "topics": [
            "0xddf252ad1be2c89b69c2b068fc378daa952ba7f163c4a11628f55a4df523b3ef",
            "0x0000000000000000000000000000000000000000000000000000000000000000",
            "0x000000000000000000000000ce23256ae677765a41e8d7e4d099359771615ca4",
            "0x0000000000000000000000000000000000000000000000000000000000000005"
          ],
          "data": "0x",
          "blockHash": "0x54b9d1cb59db4022501b9a4efd31f30ce63bd9f176e08533869ca719c8f5f087",
          "blockNumber": "0x83a884",
          "blockTimestamp": "0x685c5ffc",
          "transactionHash": "0x60e187154c2aa34b3852876825df78316524a3649f045228c955ddc0c4e8b1d6",
          "transactionIndex": "0x52",
          "logIndex": "0xa5",
          "removed": false
        },
        {
          "address": "0x80cf106b844597ccd7689790167835dd64de0e99",
          "topics": [
            "0x1cbc5ab135991bd2b6a4b034a04aa2aa086dac1371cb9b16b8b5e2ed6b036bed",
            "0x000000000000000000000000ce23256ae677765a41e8d7e4d099359771615ca4",
            "0x0000000000000000000000000000000000000000000000000000000000000005"
          ],
          "data": "0x00000000000000000000000000000000000000000000000000000000000003e8",
          "blockHash": "0x54b9d1cb59db4022501b9a4efd31f30ce63bd9f176e08533869ca719c8f5f087",
          "blockNumber": "0x83a884",
          "blockTimestamp": "0x685c5ffc",
          "transactionHash": "0x60e187154c2aa34b3852876825df78316524a3649f045228c955ddc0c4e8b1d6",
          "transactionIndex": "0x52",
          "logIndex": "0xa6",
          "removed": false
        }
      ],
      "logsBloom": "0x00000000000000000000000000000000000000000000000000400000000000000008000200000000000000000000000000000000000000000000000000000000000010008000000000000008000000000000000000001000000000000000000008000000020000000000000000000800000000000000000000000010000000000000000000000100000000000000001000000800000000000000000000000000000000000400000040000000000000000000000000000000002000000000000000000002000000000000000000000000000000008000000000080000000020000000000000000000000000000000000000000000000000000000000000000000",
      "type": "0x2",
      "transactionHash": "0x60e187154c2aa34b3852876825df78316524a3649f045228c955ddc0c4e8b1d6",
      "transactionIndex": "0x52",
      "blockHash": "0x54b9d1cb59db4022501b9a4efd31f30ce63bd9f176e08533869ca719c8f5f087",
      "blockNumber": "0x83a884",
      "gasUsed": "0x539d3",
      "effectiveGasPrice": "0x10649496",
      "from": "0xce23256ae677765a41e8d7e4d099359771615ca4",
      "to": "0x80cf106b844597ccd7689790167835dd64de0e99",
      "contractAddress": null
    }
  ],
  "libraries": [],
  "pending": [],
  "returns": {},
  "timestamp": 1750884349,
  "chain": 11155111,
  "commit": null
}