{
  "transactions": [
    {
      "hash": "0x990a60adf735e847fc22d15752d19ef3a97ddcfde490c79ba8b22ae6ba2fdc14",
      "transactionType": "CALL",
      "contractName": null,
      "contractAddress": "0x05d56701d4878ccef19b681460343380420a8651",
      "function": "buy(uint256,uint256)",
      "arguments": [
        "1000",
        "4"
      ],
      "transaction": {
        "from": "0xce23256ae677765a41e8d7e4d099359771615ca4",
        "to": "0x05d56701d4878ccef19b681460343380420a8651",
        "gas": "0xd3be6",
        "value": "0x0",
        "input": "0xd6febde800000000000000000000000000000000000000000000000000000000000003e80000000000000000000000000000000000000000000000000000000000000004",
        "nonce": "0xf0",
        "chainId": "0xaa36a7"
      },
      "additionalContracts": [],
      "isFixedGasLimit": false
    }
  ],
  "receipts": [
    {
      "status": "0x1",
      "cumulativeGasUsed": "0xdd60dc",
      "logs": [
        {
          "address": "0x05d56701d4878ccef19b681460343380420a8651",
          "topics": [
            "0xddf252ad1be2c89b69c2b068fc378daa952ba7f163c4a11628f55a4df523b3ef",
            "0x0000000000000000000000000000000000000000000000000000000000000000",
            "0x000000000000000000000000ce23256ae677765a41e8d7e4d099359771615ca4",
            "0x0000000000000000000000000000000000000000000000000000000000000004"
          ],
          "data": "0x",
          "blockHash": "0x101a3aef3a7380c49d5e997a9f200efb397a7d2f3baabf95e82e378a08e7afc5",
          "blockNumber": "0x83ad5b",
          "blockTimestamp": "0x685c9a58",
          "transactionHash": "0x990a60adf735e847fc22d15752d19ef3a97ddcfde490c79ba8b22ae6ba2fdc14",
          "transactionIndex": "0x9f",
          "logIndex": "0xb9",
          "removed": false
        },
        {
          "address": "0x05d56701d4878ccef19b681460343380420a8651",
          "topics": [
            "0x1cbc5ab135991bd2b6a4b034a04aa2aa086dac1371cb9b16b8b5e2ed6b036bed",
            "0x000000000000000000000000ce23256ae677765a41e8d7e4d099359771615ca4",
            "0x0000000000000000000000000000000000000000000000000000000000000004"
          ],
          "data": "0x00000000000000000000000000000000000000000000000000000000000003e8",
          "blockHash": "0x101a3aef3a7380c49d5e997a9f200efb397a7d2f3baabf95e82e378a08e7afc5",
          "blockNumber": "0x83ad5b",
          "blockTimestamp": "0x685c9a58",
          "transactionHash": "0x990a60adf735e847fc22d15752d19ef3a97ddcfde490c79ba8b22ae6ba2fdc14",
          "transactionIndex": "0x9f",
          "logIndex": "0xba",
          "removed": false
        },
        {
          "address": "0x05d56701d4878ccef19b681460343380420a8651",
          "topics": [
            "0xddf252ad1be2c89b69c2b068fc378daa952ba7f163c4a11628f55a4df523b3ef",
            "0x0000000000000000000000000000000000000000000000000000000000000000",
            "0x000000000000000000000000ce23256ae677765a41e8d7e4d099359771615ca4",
            "0x0000000000000000000000000000000000000000000000000000000000000005"
          ],
          "data": "0x",
          "blockHash": "0x101a3aef3a7380c49d5e997a9f200efb397a7d2f3baabf95e82e378a08e7afc5",
          "blockNumber": "0x83ad5b",
          "blockTimestamp": "0x685c9a58",
          "transactionHash": "0x990a60adf735e847fc22d15752d19ef3a97ddcfde490c79ba8b22ae6ba2fdc14",
          "transactionIndex": "0x9f",
          "logIndex": "0xbb",
          "removed": false
        },
        {
          "address": "0x05d56701d4878ccef19b681460343380420a8651",
          "topics": [
            "0x1cbc5ab135991bd2b6a4b034a04aa2aa086dac1371cb9b16b8b5e2ed6b036bed",
            "0x000000000000000000000000ce23256ae677765a41e8d7e4d099359771615ca4",
            "0x0000000000000000000000000000000000000000000000000000000000000005"
          ],
          "data": "0x00000000000000000000000000000000000000000000000000000000000003e8",
          "blockHash": "0x101a3aef3a7380c49d5e997a9f200efb397a7d2f3baabf95e82e378a08e7afc5",
          "blockNumber": "0x83ad5b",
          "blockTimestamp": "0x685c9a58",
          "transactionHash": "0x990a60adf735e847fc22d15752d19ef3a97ddcfde490c79ba8b22ae6ba2fdc14",
          "transactionIndex": "0x9f",
          "logIndex": "0xbc",
          "removed": false
        },
        {
          "address": "0x05d56701d4878ccef19b681460343380420a8651",
          "topics": [
            "0xddf252ad1be2c89b69c2b068fc378daa952ba7f163c4a11628f55a4df523b3ef",
            "0x0000000000000000000000000000000000000000000000000000000000000000",
            "0x000000000000000000000000ce23256ae677765a41e8d7e4d099359771615ca4",
            "0x0000000000000000000000000000000000000000000000000000000000000006"
          ],
          "data": "0x",
          "blockHash": "0x101a3aef3a7380c49d5e997a9f200efb397a7d2f3baabf95e82e378a08e7afc5",
          "blockNumber": "0x83ad5b",
          "blockTimestamp": "0x685c9a58",
          "transactionHash": "0x990a60adf735e847fc22d15752d19ef3a97ddcfde490c79ba8b22ae6ba2fdc14",
          "transactionIndex": "0x9f",
          "logIndex": "0xbd",
          "removed": false
        },
        {
          "address": "0x05d56701d4878ccef19b681460343380420a8651",
          "topics": [
            "0x1cbc5ab135991bd2b6a4b034a04aa2aa086dac1371cb9b16b8b5e2ed6b036bed",
            "0x000000000000000000000000ce23256ae677765a41e8d7e4d099359771615ca4",
            "0x0000000000000000000000000000000000000000000000000000000000000006"
          ],
          "data": "0x00000000000000000000000000000000000000000000000000000000000003e8",
          "blockHash": "0x101a3aef3a7380c49d5e997a9f200efb397a7d2f3baabf95e82e378a08e7afc5",
          "blockNumber": "0x83ad5b",
          "blockTimestamp": "0x685c9a58",
          "transactionHash": "0x990a60adf735e847fc22d15752d19ef3a97ddcfde490c79ba8b22ae6ba2fdc14",
          "transactionIndex": "0x9f",
          "logIndex": "0xbe",
          "removed": false
        },
        {
          "address": "0x05d56701d4878ccef19b681460343380420a8651",
          "topics": [
            "0xddf252ad1be2c89b69c2b068fc378daa952ba7f163c4a11628f55a4df523b3ef",
            "0x0000000000000000000000000000000000000000000000000000000000000000",
            "0x000000000000000000000000ce23256ae677765a41e8d7e4d099359771615ca4",
            "0x0000000000000000000000000000000000000000000000000000000000000007"
          ],
          "data": "0x",
          "blockHash": "0x101a3aef3a7380c49d5e997a9f200efb397a7d2f3baabf95e82e378a08e7afc5",
          "blockNumber": "0x83ad5b",
          "blockTimestamp": "0x685c9a58",
          "transactionHash": "0x990a60adf735e847fc22d15752d19ef3a97ddcfde490c79ba8b22ae6ba2fdc14",
          "transactionIndex": "0x9f",
          "logIndex": "0xbf",
          "removed": false
        },
        {
          "address": "0x05d56701d4878ccef19b681460343380420a8651",
          "topics": [
            "0x1cbc5ab135991bd2b6a4b034a04aa2aa086dac1371cb9b16b8b5e2ed6b036bed",
            "0x000000000000000000000000ce23256ae677765a41e8d7e4d099359771615ca4",
            "0x0000000000000000000000000000000000000000000000000000000000000007"
          ],
          "data": "0x00000000000000000000000000000000000000000000000000000000000003e8",
          "blockHash": "0x101a3aef3a7380c49d5e997a9f200efb397a7d2f3baabf95e82e378a08e7afc5",
          "blockNumber": "0x83ad5b",
          "blockTimestamp": "0x685c9a58",
          "transactionHash": "0x990a60adf735e847fc22d15752d19ef3a97ddcfde490c79ba8b22ae6ba2fdc14",
          "transactionIndex": "0x9f",
          "logIndex": "0xc0",
          "removed": false
        }
      ],
      "logsBloom": "0x00000000000000000000000000000000000000000000000000400020000000000000000200000000000000000000000000001000000400000000000000000000000030000000000000000008000000000000000000001000000000000000000008000000020000000000000000000800000000000000000000000010000000000000000400000100000000000000001000000800000000000000000000000000000000000400000040000000200000000000000000000000002000080000000000000002000000000000000000000000000000008000000000000100000020000000200000000000000000000000000000000000000000000000000000000000",
      "type": "0x2",
      "transactionHash": "0x990a60adf735e847fc22d15752d19ef3a97ddcfde490c79ba8b22ae6ba2fdc14",
      "transactionIndex": "0x9f",
      "blockHash": "0x101a3aef3a7380c49d5e997a9f200efb397a7d2f3baabf95e82e378a08e7afc5",
      "blockNumber": "0x83ad5b",
      "gasUsed": "0x994c8",
      "effectiveGasPrice": "0x24e6f4",
      "from": "0xce23256ae677765a41e8d7e4d099359771615ca4",
      "to": "0x05d56701d4878ccef19b681460343380420a8651",
      "contractAddress": null
    }
  ],
  "libraries": [],
  "pending": [],
  "returns": {},
  "timestamp": 1750899289,
  "chain": 11155111,
  "commit": null
}