{
  "transactions": [
    {
      "hash": "0x8267738981a9943e107eb28466b8949f1441e23539bc00cd3b9782babbb11f3c",
      "transactionType": "CALL",
      "contractName": null,
      "contractAddress": "0xe4c2f1c920dfc99ad1ea84180f2a69ce24c8f554",
      "function": "putOnSale(uint256,uint256)",
      "arguments": [
        "1",
        "4000"
      ],
      "transaction": {
        "from": "0xce23256ae677765a41e8d7e4d099359771615ca4",
        "to": "0xe4c2f1c920dfc99ad1ea84180f2a69ce24c8f554",
        "gas": "0x23084",
        "value": "0x0",
        "input": "0x36f7992b00000000000000000000000000000000000000000000000000000000000000010000000000000000000000000000000000000000000000000000000000000fa0",
        "nonce": "0xa5",
        "chainId": "0xaa36a7"
      },
      "additionalContracts": [],
      "isFixedGasLimit": false
    }
  ],
  "receipts": [
    {
      "status": "0x1",
      "cumulativeGasUsed": "0xe945ec",
      "logs": [
        {
          "address": "0xe4c2f1c920dfc99ad1ea84180f2a69ce24c8f554",
          "topics": [
            "0x7c11ba8301c87f8a6d59779bcbe2b7446e865bd1a4359a69e5c400212e0a5795",
            "0x0000000000000000000000000000000000000000000000000000000000000001"
          ],
          "data": "0x0000000000000000000000000000000000000000000000000000000000000fa0",
          "blockHash": "0x265cdb2d5a5fa71cc6678709a4fab9afda914de827dee433b8ecc305fc8dfbd7",
          "blockNumber": "0x83a6e9",
          "blockTimestamp": "0x685c4ca0",
          "transactionHash": "0x8267738981a9943e107eb28466b8949f1441e23539bc00cd3b9782babbb11f3c",
          "transactionIndex": "0x14f",
          "logIndex": "0x8c",
          "removed": false
        }
      ],
      "logsBloom": "0x00000000000000000000000000000000000000000000000000000000000000000000000000000000000000000000000000000000000000000000000000040000000000000000000000000000000000000000000100040000000000000000400000000000000000000000000000000000000000000000000000000000000000000000000000000000000000000000000000000000000000000000000000200000400000000000000000000000000000000000000000000000000000000000000000000000000000000000000200000000000000000000000000000000000040000000000000000000000000000040000000000000000000000000000000000000",
      "type": "0x2",
      "transactionHash": "0x8267738981a9943e107eb28466b8949f1441e23539bc00cd3b9782babbb11f3c",
      "transactionIndex": "0x14f",
      "blockHash": "0x265cdb2d5a5fa71cc6678709a4fab9afda914de827dee433b8ecc305fc8dfbd7",
      "blockNumber": "0x83a6e9",
      "gasUsed": "0x17f43",
      "effectiveGasPrice": "0x47bcaa60",
      "from": "0xce23256ae677765a41e8d7e4d099359771615ca4",
      "to": "0xe4c2f1c920dfc99ad1ea84180f2a69ce24c8f554",
      "contractAddress": null
    }
  ],
  "libraries": [],
  "pending": [],
  "returns": {},
  "timestamp": 1750879387,
  "chain": 11155111,
  "commit": null
}