{
  "transactions": [
    {
      "hash": "0x103c52e1a020ac9b42e6f4d56568a1988f33031a0c1b1405fc76cd3cca8e66d5",
      "transactionType": "CALL",
      "contractName": null,
      "contractAddress": "0x05d56701d4878ccef19b681460343380420a8651",
      "function": "buy(uint256,uint256)",
      "arguments": [
        "1000",
        "4"
      ],
      "transaction": {
        "from": "0xce23256ae677765a41e8d7e4d099359771615ca4",
        "to": "0x05d56701d4878ccef19b681460343380420a8651",
        "gas": "0xd3be6",
        "value": "0x0",
        "input": "0xd6febde800000000000000000000000000000000000000000000000000000000000003e80000000000000000000000000000000000000000000000000000000000000004",
        "nonce": "0xf1",
        "chainId": "0xaa36a7"
      },
      "additionalContracts": [],
      "isFixedGasLimit": false
    }
  ],
  "receipts": [
    {
      "status": "0x1",
      "cumulativeGasUsed": "0x1b47817",
      "logs": [
        {
          "address": "0x05d56701d4878ccef19b681460343380420a8651",
          "topics": [
            "0xddf252ad1be2c89b69c2b068fc378daa952ba7f163c4a11628f55a4df523b3ef",
            "0x0000000000000000000000000000000000000000000000000000000000000000",
            "0x000000000000000000000000ce23256ae677765a41e8d7e4d099359771615ca4",
            "0x0000000000000000000000000000000000000000000000000000000000000008"
          ],
          "data": "0x",
          "blockHash": "0x4cee07226ce9392faefba0612fa3ffdec7929cc1c1622b1ea22c3f3b08e466e2",
          "blockNumber": "0x83ad5f",
          "blockTimestamp": "0x685c9a94",
          "transactionHash": "0x103c52e1a020ac9b42e6f4d56568a1988f33031a0c1b1405fc76cd3cca8e66d5",
          "transactionIndex": "0x13c",
          "logIndex": "0x146",
          "removed": false
        },
        {
          "address": "0x05d56701d4878ccef19b681460343380420a8651",
          "topics": [
            "0x1cbc5ab135991bd2b6a4b034a04aa2aa086dac1371cb9b16b8b5e2ed6b036bed",
            "0x000000000000000000000000ce23256ae677765a41e8d7e4d099359771615ca4",
            "0x0000000000000000000000000000000000000000000000000000000000000008"
          ],
          "data": "0x00000000000000000000000000000000000000000000000000000000000003e8",
          "blockHash": "0x4cee07226ce9392faefba0612fa3ffdec7929cc1c1622b1ea22c3f3b08e466e2",
          "blockNumber": "0x83ad5f",
          "blockTimestamp": "0x685c9a94",
          "transactionHash": "0x103c52e1a020ac9b42e6f4d56568a1988f33031a0c1b1405fc76cd3cca8e66d5",
          "transactionIndex": "0x13c",
          "logIndex": "0x147",
          "removed": false
        },
        {
          "address": "0x05d56701d4878ccef19b681460343380420a8651",
          "topics": [
            "0xddf252ad1be2c89b69c2b068fc378daa952ba7f163c4a11628f55a4df523b3ef",
            "0x0000000000000000000000000000000000000000000000000000000000000000",
            "0x000000000000000000000000ce23256ae677765a41e8d7e4d099359771615ca4",
            "0x0000000000000000000000000000000000000000000000000000000000000009"
          ],
          "data": "0x",
          "blockHash": "0x4cee07226ce9392faefba0612fa3ffdec7929cc1c1622b1ea22c3f3b08e466e2",
          "blockNumber": "0x83ad5f",
          "blockTimestamp": "0x685c9a94",
          "transactionHash": "0x103c52e1a020ac9b42e6f4d56568a1988f33031a0c1b1405fc76cd3cca8e66d5",
          "transactionIndex": "0x13c",
          "logIndex": "0x148",
          "removed": false
        },
        {
          "address": "0x05d56701d4878ccef19b681460343380420a8651",
          "topics": [
            "0x1cbc5ab135991bd2b6a4b034a04aa2aa086dac1371cb9b16b8b5e2ed6b036bed",
            "0x000000000000000000000000ce23256ae677765a41e8d7e4d099359771615ca4",
            "0x0000000000000000000000000000000000000000000000000000000000000009"
          ],
          "data": "0x00000000000000000000000000000000000000000000000000000000000003e8",
          "blockHash": "0x4cee07226ce9392faefba0612fa3ffdec7929cc1c1622b1ea22c3f3b08e466e2",
          "blockNumber": "0x83ad5f",
          "blockTimestamp": "0x685c9a94",
          "transactionHash": "0x103c52e1a020ac9b42e6f4d56568a1988f33031a0c1b1405fc76cd3cca8e66d5",
          "transactionIndex": "0x13c",
          "logIndex": "0x149",
          "removed": false
        },
        {
          "address": "0x05d56701d4878ccef19b681460343380420a8651",
          "topics": [
            "0xddf252ad1be2c89b69c2b068fc378daa952ba7f163c4a11628f55a4df523b3ef",
            "0x0000000000000000000000000000000000000000000000000000000000000000",
            "0x000000000000000000000000ce23256ae677765a41e8d7e4d099359771615ca4",
            "0x000000000000000000000000000000000000000000000000000000000000000a"
          ],
          "data": "0x",
          "blockHash": "0x4cee07226ce9392faefba0612fa3ffdec7929cc1c1622b1ea22c3f3b08e466e2",
          "blockNumber": "0x83ad5f",
          "blockTimestamp": "0x685c9a94",
          "transactionHash": "0x103c52e1a020ac9b42e6f4d56568a1988f33031a0c1b1405fc76cd3cca8e66d5",
          "transactionIndex": "0x13c",
          "logIndex": "0x14a",
          "removed": false
        },
        {
          "address": "0x05d56701d4878ccef19b681460343380420a8651",
          "topics": [
            "0x1cbc5ab135991bd2b6a4b034a04aa2aa086dac1371cb9b16b8b5e2ed6b036bed",
            "0x000000000000000000000000ce23256ae677765a41e8d7e4d099359771615ca4",
            "0x000000000000000000000000000000000000000000000000000000000000000a"
          ],
          "data": "0x00000000000000000000000000000000000000000000000000000000000003e8",
          "blockHash": "0x4cee07226ce9392faefba0612fa3ffdec7929cc1c1622b1ea22c3f3b08e466e2",
          "blockNumber": "0x83ad5f",
          "blockTimestamp": "0x685c9a94",
          "transactionHash": "0x103c52e1a020ac9b42e6f4d56568a1988f33031a0c1b1405fc76cd3cca8e66d5",
          "transactionIndex": "0x13c",
          "logIndex": "0x14b",
          "removed": false
        },
        {
          "address": "0x05d56701d4878ccef19b681460343380420a8651",
          "topics": [
            "0xddf252ad1be2c89b69c2b068fc378daa952ba7f163c4a11628f55a4df523b3ef",
            "0x0000000000000000000000000000000000000000000000000000000000000000",
            "0x000000000000000000000000ce23256ae677765a41e8d7e4d099359771615ca4",
            "0x000000000000000000000000000000000000000000000000000000000000000b"
          ],
          "data": "0x",
          "blockHash": "0x4cee07226ce9392faefba0612fa3ffdec7929cc1c1622b1ea22c3f3b08e466e2",
          "blockNumber": "0x83ad5f",
          "blockTimestamp": "0x685c9a94",
          "transactionHash": "0x103c52e1a020ac9b42e6f4d56568a1988f33031a0c1b1405fc76cd3cca8e66d5",
          "transactionIndex": "0x13c",
          "logIndex": "0x14c",
          "removed": false
        },
        {
          "address": "0x05d56701d4878ccef19b681460343380420a8651",
          "topics": [
            "0x1cbc5ab135991bd2b6a4b034a04aa2aa086dac1371cb9b16b8b5e2ed6b036bed",
            "0x000000000000000000000000ce23256ae677765a41e8d7e4d099359771615ca4",
            "0x000000000000000000000000000000000000000000000000000000000000000b"
          ],
          "data": "0x00000000000000000000000000000000000000000000000000000000000003e8",
          "blockHash": "0x4cee07226ce9392faefba0612fa3ffdec7929cc1c1622b1ea22c3f3b08e466e2",
          "blockNumber": "0x83ad5f",
          "blockTimestamp": "0x685c9a94",
          "transactionHash": "0x103c52e1a020ac9b42e6f4d56568a1988f33031a0c1b1405fc76cd3cca8e66d5",
          "transactionIndex": "0x13c",
          "logIndex": "0x14d",
          "removed": false
        }
      ],
      "logsBloom": "0x00000000000000000000004000000000000000000000000000400020000000000000000200000000000000000000000000000000040080000020000000200000000000000000000000000008000000000000000000001000000000000000000000000000020000000000000000000800000000000000000000000010000000000080000000000100010000000000000000001000000000000000000000000000000000000400000040000000200000000000000000000000000000000000000040000002000000000000000000000000002000000000000000000000000020000000200000000000000000000000000000000000000000040000000000800000",
      "type": "0x2",
      "transactionHash": "0x103c52e1a020ac9b42e6f4d56568a1988f33031a0c1b1405fc76cd3cca8e66d5",
      "transactionIndex": "0x13c",
      "blockHash": "0x4cee07226ce9392faefba0612fa3ffdec7929cc1c1622b1ea22c3f3b08e466e2",
      "blockNumber": "0x83ad5f",
      "gasUsed": "0x994c8",
      "effectiveGasPrice": "0x21152f",
      "from": "0xce23256ae677765a41e8d7e4d099359771615ca4",
      "to": "0x05d56701d4878ccef19b681460343380420a8651",
      "contractAddress": null
    }
  ],
  "libraries": [],
  "pending": [],
  "returns": {},
  "timestamp": 1750899349,
  "chain": 11155111,
  "commit": null
}