{
  "transactions": [
    {
      "hash": "0x465a2e22eb1b3bd57e5adda73524a1b301d79df60652f2d321c4d0c204c9dd47",
      "transactionType": "CALL",
      "contractName": null,
      "contractAddress": "0x560cb009b499015cadfab0a75b645183fdab44a6",
      "function": "buy(address,uint256,uint256)",
      "arguments": [
        "0x2AE29E74B7c1B3d4BD5484f26918bE598eAa39F2",
        "1000",
        "4"
      ],
      "transaction": {
        "from": "0xce23256ae677765a41e8d7e4d099359771615ca4",
        "to": "0x560cb009b499015cadfab0a75b645183fdab44a6",
        "gas": "0xcf7da",
        "value": "0x0",
        "input": "0xa59ac6dd0000000000000000000000002ae29e74b7c1b3d4bd5484f26918be598eaa39f200000000000000000000000000000000000000000000000000000000000003e80000000000000000000000000000000000000000000000000000000000000004",
        "nonce": "0x9a",
        "chainId": "0xaa36a7"
      },
      "additionalContracts": [],
      "isFixedGasLimit": false
    }
  ],
  "receipts": [
    {
      "status": "0x1",
      "cumulativeGasUsed": "0x18e11dc",
      "logs": [
        {
          "address": "0x560cb009b499015cadfab0a75b645183fdab44a6",
          "topics": [
            "0xddf252ad1be2c89b69c2b068fc378daa952ba7f163c4a11628f55a4df523b3ef",
            "0x0000000000000000000000000000000000000000000000000000000000000000",
            "0x0000000000000000000000002ae29e74b7c1b3d4bd5484f26918be598eaa39f2",
            "0x0000000000000000000000000000000000000000000000000000000000000004"
          ],
          "data": "0x",
          "blockHash": "0x12f351649f8f3ea1706d43252dde83f9889d38160c0d6ed902e4c6341c5c5165",
          "blockNumber": "0x83a614",
          "blockTimestamp": "0x685c42a4",
          "transactionHash": "0x465a2e22eb1b3bd57e5adda73524a1b301d79df60652f2d321c4d0c204c9dd47",
          "transactionIndex": "0x74",
          "logIndex": "0xdb",
          "removed": false
        },
        {
          "address": "0x560cb009b499015cadfab0a75b645183fdab44a6",
          "topics": [
            "0x1cbc5ab135991bd2b6a4b034a04aa2aa086dac1371cb9b16b8b5e2ed6b036bed",
            "0x000000000000000000000000ce23256ae677765a41e8d7e4d099359771615ca4",
            "0x0000000000000000000000000000000000000000000000000000000000000004"
          ],
          "data": "0x00000000000000000000000000000000000000000000000000000000000003e8",
          "blockHash": "0x12f351649f8f3ea1706d43252dde83f9889d38160c0d6ed902e4c6341c5c5165",
          "blockNumber": "0x83a614",
          "blockTimestamp": "0x685c42a4",
          "transactionHash": "0x465a2e22eb1b3bd57e5adda73524a1b301d79df60652f2d321c4d0c204c9dd47",
          "transactionIndex": "0x74",
          "logIndex": "0xdc",
          "removed": false
        },
        {
          "address": "0x560cb009b499015cadfab0a75b645183fdab44a6",
          "topics": [
            "0xddf252ad1be2c89b69c2b068fc378daa952ba7f163c4a11628f55a4df523b3ef",
            "0x0000000000000000000000000000000000000000000000000000000000000000",
            "0x0000000000000000000000002ae29e74b7c1b3d4bd5484f26918be598eaa39f2",
            "0x0000000000000000000000000000000000000000000000000000000000000005"
          ],
          "data": "0x",
          "blockHash": "0x12f351649f8f3ea1706d43252dde83f9889d38160c0d6ed902e4c6341c5c5165",
          "blockNumber": "0x83a614",
          "blockTimestamp": "0x685c42a4",
          "transactionHash": "0x465a2e22eb1b3bd57e5adda73524a1b301d79df60652f2d321c4d0c204c9dd47",
          "transactionIndex": "0x74",
          "logIndex": "0xdd",
          "removed": false
        },
        {
          "address": "0x560cb009b499015cadfab0a75b645183fdab44a6",
          "topics": [
            "0x1cbc5ab135991bd2b6a4b034a04aa2aa086dac1371cb9b16b8b5e2ed6b036bed",
            "0x000000000000000000000000ce23256ae677765a41e8d7e4d099359771615ca4",
            "0x0000000000000000000000000000000000000000000000000000000000000005"
          ],
          "data": "0x00000000000000000000000000000000000000000000000000000000000003e8",
          "blockHash": "0x12f351649f8f3ea1706d43252dde83f9889d38160c0d6ed902e4c6341c5c5165",
          "blockNumber": "0x83a614",
          "blockTimestamp": "0x685c42a4",
          "transactionHash": "0x465a2e22eb1b3bd57e5adda73524a1b301d79df60652f2d321c4d0c204c9dd47",
          "transactionIndex": "0x74",
          "logIndex": "0xde",
          "removed": false
        },
        {
          "address": "0x560cb009b499015cadfab0a75b645183fdab44a6",
          "topics": [
            "0xddf252ad1be2c89b69c2b068fc378daa952ba7f163c4a11628f55a4df523b3ef",
            "0x0000000000000000000000000000000000000000000000000000000000000000",
            "0x0000000000000000000000002ae29e74b7c1b3d4bd5484f26918be598eaa39f2",
            "0x0000000000000000000000000000000000000000000000000000000000000006"
          ],
          "data": "0x",
          "blockHash": "0x12f351649f8f3ea1706d43252dde83f9889d38160c0d6ed902e4c6341c5c5165",
          "blockNumber": "0x83a614",
          "blockTimestamp": "0x685c42a4",
          "transactionHash": "0x465a2e22eb1b3bd57e5adda73524a1b301d79df60652f2d321c4d0c204c9dd47",
          "transactionIndex": "0x74",
          "logIndex": "0xdf",
          "removed": false
        },
        {
          "address": "0x560cb009b499015cadfab0a75b645183fdab44a6",
          "topics": [
            "0x1cbc5ab135991bd2b6a4b034a04aa2aa086dac1371cb9b16b8b5e2ed6b036bed",
            "0x000000000000000000000000ce23256ae677765a41e8d7e4d099359771615ca4",
            "0x0000000000000000000000000000000000000000000000000000000000000006"
          ],
          "data": "0x00000000000000000000000000000000000000000000000000000000000003e8",
          "blockHash": "0x12f351649f8f3ea1706d43252dde83f9889d38160c0d6ed902e4c6341c5c5165",
          "blockNumber": "0x83a614",
          "blockTimestamp": "0x685c42a4",
          "transactionHash": "0x465a2e22eb1b3bd57e5adda73524a1b301d79df60652f2d321c4d0c204c9dd47",
          "transactionIndex": "0x74",
          "logIndex": "0xe0",
          "removed": false
        },
        {
          "address": "0x560cb009b499015cadfab0a75b645183fdab44a6",
          "topics": [
            "0xddf252ad1be2c89b69c2b068fc378daa952ba7f163c4a11628f55a4df523b3ef",
            "0x0000000000000000000000000000000000000000000000000000000000000000",
            "0x0000000000000000000000002ae29e74b7c1b3d4bd5484f26918be598eaa39f2",
            "0x0000000000000000000000000000000000000000000000000000000000000007"
          ],
          "data": "0x",
          "blockHash": "0x12f351649f8f3ea1706d43252dde83f9889d38160c0d6ed902e4c6341c5c5165",
          "blockNumber": "0x83a614",
          "blockTimestamp": "0x685c42a4",
          "transactionHash": "0x465a2e22eb1b3bd57e5adda73524a1b301d79df60652f2d321c4d0c204c9dd47",
          "transactionIndex": "0x74",
          "logIndex": "0xe1",
          "removed": false
        },
        {
          "address": "0x560cb009b499015cadfab0a75b645183fdab44a6",
          "topics": [
            "0x1cbc5ab135991bd2b6a4b034a04aa2aa086dac1371cb9b16b8b5e2ed6b036bed",
            "0x000000000000000000000000ce23256ae677765a41e8d7e4d099359771615ca4",
            "0x0000000000000000000000000000000000000000000000000000000000000007"
          ],
          "data": "0x00000000000000000000000000000000000000000000000000000000000003e8",
          "blockHash": "0x12f351649f8f3ea1706d43252dde83f9889d38160c0d6ed902e4c6341c5c5165",
          "blockNumber": "0x83a614",
          "blockTimestamp": "0x685c42a4",
          "transactionHash": "0x465a2e22eb1b3bd57e5adda73524a1b301d79df60652f2d321c4d0c204c9dd47",
          "transactionIndex": "0x74",
          "logIndex": "0xe2",
          "removed": false
        }
      ],
      "logsBloom": "0x00000000000000000000000000000000000000000000000000400800000000000000000200000000000000000000000000001000000480000000000000000000000030000000000008000008000000000000000000001000000000000000000008000000020000000000000000080800000000000000000000000010000000000000000400000100000000000000001000000800000000000000000000000000000000000400000040000400000000000000000000000800002000080000000000000002000000000000000000000000000000008000000000000100000020000000000000000000000000000000000000000000000000000000000000000000",
      "type": "0x2",
      "transactionHash": "0x465a2e22eb1b3bd57e5adda73524a1b301d79df60652f2d321c4d0c204c9dd47",
      "transactionIndex": "0x74",
      "blockHash": "0x12f351649f8f3ea1706d43252dde83f9889d38160c0d6ed902e4c6341c5c5165",
      "blockNumber": "0x83a614",
      "gasUsed": "0x96384",
      "effectiveGasPrice": "0x48b5c68a",
      "from": "0xce23256ae677765a41e8d7e4d099359771615ca4",
      "to": "0x560cb009b499015cadfab0a75b645183fdab44a6",
      "contractAddress": null
    }
  ],
  "libraries": [],
  "pending": [],
  "returns": {},
  "timestamp": 1750876831,
  "chain": 11155111,
  "commit": null
}