{
  "transactions": [
    {
      "hash": "0xbe8f8d38d94d40308cf37832076dc287c836ef92230ef7ec2ce766f8ecf365f9",
      "transactionType": "CALL",
      "contractName": null,
      "contractAddress": "0x16461f2d02730b1e64ae2a5ce0bc06c91a9d8d00",
      "function": "buy(uint256,uint256)",
      "arguments": [
        "100",
        "4"
      ],
      "transaction": {
        "from": "0xce23256ae677765a41e8d7e4d099359771615ca4",
        "to": "0x16461f2d02730b1e64ae2a5ce0bc06c91a9d8d00",
        "gas": "0xe3533",
        "value": "0x0",
        "input": "0xd6febde800000000000000000000000000000000000000000000000000000000000000640000000000000000000000000000000000000000000000000000000000000004",
        "nonce": "0x90",
        "chainId": "0xaa36a7"
      },
      "additionalContracts": [],
      "isFixedGasLimit": false
    }
  ],
  "receipts": [
    {
      "status": "0x1",
      "cumulativeGasUsed": "0x22ca825",
      "logs": [
        {
          "address": "0x16461f2d02730b1e64ae2a5ce0bc06c91a9d8d00",
          "topics": [
            "0xddf252ad1be2c89b69c2b068fc378daa952ba7f163c4a11628f55a4df523b3ef",
            "0x0000000000000000000000000000000000000000000000000000000000000000",
            "0x000000000000000000000000ce23256ae677765a41e8d7e4d099359771615ca4",
            "0x0000000000000000000000000000000000000000000000000000000000000000"
          ],
          "data": "0x",
          "blockHash": "0x9def5934695158ce8c93cd393c3cd979f6b0059179c6ace9521257f96fa13b00",
          "blockNumber": "0x83a55f",
          "blockTimestamp": "0x685c3a28",
          "transactionHash": "0xbe8f8d38d94d40308cf37832076dc287c836ef92230ef7ec2ce766f8ecf365f9",
          "transactionIndex": "0x85",
          "logIndex": "0xcf",
          "removed": false
        },
        {
          "address": "0x16461f2d02730b1e64ae2a5ce0bc06c91a9d8d00",
          "topics": [
            "0x1cbc5ab135991bd2b6a4b034a04aa2aa086dac1371cb9b16b8b5e2ed6b036bed",
            "0x000000000000000000000000ce23256ae677765a41e8d7e4d099359771615ca4",
            "0x0000000000000000000000000000000000000000000000000000000000000000"
          ],
          "data": "0x0000000000000000000000000000000000000000000000000000000000000064",
          "blockHash": "0x9def5934695158ce8c93cd393c3cd979f6b0059179c6ace9521257f96fa13b00",
          "blockNumber": "0x83a55f",
          "blockTimestamp": "0x685c3a28",
          "transactionHash": "0xbe8f8d38d94d40308cf37832076dc287c836ef92230ef7ec2ce766f8ecf365f9",
          "transactionIndex": "0x85",
          "logIndex": "0xd0",
          "removed": false
        },
        {
          "address": "0x16461f2d02730b1e64ae2a5ce0bc06c91a9d8d00",
          "topics": [
            "0xddf252ad1be2c89b69c2b068fc378daa952ba7f163c4a11628f55a4df523b3ef",
            "0x0000000000000000000000000000000000000000000000000000000000000000",
            "0x000000000000000000000000ce23256ae677765a41e8d7e4d099359771615ca4",
            "0x0000000000000000000000000000000000000000000000000000000000000001"
          ],
          "data": "0x",
          "blockHash": "0x9def5934695158ce8c93cd393c3cd979f6b0059179c6ace9521257f96fa13b00",
          "blockNumber": "0x83a55f",
          "blockTimestamp": "0x685c3a28",
          "transactionHash": "0xbe8f8d38d94d40308cf37832076dc287c836ef92230ef7ec2ce766f8ecf365f9",
          "transactionIndex": "0x85",
          "logIndex": "0xd1",
          "removed": false
        },
        {
          "address": "0x16461f2d02730b1e64ae2a5ce0bc06c91a9d8d00",
          "topics": [
            "0x1cbc5ab135991bd2b6a4b034a04aa2aa086dac1371cb9b16b8b5e2ed6b036bed",
            "0x000000000000000000000000ce23256ae677765a41e8d7e4d099359771615ca4",
            "0x0000000000000000000000000000000000000000000000000000000000000001"
          ],
          "data": "0x0000000000000000000000000000000000000000000000000000000000000064",
          "blockHash": "0x9def5934695158ce8c93cd393c3cd979f6b0059179c6ace9521257f96fa13b00",
          "blockNumber": "0x83a55f",
          "blockTimestamp": "0x685c3a28",
          "transactionHash": "0xbe8f8d38d94d40308cf37832076dc287c836ef92230ef7ec2ce766f8ecf365f9",
          "transactionIndex": "0x85",
          "logIndex": "0xd2",
          "removed": false
        },
        {
          "address": "0x16461f2d02730b1e64ae2a5ce0bc06c91a9d8d00",
          "topics": [
            "0xddf252ad1be2c89b69c2b068fc378daa952ba7f163c4a11628f55a4df523b3ef",
            "0x0000000000000000000000000000000000000000000000000000000000000000",
            "0x000000000000000000000000ce23256ae677765a41e8d7e4d099359771615ca4",
            "0x0000000000000000000000000000000000000000000000000000000000000002"
          ],
          "data": "0x",
          "blockHash": "0x9def5934695158ce8c93cd393c3cd979f6b0059179c6ace9521257f96fa13b00",
          "blockNumber": "0x83a55f",
          "blockTimestamp": "0x685c3a28",
          "transactionHash": "0xbe8f8d38d94d40308cf37832076dc287c836ef92230ef7ec2ce766f8ecf365f9",
          "transactionIndex": "0x85",
          "logIndex": "0xd3",
          "removed": false
        },
        {
          "address": "0x16461f2d02730b1e64ae2a5ce0bc06c91a9d8d00",
          "topics": [
            "0x1cbc5ab135991bd2b6a4b034a04aa2aa086dac1371cb9b16b8b5e2ed6b036bed",
            "0x000000000000000000000000ce23256ae677765a41e8d7e4d099359771615ca4",
            "0x0000000000000000000000000000000000000000000000000000000000000002"
          ],
          "data": "0x0000000000000000000000000000000000000000000000000000000000000064",
          "blockHash": "0x9def5934695158ce8c93cd393c3cd979f6b0059179c6ace9521257f96fa13b00",
          "blockNumber": "0x83a55f",
          "blockTimestamp": "0x685c3a28",
          "transactionHash": "0xbe8f8d38d94d40308cf37832076dc287c836ef92230ef7ec2ce766f8ecf365f9",
          "transactionIndex": "0x85",
          "logIndex": "0xd4",
          "removed": false
        },
        {
          "address": "0x16461f2d02730b1e64ae2a5ce0bc06c91a9d8d00",
          "topics": [
            "0xddf252ad1be2c89b69c2b068fc378daa952ba7f163c4a11628f55a4df523b3ef",
            "0x0000000000000000000000000000000000000000000000000000000000000000",
            "0x000000000000000000000000ce23256ae677765a41e8d7e4d099359771615ca4",
            "0x0000000000000000000000000000000000000000000000000000000000000003"
          ],
          "data": "0x",
          "blockHash": "0x9def5934695158ce8c93cd393c3cd979f6b0059179c6ace9521257f96fa13b00",
          "blockNumber": "0x83a55f",
          "blockTimestamp": "0x685c3a28",
          "transactionHash": "0xbe8f8d38d94d40308cf37832076dc287c836ef92230ef7ec2ce766f8ecf365f9",
          "transactionIndex": "0x85",
          "logIndex": "0xd5",
          "removed": false
        },
        {
          "address": "0x16461f2d02730b1e64ae2a5ce0bc06c91a9d8d00",
          "topics": [
            "0x1cbc5ab135991bd2b6a4b034a04aa2aa086dac1371cb9b16b8b5e2ed6b036bed",
            "0x000000000000000000000000ce23256ae677765a41e8d7e4d099359771615ca4",
            "0x0000000000000000000000000000000000000000000000000000000000000003"
          ],
          "data": "0x0000000000000000000000000000000000000000000000000000000000000064",
          "blockHash": "0x9def5934695158ce8c93cd393c3cd979f6b0059179c6ace9521257f96fa13b00",
          "blockNumber": "0x83a55f",
          "blockTimestamp": "0x685c3a28",
          "transactionHash": "0xbe8f8d38d94d40308cf37832076dc287c836ef92230ef7ec2ce766f8ecf365f9",
          "transactionIndex": "0x85",
          "logIndex": "0xd6",
          "removed": false
        }
      ],
      "logsBloom": "0x04000000000000000000000000000000000000000000000000400000000000000000000200000000000000000000000000002000020000000000000000040000000000000000000000000008000000000000000000041000000000000000000000000000020000000000000000000800000000000000000000000010000000000000000000000100000000000000000000000000000000000000000000000000000000000400000040000100000000000000000400800000000000000000400000000002000000000000000000000000000000000000000000000000000064000000000000000000000000000000000000000000008000000000000000000000",
      "type": "0x2",
      "transactionHash": "0xbe8f8d38d94d40308cf37832076dc287c836ef92230ef7ec2ce766f8ecf365f9",
      "transactionIndex": "0x85",
      "blockHash": "0x9def5934695158ce8c93cd393c3cd979f6b0059179c6ace9521257f96fa13b00",
      "blockNumber": "0x83a55f",
      "gasUsed": "0x9b6fa",
      "effectiveGasPrice": "0x2ec07eba",
      "from": "0xce23256ae677765a41e8d7e4d099359771615ca4",
      "to": "0x16461f2d02730b1e64ae2a5ce0bc06c91a9d8d00",
      "contractAddress": null
    }
  ],
  "libraries": [],
  "pending": [],
  "returns": {},
  "timestamp": 1750874657,
  "chain": 11155111,
  "commit": null
}