{
  "transactions": [
    {
      "hash": "0xbf01b8dcae33fdf76bb5d1eb993ce1b5c1ddca61e2f7b25ceb9db5d44f9f008c",
      "transactionType": "CALL",
      "contractName": null,
      "contractAddress": "0xceca2e1bca3b27d8435f99f61cea52e51a8ee6cb",
      "function": "putOnSale(uint256,uint256)",
      "arguments": [
        "6",
        "40000000000000000000000"
      ],
      "transaction": {
        "from": "0x129aa6ab9afc5135a72cef4868175cf906942a14",
        "to": "0xceca2e1bca3b27d8435f99f61cea52e51a8ee6cb",
        "gas": "0x2382a",
        "value": "0x0",
        "input": "0x36f7992b0000000000000000000000000000000000000000000000000000000000000006000000000000000000000000000000000000000000000878678326eac9000000",
        "nonce": "0x8",
        "chainId": "0xaa36a7"
      },
      "additionalContracts": [],
      "isFixedGasLimit": false
    }
  ],
  "receipts": [
    {
      "status": "0x1",
      "cumulativeGasUsed": "0x19a4d08",
      "logs": [
        {
          "address": "0xceca2e1bca3b27d8435f99f61cea52e51a8ee6cb",
          "topics": [
            "0x7c11ba8301c87f8a6d59779bcbe2b7446e865bd1a4359a69e5c400212e0a5795",
            "0x0000000000000000000000000000000000000000000000000000000000000006"
          ],
          "data": "0x000000000000000000000000000000000000000000000878678326eac9000000",
          "blockHash": "0xbd5404da7cf4a539fd8f31c9fbbaa19791b5a66e79b32802ba01a1f274d6e0d1",
          "blockNumber": "0x8457e0",
          "blockTimestamp": "0x6864a140",
          "transactionHash": "0xbf01b8dcae33fdf76bb5d1eb993ce1b5c1ddca61e2f7b25ceb9db5d44f9f008c",
          "transactionIndex": "0x196",
          "logIndex": "0x2e5",
          "removed": false
        }
      ],
      "logsBloom": "0x00000000000000000000000000000000000000000000000000000000000000000000000000000000000000000000000000000000000400000000000000000000000000000000000000000000000000000000000100000000000000000000000000000000000000000000000000000040000000000000000000000000000000000000000400000000000000000000000000000000000000040000000000200000000000000000000000000000000000000000000000000000000000080000000000000000000000000000000200000000000000000000000000000000000000000000000000000000000008000000000000000000000000000000000000000000",
      "type": "0x2",
      "transactionHash": "0xbf01b8dcae33fdf76bb5d1eb993ce1b5c1ddca61e2f7b25ceb9db5d44f9f008c",
      "transactionIndex": "0x196",
      "blockHash": "0xbd5404da7cf4a539fd8f31c9fbbaa19791b5a66e79b32802ba01a1f274d6e0d1",
      "blockNumber": "0x8457e0",
      "gasUsed": "0x19b58",
      "effectiveGasPrice": "0x1ea10b4fe",
      "from": "0x129aa6ab9afc5135a72cef4868175cf906942a14",
      "to": "0xceca2e1bca3b27d8435f99f61cea52e51a8ee6cb",
      "contractAddress": null
    }
  ],
  "libraries": [],
  "pending": [],
  "returns": {},
  "timestamp": 1751425345,
  "chain": 11155111,
  "commit": null
}