{
  "transactions": [
    {
      "hash": "0xcbc516e2bd449737fd8aacb47f50a97f90983e63cc24885d4918d2d05f225b09",
      "transactionType": "CALL",
      "contractName": null,
      "contractAddress": "0x80cf106b844597ccd7689790167835dd64de0e99",
      "function": "buy(address,uint256,uint256)",
      "arguments": [
        "0xcE23256ae677765a41E8D7E4d099359771615ca4",
        "1000",
        "4"
      ],
      "transaction": {
        "from": "0xce23256ae677765a41e8d7e4d099359771615ca4",
        "to": "0x80cf106b844597ccd7689790167835dd64de0e99",
        "gas": "0xd3eb0",
        "value": "0x0",
        "input": "0xa59ac6dd000000000000000000000000ce23256ae677765a41e8d7e4d099359771615ca400000000000000000000000000000000000000000000000000000000000003e80000000000000000000000000000000000000000000000000000000000000004",
        "nonce": "0xb6",
        "chainId": "0xaa36a7"
      },
      "additionalContracts": [],
      "isFixedGasLimit": false
    }
  ],
  "receipts": [
    {
      "status": "0x1",
      "cumulativeGasUsed": "0x1e1bb68",
      "logs": [
        {
          "address": "0x80cf106b844597ccd7689790167835dd64de0e99",
          "topics": [
            "0xddf252ad1be2c89b69c2b068fc378daa952ba7f163c4a11628f55a4df523b3ef",
            "0x0000000000000000000000000000000000000000000000000000000000000000",
            "0x000000000000000000000000ce23256ae677765a41e8d7e4d099359771615ca4",
            "0x0000000000000000000000000000000000000000000000000000000000000006"
          ],
          "data": "0x",
          "blockHash": "0x6ce7bc709090e620d5ba5c206e8e3663931d902c4fa13d8016d618a13abe7a79",
          "blockNumber": "0x83a8a7",
          "blockTimestamp": "0x685c61a0",
          "transactionHash": "0xcbc516e2bd449737fd8aacb47f50a97f90983e63cc24885d4918d2d05f225b09",
          "transactionIndex": "0x51",
          "logIndex": "0x5f",
          "removed": false
        },
        {
          "address": "0x80cf106b844597ccd7689790167835dd64de0e99",
          "topics": [
            "0x1cbc5ab135991bd2b6a4b034a04aa2aa086dac1371cb9b16b8b5e2ed6b036bed",
            "0x000000000000000000000000ce23256ae677765a41e8d7e4d099359771615ca4",
            "0x0000000000000000000000000000000000000000000000000000000000000006"
          ],
          "data": "0x00000000000000000000000000000000000000000000000000000000000003e8",
          "blockHash": "0x6ce7bc709090e620d5ba5c206e8e3663931d902c4fa13d8016d618a13abe7a79",
          "blockNumber": "0x83a8a7",
          "blockTimestamp": "0x685c61a0",
          "transactionHash": "0xcbc516e2bd449737fd8aacb47f50a97f90983e63cc24885d4918d2d05f225b09",
          "transactionIndex": "0x51",
          "logIndex": "0x60",
          "removed": false
        },
        {
          "address": "0x80cf106b844597ccd7689790167835dd64de0e99",
          "topics": [
            "0xddf252ad1be2c89b69c2b068fc378daa952ba7f163c4a11628f55a4df523b3ef",
            "0x0000000000000000000000000000000000000000000000000000000000000000",
            "0x000000000000000000000000ce23256ae677765a41e8d7e4d099359771615ca4",
            "0x0000000000000000000000000000000000000000000000000000000000000007"
          ],
          "data": "0x",
          "blockHash": "0x6ce7bc709090e620d5ba5c206e8e3663931d902c4fa13d8016d618a13abe7a79",
          "blockNumber": "0x83a8a7",
          "blockTimestamp": "0x685c61a0",
          "transactionHash": "0xcbc516e2bd449737fd8aacb47f50a97f90983e63cc24885d4918d2d05f225b09",
          "transactionIndex": "0x51",
          "logIndex": "0x61",
          "removed": false
        },
        {
          "address": "0x80cf106b844597ccd7689790167835dd64de0e99",
          "topics": [
            "0x1cbc5ab135991bd2b6a4b034a04aa2aa086dac1371cb9b16b8b5e2ed6b036bed",
            "0x000000000000000000000000ce23256ae677765a41e8d7e4d099359771615ca4",
            "0x0000000000000000000000000000000000000000000000000000000000000007"
          ],
          "data": "0x00000000000000000000000000000000000000000000000000000000000003e8",
          "blockHash": "0x6ce7bc709090e620d5ba5c206e8e3663931d902c4fa13d8016d618a13abe7a79",
          "blockNumber": "0x83a8a7",
          "blockTimestamp": "0x685c61a0",
          "transactionHash": "0xcbc516e2bd449737fd8aacb47f50a97f90983e63cc24885d4918d2d05f225b09",
          "transactionIndex": "0x51",
          "logIndex": "0x62",
          "removed": false
        },
        {
          "address": "0x80cf106b844597ccd7689790167835dd64de0e99",
          "topics": [
            "0xddf252ad1be2c89b69c2b068fc378daa952ba7f163c4a11628f55a4df523b3ef",
            "0x0000000000000000000000000000000000000000000000000000000000000000",
            "0x000000000000000000000000ce23256ae677765a41e8d7e4d099359771615ca4",
            "0x0000000000000000000000000000000000000000000000000000000000000008"
          ],
          "data": "0x",
          "blockHash": "0x6ce7bc709090e620d5ba5c206e8e3663931d902c4fa13d8016d618a13abe7a79",
          "blockNumber": "0x83a8a7",
          "blockTimestamp": "0x685c61a0",
          "transactionHash": "0xcbc516e2bd449737fd8aacb47f50a97f90983e63cc24885d4918d2d05f225b09",
          "transactionIndex": "0x51",
          "logIndex": "0x63",
          "removed": false
        },
        {
          "address": "0x80cf106b844597ccd7689790167835dd64de0e99",
          "topics": [
            "0x1cbc5ab135991bd2b6a4b034a04aa2aa086dac1371cb9b16b8b5e2ed6b036bed",
            "0x000000000000000000000000ce23256ae677765a41e8d7e4d099359771615ca4",
            "0x0000000000000000000000000000000000000000000000000000000000000008"
          ],
          "data": "0x00000000000000000000000000000000000000000000000000000000000003e8",
          "blockHash": "0x6ce7bc709090e620d5ba5c206e8e3663931d902c4fa13d8016d618a13abe7a79",
          "blockNumber": "0x83a8a7",
          "blockTimestamp": "0x685c61a0",
          "transactionHash": "0xcbc516e2bd449737fd8aacb47f50a97f90983e63cc24885d4918d2d05f225b09",
          "transactionIndex": "0x51",
          "logIndex": "0x64",
          "removed": false
        },
        {
          "address": "0x80cf106b844597ccd7689790167835dd64de0e99",
          "topics": [
            "0xddf252ad1be2c89b69c2b068fc378daa952ba7f163c4a11628f55a4df523b3ef",
            "0x0000000000000000000000000000000000000000000000000000000000000000",
            "0x000000000000000000000000ce23256ae677765a41e8d7e4d099359771615ca4",
            "0x0000000000000000000000000000000000000000000000000000000000000009"
          ],
          "data": "0x",
          "blockHash": "0x6ce7bc709090e620d5ba5c206e8e3663931d902c4fa13d8016d618a13abe7a79",
          "blockNumber": "0x83a8a7",
          "blockTimestamp": "0x685c61a0",
          "transactionHash": "0xcbc516e2bd449737fd8aacb47f50a97f90983e63cc24885d4918d2d05f225b09",
          "transactionIndex": "0x51",
          "logIndex": "0x65",
          "removed": false
        },
        {
          "address": "0x80cf106b844597ccd7689790167835dd64de0e99",
          "topics": [
            "0x1cbc5ab135991bd2b6a4b034a04aa2aa086dac1371cb9b16b8b5e2ed6b036bed",
            "0x000000000000000000000000ce23256ae677765a41e8d7e4d099359771615ca4",
            "0x0000000000000000000000000000000000000000000000000000000000000009"
          ],
          "data": "0x00000000000000000000000000000000000000000000000000000000000003e8",
          "blockHash": "0x6ce7bc709090e620d5ba5c206e8e3663931d902c4fa13d8016d618a13abe7a79",
          "blockNumber": "0x83a8a7",
          "blockTimestamp": "0x685c61a0",
          "transactionHash": "0xcbc516e2bd449737fd8aacb47f50a97f90983e63cc24885d4918d2d05f225b09",
          "transactionIndex": "0x51",
          "logIndex": "0x66",
          "removed": false
        }
      ],
      "logsBloom": "0x00000000000000000000000000000000000000000000000000400000000000000008000200000000000000000000000000001000000480000000000000200000000020008000000000000008000000000000000000001000000000000000000000000000020000000000000000000800000000000000000000000010000000000080000400000100000000000000000000001000000000000000000000000000000000000400000040000000000000000000000000000000000000080000000040000002000000000000000000000000000000000000000000080100000020000000000000000000000000000000000000000000000000000000000000800000",
      "type": "0x2",
      "transactionHash": "0xcbc516e2bd449737fd8aacb47f50a97f90983e63cc24885d4918d2d05f225b09",
      "transactionIndex": "0x51",
      "blockHash": "0x6ce7bc709090e620d5ba5c206e8e3663931d902c4fa13d8016d618a13abe7a79",
      "blockNumber": "0x83a8a7",
      "gasUsed": "0x996cd",
      "effectiveGasPrice": "0xd212ae9",
      "from": "0xce23256ae677765a41e8d7e4d099359771615ca4",
      "to": "0x80cf106b844597ccd7689790167835dd64de0e99",
      "contractAddress": null
    }
  ],
  "libraries": [],
  "pending": [],
  "returns": {},
  "timestamp": 1750884770,
  "chain": 11155111,
  "commit": null
}