{
  "transactions": [
    {
      "hash": "0x44a24559b23cdad30e5744f8ea01832dcd5dbf8cb955732b15424d56b8d975ce",
      "transactionType": "CALL",
      "contractName": null,
      "contractAddress": "0xceca2e1bca3b27d8435f99f61cea52e51a8ee6cb",
      "function": "buy(uint256,uint256)",
      "arguments": [
        "40000000000000000000000",
        "4"
      ],
      "transaction": {
        "from": "0xce23256ae677765a41e8d7e4d099359771615ca4",
        "to": "0xceca2e1bca3b27d8435f99f61cea52e51a8ee6cb",
        "gas": "0xe6d47",
        "value": "0x0",
        "input": "0xd6febde8000000000000000000000000000000000000000000000878678326eac90000000000000000000000000000000000000000000000000000000000000000000004",
        "nonce": "0x105",
        "chainId": "0xaa36a7"
      },
      "additionalContracts": [],
      "isFixedGasLimit": false
    }
  ],
  "receipts": [
    {
      "status": "0x1",
      "cumulativeGasUsed": "0x16ca0f2",
      "logs": [
        {
          "address": "0xceca2e1bca3b27d8435f99f61cea52e51a8ee6cb",
          "topics": [
            "0xddf252ad1be2c89b69c2b068fc378daa952ba7f163c4a11628f55a4df523b3ef",
            "0x0000000000000000000000000000000000000000000000000000000000000000",
            "0x000000000000000000000000ce23256ae677765a41e8d7e4d099359771615ca4",
            "0x0000000000000000000000000000000000000000000000000000000000000008"
          ],
          "data": "0x",
          "blockHash": "0x9cf7c023ceb25fccfdd69a36a4e53cede4ede27409e88d2b4b4c9c80e541de9a",
          "blockNumber": "0x845843",
          "blockTimestamp": "0x6864a5e4",
          "transactionHash": "0x44a24559b23cdad30e5744f8ea01832dcd5dbf8cb955732b15424d56b8d975ce",
          "transactionIndex": "0x18b",
          "logIndex": "0x25e",
          "removed": false
        },
        {
          "address": "0xceca2e1bca3b27d8435f99f61cea52e51a8ee6cb",
          "topics": [
            "0x1cbc5ab135991bd2b6a4b034a04aa2aa086dac1371cb9b16b8b5e2ed6b036bed",
            "0x000000000000000000000000ce23256ae677765a41e8d7e4d099359771615ca4",
            "0x0000000000000000000000000000000000000000000000000000000000000008"
          ],
          "data": "0x000000000000000000000000000000000000000000000878678326eac9000000",
          "blockHash": "0x9cf7c023ceb25fccfdd69a36a4e53cede4ede27409e88d2b4b4c9c80e541de9a",
          "blockNumber": "0x845843",
          "blockTimestamp": "0x6864a5e4",
          "transactionHash": "0x44a24559b23cdad30e5744f8ea01832dcd5dbf8cb955732b15424d56b8d975ce",
          "transactionIndex": "0x18b",
          "logIndex": "0x25f",
          "removed": false
        },
        {
          "address": "0xceca2e1bca3b27d8435f99f61cea52e51a8ee6cb",
          "topics": [
            "0xddf252ad1be2c89b69c2b068fc378daa952ba7f163c4a11628f55a4df523b3ef",
            "0x0000000000000000000000000000000000000000000000000000000000000000",
            "0x000000000000000000000000ce23256ae677765a41e8d7e4d099359771615ca4",
            "0x0000000000000000000000000000000000000000000000000000000000000009"
          ],
          "data": "0x",
          "blockHash": "0x9cf7c023ceb25fccfdd69a36a4e53cede4ede27409e88d2b4b4c9c80e541de9a",
          "blockNumber": "0x845843",
          "blockTimestamp": "0x6864a5e4",
          "transactionHash": "0x44a24559b23cdad30e5744f8ea01832dcd5dbf8cb955732b15424d56b8d975ce",
          "transactionIndex": "0x18b",
          "logIndex": "0x260",
          "removed": false
        },
        {
          "address": "0xceca2e1bca3b27d8435f99f61cea52e51a8ee6cb",
          "topics": [
            "0x1cbc5ab135991bd2b6a4b034a04aa2aa086dac1371cb9b16b8b5e2ed6b036bed",
            "0x000000000000000000000000ce23256ae677765a41e8d7e4d099359771615ca4",
            "0x0000000000000000000000000000000000000000000000000000000000000009"
          ],
          "data": "0x000000000000000000000000000000000000000000000878678326eac9000000",
          "blockHash": "0x9cf7c023ceb25fccfdd69a36a4e53cede4ede27409e88d2b4b4c9c80e541de9a",
          "blockNumber": "0x845843",
          "blockTimestamp": "0x6864a5e4",
          "transactionHash": "0x44a24559b23cdad30e5744f8ea01832dcd5dbf8cb955732b15424d56b8d975ce",
          "transactionIndex": "0x18b",
          "logIndex": "0x261",
          "removed": false
        },
        {
          "address": "0xceca2e1bca3b27d8435f99f61cea52e51a8ee6cb",
          "topics": [
            "0xddf252ad1be2c89b69c2b068fc378daa952ba7f163c4a11628f55a4df523b3ef",
            "0x0000000000000000000000000000000000000000000000000000000000000000",
            "0x000000000000000000000000ce23256ae677765a41e8d7e4d099359771615ca4",
            "0x000000000000000000000000000000000000000000000000000000000000000a"
          ],
          "data": "0x",
          "blockHash": "0x9cf7c023ceb25fccfdd69a36a4e53cede4ede27409e88d2b4b4c9c80e541de9a",
          "blockNumber": "0x845843",
          "blockTimestamp": "0x6864a5e4",
          "transactionHash": "0x44a24559b23cdad30e5744f8ea01832dcd5dbf8cb955732b15424d56b8d975ce",
          "transactionIndex": "0x18b",
          "logIndex": "0x262",
          "removed": false
        },
        {
          "address": "0xceca2e1bca3b27d8435f99f61cea52e51a8ee6cb",
          "topics": [
            "0x1cbc5ab135991bd2b6a4b034a04aa2aa086dac1371cb9b16b8b5e2ed6b036bed",
            "0x000000000000000000000000ce23256ae677765a41e8d7e4d099359771615ca4",
            "0x000000000000000000000000000000000000000000000000000000000000000a"
          ],
          "data": "0x000000000000000000000000000000000000000000000878678326eac9000000",
          "blockHash": "0x9cf7c023ceb25fccfdd69a36a4e53cede4ede27409e88d2b4b4c9c80e541de9a",
          "blockNumber": "0x845843",
          "blockTimestamp": "0x6864a5e4",
          "transactionHash": "0x44a24559b23cdad30e5744f8ea01832dcd5dbf8cb955732b15424d56b8d975ce",
          "transactionIndex": "0x18b",
          "logIndex": "0x263",
          "removed": false
        },
        {
          "address": "0xceca2e1bca3b27d8435f99f61cea52e51a8ee6cb",
          "topics": [
            "0xddf252ad1be2c89b69c2b068fc378daa952ba7f163c4a11628f55a4df523b3ef",
            "0x0000000000000000000000000000000000000000000000000000000000000000",
            "0x000000000000000000000000ce23256ae677765a41e8d7e4d099359771615ca4",
            "0x000000000000000000000000000000000000000000000000000000000000000b"
          ],
          "data": "0x",
          "blockHash": "0x9cf7c023ceb25fccfdd69a36a4e53cede4ede27409e88d2b4b4c9c80e541de9a",
          "blockNumber": "0x845843",
          "blockTimestamp": "0x6864a5e4",
          "transactionHash": "0x44a24559b23cdad30e5744f8ea01832dcd5dbf8cb955732b15424d56b8d975ce",
          "transactionIndex": "0x18b",
          "logIndex": "0x264",
          "removed": false
        },
        {
          "address": "0xceca2e1bca3b27d8435f99f61cea52e51a8ee6cb",
          "topics": [
            "0x1cbc5ab135991bd2b6a4b034a04aa2aa086dac1371cb9b16b8b5e2ed6b036bed",
            "0x000000000000000000000000ce23256ae677765a41e8d7e4d099359771615ca4",
            "0x000000000000000000000000000000000000000000000000000000000000000b"
          ],
          "data": "0x000000000000000000000000000000000000000000000878678326eac9000000",
          "blockHash": "0x9cf7c023ceb25fccfdd69a36a4e53cede4ede27409e88d2b4b4c9c80e541de9a",
          "blockNumber": "0x845843",
          "blockTimestamp": "0x6864a5e4",
          "transactionHash": "0x44a24559b23cdad30e5744f8ea01832dcd5dbf8cb955732b15424d56b8d975ce",
          "transactionIndex": "0x18b",
          "logIndex": "0x265",
          "removed": false
        },
        {
          "address": "0x34abd99554ef53edba3b6abebb97df2864cfa07c",
          "topics": [
            "0x8c5be1e5ebec7d5bd14f71427d1e84f3dd0314c0f7b2291e5b200ac8c7c3b925",
            "0x000000000000000000000000ce23256ae677765a41e8d7e4d099359771615ca4",
            "0x000000000000000000000000ceca2e1bca3b27d8435f99f61cea52e51a8ee6cb"
          ],
          "data": "0x0000000000000000000000000000000000000000000823b37807659d26000000",
          "blockHash": "0x9cf7c023ceb25fccfdd69a36a4e53cede4ede27409e88d2b4b4c9c80e541de9a",
          "blockNumber": "0x845843",
          "blockTimestamp": "0x6864a5e4",
          "transactionHash": "0x44a24559b23cdad30e5744f8ea01832dcd5dbf8cb955732b15424d56b8d975ce",
          "transactionIndex": "0x18b",
          "logIndex": "0x266",
          "removed": false
        },
        {
          "address": "0x34abd99554ef53edba3b6abebb97df2864cfa07c",
          "topics": [
            "0xddf252ad1be2c89b69c2b068fc378daa952ba7f163c4a11628f55a4df523b3ef",
            "0x000000000000000000000000ce23256ae677765a41e8d7e4d099359771615ca4",
            "0x0000000000000000000000008d6051dedbe3b08590674b0c4324c1d8b3ad2a00"
          ],
          "data": "0x0000000000000000000000000000000000000000000021e19e0c9bab24000000",
          "blockHash": "0x9cf7c023ceb25fccfdd69a36a4e53cede4ede27409e88d2b4b4c9c80e541de9a",
          "blockNumber": "0x845843",
          "blockTimestamp": "0x6864a5e4",
          "transactionHash": "0x44a24559b23cdad30e5744f8ea01832dcd5dbf8cb955732b15424d56b8d975ce",
          "transactionIndex": "0x18b",
          "logIndex": "0x267",
          "removed": false
        },
        {
          "address": "0x34abd99554ef53edba3b6abebb97df2864cfa07c",
          "topics": [
            "0x8c5be1e5ebec7d5bd14f71427d1e84f3dd0314c0f7b2291e5b200ac8c7c3b925",
            "0x000000000000000000000000ce23256ae677765a41e8d7e4d099359771615ca4",
            "0x000000000000000000000000ceca2e1bca3b27d8435f99f61cea52e51a8ee6cb"
          ],
          "data": "0x00000000000000000000000000000000000000000008235cbb9182c6f5000000",
          "blockHash": "0x9cf7c023ceb25fccfdd69a36a4e53cede4ede27409e88d2b4b4c9c80e541de9a",
          "blockNumber": "0x845843",
          "blockTimestamp": "0x6864a5e4",
          "transactionHash": "0x44a24559b23cdad30e5744f8ea01832dcd5dbf8cb955732b15424d56b8d975ce",
          "transactionIndex": "0x18b",
          "logIndex": "0x268",
          "removed": false
        },
        {
          "address": "0x34abd99554ef53edba3b6abebb97df2864cfa07c",
          "topics": [
            "0xddf252ad1be2c89b69c2b068fc378daa952ba7f163c4a11628f55a4df523b3ef",
            "0x000000000000000000000000ce23256ae677765a41e8d7e4d099359771615ca4",
            "0x0000000000000000000000008d6051dedbe3b08590674b0c4324c1d8b3ad2a00"
          ],
          "data": "0x000000000000000000000000000000000000000000000056bc75e2d631000000",
          "blockHash": "0x9cf7c023ceb25fccfdd69a36a4e53cede4ede27409e88d2b4b4c9c80e541de9a",
          "blockNumber": "0x845843",
          "blockTimestamp": "0x6864a5e4",
          "transactionHash": "0x44a24559b23cdad30e5744f8ea01832dcd5dbf8cb955732b15424d56b8d975ce",
          "transactionIndex": "0x18b",
          "logIndex": "0x269",
          "removed": false
        }
      ],
      "logsBloom": "0x00000000000000000000004000000000000000000000000000400000000000000200000200000000000000000000000000000000040080000020000000200000000000000000000000000008000000000000008000001000000000000000000000000000020000000000000000000840200000000000000000000010000020000080000000000100010000000000000000001000000000040000000000000000020000000400000040000000000080000000000000008000000000000000000040000002000000000000000000000000002000000002000000000000000020000010000004000000080008000000000000000000000000040000000000800000",
      "type": "0x2",
      "transactionHash": "0x44a24559b23cdad30e5744f8ea01832dcd5dbf8cb955732b15424d56b8d975ce",
      "transactionIndex": "0x18b",
      "blockHash": "0x9cf7c023ceb25fccfdd69a36a4e53cede4ede27409e88d2b4b4c9c80e541de9a",
      "blockNumber": "0x845843",
      "gasUsed": "0xa71df",
      "effectiveGasPrice": "0x346f939eb",
      "from": "0xce23256ae677765a41e8d7e4d099359771615ca4",
      "to": "0xceca2e1bca3b27d8435f99f61cea52e51a8ee6cb",
      "contractAddress": null
    }
  ],
  "libraries": [],
  "pending": [],
  "returns": {},
  "timestamp": 1751426531,
  "chain": 11155111,
  "commit": null
}