{
  "transactions": [
    {
      "hash": "0xd04a8b7844835e5882b6905c506ad28cb73d61c3b33aba0500a7ca577e58568d",
      "transactionType": "CALL",
      "contractName": null,
      "contractAddress": "0x4f5b0cc493ea9321bc5d5a1dfd8bcc2b7c6db7ea",
      "function": "claim(uint256[])",
      "arguments": [
        "[0, 2]"
      ],
      "transaction": {
        "from": "0xce23256ae677765a41e8d7e4d099359771615ca4",
        "to": "0x4f5b0cc493ea9321bc5d5a1dfd8bcc2b7c6db7ea",
        "gas": "0x265f4",
        "value": "0x0",
        "input": "0x6ba4c1380000000000000000000000000000000000000000000000000000000000000020000000000000000000000000000000000000000000000000000000000000000200000000000000000000000000000000000000000000000000000000000000000000000000000000000000000000000000000000000000000000000000000002",
        "nonce": "0xc8",
        "chainId": "0xaa36a7"
      },
      "additionalContracts": [],
      "isFixedGasLimit": false
    }
  ],
  "receipts": [
    {
      "status": "0x1",
      "cumulativeGasUsed": "0x1294b82",
      "logs": [
        {
          "address": "0x4f5b0cc493ea9321bc5d5a1dfd8bcc2b7c6db7ea",
          "topics": [
            "0x8c5be1e5ebec7d5bd14f71427d1e84f3dd0314c0f7b2291e5b200ac8c7c3b925",
            "0x000000000000000000000000ce23256ae677765a41e8d7e4d099359771615ca4",
            "0x0000000000000000000000000000000000000000000000000000000000000000",
            "0x0000000000000000000000000000000000000000000000000000000000000000"
          ],
          "data": "0x",
          "blockHash": "0x9010541d7dfe5938c491427944dd203e96cc596bb9b8c7840e993e1244d6628e",
          "blockNumber": "0x83a970",
          "blockTimestamp": "0x685c6b18",
          "transactionHash": "0xd04a8b7844835e5882b6905c506ad28cb73d61c3b33aba0500a7ca577e58568d",
          "transactionIndex": "0x54",
          "logIndex": "0x96",
          "removed": false
        },
        {
          "address": "0x4f5b0cc493ea9321bc5d5a1dfd8bcc2b7c6db7ea",
          "topics": [
            "0xddf252ad1be2c89b69c2b068fc378daa952ba7f163c4a11628f55a4df523b3ef",
            "0x000000000000000000000000ce23256ae677765a41e8d7e4d099359771615ca4",
            "0x0000000000000000000000000000000000000000000000000000000000000000",
            "0x0000000000000000000000000000000000000000000000000000000000000000"
          ],
          "data": "0x",
          "blockHash": "0x9010541d7dfe5938c491427944dd203e96cc596bb9b8c7840e993e1244d6628e",
          "blockNumber": "0x83a970",
          "blockTimestamp": "0x685c6b18",
          "transactionHash": "0xd04a8b7844835e5882b6905c506ad28cb73d61c3b33aba0500a7ca577e58568d",
          "transactionIndex": "0x54",
          "logIndex": "0x97",
          "removed": false
        },
        {
          "address": "0x4f5b0cc493ea9321bc5d5a1dfd8bcc2b7c6db7ea",
          "topics": [
            "0x47cee97cb7acd717b3c0aa1435d004cd5b3c8c57d70dbceb4e4458bbd60e39d4",
            "0x000000000000000000000000ce23256ae677765a41e8d7e4d099359771615ca4",
            "0x0000000000000000000000000000000000000000000000000000000000000000"
          ],
          "data": "0x",
          "blockHash": "0x9010541d7dfe5938c491427944dd203e96cc596bb9b8c7840e993e1244d6628e",
          "blockNumber": "0x83a970",
          "blockTimestamp": "0x685c6b18",
          "transactionHash": "0xd04a8b7844835e5882b6905c506ad28cb73d61c3b33aba0500a7ca577e58568d",
          "transactionIndex": "0x54",
          "logIndex": "0x98",
          "removed": false
        },
        {
          "address": "0x4f5b0cc493ea9321bc5d5a1dfd8bcc2b7c6db7ea",
          "topics": [
            "0x8c5be1e5ebec7d5bd14f71427d1e84f3dd0314c0f7b2291e5b200ac8c7c3b925",
            "0x000000000000000000000000ce23256ae677765a41e8d7e4d099359771615ca4",
            "0x0000000000000000000000000000000000000000000000000000000000000000",
            "0x0000000000000000000000000000000000000000000000000000000000000002"
          ],
          "data": "0x",
          "blockHash": "0x9010541d7dfe5938c491427944dd203e96cc596bb9b8c7840e993e1244d6628e",
          "blockNumber": "0x83a970",
          "blockTimestamp": "0x685c6b18",
          "transactionHash": "0xd04a8b7844835e5882b6905c506ad28cb73d61c3b33aba0500a7ca577e58568d",
          "transactionIndex": "0x54",
          "logIndex": "0x99",
          "removed": false
        },
        {
          "address": "0x4f5b0cc493ea9321bc5d5a1dfd8bcc2b7c6db7ea",
          "topics": [
            "0xddf252ad1be2c89b69c2b068fc378daa952ba7f163c4a11628f55a4df523b3ef",
            "0x000000000000000000000000ce23256ae677765a41e8d7e4d099359771615ca4",
            "0x0000000000000000000000000000000000000000000000000000000000000000",
            "0x0000000000000000000000000000000000000000000000000000000000000002"
          ],
          "data": "0x",
          "blockHash": "0x9010541d7dfe5938c491427944dd203e96cc596bb9b8c7840e993e1244d6628e",
          "blockNumber": "0x83a970",
          "blockTimestamp": "0x685c6b18",
          "transactionHash": "0xd04a8b7844835e5882b6905c506ad28cb73d61c3b33aba0500a7ca577e58568d",
          "transactionIndex": "0x54",
          "logIndex": "0x9a",
          "removed": false
        },
        {
          "address": "0x4f5b0cc493ea9321bc5d5a1dfd8bcc2b7c6db7ea",
          "topics": [
            "0x47cee97cb7acd717b3c0aa1435d004cd5b3c8c57d70dbceb4e4458bbd60e39d4",
            "0x000000000000000000000000ce23256ae677765a41e8d7e4d099359771615ca4",
            "0x0000000000000000000000000000000000000000000000000000000000000002"
          ],
          "data": "0x",
          "blockHash": "0x9010541d7dfe5938c491427944dd203e96cc596bb9b8c7840e993e1244d6628e",
          "blockNumber": "0x83a970",
          "blockTimestamp": "0x685c6b18",
          "transactionHash": "0xd04a8b7844835e5882b6905c506ad28cb73d61c3b33aba0500a7ca577e58568d",
          "transactionIndex": "0x54",
          "logIndex": "0x9b",
          "removed": false
        }
      ],
      "logsBloom": "0x04000000000000000000000000000000000000000000000000400000000000000000000000000000000000000000000000000010000000000900000000200000000000000000000000000008000000000000000000001000000000000000000000000000020000000000000000000800000000000000000000000010000000000000000000000100000000000000000000000000000000000000000000000000020000000000000000000100000000000000000000020000001000000000000000000002000000000000000000000000000000000000000000000000000020000010000000000000000000008000000000000000008000000000000000000000",
      "type": "0x2",
      "transactionHash": "0xd04a8b7844835e5882b6905c506ad28cb73d61c3b33aba0500a7ca577e58568d",
      "transactionIndex": "0x54",
      "blockHash": "0x9010541d7dfe5938c491427944dd203e96cc596bb9b8c7840e993e1244d6628e",
      "blockNumber": "0x83a970",
      "gasUsed": "0x1bc7f",
      "effectiveGasPrice": "0x3d097cb",
      "from": "0xce23256ae677765a41e8d7e4d099359771615ca4",
      "to": "0x4f5b0cc493ea9321bc5d5a1dfd8bcc2b7c6db7ea",
      "contractAddress": null
    }
  ],
  "libraries": [],
  "pending": [],
  "returns": {},
  "timestamp": 1750887194,
  "chain": 11155111,
  "commit": null
}