{
  "transactions": [
    {
      "hash": "0xc1df9f19de6545a62e56f33efa340e3e0bd39218bc22f65a11ab0a9aa2b9a3b0",
      "transactionType": "CALL",
      "contractName": null,
      "contractAddress": "0x05d56701d4878ccef19b681460343380420a8651",
      "function": "buy(uint256,uint256)",
      "arguments": [
        "1000",
        "4"
      ],
      "transaction": {
        "from": "0xce23256ae677765a41e8d7e4d099359771615ca4",
        "to": "0x05d56701d4878ccef19b681460343380420a8651",
        "gas": "0xd6ad8",
        "value": "0x0",
        "input": "0xd6febde800000000000000000000000000000000000000000000000000000000000003e80000000000000000000000000000000000000000000000000000000000000004",
        "nonce": "0xef",
        "chainId": "0xaa36a7"
      },
      "additionalContracts": [],
      "isFixedGasLimit": false
    }
  ],
  "receipts": [
    {
      "status": "0x1",
      "cumulativeGasUsed": "0x2117574",
      "logs": [
        {
          "address": "0x05d56701d4878ccef19b681460343380420a8651",
          "topics": [
            "0xddf252ad1be2c89b69c2b068fc378daa952ba7f163c4a11628f55a4df523b3ef",
            "0x0000000000000000000000000000000000000000000000000000000000000000",
            "0x000000000000000000000000ce23256ae677765a41e8d7e4d099359771615ca4",
            "0x0000000000000000000000000000000000000000000000000000000000000000"
          ],
          "data": "0x",
          "blockHash": "0x9dc5f4382d7bfba90e276a905a2cd7791f36b10324c1d1cf1a2f4b6bdf10f7de",
          "blockNumber": "0x83ad53",
          "blockTimestamp": "0x685c99f8",
          "transactionHash": "0xc1df9f19de6545a62e56f33efa340e3e0bd39218bc22f65a11ab0a9aa2b9a3b0",
          "transactionIndex": "0x125",
          "logIndex": "0x15c",
          "removed": false
        },
        {
          "address": "0x05d56701d4878ccef19b681460343380420a8651",
          "topics": [
            "0x1cbc5ab135991bd2b6a4b034a04aa2aa086dac1371cb9b16b8b5e2ed6b036bed",
            "0x000000000000000000000000ce23256ae677765a41e8d7e4d099359771615ca4",
            "0x0000000000000000000000000000000000000000000000000000000000000000"
          ],
          "data": "0x00000000000000000000000000000000000000000000000000000000000003e8",
          "blockHash": "0x9dc5f4382d7bfba90e276a905a2cd7791f36b10324c1d1cf1a2f4b6bdf10f7de",
          "blockNumber": "0x83ad53",
          "blockTimestamp": "0x685c99f8",
          "transactionHash": "0xc1df9f19de6545a62e56f33efa340e3e0bd39218bc22f65a11ab0a9aa2b9a3b0",
          "transactionIndex": "0x125",
          "logIndex": "0x15d",
          "removed": false
        },
        {
          "address": "0x05d56701d4878ccef19b681460343380420a8651",
          "topics": [
            "0xddf252ad1be2c89b69c2b068fc378daa952ba7f163c4a11628f55a4df523b3ef",
            "0x0000000000000000000000000000000000000000000000000000000000000000",
            "0x000000000000000000000000ce23256ae677765a41e8d7e4d099359771615ca4",
            "0x0000000000000000000000000000000000000000000000000000000000000001"
          ],
          "data": "0x",
          "blockHash": "0x9dc5f4382d7bfba90e276a905a2cd7791f36b10324c1d1cf1a2f4b6bdf10f7de",
          "blockNumber": "0x83ad53",
          "blockTimestamp": "0x685c99f8",
          "transactionHash": "0xc1df9f19de6545a62e56f33efa340e3e0bd39218bc22f65a11ab0a9aa2b9a3b0",
          "transactionIndex": "0x125",
          "logIndex": "0x15e",
          "removed": false
        },
        {
          "address": "0x05d56701d4878ccef19b681460343380420a8651",
          "topics": [
            "0x1cbc5ab135991bd2b6a4b034a04aa2aa086dac1371cb9b16b8b5e2ed6b036bed",
            "0x000000000000000000000000ce23256ae677765a41e8d7e4d099359771615ca4",
            "0x0000000000000000000000000000000000000000000000000000000000000001"
          ],
          "data": "0x00000000000000000000000000000000000000000000000000000000000003e8",
          "blockHash": "0x9dc5f4382d7bfba90e276a905a2cd7791f36b10324c1d1cf1a2f4b6bdf10f7de",
          "blockNumber": "0x83ad53",
          "blockTimestamp": "0x685c99f8",
          "transactionHash": "0xc1df9f19de6545a62e56f33efa340e3e0bd39218bc22f65a11ab0a9aa2b9a3b0",
          "transactionIndex": "0x125",
          "logIndex": "0x15f",
          "removed": false
        },
        {
          "address": "0x05d56701d4878ccef19b681460343380420a8651",
          "topics": [
            "0xddf252ad1be2c89b69c2b068fc378daa952ba7f163c4a11628f55a4df523b3ef",
            "0x0000000000000000000000000000000000000000000000000000000000000000",
            "0x000000000000000000000000ce23256ae677765a41e8d7e4d099359771615ca4",
            "0x0000000000000000000000000000000000000000000000000000000000000002"
          ],
          "data": "0x",
          "blockHash": "0x9dc5f4382d7bfba90e276a905a2cd7791f36b10324c1d1cf1a2f4b6bdf10f7de",
          "blockNumber": "0x83ad53",
          "blockTimestamp": "0x685c99f8",
          "transactionHash": "0xc1df9f19de6545a62e56f33efa340e3e0bd39218bc22f65a11ab0a9aa2b9a3b0",
          "transactionIndex": "0x125",
          "logIndex": "0x160",
          "removed": false
        },
        {
          "address": "0x05d56701d4878ccef19b681460343380420a8651",
          "topics": [
            "0x1cbc5ab135991bd2b6a4b034a04aa2aa086dac1371cb9b16b8b5e2ed6b036bed",
            "0x000000000000000000000000ce23256ae677765a41e8d7e4d099359771615ca4",
            "0x0000000000000000000000000000000000000000000000000000000000000002"
          ],
          "data": "0x00000000000000000000000000000000000000000000000000000000000003e8",
          "blockHash": "0x9dc5f4382d7bfba90e276a905a2cd7791f36b10324c1d1cf1a2f4b6bdf10f7de",
          "blockNumber": "0x83ad53",
          "blockTimestamp": "0x685c99f8",
          "transactionHash": "0xc1df9f19de6545a62e56f33efa340e3e0bd39218bc22f65a11ab0a9aa2b9a3b0",
          "transactionIndex": "0x125",
          "logIndex": "0x161",
          "removed": false
        },
        {
          "address": "0x05d56701d4878ccef19b681460343380420a8651",
          "topics": [
            "0xddf252ad1be2c89b69c2b068fc378daa952ba7f163c4a11628f55a4df523b3ef",
            "0x0000000000000000000000000000000000000000000000000000000000000000",
            "0x000000000000000000000000ce23256ae677765a41e8d7e4d099359771615ca4",
            "0x0000000000000000000000000000000000000000000000000000000000000003"
          ],
          "data": "0x",
          "blockHash": "0x9dc5f4382d7bfba90e276a905a2cd7791f36b10324c1d1cf1a2f4b6bdf10f7de",
          "blockNumber": "0x83ad53",
          "blockTimestamp": "0x685c99f8",
          "transactionHash": "0xc1df9f19de6545a62e56f33efa340e3e0bd39218bc22f65a11ab0a9aa2b9a3b0",
          "transactionIndex": "0x125",
          "logIndex": "0x162",
          "removed": false
        },
        {
          "address": "0x05d56701d4878ccef19b681460343380420a8651",
          "topics": [
            "0x1cbc5ab135991bd2b6a4b034a04aa2aa086dac1371cb9b16b8b5e2ed6b036bed",
            "0x000000000000000000000000ce23256ae677765a41e8d7e4d099359771615ca4",
            "0x0000000000000000000000000000000000000000000000000000000000000003"
          ],
          "data": "0x00000000000000000000000000000000000000000000000000000000000003e8",
          "blockHash": "0x9dc5f4382d7bfba90e276a905a2cd7791f36b10324c1d1cf1a2f4b6bdf10f7de",
          "blockNumber": "0x83ad53",
          "blockTimestamp": "0x685c99f8",
          "transactionHash": "0xc1df9f19de6545a62e56f33efa340e3e0bd39218bc22f65a11ab0a9aa2b9a3b0",
          "transactionIndex": "0x125",
          "logIndex": "0x163",
          "removed": false
        }
      ],
      "logsBloom": "0x04000000000000000000000000000000000000000000000000400020000000000000000200000000000000000000000000000000020000000000000000040000000000000000000000000008000000000000000000041000000000000000000000000000020000000000000000000800000000000000000000000010000000000000000000000100000000000000000000000000000000000000000000000000000000000400000040000100200000000000000000800000000000000000400000000002000000000000000000000000000000000000000000000000000060000000200000000000000000000000000000000000008000000000000000000000",
      "type": "0x2",
      "transactionHash": "0xc1df9f19de6545a62e56f33efa340e3e0bd39218bc22f65a11ab0a9aa2b9a3b0",
      "transactionIndex": "0x125",
      "blockHash": "0x9dc5f4382d7bfba90e276a905a2cd7791f36b10324c1d1cf1a2f4b6bdf10f7de",
      "blockNumber": "0x83ad53",
      "gasUsed": "0x9b6c4",
      "effectiveGasPrice": "0x299fd5",
      "from": "0xce23256ae677765a41e8d7e4d099359771615ca4",
      "to": "0x05d56701d4878ccef19b681460343380420a8651",
      "contractAddress": null
    }
  ],
  "libraries": [],
  "pending": [],
  "returns": {},
  "timestamp": 1750899195,
  "chain": 11155111,
  "commit": null
}