{
  "transactions": [
    {
      "hash": "0x29f10f67054670d9738d8e007e8efb10b0fc835a85bef069d7a73c98f7564571",
      "transactionType": "CALL",
      "contractName": null,
      "contractAddress": "0x80cf106b844597ccd7689790167835dd64de0e99",
      "function": "trade(address,address,uint256,uint256)",
      "arguments": [
        "0xcE23256ae677765a41E8D7E4d099359771615ca4",
        "0x2AE29E74B7c1B3d4BD5484f26918bE598eAa39F2",
        "1",
        "4000"
      ],
      "transaction": {
        "from": "0xce23256ae677765a41e8d7e4d099359771615ca4",
        "to": "0x80cf106b844597ccd7689790167835dd64de0e99",
        "gas": "0x1d8cd",
        "value": "0x0",
        "input": "0x4849b6c8000000000000000000000000ce23256ae677765a41e8d7e4d099359771615ca40000000000000000000000002ae29e74b7c1b3d4bd5484f26918be598eaa39f200000000000000000000000000000000000000000000000000000000000000010000000000000000000000000000000000000000000000000000000000000fa0",
        "nonce": "0xb0",
        "chainId": "0xaa36a7"
      },
      "additionalContracts": [],
      "isFixedGasLimit": false
    }
  ],
  "receipts": [
    {
      "status": "0x1",
      "cumulativeGasUsed": "0x91621b",
      "logs": [
        {
          "address": "0x80cf106b844597ccd7689790167835dd64de0e99",
          "topics": [
            "0x4b5796113f074ebf8f11d5bcdeb6349b2fbe47abed78419cdcdbbc15c6fcf845",
            "0x000000000000000000000000ce23256ae677765a41e8d7e4d099359771615ca4",
            "0x0000000000000000000000002ae29e74b7c1b3d4bd5484f26918be598eaa39f2",
            "0x0000000000000000000000000000000000000000000000000000000000000001"
          ],
          "data": "0x0000000000000000000000000000000000000000000000000000000000000fa0",
          "blockHash": "0x5f3dfa1245bea2355743951bea41192ca9102a46c476b43044e89d9720b62f85",
          "blockNumber": "0x83a86b",
          "blockTimestamp": "0x685c5ed0",
          "transactionHash": "0x29f10f67054670d9738d8e007e8efb10b0fc835a85bef069d7a73c98f7564571",
          "transactionIndex": "0x4c",
          "logIndex": "0x85",
          "removed": false
        },
        {
          "address": "0x80cf106b844597ccd7689790167835dd64de0e99",
          "topics": [
            "0x8c5be1e5ebec7d5bd14f71427d1e84f3dd0314c0f7b2291e5b200ac8c7c3b925",
            "0x000000000000000000000000ce23256ae677765a41e8d7e4d099359771615ca4",
            "0x0000000000000000000000000000000000000000000000000000000000000000",
            "0x0000000000000000000000000000000000000000000000000000000000000001"
          ],
          "data": "0x",
          "blockHash": "0x5f3dfa1245bea2355743951bea41192ca9102a46c476b43044e89d9720b62f85",
          "blockNumber": "0x83a86b",
          "blockTimestamp": "0x685c5ed0",
          "transactionHash": "0x29f10f67054670d9738d8e007e8efb10b0fc835a85bef069d7a73c98f7564571",
          "transactionIndex": "0x4c",
          "logIndex": "0x86",
          "removed": false
        },
        {
          "address": "0x80cf106b844597ccd7689790167835dd64de0e99",
          "topics": [
            "0xddf252ad1be2c89b69c2b068fc378daa952ba7f163c4a11628f55a4df523b3ef",
            "0x000000000000000000000000ce23256ae677765a41e8d7e4d099359771615ca4",
            "0x0000000000000000000000002ae29e74b7c1b3d4bd5484f26918be598eaa39f2",
            "0x0000000000000000000000000000000000000000000000000000000000000001"
          ],
          "data": "0x",
          "blockHash": "0x5f3dfa1245bea2355743951bea41192ca9102a46c476b43044e89d9720b62f85",
          "blockNumber": "0x83a86b",
          "blockTimestamp": "0x685c5ed0",
          "transactionHash": "0x29f10f67054670d9738d8e007e8efb10b0fc835a85bef069d7a73c98f7564571",
          "transactionIndex": "0x4c",
          "logIndex": "0x87",
          "removed": false
        }
      ],
      "logsBloom": "0x00000000000000000000000000001000000000000000000000400800000000000008000000000000000000000000000000000000000080000000000000240000000000008000000000000008000000000000000000041000000000000000000000000000020000000000000000000800000000000000000000000010000000000000000000000100000000000000000000000000000000000000000000000000020000000000000000000400000000000000000000000000000001000000000000000002000000000000000000000000000000000000000000080000000460000010000000000000000000000000000000000000000000000000000000000000",
      "type": "0x2",
      "transactionHash": "0x29f10f67054670d9738d8e007e8efb10b0fc835a85bef069d7a73c98f7564571",
      "transactionIndex": "0x4c",
      "blockHash": "0x5f3dfa1245bea2355743951bea41192ca9102a46c476b43044e89d9720b62f85",
      "blockNumber": "0x83a86b",
      "gasUsed": "0x1564e",
      "effectiveGasPrice": "0x2067dddb",
      "from": "0xce23256ae677765a41e8d7e4d099359771615ca4",
      "to": "0x80cf106b844597ccd7689790167835dd64de0e99",
      "contractAddress": null
    }
  ],
  "libraries": [],
  "pending": [],
  "returns": {},
  "timestamp": 1750884049,
  "chain": 11155111,
  "commit": null
}