{
  "transactions": [
    {
      "hash": "0xadfaf5ca18fd9330097df932b958e26ba8246977a05602cabe207188829c49cc",
      "transactionType": "CALL",
      "contractName": null,
      "contractAddress": "0x5dbf0c030fcdfaf95cbc1789bdd58cfae82f05e8",
      "function": "buy(address,uint256,uint256)",
      "arguments": [
        "0xcE23256ae677765a41E8D7E4d099359771615ca4",
        "1000",
        "4"
      ],
      "transaction": {
        "from": "0xce23256ae677765a41e8d7e4d099359771615ca4",
        "to": "0x5dbf0c030fcdfaf95cbc1789bdd58cfae82f05e8",
        "gas": "0xd3eb0",
        "value": "0x0",
        "input": "0xa59ac6dd000000000000000000000000ce23256ae677765a41e8d7e4d099359771615ca400000000000000000000000000000000000000000000000000000000000003e80000000000000000000000000000000000000000000000000000000000000004",
        "nonce": "0xca",
        "chainId": "0xaa36a7"
      },
      "additionalContracts": [],
      "isFixedGasLimit": false
    }
  ],
  "receipts": [
    {
      "status": "0x1",
      "cumulativeGasUsed": "0x1ca68e7",
      "logs": [
        {
          "address": "0x5dbf0c030fcdfaf95cbc1789bdd58cfae82f05e8",
          "topics": [
            "0xddf252ad1be2c89b69c2b068fc378daa952ba7f163c4a11628f55a4df523b3ef",
            "0x0000000000000000000000000000000000000000000000000000000000000000",
            "0x000000000000000000000000ce23256ae677765a41e8d7e4d099359771615ca4",
            "0x0000000000000000000000000000000000000000000000000000000000000008"
          ],
          "data": "0x",
          "blockHash": "0x72fee6f675dda9c1c74a156447259fcb7861102b9b222852522f0372d3fa1c98",
          "blockNumber": "0x83aa35",
          "blockTimestamp": "0x685c7454",
          "transactionHash": "0xadfaf5ca18fd9330097df932b958e26ba8246977a05602cabe207188829c49cc",
          "transactionIndex": "0x4e",
          "logIndex": "0x67",
          "removed": false
        },
        {
          "address": "0x5dbf0c030fcdfaf95cbc1789bdd58cfae82f05e8",
          "topics": [
            "0x1cbc5ab135991bd2b6a4b034a04aa2aa086dac1371cb9b16b8b5e2ed6b036bed",
            "0x000000000000000000000000ce23256ae677765a41e8d7e4d099359771615ca4",
            "0x0000000000000000000000000000000000000000000000000000000000000008"
          ],
          "data": "0x00000000000000000000000000000000000000000000000000000000000003e8",
          "blockHash": "0x72fee6f675dda9c1c74a156447259fcb7861102b9b222852522f0372d3fa1c98",
          "blockNumber": "0x83aa35",
          "blockTimestamp": "0x685c7454",
          "transactionHash": "0xadfaf5ca18fd9330097df932b958e26ba8246977a05602cabe207188829c49cc",
          "transactionIndex": "0x4e",
          "logIndex": "0x68",
          "removed": false
        },
        {
          "address": "0x5dbf0c030fcdfaf95cbc1789bdd58cfae82f05e8",
          "topics": [
            "0xddf252ad1be2c89b69c2b068fc378daa952ba7f163c4a11628f55a4df523b3ef",
            "0x0000000000000000000000000000000000000000000000000000000000000000",
            "0x000000000000000000000000ce23256ae677765a41e8d7e4d099359771615ca4",
            "0x0000000000000000000000000000000000000000000000000000000000000009"
          ],
          "data": "0x",
          "blockHash": "0x72fee6f675dda9c1c74a156447259fcb7861102b9b222852522f0372d3fa1c98",
          "blockNumber": "0x83aa35",
          "blockTimestamp": "0x685c7454",
          "transactionHash": "0xadfaf5ca18fd9330097df932b958e26ba8246977a05602cabe207188829c49cc",
          "transactionIndex": "0x4e",
          "logIndex": "0x69",
          "removed": false
        },
        {
          "address": "0x5dbf0c030fcdfaf95cbc1789bdd58cfae82f05e8",
          "topics": [
            "0x1cbc5ab135991bd2b6a4b034a04aa2aa086dac1371cb9b16b8b5e2ed6b036bed",
            "0x000000000000000000000000ce23256ae677765a41e8d7e4d099359771615ca4",
            "0x0000000000000000000000000000000000000000000000000000000000000009"
          ],
          "data": "0x00000000000000000000000000000000000000000000000000000000000003e8",
          "blockHash": "0x72fee6f675dda9c1c74a156447259fcb7861102b9b222852522f0372d3fa1c98",
          "blockNumber": "0x83aa35",
          "blockTimestamp": "0x685c7454",
          "transactionHash": "0xadfaf5ca18fd9330097df932b958e26ba8246977a05602cabe207188829c49cc",
          "transactionIndex": "0x4e",
          "logIndex": "0x6a",
          "removed": false
        },
        {
          "address": "0x5dbf0c030fcdfaf95cbc1789bdd58cfae82f05e8",
          "topics": [
            "0xddf252ad1be2c89b69c2b068fc378daa952ba7f163c4a11628f55a4df523b3ef",
            "0x0000000000000000000000000000000000000000000000000000000000000000",
            "0x000000000000000000000000ce23256ae677765a41e8d7e4d099359771615ca4",
            "0x000000000000000000000000000000000000000000000000000000000000000a"
          ],
          "data": "0x",
          "blockHash": "0x72fee6f675dda9c1c74a156447259fcb7861102b9b222852522f0372d3fa1c98",
          "blockNumber": "0x83aa35",
          "blockTimestamp": "0x685c7454",
          "transactionHash": "0xadfaf5ca18fd9330097df932b958e26ba8246977a05602cabe207188829c49cc",
          "transactionIndex": "0x4e",
          "logIndex": "0x6b",
          "removed": false
        },
        {
          "address": "0x5dbf0c030fcdfaf95cbc1789bdd58cfae82f05e8",
          "topics": [
            "0x1cbc5ab135991bd2b6a4b034a04aa2aa086dac1371cb9b16b8b5e2ed6b036bed",
            "0x000000000000000000000000ce23256ae677765a41e8d7e4d099359771615ca4",
            "0x000000000000000000000000000000000000000000000000000000000000000a"
          ],
          "data": "0x00000000000000000000000000000000000000000000000000000000000003e8",
          "blockHash": "0x72fee6f675dda9c1c74a156447259fcb7861102b9b222852522f0372d3fa1c98",
          "blockNumber": "0x83aa35",
          "blockTimestamp": "0x685c7454",
          "transactionHash": "0xadfaf5ca18fd9330097df932b958e26ba8246977a05602cabe207188829c49cc",
          "transactionIndex": "0x4e",
          "logIndex": "0x6c",
          "removed": false
        },
        {
          "address": "0x5dbf0c030fcdfaf95cbc1789bdd58cfae82f05e8",
          "topics": [
            "0xddf252ad1be2c89b69c2b068fc378daa952ba7f163c4a11628f55a4df523b3ef",
            "0x0000000000000000000000000000000000000000000000000000000000000000",
            "0x000000000000000000000000ce23256ae677765a41e8d7e4d099359771615ca4",
            "0x000000000000000000000000000000000000000000000000000000000000000b"
          ],
          "data": "0x",
          "blockHash": "0x72fee6f675dda9c1c74a156447259fcb7861102b9b222852522f0372d3fa1c98",
          "blockNumber": "0x83aa35",
          "blockTimestamp": "0x685c7454",
          "transactionHash": "0xadfaf5ca18fd9330097df932b958e26ba8246977a05602cabe207188829c49cc",
          "transactionIndex": "0x4e",
          "logIndex": "0x6d",
          "removed": false
        },
        {
          "address": "0x5dbf0c030fcdfaf95cbc1789bdd58cfae82f05e8",
          "topics": [
            "0x1cbc5ab135991bd2b6a4b034a04aa2aa086dac1371cb9b16b8b5e2ed6b036bed",
            "0x000000000000000000000000ce23256ae677765a41e8d7e4d099359771615ca4",
            "0x000000000000000000000000000000000000000000000000000000000000000b"
          ],
          "data": "0x00000000000000000000000000000000000000000000000000000000000003e8",
          "blockHash": "0x72fee6f675dda9c1c74a156447259fcb7861102b9b222852522f0372d3fa1c98",
          "blockNumber": "0x83aa35",
          "blockTimestamp": "0x685c7454",
          "transactionHash": "0xadfaf5ca18fd9330097df932b958e26ba8246977a05602cabe207188829c49cc",
          "transactionIndex": "0x4e",
          "logIndex": "0x6e",
          "removed": false
        }
      ],
      "logsBloom": "0x00000000000000000000084000000000000000000000000000400000000000000000000200000000000000000000000000000000040080000020000000200000000000000000000000000008000000000000000000001000000000000000000000000000020000000000000000000800000000000000000000000010000000000080000000000100010000000000000000001000000000000000000000000000000000000400000040000000000000000000000000000000000000120000000040000002000000000000000000000000002000000000000000000000000020000000000000000000000000000000000000000000000000040000000000800000",
      "type": "0x2",
      "transactionHash": "0xadfaf5ca18fd9330097df932b958e26ba8246977a05602cabe207188829c49cc",
      "transactionIndex": "0x4e",
      "blockHash": "0x72fee6f675dda9c1c74a156447259fcb7861102b9b222852522f0372d3fa1c98",
      "blockNumber": "0x83aa35",
      "gasUsed": "0x996cd",
      "effectiveGasPrice": "0x805b0b4",
      "from": "0xce23256ae677765a41e8d7e4d099359771615ca4",
      "to": "0x5dbf0c030fcdfaf95cbc1789bdd58cfae82f05e8",
      "contractAddress": null
    }
  ],
  "libraries": [],
  "pending": [],
  "returns": {},
  "timestamp": 1750889558,
  "chain": 11155111,
  "commit": null
}