{
  "transactions": [
    {
      "hash": "0xd847f047945addd54a05c0f4b7be79dbf5ad79ab3bbefd9594e1a9d3be44b397",
      "transactionType": "CALL",
      "contractName": null,
      "contractAddress": "0x80cf106b844597ccd7689790167835dd64de0e99",
      "function": "putOnSale(uint256,uint256)",
      "arguments": [
        "4",
        "4000"
      ],
      "transaction": {
        "from": "0xce23256ae677765a41e8d7e4d099359771615ca4",
        "to": "0x80cf106b844597ccd7689790167835dd64de0e99",
        "gas": "0x24b29",
        "value": "0x0",
        "input": "0x36f7992b00000000000000000000000000000000000000000000000000000000000000040000000000000000000000000000000000000000000000000000000000000fa0",
        "nonce": "0xb4",
        "chainId": "0xaa36a7"
      },
      "additionalContracts": [],
      "isFixedGasLimit": false
    }
  ],
  "receipts": [
    {
      "status": "0x1",
      "cumulativeGasUsed": "0xbeee03",
      "logs": [
        {
          "address": "0x80cf106b844597ccd7689790167835dd64de0e99",
          "topics": [
            "0x7c11ba8301c87f8a6d59779bcbe2b7446e865bd1a4359a69e5c400212e0a5795",
            "0x0000000000000000000000000000000000000000000000000000000000000004"
          ],
          "data": "0x0000000000000000000000000000000000000000000000000000000000000fa0",
          "blockHash": "0x18ae344ac93bb57bb7b2242fabc681b16dc17477a053423618f673eb23f53657",
          "blockNumber": "0x83a88c",
          "blockTimestamp": "0x685c605c",
          "transactionHash": "0xd847f047945addd54a05c0f4b7be79dbf5ad79ab3bbefd9594e1a9d3be44b397",
          "transactionIndex": "0x68",
          "logIndex": "0x7e",
          "removed": false
        }
      ],
      "logsBloom": "0x00000000000000000000000000000000000000000000000000000000000000000008000000000000000000000000000000000000000000000000000000000000000000008000000000000000000000000000000100000000000000000000000008000000000000000000000000000000000000000000000000000000000000000000000000000000000000000000000000000000000000000000000000200000000000000000000000000000000000000000000000000000002000000000000000000000000000000000000200000000000000008000000000080000000000000000000000000000000000000000000000000000000000000000000000000000",
      "type": "0x2",
      "transactionHash": "0xd847f047945addd54a05c0f4b7be79dbf5ad79ab3bbefd9594e1a9d3be44b397",
      "transactionIndex": "0x68",
      "blockHash": "0x18ae344ac93bb57bb7b2242fabc681b16dc17477a053423618f673eb23f53657",
      "blockNumber": "0x83a88c",
      "gasUsed": "0x1917b",
      "effectiveGasPrice": "0xe099cf6",
      "from": "0xce23256ae677765a41e8d7e4d099359771615ca4",
      "to": "0x80cf106b844597ccd7689790167835dd64de0e99",
      "contractAddress": null
    }
  ],
  "libraries": [],
  "pending": [],
  "returns": {},
  "timestamp": 1750884444,
  "chain": 11155111,
  "commit": null
}