{
  "transactions": [
    {
      "hash": "0xd0f23f7dd7441c10f39bf199345f12d4617fe894cbce063bd14e1fe9e949f8fa",
      "transactionType": "CALL",
      "contractName": null,
      "contractAddress": "0xf5c5b5ea90243919ea663a2d96ee06fb2650bc97",
      "function": "buy(uint256,uint256)",
      "arguments": [
        "1000",
        "5"
      ],
      "transaction": {
        "from": "0xce23256ae677765a41e8d7e4d099359771615ca4",
        "to": "0xf5c5b5ea90243919ea663a2d96ee06fb2650bc97",
        "gas": "0x106eab",
        "value": "0x0",
        "input": "0xd6febde800000000000000000000000000000000000000000000000000000000000003e80000000000000000000000000000000000000000000000000000000000000005",
        "nonce": "0x34",
        "chainId": "0xaa36a7"
      },
      "additionalContracts": [],
      "isFixedGasLimit": false
    }
  ],
  "receipts": [
    {
      "status": "0x1",
      "cumulativeGasUsed": "0x1488dbc",
      "logs": [
        {
          "address": "0xf5c5b5ea90243919ea663a2d96ee06fb2650bc97",
          "topics": [
            "0xddf252ad1be2c89b69c2b068fc378daa952ba7f163c4a11628f55a4df523b3ef",
            "0x0000000000000000000000000000000000000000000000000000000000000000",
            "0x000000000000000000000000ce23256ae677765a41e8d7e4d099359771615ca4",
            "0x0000000000000000000000000000000000000000000000000000000000000000"
          ],
          "data": "0x",
          "blockHash": "0x90de4fadfe5fc63247ec53fb47aef0f7a8b1bdc9ebf65465748a5de99f4576f6",
          "blockNumber": "0x830995",
          "blockTimestamp": "0x6854e62c",
          "transactionHash": "0xd0f23f7dd7441c10f39bf199345f12d4617fe894cbce063bd14e1fe9e949f8fa",
          "transactionIndex": "0xb9",
          "logIndex": "0xc1",
          "removed": false
        },
        {
          "address": "0xf5c5b5ea90243919ea663a2d96ee06fb2650bc97",
          "topics": [
            "0x1cbc5ab135991bd2b6a4b034a04aa2aa086dac1371cb9b16b8b5e2ed6b036bed",
            "0x000000000000000000000000ce23256ae677765a41e8d7e4d099359771615ca4",
            "0x0000000000000000000000000000000000000000000000000000000000000000"
          ],
          "data": "0x00000000000000000000000000000000000000000000000000000000000003e8",
          "blockHash": "0x90de4fadfe5fc63247ec53fb47aef0f7a8b1bdc9ebf65465748a5de99f4576f6",
          "blockNumber": "0x830995",
          "blockTimestamp": "0x6854e62c",
          "transactionHash": "0xd0f23f7dd7441c10f39bf199345f12d4617fe894cbce063bd14e1fe9e949f8fa",
          "transactionIndex": "0xb9",
          "logIndex": "0xc2",
          "removed": false
        },
        {
          "address": "0xf5c5b5ea90243919ea663a2d96ee06fb2650bc97",
          "topics": [
            "0xddf252ad1be2c89b69c2b068fc378daa952ba7f163c4a11628f55a4df523b3ef",
            "0x0000000000000000000000000000000000000000000000000000000000000000",
            "0x000000000000000000000000ce23256ae677765a41e8d7e4d099359771615ca4",
            "0x0000000000000000000000000000000000000000000000000000000000000001"
          ],
          "data": "0x",
          "blockHash": "0x90de4fadfe5fc63247ec53fb47aef0f7a8b1bdc9ebf65465748a5de99f4576f6",
          "blockNumber": "0x830995",
          "blockTimestamp": "0x6854e62c",
          "transactionHash": "0xd0f23f7dd7441c10f39bf199345f12d4617fe894cbce063bd14e1fe9e949f8fa",
          "transactionIndex": "0xb9",
          "logIndex": "0xc3",
          "removed": false
        },
        {
          "address": "0xf5c5b5ea90243919ea663a2d96ee06fb2650bc97",
          "topics": [
            "0x1cbc5ab135991bd2b6a4b034a04aa2aa086dac1371cb9b16b8b5e2ed6b036bed",
            "0x000000000000000000000000ce23256ae677765a41e8d7e4d099359771615ca4",
            "0x0000000000000000000000000000000000000000000000000000000000000001"
          ],
          "data": "0x00000000000000000000000000000000000000000000000000000000000003e8",
          "blockHash": "0x90de4fadfe5fc63247ec53fb47aef0f7a8b1bdc9ebf65465748a5de99f4576f6",
          "blockNumber": "0x830995",
          "blockTimestamp": "0x6854e62c",
          "transactionHash": "0xd0f23f7dd7441c10f39bf199345f12d4617fe894cbce063bd14e1fe9e949f8fa",
          "transactionIndex": "0xb9",
          "logIndex": "0xc4",
          "removed": false
        },
        {
          "address": "0xf5c5b5ea90243919ea663a2d96ee06fb2650bc97",
          "topics": [
            "0xddf252ad1be2c89b69c2b068fc378daa952ba7f163c4a11628f55a4df523b3ef",
            "0x0000000000000000000000000000000000000000000000000000000000000000",
            "0x000000000000000000000000ce23256ae677765a41e8d7e4d099359771615ca4",
            "0x0000000000000000000000000000000000000000000000000000000000000002"
          ],
          "data": "0x",
          "blockHash": "0x90de4fadfe5fc63247ec53fb47aef0f7a8b1bdc9ebf65465748a5de99f4576f6",
          "blockNumber": "0x830995",
          "blockTimestamp": "0x6854e62c",
          "transactionHash": "0xd0f23f7dd7441c10f39bf199345f12d4617fe894cbce063bd14e1fe9e949f8fa",
          "transactionIndex": "0xb9",
          "logIndex": "0xc5",
          "removed": false
        },
        {
          "address": "0xf5c5b5ea90243919ea663a2d96ee06fb2650bc97",
          "topics": [
            "0x1cbc5ab135991bd2b6a4b034a04aa2aa086dac1371cb9b16b8b5e2ed6b036bed",
            "0x000000000000000000000000ce23256ae677765a41e8d7e4d099359771615ca4",
            "0x0000000000000000000000000000000000000000000000000000000000000002"
          ],
          "data": "0x00000000000000000000000000000000000000000000000000000000000003e8",
          "blockHash": "0x90de4fadfe5fc63247ec53fb47aef0f7a8b1bdc9ebf65465748a5de99f4576f6",
          "blockNumber": "0x830995",
          "blockTimestamp": "0x6854e62c",
          "transactionHash": "0xd0f23f7dd7441c10f39bf199345f12d4617fe894cbce063bd14e1fe9e949f8fa",
          "transactionIndex": "0xb9",
          "logIndex": "0xc6",
          "removed": false
        },
        {
          "address": "0xf5c5b5ea90243919ea663a2d96ee06fb2650bc97",
          "topics": [
            "0xddf252ad1be2c89b69c2b068fc378daa952ba7f163c4a11628f55a4df523b3ef",
            "0x0000000000000000000000000000000000000000000000000000000000000000",
            "0x000000000000000000000000ce23256ae677765a41e8d7e4d099359771615ca4",
            "0x0000000000000000000000000000000000000000000000000000000000000003"
          ],
          "data": "0x",
          "blockHash": "0x90de4fadfe5fc63247ec53fb47aef0f7a8b1bdc9ebf65465748a5de99f4576f6",
          "blockNumber": "0x830995",
          "blockTimestamp": "0x6854e62c",
          "transactionHash": "0xd0f23f7dd7441c10f39bf199345f12d4617fe894cbce063bd14e1fe9e949f8fa",
          "transactionIndex": "0xb9",
          "logIndex": "0xc7",
          "removed": false
        },
        {
          "address": "0xf5c5b5ea90243919ea663a2d96ee06fb2650bc97",
          "topics": [
            "0x1cbc5ab135991bd2b6a4b034a04aa2aa086dac1371cb9b16b8b5e2ed6b036bed",
            "0x000000000000000000000000ce23256ae677765a41e8d7e4d099359771615ca4",
            "0x0000000000000000000000000000000000000000000000000000000000000003"
          ],
          "data": "0x00000000000000000000000000000000000000000000000000000000000003e8",
          "blockHash": "0x90de4fadfe5fc63247ec53fb47aef0f7a8b1bdc9ebf65465748a5de99f4576f6",
          "blockNumber": "0x830995",
          "blockTimestamp": "0x6854e62c",
          "transactionHash": "0xd0f23f7dd7441c10f39bf199345f12d4617fe894cbce063bd14e1fe9e949f8fa",
          "transactionIndex": "0xb9",
          "logIndex": "0xc8",
          "removed": false
        },
        {
          "address": "0xf5c5b5ea90243919ea663a2d96ee06fb2650bc97",
          "topics": [
            "0xddf252ad1be2c89b69c2b068fc378daa952ba7f163c4a11628f55a4df523b3ef",
            "0x0000000000000000000000000000000000000000000000000000000000000000",
            "0x000000000000000000000000ce23256ae677765a41e8d7e4d099359771615ca4",
            "0x0000000000000000000000000000000000000000000000000000000000000004"
          ],
          "data": "0x",
          "blockHash": "0x90de4fadfe5fc63247ec53fb47aef0f7a8b1bdc9ebf65465748a5de99f4576f6",
          "blockNumber": "0x830995",
          "blockTimestamp": "0x6854e62c",
          "transactionHash": "0xd0f23f7dd7441c10f39bf199345f12d4617fe894cbce063bd14e1fe9e949f8fa",
          "transactionIndex": "0xb9",
          "logIndex": "0xc9",
          "removed": false
        },
        {
          "address": "0xf5c5b5ea90243919ea663a2d96ee06fb2650bc97",
          "topics": [
            "0x1cbc5ab135991bd2b6a4b034a04aa2aa086dac1371cb9b16b8b5e2ed6b036bed",
            "0x000000000000000000000000ce23256ae677765a41e8d7e4d099359771615ca4",
            "0x0000000000000000000000000000000000000000000000000000000000000004"
          ],
          "data": "0x00000000000000000000000000000000000000000000000000000000000003e8",
          "blockHash": "0x90de4fadfe5fc63247ec53fb47aef0f7a8b1bdc9ebf65465748a5de99f4576f6",
          "blockNumber": "0x830995",
          "blockTimestamp": "0x6854e62c",
          "transactionHash": "0xd0f23f7dd7441c10f39bf199345f12d4617fe894cbce063bd14e1fe9e949f8fa",
          "transactionIndex": "0xb9",
          "logIndex": "0xca",
          "removed": false
        }
      ],
      "logsBloom": "0x04000000000000000000000000000000000000000000000000400000000000000000000200000000000000000000000080000000020000000000000000040000000000000000000000000008000000000000000000041000000000000000000008000000020000000000000000000800000000000000000000000010000000000000000000000100000000000000000000000000000000000000000000000000000000000400000040000100000000000000000000800000002000000000400000000002000000000000000000000000000000008010000000000000000060000000000000000000000000000000000000000000008000000000000000000004",
      "type": "0x2",
      "transactionHash": "0xd0f23f7dd7441c10f39bf199345f12d4617fe894cbce063bd14e1fe9e949f8fa",
      "transactionIndex": "0xb9",
      "blockHash": "0x90de4fadfe5fc63247ec53fb47aef0f7a8b1bdc9ebf65465748a5de99f4576f6",
      "blockNumber": "0x830995",
      "gasUsed": "0xbe58e",
      "effectiveGasPrice": "0x118608",
      "from": "0xce23256ae677765a41e8d7e4d099359771615ca4",
      "to": "0xf5c5b5ea90243919ea663a2d96ee06fb2650bc97",
      "contractAddress": null
    }
  ],
  "libraries": [],
  "pending": [],
  "returns": {},
  "timestamp": 1750394414,
  "chain": 11155111,
  "commit": null
}