{
  "transactions": [
    {
      "hash": "0xd8fc346a64785d264aa7a5caee35d505278ce9a1536b6944018af3f21516f3b6",
      "transactionType": "CALL",
      "contractName": null,
      "contractAddress": "0x5dbf0c030fcdfaf95cbc1789bdd58cfae82f05e8",
      "function": "claim(uint256[])",
      "arguments": [
        "[0, 2]"
      ],
      "transaction": {
        "from": "0xce23256ae677765a41e8d7e4d099359771615ca4",
        "to": "0x5dbf0c030fcdfaf95cbc1789bdd58cfae82f05e8",
        "gas": "0x31278",
        "value": "0x0",
        "input": "0x6ba4c1380000000000000000000000000000000000000000000000000000000000000020000000000000000000000000000000000000000000000000000000000000000200000000000000000000000000000000000000000000000000000000000000000000000000000000000000000000000000000000000000000000000000000002",
        "nonce": "0xc9",
        "chainId": "0xaa36a7"
      },
      "additionalContracts": [],
      "isFixedGasLimit": false
    }
  ],
  "receipts": [
    {
      "status": "0x1",
      "cumulativeGasUsed": "0xddaba6",
      "logs": [
        {
          "address": "0x5dbf0c030fcdfaf95cbc1789bdd58cfae82f05e8",
          "topics": [
            "0x8c5be1e5ebec7d5bd14f71427d1e84f3dd0314c0f7b2291e5b200ac8c7c3b925",
            "0x000000000000000000000000ce23256ae677765a41e8d7e4d099359771615ca4",
            "0x0000000000000000000000000000000000000000000000000000000000000000",
            "0x0000000000000000000000000000000000000000000000000000000000000000"
          ],
          "data": "0x",
          "blockHash": "0xc36d9fd8db3db1277c0e2e6fad79b5943486aef3af2e3b5793522ccea7e7c343",
          "blockNumber": "0x83a978",
          "blockTimestamp": "0x685c6b78",
          "transactionHash": "0xd8fc346a64785d264aa7a5caee35d505278ce9a1536b6944018af3f21516f3b6",
          "transactionIndex": "0x56",
          "logIndex": "0x77",
          "removed": false
        },
        {
          "address": "0x5dbf0c030fcdfaf95cbc1789bdd58cfae82f05e8",
          "topics": [
            "0xddf252ad1be2c89b69c2b068fc378daa952ba7f163c4a11628f55a4df523b3ef",
            "0x000000000000000000000000ce23256ae677765a41e8d7e4d099359771615ca4",
            "0x0000000000000000000000000000000000000000000000000000000000000000",
            "0x0000000000000000000000000000000000000000000000000000000000000000"
          ],
          "data": "0x",
          "blockHash": "0xc36d9fd8db3db1277c0e2e6fad79b5943486aef3af2e3b5793522ccea7e7c343",
          "blockNumber": "0x83a978",
          "blockTimestamp": "0x685c6b78",
          "transactionHash": "0xd8fc346a64785d264aa7a5caee35d505278ce9a1536b6944018af3f21516f3b6",
          "transactionIndex": "0x56",
          "logIndex": "0x78",
          "removed": false
        },
        {
          "address": "0x5dbf0c030fcdfaf95cbc1789bdd58cfae82f05e8",
          "topics": [
            "0x47cee97cb7acd717b3c0aa1435d004cd5b3c8c57d70dbceb4e4458bbd60e39d4",
            "0x000000000000000000000000ce23256ae677765a41e8d7e4d099359771615ca4",
            "0x0000000000000000000000000000000000000000000000000000000000000000"
          ],
          "data": "0x",
          "blockHash": "0xc36d9fd8db3db1277c0e2e6fad79b5943486aef3af2e3b5793522ccea7e7c343",
          "blockNumber": "0x83a978",
          "blockTimestamp": "0x685c6b78",
          "transactionHash": "0xd8fc346a64785d264aa7a5caee35d505278ce9a1536b6944018af3f21516f3b6",
          "transactionIndex": "0x56",
          "logIndex": "0x79",
          "removed": false
        },
        {
          "address": "0x5dbf0c030fcdfaf95cbc1789bdd58cfae82f05e8",
          "topics": [
            "0x8c5be1e5ebec7d5bd14f71427d1e84f3dd0314c0f7b2291e5b200ac8c7c3b925",
            "0x000000000000000000000000ce23256ae677765a41e8d7e4d099359771615ca4",
            "0x0000000000000000000000000000000000000000000000000000000000000000",
            "0x0000000000000000000000000000000000000000000000000000000000000002"
          ],
          "data": "0x",
          "blockHash": "0xc36d9fd8db3db1277c0e2e6fad79b5943486aef3af2e3b5793522ccea7e7c343",
          "blockNumber": "0x83a978",
          "blockTimestamp": "0x685c6b78",
          "transactionHash": "0xd8fc346a64785d264aa7a5caee35d505278ce9a1536b6944018af3f21516f3b6",
          "transactionIndex": "0x56",
          "logIndex": "0x7a",
          "removed": false
        },
        {
          "address": "0x5dbf0c030fcdfaf95cbc1789bdd58cfae82f05e8",
          "topics": [
            "0xddf252ad1be2c89b69c2b068fc378daa952ba7f163c4a11628f55a4df523b3ef",
            "0x000000000000000000000000ce23256ae677765a41e8d7e4d099359771615ca4",
            "0x0000000000000000000000000000000000000000000000000000000000000000",
            "0x0000000000000000000000000000000000000000000000000000000000000002"
          ],
          "data": "0x",
          "blockHash": "0xc36d9fd8db3db1277c0e2e6fad79b5943486aef3af2e3b5793522ccea7e7c343",
          "blockNumber": "0x83a978",
          "blockTimestamp": "0x685c6b78",
          "transactionHash": "0xd8fc346a64785d264aa7a5caee35d505278ce9a1536b6944018af3f21516f3b6",
          "transactionIndex": "0x56",
          "logIndex": "0x7b",
          "removed": false
        },
        {
          "address": "0x5dbf0c030fcdfaf95cbc1789bdd58cfae82f05e8",
          "topics": [
            "0x47cee97cb7acd717b3c0aa1435d004cd5b3c8c57d70dbceb4e4458bbd60e39d4",
            "0x000000000000000000000000ce23256ae677765a41e8d7e4d099359771615ca4",
            "0x0000000000000000000000000000000000000000000000000000000000000002"
          ],
          "data": "0x",
          "blockHash": "0xc36d9fd8db3db1277c0e2e6fad79b5943486aef3af2e3b5793522ccea7e7c343",
          "blockNumber": "0x83a978",
          "blockTimestamp": "0x685c6b78",
          "transactionHash": "0xd8fc346a64785d264aa7a5caee35d505278ce9a1536b6944018af3f21516f3b6",
          "transactionIndex": "0x56",
          "logIndex": "0x7c",
          "removed": false
        }
      ],
      "logsBloom": "0x04000000000000000000080000000000000000000000000000400000000000000000000000000000000000000000000000000010000000000100000000200000000000000000000000000008000000000000000000001000000000000000000000000000020000000000000000000800000000000000000000000010000000000000000000000100000000000000000000000000000000000000000000000000020000000000000000000100000000000000000000020000000000120000000000000002000000000000000000000000000000000000000000000000000020000010000000000000000000000000000000000000008000000000000000000000",
      "type": "0x2",
      "transactionHash": "0xd8fc346a64785d264aa7a5caee35d505278ce9a1536b6944018af3f21516f3b6",
      "transactionIndex": "0x56",
      "blockHash": "0xc36d9fd8db3db1277c0e2e6fad79b5943486aef3af2e3b5793522ccea7e7c343",
      "blockNumber": "0x83a978",
      "gasUsed": "0x219c2",
      "effectiveGasPrice": "0x565ce0a",
      "from": "0xce23256ae677765a41e8d7e4d099359771615ca4",
      "to": "0x5dbf0c030fcdfaf95cbc1789bdd58cfae82f05e8",
      "contractAddress": null
    }
  ],
  "libraries": [],
  "pending": [],
  "returns": {},
  "timestamp": 1750887289,
  "chain": 11155111,
  "commit": null
}