{
  "transactions": [
    {
      "hash": "0x10a2bdd0d41c7cca3ff617cd4be0f21cd052212fc0fb62ae30f259d12eba98cc",
      "transactionType": "CALL",
      "contractName": null,
      "contractAddress": "0xf5c5b5ea90243919ea663a2d96ee06fb2650bc97",
      "function": "buy(uint256,uint256)",
      "arguments": [
        "1000",
        "5"
      ],
      "transaction": {
        "from": "0xce23256ae677765a41e8d7e4d099359771615ca4",
        "to": "0xf5c5b5ea90243919ea663a2d96ee06fb2650bc97",
        "gas": "0x11346b",
        "value": "0x0",
        "input": "0xd6febde800000000000000000000000000000000000000000000000000000000000003e80000000000000000000000000000000000000000000000000000000000000005",
        "nonce": "0x38",
        "chainId": "0xaa36a7"
      },
      "additionalContracts": [],
      "isFixedGasLimit": false
    }
  ],
  "receipts": [
    {
      "status": "0x1",
      "cumulativeGasUsed": "0x21781c7",
      "logs": [
        {
          "address": "0xf5c5b5ea90243919ea663a2d96ee06fb2650bc97",
          "topics": [
            "0xddf252ad1be2c89b69c2b068fc378daa952ba7f163c4a11628f55a4df523b3ef",
            "0x0000000000000000000000000000000000000000000000000000000000000000",
            "0x000000000000000000000000ce23256ae677765a41e8d7e4d099359771615ca4",
            "0x0000000000000000000000000000000000000000000000000000000000000005"
          ],
          "data": "0x",
          "blockHash": "0xee9cbff644631fb2a2c05b690bad40c061ecc4d548eb408877cd2ab220bd2f3b",
          "blockNumber": "0x830b5d",
          "blockTimestamp": "0x6854fb98",
          "transactionHash": "0x10a2bdd0d41c7cca3ff617cd4be0f21cd052212fc0fb62ae30f259d12eba98cc",
          "transactionIndex": "0x50",
          "logIndex": "0x6a",
          "removed": false
        },
        {
          "address": "0xf5c5b5ea90243919ea663a2d96ee06fb2650bc97",
          "topics": [
            "0x1cbc5ab135991bd2b6a4b034a04aa2aa086dac1371cb9b16b8b5e2ed6b036bed",
            "0x000000000000000000000000ce23256ae677765a41e8d7e4d099359771615ca4",
            "0x0000000000000000000000000000000000000000000000000000000000000005"
          ],
          "data": "0x00000000000000000000000000000000000000000000000000000000000003e8",
          "blockHash": "0xee9cbff644631fb2a2c05b690bad40c061ecc4d548eb408877cd2ab220bd2f3b",
          "blockNumber": "0x830b5d",
          "blockTimestamp": "0x6854fb98",
          "transactionHash": "0x10a2bdd0d41c7cca3ff617cd4be0f21cd052212fc0fb62ae30f259d12eba98cc",
          "transactionIndex": "0x50",
          "logIndex": "0x6b",
          "removed": false
        },
        {
          "address": "0xf5c5b5ea90243919ea663a2d96ee06fb2650bc97",
          "topics": [
            "0xddf252ad1be2c89b69c2b068fc378daa952ba7f163c4a11628f55a4df523b3ef",
            "0x0000000000000000000000000000000000000000000000000000000000000000",
            "0x000000000000000000000000ce23256ae677765a41e8d7e4d099359771615ca4",
            "0x0000000000000000000000000000000000000000000000000000000000000006"
          ],
          "data": "0x",
          "blockHash": "0xee9cbff644631fb2a2c05b690bad40c061ecc4d548eb408877cd2ab220bd2f3b",
          "blockNumber": "0x830b5d",
          "blockTimestamp": "0x6854fb98",
          "transactionHash": "0x10a2bdd0d41c7cca3ff617cd4be0f21cd052212fc0fb62ae30f259d12eba98cc",
          "transactionIndex": "0x50",
          "logIndex": "0x6c",
          "removed": false
        },
        {
          "address": "0xf5c5b5ea90243919ea663a2d96ee06fb2650bc97",
          "topics": [
            "0x1cbc5ab135991bd2b6a4b034a04aa2aa086dac1371cb9b16b8b5e2ed6b036bed",
            "0x000000000000000000000000ce23256ae677765a41e8d7e4d099359771615ca4",
            "0x0000000000000000000000000000000000000000000000000000000000000006"
          ],
          "data": "0x00000000000000000000000000000000000000000000000000000000000003e8",
          "blockHash": "0xee9cbff644631fb2a2c05b690bad40c061ecc4d548eb408877cd2ab220bd2f3b",
          "blockNumber": "0x830b5d",
          "blockTimestamp": "0x6854fb98",
          "transactionHash": "0x10a2bdd0d41c7cca3ff617cd4be0f21cd052212fc0fb62ae30f259d12eba98cc",
          "transactionIndex": "0x50",
          "logIndex": "0x6d",
          "removed": false
        },
        {
          "address": "0xf5c5b5ea90243919ea663a2d96ee06fb2650bc97",
          "topics": [
            "0xddf252ad1be2c89b69c2b068fc378daa952ba7f163c4a11628f55a4df523b3ef",
            "0x0000000000000000000000000000000000000000000000000000000000000000",
            "0x000000000000000000000000ce23256ae677765a41e8d7e4d099359771615ca4",
            "0x0000000000000000000000000000000000000000000000000000000000000007"
          ],
          "data": "0x",
          "blockHash": "0xee9cbff644631fb2a2c05b690bad40c061ecc4d548eb408877cd2ab220bd2f3b",
          "blockNumber": "0x830b5d",
          "blockTimestamp": "0x6854fb98",
          "transactionHash": "0x10a2bdd0d41c7cca3ff617cd4be0f21cd052212fc0fb62ae30f259d12eba98cc",
          "transactionIndex": "0x50",
          "logIndex": "0x6e",
          "removed": false
        },
        {
          "address": "0xf5c5b5ea90243919ea663a2d96ee06fb2650bc97",
          "topics": [
            "0x1cbc5ab135991bd2b6a4b034a04aa2aa086dac1371cb9b16b8b5e2ed6b036bed",
            "0x000000000000000000000000ce23256ae677765a41e8d7e4d099359771615ca4",
            "0x0000000000000000000000000000000000000000000000000000000000000007"
          ],
          "data": "0x00000000000000000000000000000000000000000000000000000000000003e8",
          "blockHash": "0xee9cbff644631fb2a2c05b690bad40c061ecc4d548eb408877cd2ab220bd2f3b",
          "blockNumber": "0x830b5d",
          "blockTimestamp": "0x6854fb98",
          "transactionHash": "0x10a2bdd0d41c7cca3ff617cd4be0f21cd052212fc0fb62ae30f259d12eba98cc",
          "transactionIndex": "0x50",
          "logIndex": "0x6f",
          "removed": false
        },
        {
          "address": "0xf5c5b5ea90243919ea663a2d96ee06fb2650bc97",
          "topics": [
            "0xddf252ad1be2c89b69c2b068fc378daa952ba7f163c4a11628f55a4df523b3ef",
            "0x0000000000000000000000000000000000000000000000000000000000000000",
            "0x000000000000000000000000ce23256ae677765a41e8d7e4d099359771615ca4",
            "0x0000000000000000000000000000000000000000000000000000000000000008"
          ],
          "data": "0x",
          "blockHash": "0xee9cbff644631fb2a2c05b690bad40c061ecc4d548eb408877cd2ab220bd2f3b",
          "blockNumber": "0x830b5d",
          "blockTimestamp": "0x6854fb98",
          "transactionHash": "0x10a2bdd0d41c7cca3ff617cd4be0f21cd052212fc0fb62ae30f259d12eba98cc",
          "transactionIndex": "0x50",
          "logIndex": "0x70",
          "removed": false
        },
        {
          "address": "0xf5c5b5ea90243919ea663a2d96ee06fb2650bc97",
          "topics": [
            "0x1cbc5ab135991bd2b6a4b034a04aa2aa086dac1371cb9b16b8b5e2ed6b036bed",
            "0x000000000000000000000000ce23256ae677765a41e8d7e4d099359771615ca4",
            "0x0000000000000000000000000000000000000000000000000000000000000008"
          ],
          "data": "0x00000000000000000000000000000000000000000000000000000000000003e8",
          "blockHash": "0xee9cbff644631fb2a2c05b690bad40c061ecc4d548eb408877cd2ab220bd2f3b",
          "blockNumber": "0x830b5d",
          "blockTimestamp": "0x6854fb98",
          "transactionHash": "0x10a2bdd0d41c7cca3ff617cd4be0f21cd052212fc0fb62ae30f259d12eba98cc",
          "transactionIndex": "0x50",
          "logIndex": "0x71",
          "removed": false
        },
        {
          "address": "0xf5c5b5ea90243919ea663a2d96ee06fb2650bc97",
          "topics": [
            "0xddf252ad1be2c89b69c2b068fc378daa952ba7f163c4a11628f55a4df523b3ef",
            "0x0000000000000000000000000000000000000000000000000000000000000000",
            "0x000000000000000000000000ce23256ae677765a41e8d7e4d099359771615ca4",
            "0x0000000000000000000000000000000000000000000000000000000000000009"
          ],
          "data": "0x",
          "blockHash": "0xee9cbff644631fb2a2c05b690bad40c061ecc4d548eb408877cd2ab220bd2f3b",
          "blockNumber": "0x830b5d",
          "blockTimestamp": "0x6854fb98",
          "transactionHash": "0x10a2bdd0d41c7cca3ff617cd4be0f21cd052212fc0fb62ae30f259d12eba98cc",
          "transactionIndex": "0x50",
          "logIndex": "0x72",
          "removed": false
        },
        {
          "address": "0xf5c5b5ea90243919ea663a2d96ee06fb2650bc97",
          "topics": [
            "0x1cbc5ab135991bd2b6a4b034a04aa2aa086dac1371cb9b16b8b5e2ed6b036bed",
            "0x000000000000000000000000ce23256ae677765a41e8d7e4d099359771615ca4",
            "0x0000000000000000000000000000000000000000000000000000000000000009"
          ],
          "data": "0x00000000000000000000000000000000000000000000000000000000000003e8",
          "blockHash": "0xee9cbff644631fb2a2c05b690bad40c061ecc4d548eb408877cd2ab220bd2f3b",
          "blockNumber": "0x830b5d",
          "blockTimestamp": "0x6854fb98",
          "transactionHash": "0x10a2bdd0d41c7cca3ff617cd4be0f21cd052212fc0fb62ae30f259d12eba98cc",
          "transactionIndex": "0x50",
          "logIndex": "0x73",
          "removed": false
        }
      ],
      "logsBloom": "0x00000000000000000000000000000000000000000000000000400000000000000000000200000000000000000000000080001000000480000000000000200000000030000000000000000008000000000000000000001000000000000000000000000000020000000000000000000800000000000000000000000010000000000080000400000100000000000000001000001800000000000000000000000000000000000400000040000000000000000000000000000000000000080000000040000002000000000000000000000000000000000010000000000100000020000000000000000000000000000000000000000000000000000000000000800004",
      "type": "0x2",
      "transactionHash": "0x10a2bdd0d41c7cca3ff617cd4be0f21cd052212fc0fb62ae30f259d12eba98cc",
      "transactionIndex": "0x50",
      "blockHash": "0xee9cbff644631fb2a2c05b690bad40c061ecc4d548eb408877cd2ab220bd2f3b",
      "blockNumber": "0x830b5d",
      "gasUsed": "0xbc392",
      "effectiveGasPrice": "0x11b234",
      "from": "0xce23256ae677765a41e8d7e4d099359771615ca4",
      "to": "0xf5c5b5ea90243919ea663a2d96ee06fb2650bc97",
      "contractAddress": null
    }
  ],
  "libraries": [],
  "pending": [],
  "returns": {},
  "timestamp": 1750399896,
  "chain": 11155111,
  "commit": null
}