{
  "transactions": [
    {
      "hash": "0xf3de409412778d6d3005fa19e1ca40eddacd6f2b10301d8581271f60c7caefb4",
      "transactionType": "CALL",
      "contractName": null,
      "contractAddress": "0xceca2e1bca3b27d8435f99f61cea52e51a8ee6cb",
      "function": "buy(uint256,uint256)",
      "arguments": [
        "100000000000000000000",
        "4"
      ],
      "transaction": {
        "from": "0xce23256ae677765a41e8d7e4d099359771615ca4",
        "to": "0xceca2e1bca3b27d8435f99f61cea52e51a8ee6cb",
        "gas": "0xe30d9",
        "value": "0x0",
        "input": "0xd6febde80000000000000000000000000000000000000000000000056bc75e2d631000000000000000000000000000000000000000000000000000000000000000000004",
        "nonce": "0xff",
        "chainId": "0xaa36a7"
      },
      "additionalContracts": [],
      "isFixedGasLimit": false
    }
  ],
  "receipts": [
    {
      "status": "0x1",
      "cumulativeGasUsed": "0x18a0ab7",
      "logs": [
        {
          "address": "0xceca2e1bca3b27d8435f99f61cea52e51a8ee6cb",
          "topics": [
            "0xddf252ad1be2c89b69c2b068fc378daa952ba7f163c4a11628f55a4df523b3ef",
            "0x0000000000000000000000000000000000000000000000000000000000000000",
            "0x000000000000000000000000ce23256ae677765a41e8d7e4d099359771615ca4",
            "0x0000000000000000000000000000000000000000000000000000000000000000"
          ],
          "data": "0x",
          "blockHash": "0xb6cffe1026d5259cfd8f847ea7c2aa11aee0abc3c6e10065e7ac762910496cd1",
          "blockNumber": "0x845518",
          "blockTimestamp": "0x68647fd4",
          "transactionHash": "0xf3de409412778d6d3005fa19e1ca40eddacd6f2b10301d8581271f60c7caefb4",
          "transactionIndex": "0x102",
          "logIndex": "0x235",
          "removed": false
        },
        {
          "address": "0xceca2e1bca3b27d8435f99f61cea52e51a8ee6cb",
          "topics": [
            "0x1cbc5ab135991bd2b6a4b034a04aa2aa086dac1371cb9b16b8b5e2ed6b036bed",
            "0x000000000000000000000000ce23256ae677765a41e8d7e4d099359771615ca4",
            "0x0000000000000000000000000000000000000000000000000000000000000000"
          ],
          "data": "0x0000000000000000000000000000000000000000000000056bc75e2d63100000",
          "blockHash": "0xb6cffe1026d5259cfd8f847ea7c2aa11aee0abc3c6e10065e7ac762910496cd1",
          "blockNumber": "0x845518",
          "blockTimestamp": "0x68647fd4",
          "transactionHash": "0xf3de409412778d6d3005fa19e1ca40eddacd6f2b10301d8581271f60c7caefb4",
          "transactionIndex": "0x102",
          "logIndex": "0x236",
          "removed": false
        },
        {
          "address": "0xceca2e1bca3b27d8435f99f61cea52e51a8ee6cb",
          "topics": [
            "0xddf252ad1be2c89b69c2b068fc378daa952ba7f163c4a11628f55a4df523b3ef",
            "0x0000000000000000000000000000000000000000000000000000000000000000",
            "0x000000000000000000000000ce23256ae677765a41e8d7e4d099359771615ca4",
            "0x0000000000000000000000000000000000000000000000000000000000000001"
          ],
          "data": "0x",
          "blockHash": "0xb6cffe1026d5259cfd8f847ea7c2aa11aee0abc3c6e10065e7ac762910496cd1",
          "blockNumber": "0x845518",
          "blockTimestamp": "0x68647fd4",
          "transactionHash": "0xf3de409412778d6d3005fa19e1ca40eddacd6f2b10301d8581271f60c7caefb4",
          "transactionIndex": "0x102",
          "logIndex": "0x237",
          "removed": false
        },
        {
          "address": "0xceca2e1bca3b27d8435f99f61cea52e51a8ee6cb",
          "topics": [
            "0x1cbc5ab135991bd2b6a4b034a04aa2aa086dac1371cb9b16b8b5e2ed6b036bed",
            "0x000000000000000000000000ce23256ae677765a41e8d7e4d099359771615ca4",
            "0x0000000000000000000000000000000000000000000000000000000000000001"
          ],
          "data": "0x0000000000000000000000000000000000000000000000056bc75e2d63100000",
          "blockHash": "0xb6cffe1026d5259cfd8f847ea7c2aa11aee0abc3c6e10065e7ac762910496cd1",
          "blockNumber": "0x845518",
          "blockTimestamp": "0x68647fd4",
          "transactionHash": "0xf3de409412778d6d3005fa19e1ca40eddacd6f2b10301d8581271f60c7caefb4",
          "transactionIndex": "0x102",
          "logIndex": "0x238",
          "removed": false
        },
        {
          "address": "0xceca2e1bca3b27d8435f99f61cea52e51a8ee6cb",
          "topics": [
            "0xddf252ad1be2c89b69c2b068fc378daa952ba7f163c4a11628f55a4df523b3ef",
            "0x0000000000000000000000000000000000000000000000000000000000000000",
            "0x000000000000000000000000ce23256ae677765a41e8d7e4d099359771615ca4",
            "0x0000000000000000000000000000000000000000000000000000000000000002"
          ],
          "data": "0x",
          "blockHash": "0xb6cffe1026d5259cfd8f847ea7c2aa11aee0abc3c6e10065e7ac762910496cd1",
          "blockNumber": "0x845518",
          "blockTimestamp": "0x68647fd4",
          "transactionHash": "0xf3de409412778d6d3005fa19e1ca40eddacd6f2b10301d8581271f60c7caefb4",
          "transactionIndex": "0x102",
          "logIndex": "0x239",
          "removed": false
        },
        {
          "address": "0xceca2e1bca3b27d8435f99f61cea52e51a8ee6cb",
          "topics": [
            "0x1cbc5ab135991bd2b6a4b034a04aa2aa086dac1371cb9b16b8b5e2ed6b036bed",
            "0x000000000000000000000000ce23256ae677765a41e8d7e4d099359771615ca4",
            "0x0000000000000000000000000000000000000000000000000000000000000002"
          ],
          "data": "0x0000000000000000000000000000000000000000000000056bc75e2d63100000",
          "blockHash": "0xb6cffe1026d5259cfd8f847ea7c2aa11aee0abc3c6e10065e7ac762910496cd1",
          "blockNumber": "0x845518",
          "blockTimestamp": "0x68647fd4",
          "transactionHash": "0xf3de409412778d6d3005fa19e1ca40eddacd6f2b10301d8581271f60c7caefb4",
          "transactionIndex": "0x102",
          "logIndex": "0x23a",
          "removed": false
        },
        {
          "address": "0xceca2e1bca3b27d8435f99f61cea52e51a8ee6cb",
          "topics": [
            "0xddf252ad1be2c89b69c2b068fc378daa952ba7f163c4a11628f55a4df523b3ef",
            "0x0000000000000000000000000000000000000000000000000000000000000000",
            "0x000000000000000000000000ce23256ae677765a41e8d7e4d099359771615ca4",
            "0x0000000000000000000000000000000000000000000000000000000000000003"
          ],
          "data": "0x",
          "blockHash": "0xb6cffe1026d5259cfd8f847ea7c2aa11aee0abc3c6e10065e7ac762910496cd1",
          "blockNumber": "0x845518",
          "blockTimestamp": "0x68647fd4",
          "transactionHash": "0xf3de409412778d6d3005fa19e1ca40eddacd6f2b10301d8581271f60c7caefb4",
          "transactionIndex": "0x102",
          "logIndex": "0x23b",
          "removed": false
        },
        {
          "address": "0xceca2e1bca3b27d8435f99f61cea52e51a8ee6cb",
          "topics": [
            "0x1cbc5ab135991bd2b6a4b034a04aa2aa086dac1371cb9b16b8b5e2ed6b036bed",
            "0x000000000000000000000000ce23256ae677765a41e8d7e4d099359771615ca4",
            "0x0000000000000000000000000000000000000000000000000000000000000003"
          ],
          "data": "0x0000000000000000000000000000000000000000000000056bc75e2d63100000",
          "blockHash": "0xb6cffe1026d5259cfd8f847ea7c2aa11aee0abc3c6e10065e7ac762910496cd1",
          "blockNumber": "0x845518",
          "blockTimestamp": "0x68647fd4",
          "transactionHash": "0xf3de409412778d6d3005fa19e1ca40eddacd6f2b10301d8581271f60c7caefb4",
          "transactionIndex": "0x102",
          "logIndex": "0x23c",
          "removed": false
        },
        {
          "address": "0x34abd99554ef53edba3b6abebb97df2864cfa07c",
          "topics": [
            "0x8c5be1e5ebec7d5bd14f71427d1e84f3dd0314c0f7b2291e5b200ac8c7c3b925",
            "0x000000000000000000000000ce23256ae677765a41e8d7e4d099359771615ca4",
            "0x000000000000000000000000ceca2e1bca3b27d8435f99f61cea52e51a8ee6cb"
          ],
          "data": "0x00000000000000000000000000000000000000000008457f66f68892bdc00000",
          "blockHash": "0xb6cffe1026d5259cfd8f847ea7c2aa11aee0abc3c6e10065e7ac762910496cd1",
          "blockNumber": "0x845518",
          "blockTimestamp": "0x68647fd4",
          "transactionHash": "0xf3de409412778d6d3005fa19e1ca40eddacd6f2b10301d8581271f60c7caefb4",
          "transactionIndex": "0x102",
          "logIndex": "0x23d",
          "removed": false
        },
        {
          "address": "0x34abd99554ef53edba3b6abebb97df2864cfa07c",
          "topics": [
            "0xddf252ad1be2c89b69c2b068fc378daa952ba7f163c4a11628f55a4df523b3ef",
            "0x000000000000000000000000ce23256ae677765a41e8d7e4d099359771615ca4",
            "0x0000000000000000000000008d6051dedbe3b08590674b0c4324c1d8b3ad2a00"
          ],
          "data": "0x000000000000000000000000000000000000000000000015af1d78b58c400000",
          "blockHash": "0xb6cffe1026d5259cfd8f847ea7c2aa11aee0abc3c6e10065e7ac762910496cd1",
          "blockNumber": "0x845518",
          "blockTimestamp": "0x68647fd4",
          "transactionHash": "0xf3de409412778d6d3005fa19e1ca40eddacd6f2b10301d8581271f60c7caefb4",
          "transactionIndex": "0x102",
          "logIndex": "0x23e",
          "removed": false
        },
        {
          "address": "0x34abd99554ef53edba3b6abebb97df2864cfa07c",
          "topics": [
            "0x8c5be1e5ebec7d5bd14f71427d1e84f3dd0314c0f7b2291e5b200ac8c7c3b925",
            "0x000000000000000000000000ce23256ae677765a41e8d7e4d099359771615ca4",
            "0x000000000000000000000000ceca2e1bca3b27d8435f99f61cea52e51a8ee6cb"
          ],
          "data": "0x00000000000000000000000000000000000000000008457f2f73adc420300000",
          "blockHash": "0xb6cffe1026d5259cfd8f847ea7c2aa11aee0abc3c6e10065e7ac762910496cd1",
          "blockNumber": "0x845518",
          "blockTimestamp": "0x68647fd4",
          "transactionHash": "0xf3de409412778d6d3005fa19e1ca40eddacd6f2b10301d8581271f60c7caefb4",
          "transactionIndex": "0x102",
          "logIndex": "0x23f",
          "removed": false
        },
        {
          "address": "0x34abd99554ef53edba3b6abebb97df2864cfa07c",
          "topics": [
            "0xddf252ad1be2c89b69c2b068fc378daa952ba7f163c4a11628f55a4df523b3ef",
            "0x000000000000000000000000ce23256ae677765a41e8d7e4d099359771615ca4",
            "0x0000000000000000000000008d6051dedbe3b08590674b0c4324c1d8b3ad2a00"
          ],
          "data": "0x0000000000000000000000000000000000000000000000003782dace9d900000",
          "blockHash": "0xb6cffe1026d5259cfd8f847ea7c2aa11aee0abc3c6e10065e7ac762910496cd1",
          "blockNumber": "0x845518",
          "blockTimestamp": "0x68647fd4",
          "transactionHash": "0xf3de409412778d6d3005fa19e1ca40eddacd6f2b10301d8581271f60c7caefb4",
          "transactionIndex": "0x102",
          "logIndex": "0x240",
          "removed": false
        }
      ],
      "logsBloom": "0x04000000000000000000000000000000000000000000000000400000000000000200000200000000000000000000000000000000020000000000000000240000000000000000000000000008000000000000008000041000000000000000000000000000020000000000000000000840200000000000000000000010000020000000000000000100000000000000000000000000000000040000000000000000020000000400000040000100000080000000000000808000000000000000400000000002000000000000000000000000000000000002000000000000000060000010000004000000080008000000000000000000008000000000000000000000",
      "type": "0x2",
      "transactionHash": "0xf3de409412778d6d3005fa19e1ca40eddacd6f2b10301d8581271f60c7caefb4",
      "transactionIndex": "0x102",
      "blockHash": "0xb6cffe1026d5259cfd8f847ea7c2aa11aee0abc3c6e10065e7ac762910496cd1",
      "blockNumber": "0x845518",
      "gasUsed": "0xa461f",
      "effectiveGasPrice": "0xcbdfca",
      "from": "0xce23256ae677765a41e8d7e4d099359771615ca4",
      "to": "0xceca2e1bca3b27d8435f99f61cea52e51a8ee6cb",
      "contractAddress": null
    }
  ],
  "libraries": [],
  "pending": [],
  "returns": {},
  "timestamp": 1751416788,
  "chain": 11155111,
  "commit": null
}