{
  "transactions": [
    {
      "hash": "0xc9d3cd8b7467eac25909ba9880d5b0a88ea8e0086942955634dda4876450f791",
      "transactionType": "CALL",
      "contractName": null,
      "contractAddress": "0x80cf106b844597ccd7689790167835dd64de0e99",
      "function": "putOnSale(uint256,uint256)",
      "arguments": [
        "1",
        "4000"
      ],
      "transaction": {
        "from": "0xce23256ae677765a41e8d7e4d099359771615ca4",
        "to": "0x80cf106b844597ccd7689790167835dd64de0e99",
        "gas": "0x26c34",
        "value": "0x0",
        "input": "0x36f7992b00000000000000000000000000000000000000000000000000000000000000010000000000000000000000000000000000000000000000000000000000000fa0",
        "nonce": "0xaf",
        "chainId": "0xaa36a7"
      },
      "additionalContracts": [],
      "isFixedGasLimit": false
    }
  ],
  "receipts": [
    {
      "status": "0x1",
      "cumulativeGasUsed": "0x14ff842",
      "logs": [
        {
          "address": "0x80cf106b844597ccd7689790167835dd64de0e99",
          "topics": [
            "0x7c11ba8301c87f8a6d59779bcbe2b7446e865bd1a4359a69e5c400212e0a5795",
            "0x0000000000000000000000000000000000000000000000000000000000000001"
          ],
          "data": "0x0000000000000000000000000000000000000000000000000000000000000fa0",
          "blockHash": "0xd6450b611647b0d6111f78ad90db0e868c7969a5ab36665e97a5493173c36e00",
          "blockNumber": "0x83a85c",
          "blockTimestamp": "0x685c5e1c",
          "transactionHash": "0xc9d3cd8b7467eac25909ba9880d5b0a88ea8e0086942955634dda4876450f791",
          "transactionIndex": "0x4d",
          "logIndex": "0x5f",
          "removed": false
        }
      ],
      "logsBloom": "0x00000000000000000000000000000000000000000000000000000000000000000008000000000000000000000000000000000000000000000000000000040000000000008000000000000000000000000000000100040000000000000000000000000000000000000000000000000000000000000000000000000000000000000000000000000000000000000000000000000000000000000000000000200000000000000000000000000000000000000000000000000000000000000000000000000000000000000000000200000000000000000000000000080000000040000000000000000000000000000000000000000000000000000000000000000000",
      "type": "0x2",
      "transactionHash": "0xc9d3cd8b7467eac25909ba9880d5b0a88ea8e0086942955634dda4876450f791",
      "transactionIndex": "0x4d",
      "blockHash": "0xd6450b611647b0d6111f78ad90db0e868c7969a5ab36665e97a5493173c36e00",
      "blockNumber": "0x83a85c",
      "gasUsed": "0x1c105",
      "effectiveGasPrice": "0x1c65a09d",
      "from": "0xce23256ae677765a41e8d7e4d099359771615ca4",
      "to": "0x80cf106b844597ccd7689790167835dd64de0e99",
      "contractAddress": null
    }
  ],
  "libraries": [],
  "pending": [],
  "returns": {},
  "timestamp": 1750883868,
  "chain": 11155111,
  "commit": null
}