{
  "transactions": [
    {
      "hash": "0xd6c2905ebec776561f78d6c1a03d87f94d0ffd2a7ae82b2619b85b3d56d014ba",
      "transactionType": "CALL",
      "contractName": null,
      "contractAddress": "0x5a939425c4f35ccf78db5fcc2711a8e9036a325f",
      "function": "buy(uint256,uint256)",
      "arguments": [
        "40000000000000000000",
        "4"
      ],
      "transaction": {
        "from": "0xce23256ae677765a41e8d7e4d099359771615ca4",
        "to": "0x5a939425c4f35ccf78db5fcc2711a8e9036a325f",
        "gas": "0xe30d9",
        "value": "0x0",
        "input": "0xd6febde80000000000000000000000000000000000000000000000022b1c8c1227a000000000000000000000000000000000000000000000000000000000000000000004",
        "nonce": "0x111",
        "chainId": "0xaa36a7"
      },
      "additionalContracts": [],
      "isFixedGasLimit": false
    }
  ],
  "receipts": [
    {
      "status": "0x1",
      "cumulativeGasUsed": "0x2ca39db",
      "logs": [
        {
          "address": "0x5a939425c4f35ccf78db5fcc2711a8e9036a325f",
          "topics": [
            "0xddf252ad1be2c89b69c2b068fc378daa952ba7f163c4a11628f55a4df523b3ef",
            "0x0000000000000000000000000000000000000000000000000000000000000000",
            "0x000000000000000000000000ce23256ae677765a41e8d7e4d099359771615ca4",
            "0x0000000000000000000000000000000000000000000000000000000000000000"
          ],
          "data": "0x",
          "blockHash": "0xa88ea39a07907b7b0bb280843acc561e4775f2dff5ea2ba48b521f61293e7f32",
          "blockNumber": "0x846f11",
          "blockTimestamp": "0x6865b81c",
          "transactionHash": "0xd6c2905ebec776561f78d6c1a03d87f94d0ffd2a7ae82b2619b85b3d56d014ba",
          "transactionIndex": "0x1b2",
          "logIndex": "0x216",
          "removed": false
        },
        {
          "address": "0x5a939425c4f35ccf78db5fcc2711a8e9036a325f",
          "topics": [
            "0x1cbc5ab135991bd2b6a4b034a04aa2aa086dac1371cb9b16b8b5e2ed6b036bed",
            "0x000000000000000000000000ce23256ae677765a41e8d7e4d099359771615ca4",
            "0x0000000000000000000000000000000000000000000000000000000000000000"
          ],
          "data": "0x0000000000000000000000000000000000000000000000022b1c8c1227a00000",
          "blockHash": "0xa88ea39a07907b7b0bb280843acc561e4775f2dff5ea2ba48b521f61293e7f32",
          "blockNumber": "0x846f11",
          "blockTimestamp": "0x6865b81c",
          "transactionHash": "0xd6c2905ebec776561f78d6c1a03d87f94d0ffd2a7ae82b2619b85b3d56d014ba",
          "transactionIndex": "0x1b2",
          "logIndex": "0x217",
          "removed": false
        },
        {
          "address": "0x5a939425c4f35ccf78db5fcc2711a8e9036a325f",
          "topics": [
            "0xddf252ad1be2c89b69c2b068fc378daa952ba7f163c4a11628f55a4df523b3ef",
            "0x0000000000000000000000000000000000000000000000000000000000000000",
            "0x000000000000000000000000ce23256ae677765a41e8d7e4d099359771615ca4",
            "0x0000000000000000000000000000000000000000000000000000000000000001"
          ],
          "data": "0x",
          "blockHash": "0xa88ea39a07907b7b0bb280843acc561e4775f2dff5ea2ba48b521f61293e7f32",
          "blockNumber": "0x846f11",
          "blockTimestamp": "0x6865b81c",
          "transactionHash": "0xd6c2905ebec776561f78d6c1a03d87f94d0ffd2a7ae82b2619b85b3d56d014ba",
          "transactionIndex": "0x1b2",
          "logIndex": "0x218",
          "removed": false
        },
        {
          "address": "0x5a939425c4f35ccf78db5fcc2711a8e9036a325f",
          "topics": [
            "0x1cbc5ab135991bd2b6a4b034a04aa2aa086dac1371cb9b16b8b5e2ed6b036bed",
            "0x000000000000000000000000ce23256ae677765a41e8d7e4d099359771615ca4",
            "0x0000000000000000000000000000000000000000000000000000000000000001"
          ],
          "data": "0x0000000000000000000000000000000000000000000000022b1c8c1227a00000",
          "blockHash": "0xa88ea39a07907b7b0bb280843acc561e4775f2dff5ea2ba48b521f61293e7f32",
          "blockNumber": "0x846f11",
          "blockTimestamp": "0x6865b81c",
          "transactionHash": "0xd6c2905ebec776561f78d6c1a03d87f94d0ffd2a7ae82b2619b85b3d56d014ba",
          "transactionIndex": "0x1b2",
          "logIndex": "0x219",
          "removed": false
        },
        {
          "address": "0x5a939425c4f35ccf78db5fcc2711a8e9036a325f",
          "topics": [
            "0xddf252ad1be2c89b69c2b068fc378daa952ba7f163c4a11628f55a4df523b3ef",
            "0x0000000000000000000000000000000000000000000000000000000000000000",
            "0x000000000000000000000000ce23256ae677765a41e8d7e4d099359771615ca4",
            "0x0000000000000000000000000000000000000000000000000000000000000002"
          ],
          "data": "0x",
          "blockHash": "0xa88ea39a07907b7b0bb280843acc561e4775f2dff5ea2ba48b521f61293e7f32",
          "blockNumber": "0x846f11",
          "blockTimestamp": "0x6865b81c",
          "transactionHash": "0xd6c2905ebec776561f78d6c1a03d87f94d0ffd2a7ae82b2619b85b3d56d014ba",
          "transactionIndex": "0x1b2",
          "logIndex": "0x21a",
          "removed": false
        },
        {
          "address": "0x5a939425c4f35ccf78db5fcc2711a8e9036a325f",
          "topics": [
            "0x1cbc5ab135991bd2b6a4b034a04aa2aa086dac1371cb9b16b8b5e2ed6b036bed",
            "0x000000000000000000000000ce23256ae677765a41e8d7e4d099359771615ca4",
            "0x0000000000000000000000000000000000000000000000000000000000000002"
          ],
          "data": "0x0000000000000000000000000000000000000000000000022b1c8c1227a00000",
          "blockHash": "0xa88ea39a07907b7b0bb280843acc561e4775f2dff5ea2ba48b521f61293e7f32",
          "blockNumber": "0x846f11",
          "blockTimestamp": "0x6865b81c",
          "transactionHash": "0xd6c2905ebec776561f78d6c1a03d87f94d0ffd2a7ae82b2619b85b3d56d014ba",
          "transactionIndex": "0x1b2",
          "logIndex": "0x21b",
          "removed": false
        },
        {
          "address": "0x5a939425c4f35ccf78db5fcc2711a8e9036a325f",
          "topics": [
            "0xddf252ad1be2c89b69c2b068fc378daa952ba7f163c4a11628f55a4df523b3ef",
            "0x0000000000000000000000000000000000000000000000000000000000000000",
            "0x000000000000000000000000ce23256ae677765a41e8d7e4d099359771615ca4",
            "0x0000000000000000000000000000000000000000000000000000000000000003"
          ],
          "data": "0x",
          "blockHash": "0xa88ea39a07907b7b0bb280843acc561e4775f2dff5ea2ba48b521f61293e7f32",
          "blockNumber": "0x846f11",
          "blockTimestamp": "0x6865b81c",
          "transactionHash": "0xd6c2905ebec776561f78d6c1a03d87f94d0ffd2a7ae82b2619b85b3d56d014ba",
          "transactionIndex": "0x1b2",
          "logIndex": "0x21c",
          "removed": false
        },
        {
          "address": "0x5a939425c4f35ccf78db5fcc2711a8e9036a325f",
          "topics": [
            "0x1cbc5ab135991bd2b6a4b034a04aa2aa086dac1371cb9b16b8b5e2ed6b036bed",
            "0x000000000000000000000000ce23256ae677765a41e8d7e4d099359771615ca4",
            "0x0000000000000000000000000000000000000000000000000000000000000003"
          ],
          "data": "0x0000000000000000000000000000000000000000000000022b1c8c1227a00000",
          "blockHash": "0xa88ea39a07907b7b0bb280843acc561e4775f2dff5ea2ba48b521f61293e7f32",
          "blockNumber": "0x846f11",
          "blockTimestamp": "0x6865b81c",
          "transactionHash": "0xd6c2905ebec776561f78d6c1a03d87f94d0ffd2a7ae82b2619b85b3d56d014ba",
          "transactionIndex": "0x1b2",
          "logIndex": "0x21d",
          "removed": false
        },
        {
          "address": "0x34abd99554ef53edba3b6abebb97df2864cfa07c",
          "topics": [
            "0x8c5be1e5ebec7d5bd14f71427d1e84f3dd0314c0f7b2291e5b200ac8c7c3b925",
            "0x000000000000000000000000ce23256ae677765a41e8d7e4d099359771615ca4",
            "0x0000000000000000000000005a939425c4f35ccf78db5fcc2711a8e9036a325f"
          ],
          "data": "0x00000000000000000000000000000000000000000008458c69a1d0ffab800000",
          "blockHash": "0xa88ea39a07907b7b0bb280843acc561e4775f2dff5ea2ba48b521f61293e7f32",
          "blockNumber": "0x846f11",
          "blockTimestamp": "0x6865b81c",
          "transactionHash": "0xd6c2905ebec776561f78d6c1a03d87f94d0ffd2a7ae82b2619b85b3d56d014ba",
          "transactionIndex": "0x1b2",
          "logIndex": "0x21e",
          "removed": false
        },
        {
          "address": "0x34abd99554ef53edba3b6abebb97df2864cfa07c",
          "topics": [
            "0xddf252ad1be2c89b69c2b068fc378daa952ba7f163c4a11628f55a4df523b3ef",
            "0x000000000000000000000000ce23256ae677765a41e8d7e4d099359771615ca4",
            "0x0000000000000000000000008d6051dedbe3b08590674b0c4324c1d8b3ad2a00"
          ],
          "data": "0x000000000000000000000000000000000000000000000008ac7230489e800000",
          "blockHash": "0xa88ea39a07907b7b0bb280843acc561e4775f2dff5ea2ba48b521f61293e7f32",
          "blockNumber": "0x846f11",
          "blockTimestamp": "0x6865b81c",
          "transactionHash": "0xd6c2905ebec776561f78d6c1a03d87f94d0ffd2a7ae82b2619b85b3d56d014ba",
          "transactionIndex": "0x1b2",
          "logIndex": "0x21f",
          "removed": false
        },
        {
          "address": "0x34abd99554ef53edba3b6abebb97df2864cfa07c",
          "topics": [
            "0x8c5be1e5ebec7d5bd14f71427d1e84f3dd0314c0f7b2291e5b200ac8c7c3b925",
            "0x000000000000000000000000ce23256ae677765a41e8d7e4d099359771615ca4",
            "0x0000000000000000000000005a939425c4f35ccf78db5fcc2711a8e9036a325f"
          ],
          "data": "0x00000000000000000000000000000000000000000008458c536d7979d2e00000",
          "blockHash": "0xa88ea39a07907b7b0bb280843acc561e4775f2dff5ea2ba48b521f61293e7f32",
          "blockNumber": "0x846f11",
          "blockTimestamp": "0x6865b81c",
          "transactionHash": "0xd6c2905ebec776561f78d6c1a03d87f94d0ffd2a7ae82b2619b85b3d56d014ba",
          "transactionIndex": "0x1b2",
          "logIndex": "0x220",
          "removed": false
        },
        {
          "address": "0x34abd99554ef53edba3b6abebb97df2864cfa07c",
          "topics": [
            "0xddf252ad1be2c89b69c2b068fc378daa952ba7f163c4a11628f55a4df523b3ef",
            "0x000000000000000000000000ce23256ae677765a41e8d7e4d099359771615ca4",
            "0x0000000000000000000000008d6051dedbe3b08590674b0c4324c1d8b3ad2a00"
          ],
          "data": "0x00000000000000000000000000000000000000000000000016345785d8a00000",
          "blockHash": "0xa88ea39a07907b7b0bb280843acc561e4775f2dff5ea2ba48b521f61293e7f32",
          "blockNumber": "0x846f11",
          "blockTimestamp": "0x6865b81c",
          "transactionHash": "0xd6c2905ebec776561f78d6c1a03d87f94d0ffd2a7ae82b2619b85b3d56d014ba",
          "transactionIndex": "0x1b2",
          "logIndex": "0x221",
          "removed": false
        }
      ],
      "logsBloom": "0x04000000000000000000000000000000000000000000000000400000000000000200000200000002100000000000000000000000020000000000000000240000000000000000000000000008000000000000008000041000002000000000000000000000020000000000000000000800000000000000000000000010000020000000000000000100000000000000000000000000000000000000000000000000020000000400000040000100000080000000000000800001000000000800400000000002000000000000000000000000000000000002000000000000000060000010000004000000000000000000000000000000008000000000000000000000",
      "type": "0x2",
      "transactionHash": "0xd6c2905ebec776561f78d6c1a03d87f94d0ffd2a7ae82b2619b85b3d56d014ba",
      "transactionIndex": "0x1b2",
      "blockHash": "0xa88ea39a07907b7b0bb280843acc561e4775f2dff5ea2ba48b521f61293e7f32",
      "blockNumber": "0x846f11",
      "gasUsed": "0xa461f",
      "effectiveGasPrice": "0xc0e473",
      "from": "0xce23256ae677765a41e8d7e4d099359771615ca4",
      "to": "0x5a939425c4f35ccf78db5fcc2711a8e9036a325f",
      "contractAddress": null
    }
  ],
  "libraries": [],
  "pending": [],
  "returns": {},
  "timestamp": 1751496733,
  "chain": 11155111,
  "commit": null
}