{
  "transactions": [
    {
      "hash": "0xa6c9e6516e15afde9e48d27bf77bfba2ee730339a0decbe915a4d6e8e8ee3b64",
      "transactionType": "CALL",
      "contractName": null,
      "contractAddress": "0x9cdcb6446da733b6d37b486f918ba59caaa4f8a5",
      "function": "buy(uint256,uint256)",
      "arguments": [
        "100",
        "4"
      ],
      "transaction": {
        "from": "0xce23256ae677765a41e8d7e4d099359771615ca4",
        "to": "0x9cdcb6446da733b6d37b486f918ba59caaa4f8a5",
        "gas": "0xd6b04",
        "value": "0x0",
        "input": "0xd6febde800000000000000000000000000000000000000000000000000000000000000640000000000000000000000000000000000000000000000000000000000000004",
        "nonce": "0x7f",
        "chainId": "0xaa36a7"
      },
      "additionalContracts": [],
      "isFixedGasLimit": false
    }
  ],
  "receipts": [
    {
      "status": "0x1",
      "cumulativeGasUsed": "0xdc72fc",
      "logs": [
        {
          "address": "0x9cdcb6446da733b6d37b486f918ba59caaa4f8a5",
          "topics": [
            "0xddf252ad1be2c89b69c2b068fc378daa952ba7f163c4a11628f55a4df523b3ef",
            "0x0000000000000000000000000000000000000000000000000000000000000000",
            "0x000000000000000000000000ce23256ae677765a41e8d7e4d099359771615ca4",
            "0x0000000000000000000000000000000000000000000000000000000000000000"
          ],
          "data": "0x",
          "blockHash": "0x3e30bb04322eed9d078ee40fdc81716a36ee0f946590a0ef8915f5bde8a271f2",
          "blockNumber": "0x833f19",
          "blockTimestamp": "0x6857697c",
          "transactionHash": "0xa6c9e6516e15afde9e48d27bf77bfba2ee730339a0decbe915a4d6e8e8ee3b64",
          "transactionIndex": "0xd2",
          "logIndex": "0x86",
          "removed": false
        },
        {
          "address": "0x9cdcb6446da733b6d37b486f918ba59caaa4f8a5",
          "topics": [
            "0x1cbc5ab135991bd2b6a4b034a04aa2aa086dac1371cb9b16b8b5e2ed6b036bed",
            "0x000000000000000000000000ce23256ae677765a41e8d7e4d099359771615ca4",
            "0x0000000000000000000000000000000000000000000000000000000000000000"
          ],
          "data": "0x0000000000000000000000000000000000000000000000000000000000000064",
          "blockHash": "0x3e30bb04322eed9d078ee40fdc81716a36ee0f946590a0ef8915f5bde8a271f2",
          "blockNumber": "0x833f19",
          "blockTimestamp": "0x6857697c",
          "transactionHash": "0xa6c9e6516e15afde9e48d27bf77bfba2ee730339a0decbe915a4d6e8e8ee3b64",
          "transactionIndex": "0xd2",
          "logIndex": "0x87",
          "removed": false
        },
        {
          "address": "0x9cdcb6446da733b6d37b486f918ba59caaa4f8a5",
          "topics": [
            "0xddf252ad1be2c89b69c2b068fc378daa952ba7f163c4a11628f55a4df523b3ef",
            "0x0000000000000000000000000000000000000000000000000000000000000000",
            "0x000000000000000000000000ce23256ae677765a41e8d7e4d099359771615ca4",
            "0x0000000000000000000000000000000000000000000000000000000000000001"
          ],
          "data": "0x",
          "blockHash": "0x3e30bb04322eed9d078ee40fdc81716a36ee0f946590a0ef8915f5bde8a271f2",
          "blockNumber": "0x833f19",
          "blockTimestamp": "0x6857697c",
          "transactionHash": "0xa6c9e6516e15afde9e48d27bf77bfba2ee730339a0decbe915a4d6e8e8ee3b64",
          "transactionIndex": "0xd2",
          "logIndex": "0x88",
          "removed": false
        },
        {
          "address": "0x9cdcb6446da733b6d37b486f918ba59caaa4f8a5",
          "topics": [
            "0x1cbc5ab135991bd2b6a4b034a04aa2aa086dac1371cb9b16b8b5e2ed6b036bed",
            "0x000000000000000000000000ce23256ae677765a41e8d7e4d099359771615ca4",
            "0x0000000000000000000000000000000000000000000000000000000000000001"
          ],
          "data": "0x0000000000000000000000000000000000000000000000000000000000000064",
          "blockHash": "0x3e30bb04322eed9d078ee40fdc81716a36ee0f946590a0ef8915f5bde8a271f2",
          "blockNumber": "0x833f19",
          "blockTimestamp": "0x6857697c",
          "transactionHash": "0xa6c9e6516e15afde9e48d27bf77bfba2ee730339a0decbe915a4d6e8e8ee3b64",
          "transactionIndex": "0xd2",
          "logIndex": "0x89",
          "removed": false
        },
        {
          "address": "0x9cdcb6446da733b6d37b486f918ba59caaa4f8a5",
          "topics": [
            "0xddf252ad1be2c89b69c2b068fc378daa952ba7f163c4a11628f55a4df523b3ef",
            "0x0000000000000000000000000000000000000000000000000000000000000000",
            "0x000000000000000000000000ce23256ae677765a41e8d7e4d099359771615ca4",
            "0x0000000000000000000000000000000000000000000000000000000000000002"
          ],
          "data": "0x",
          "blockHash": "0x3e30bb04322eed9d078ee40fdc81716a36ee0f946590a0ef8915f5bde8a271f2",
          "blockNumber": "0x833f19",
          "blockTimestamp": "0x6857697c",
          "transactionHash": "0xa6c9e6516e15afde9e48d27bf77bfba2ee730339a0decbe915a4d6e8e8ee3b64",
          "transactionIndex": "0xd2",
          "logIndex": "0x8a",
          "removed": false
        },
        {
          "address": "0x9cdcb6446da733b6d37b486f918ba59caaa4f8a5",
          "topics": [
            "0x1cbc5ab135991bd2b6a4b034a04aa2aa086dac1371cb9b16b8b5e2ed6b036bed",
            "0x000000000000000000000000ce23256ae677765a41e8d7e4d099359771615ca4",
            "0x0000000000000000000000000000000000000000000000000000000000000002"
          ],
          "data": "0x0000000000000000000000000000000000000000000000000000000000000064",
          "blockHash": "0x3e30bb04322eed9d078ee40fdc81716a36ee0f946590a0ef8915f5bde8a271f2",
          "blockNumber": "0x833f19",
          "blockTimestamp": "0x6857697c",
          "transactionHash": "0xa6c9e6516e15afde9e48d27bf77bfba2ee730339a0decbe915a4d6e8e8ee3b64",
          "transactionIndex": "0xd2",
          "logIndex": "0x8b",
          "removed": false
        },
        {
          "address": "0x9cdcb6446da733b6d37b486f918ba59caaa4f8a5",
          "topics": [
            "0xddf252ad1be2c89b69c2b068fc378daa952ba7f163c4a11628f55a4df523b3ef",
            "0x0000000000000000000000000000000000000000000000000000000000000000",
            "0x000000000000000000000000ce23256ae677765a41e8d7e4d099359771615ca4",
            "0x0000000000000000000000000000000000000000000000000000000000000003"
          ],
          "data": "0x",
          "blockHash": "0x3e30bb04322eed9d078ee40fdc81716a36ee0f946590a0ef8915f5bde8a271f2",
          "blockNumber": "0x833f19",
          "blockTimestamp": "0x6857697c",
          "transactionHash": "0xa6c9e6516e15afde9e48d27bf77bfba2ee730339a0decbe915a4d6e8e8ee3b64",
          "transactionIndex": "0xd2",
          "logIndex": "0x8c",
          "removed": false
        },
        {
          "address": "0x9cdcb6446da733b6d37b486f918ba59caaa4f8a5",
          "topics": [
            "0x1cbc5ab135991bd2b6a4b034a04aa2aa086dac1371cb9b16b8b5e2ed6b036bed",
            "0x000000000000000000000000ce23256ae677765a41e8d7e4d099359771615ca4",
            "0x0000000000000000000000000000000000000000000000000000000000000003"
          ],
          "data": "0x0000000000000000000000000000000000000000000000000000000000000064",
          "blockHash": "0x3e30bb04322eed9d078ee40fdc81716a36ee0f946590a0ef8915f5bde8a271f2",
          "blockNumber": "0x833f19",
          "blockTimestamp": "0x6857697c",
          "transactionHash": "0xa6c9e6516e15afde9e48d27bf77bfba2ee730339a0decbe915a4d6e8e8ee3b64",
          "transactionIndex": "0xd2",
          "logIndex": "0x8d",
          "removed": false
        }
      ],
      "logsBloom": "0x04000000000000000004000000000000000000000000000000400000000000000000000200000000000000000000000000000000020000000000000000040000000000000000000000000008000000000010000000041000000000000000000000000000020000000000000000000800000000000000000000000010000000000000000000000100000000000000000000000000000000000000000000000000000000000400000040000100000000000000020000800000000000000000400000000002000000000000000000000000000000000000000000000000000060000000000000000000000000000000000000000000008000000000000000000000",
      "type": "0x2",
      "transactionHash": "0xa6c9e6516e15afde9e48d27bf77bfba2ee730339a0decbe915a4d6e8e8ee3b64",
      "transactionIndex": "0xd2",
      "blockHash": "0x3e30bb04322eed9d078ee40fdc81716a36ee0f946590a0ef8915f5bde8a271f2",
      "blockNumber": "0x833f19",
      "gasUsed": "0x9b6e4",
      "effectiveGasPrice": "0xf427a",
      "from": "0xce23256ae677765a41e8d7e4d099359771615ca4",
      "to": "0x9cdcb6446da733b6d37b486f918ba59caaa4f8a5",
      "contractAddress": null
    }
  ],
  "libraries": [],
  "pending": [],
  "returns": {},
  "timestamp": 1750559098,
  "chain": 11155111,
  "commit": null
}