{
  "transactions": [
    {
      "hash": "0x1e9ce8b9c99012ff60205bb09afe63c050edd32f23b294b5839c4810caceb581",
      "transactionType": "CALL",
      "contractName": null,
      "contractAddress": "0x5a939425c4f35ccf78db5fcc2711a8e9036a325f",
      "function": "putOnSale(uint256,uint256)",
      "arguments": [
        "4",
        "400000000000000000000"
      ],
      "transaction": {
        "from": "0x129aa6ab9afc5135a72cef4868175cf906942a14",
        "to": "0x5a939425c4f35ccf78db5fcc2711a8e9036a325f",
        "gas": "0x22be7",
        "value": "0x0",
        "input": "0x36f7992b0000000000000000000000000000000000000000000000000000000000000004000000000000000000000000000000000000000000000015af1d78b58c400000",
        "nonce": "0xe",
        "chainId": "0xaa36a7"
      },
      "additionalContracts": [],
      "isFixedGasLimit": false
    }
  ],
  "receipts": [
    {
      "status": "0x1",
      "cumulativeGasUsed": "0x1efc2ac",
      "logs": [
        {
          "address": "0x5a939425c4f35ccf78db5fcc2711a8e9036a325f",
          "topics": [
            "0x7c11ba8301c87f8a6d59779bcbe2b7446e865bd1a4359a69e5c400212e0a5795",
            "0x0000000000000000000000000000000000000000000000000000000000000004"
          ],
          "data": "0x000000000000000000000000000000000000000000000015af1d78b58c400000",
          "blockHash": "0xcda8eb1f832d95a1887edcfed4c5b5fd5a87f727fb2cd9e3f453fc334174c03c",
          "blockNumber": "0x84723d",
          "blockTimestamp": "0x6865de38",
          "transactionHash": "0x1e9ce8b9c99012ff60205bb09afe63c050edd32f23b294b5839c4810caceb581",
          "transactionIndex": "0x1e4",
          "logIndex": "0x27b",
          "removed": false
        }
      ],
      "logsBloom": "0x00000000000000000000000000000000000000000000000000000000000000000000000000000000100000000000000000000000000000000000000000000000000000000000000000000000000000000000000100001000000000000000000008000000000000000000000000000000000000000000000000000000000000000000000000000000000000000000000000000000000000000000000000200000000000000000000000000000000000000000000000000001002000000000000000000000000000000000000200000000000000008000000000000000000000000000000000000000000000000000000000000000000000000000000000000000",
      "type": "0x2",
      "transactionHash": "0x1e9ce8b9c99012ff60205bb09afe63c050edd32f23b294b5839c4810caceb581",
      "transactionIndex": "0x1e4",
      "blockHash": "0xcda8eb1f832d95a1887edcfed4c5b5fd5a87f727fb2cd9e3f453fc334174c03c",
      "blockNumber": "0x84723d",
      "gasUsed": "0x19277",
      "effectiveGasPrice": "0x2c261ade",
      "from": "0x129aa6ab9afc5135a72cef4868175cf906942a14",
      "to": "0x5a939425c4f35ccf78db5fcc2711a8e9036a325f",
      "contractAddress": null
    }
  ],
  "libraries": [],
  "pending": [],
  "returns": {},
  "timestamp": 1751506491,
  "chain": 11155111,
  "commit": null
}