{
  "transactions": [
    {
      "hash": "0x1da0d30399a694da15d52c01e84bdc4a1817fbdd625e99c3988d3b1c0984c316",
      "transactionType": "CALL",
      "contractName": null,
      "contractAddress": "0xe4c2f1c920dfc99ad1ea84180f2a69ce24c8f554",
      "function": "buy(address,uint256,uint256)",
      "arguments": [
        "0xcE23256ae677765a41E8D7E4d099359771615ca4",
        "1000",
        "4"
      ],
      "transaction": {
        "from": "0xce23256ae677765a41e8d7e4d099359771615ca4",
        "to": "0xe4c2f1c920dfc99ad1ea84180f2a69ce24c8f554",
        "gas": "0xe05c4",
        "value": "0x0",
        "input": "0xa59ac6dd000000000000000000000000ce23256ae677765a41e8d7e4d099359771615ca400000000000000000000000000000000000000000000000000000000000003e80000000000000000000000000000000000000000000000000000000000000004",
        "nonce": "0xa7",
        "chainId": "0xaa36a7"
      },
      "additionalContracts": [],
      "isFixedGasLimit": false
    }
  ],
  "receipts": [
    {
      "status": "0x1",
      "cumulativeGasUsed": "0x1636162",
      "logs": [
        {
          "address": "0xe4c2f1c920dfc99ad1ea84180f2a69ce24c8f554",
          "topics": [
            "0xddf252ad1be2c89b69c2b068fc378daa952ba7f163c4a11628f55a4df523b3ef",
            "0x0000000000000000000000000000000000000000000000000000000000000000",
            "0x000000000000000000000000ce23256ae677765a41e8d7e4d099359771615ca4",
            "0x0000000000000000000000000000000000000000000000000000000000000008"
          ],
          "data": "0x",
          "blockHash": "0x0ff3dff6f5f005195f6d61e39c0732f669ec8f19aa2e495773b12a9c9900320c",
          "blockNumber": "0x83a71e",
          "blockTimestamp": "0x685c4f1c",
          "transactionHash": "0x1da0d30399a694da15d52c01e84bdc4a1817fbdd625e99c3988d3b1c0984c316",
          "transactionIndex": "0xdd",
          "logIndex": "0xaf",
          "removed": false
        },
        {
          "address": "0xe4c2f1c920dfc99ad1ea84180f2a69ce24c8f554",
          "topics": [
            "0x1cbc5ab135991bd2b6a4b034a04aa2aa086dac1371cb9b16b8b5e2ed6b036bed",
            "0x000000000000000000000000ce23256ae677765a41e8d7e4d099359771615ca4",
            "0x0000000000000000000000000000000000000000000000000000000000000008"
          ],
          "data": "0x00000000000000000000000000000000000000000000000000000000000003e8",
          "blockHash": "0x0ff3dff6f5f005195f6d61e39c0732f669ec8f19aa2e495773b12a9c9900320c",
          "blockNumber": "0x83a71e",
          "blockTimestamp": "0x685c4f1c",
          "transactionHash": "0x1da0d30399a694da15d52c01e84bdc4a1817fbdd625e99c3988d3b1c0984c316",
          "transactionIndex": "0xdd",
          "logIndex": "0xb0",
          "removed": false
        },
        {
          "address": "0xe4c2f1c920dfc99ad1ea84180f2a69ce24c8f554",
          "topics": [
            "0xddf252ad1be2c89b69c2b068fc378daa952ba7f163c4a11628f55a4df523b3ef",
            "0x0000000000000000000000000000000000000000000000000000000000000000",
            "0x000000000000000000000000ce23256ae677765a41e8d7e4d099359771615ca4",
            "0x0000000000000000000000000000000000000000000000000000000000000009"
          ],
          "data": "0x",
          "blockHash": "0x0ff3dff6f5f005195f6d61e39c0732f669ec8f19aa2e495773b12a9c9900320c",
          "blockNumber": "0x83a71e",
          "blockTimestamp": "0x685c4f1c",
          "transactionHash": "0x1da0d30399a694da15d52c01e84bdc4a1817fbdd625e99c3988d3b1c0984c316",
          "transactionIndex": "0xdd",
          "logIndex": "0xb1",
          "removed": false
        },
        {
          "address": "0xe4c2f1c920dfc99ad1ea84180f2a69ce24c8f554",
          "topics": [
            "0x1cbc5ab135991bd2b6a4b034a04aa2aa086dac1371cb9b16b8b5e2ed6b036bed",
            "0x000000000000000000000000ce23256ae677765a41e8d7e4d099359771615ca4",
            "0x0000000000000000000000000000000000000000000000000000000000000009"
          ],
          "data": "0x00000000000000000000000000000000000000000000000000000000000003e8",
          "blockHash": "0x0ff3dff6f5f005195f6d61e39c0732f669ec8f19aa2e495773b12a9c9900320c",
          "blockNumber": "0x83a71e",
          "blockTimestamp": "0x685c4f1c",
          "transactionHash": "0x1da0d30399a694da15d52c01e84bdc4a1817fbdd625e99c3988d3b1c0984c316",
          "transactionIndex": "0xdd",
          "logIndex": "0xb2",
          "removed": false
        },
        {
          "address": "0xe4c2f1c920dfc99ad1ea84180f2a69ce24c8f554",
          "topics": [
            "0xddf252ad1be2c89b69c2b068fc378daa952ba7f163c4a11628f55a4df523b3ef",
            "0x0000000000000000000000000000000000000000000000000000000000000000",
            "0x000000000000000000000000ce23256ae677765a41e8d7e4d099359771615ca4",
            "0x000000000000000000000000000000000000000000000000000000000000000a"
          ],
          "data": "0x",
          "blockHash": "0x0ff3dff6f5f005195f6d61e39c0732f669ec8f19aa2e495773b12a9c9900320c",
          "blockNumber": "0x83a71e",
          "blockTimestamp": "0x685c4f1c",
          "transactionHash": "0x1da0d30399a694da15d52c01e84bdc4a1817fbdd625e99c3988d3b1c0984c316",
          "transactionIndex": "0xdd",
          "logIndex": "0xb3",
          "removed": false
        },
        {
          "address": "0xe4c2f1c920dfc99ad1ea84180f2a69ce24c8f554",
          "topics": [
            "0x1cbc5ab135991bd2b6a4b034a04aa2aa086dac1371cb9b16b8b5e2ed6b036bed",
            "0x000000000000000000000000ce23256ae677765a41e8d7e4d099359771615ca4",
            "0x000000000000000000000000000000000000000000000000000000000000000a"
          ],
          "data": "0x00000000000000000000000000000000000000000000000000000000000003e8",
          "blockHash": "0x0ff3dff6f5f005195f6d61e39c0732f669ec8f19aa2e495773b12a9c9900320c",
          "blockNumber": "0x83a71e",
          "blockTimestamp": "0x685c4f1c",
          "transactionHash": "0x1da0d30399a694da15d52c01e84bdc4a1817fbdd625e99c3988d3b1c0984c316",
          "transactionIndex": "0xdd",
          "logIndex": "0xb4",
          "removed": false
        },
        {
          "address": "0xe4c2f1c920dfc99ad1ea84180f2a69ce24c8f554",
          "topics": [
            "0xddf252ad1be2c89b69c2b068fc378daa952ba7f163c4a11628f55a4df523b3ef",
            "0x0000000000000000000000000000000000000000000000000000000000000000",
            "0x000000000000000000000000ce23256ae677765a41e8d7e4d099359771615ca4",
            "0x000000000000000000000000000000000000000000000000000000000000000b"
          ],
          "data": "0x",
          "blockHash": "0x0ff3dff6f5f005195f6d61e39c0732f669ec8f19aa2e495773b12a9c9900320c",
          "blockNumber": "0x83a71e",
          "blockTimestamp": "0x685c4f1c",
          "transactionHash": "0x1da0d30399a694da15d52c01e84bdc4a1817fbdd625e99c3988d3b1c0984c316",
          "transactionIndex": "0xdd",
          "logIndex": "0xb5",
          "removed": false
        },
        {
          "address": "0xe4c2f1c920dfc99ad1ea84180f2a69ce24c8f554",
          "topics": [
            "0x1cbc5ab135991bd2b6a4b034a04aa2aa086dac1371cb9b16b8b5e2ed6b036bed",
            "0x000000000000000000000000ce23256ae677765a41e8d7e4d099359771615ca4",
            "0x000000000000000000000000000000000000000000000000000000000000000b"
          ],
          "data": "0x00000000000000000000000000000000000000000000000000000000000003e8",
          "blockHash": "0x0ff3dff6f5f005195f6d61e39c0732f669ec8f19aa2e495773b12a9c9900320c",
          "blockNumber": "0x83a71e",
          "blockTimestamp": "0x685c4f1c",
          "transactionHash": "0x1da0d30399a694da15d52c01e84bdc4a1817fbdd625e99c3988d3b1c0984c316",
          "transactionIndex": "0xdd",
          "logIndex": "0xb6",
          "removed": false
        }
      ],
      "logsBloom": "0x00000000000000000000004000000000000000000000000000400000000000000000000200000000000000000000000000000000040080000020000000200000000000000000000000000008000000000000000000001000000000000000400000000000020000000000000000000800000000000000000000000010000000000080000000000100010000000000000000001000000000000000000000000000400000000400000040000000000000000000000000000000000000000000000040000002000000000000000000000000002000000000000000000000000020000000000000000000000000000040000000000000000000040000000000800000",
      "type": "0x2",
      "transactionHash": "0x1da0d30399a694da15d52c01e84bdc4a1817fbdd625e99c3988d3b1c0984c316",
      "transactionIndex": "0xdd",
      "blockHash": "0x0ff3dff6f5f005195f6d61e39c0732f669ec8f19aa2e495773b12a9c9900320c",
      "blockNumber": "0x83a71e",
      "gasUsed": "0x9968b",
      "effectiveGasPrice": "0x13bc399d",
      "from": "0xce23256ae677765a41e8d7e4d099359771615ca4",
      "to": "0xe4c2f1c920dfc99ad1ea84180f2a69ce24c8f554",
      "contractAddress": null
    }
  ],
  "libraries": [],
  "pending": [],
  "returns": {},
  "timestamp": 1750880030,
  "chain": 11155111,
  "commit": null
}