{
  "transactions": [
    {
      "hash": "0x888511fba22df879bb23dd21d5b02173b2af7cd0524c495d16a8a538638a7d55",
      "transactionType": "CALL",
      "contractName": null,
      "contractAddress": "0x726e563e45b798590a68fef57830773894b2c73a",
      "function": "buy(uint256,uint256)",
      "arguments": [
        "100",
        "4"
      ],
      "transaction": {
        "from": "0xce23256ae677765a41e8d7e4d099359771615ca4",
        "to": "0x726e563e45b798590a68fef57830773894b2c73a",
        "gas": "0xe3533",
        "value": "0x0",
        "input": "0xd6febde800000000000000000000000000000000000000000000000000000000000000640000000000000000000000000000000000000000000000000000000000000004",
        "nonce": "0x96",
        "chainId": "0xaa36a7"
      },
      "additionalContracts": [],
      "isFixedGasLimit": false
    }
  ],
  "receipts": [
    {
      "status": "0x1",
      "cumulativeGasUsed": "0x1842b25",
      "logs": [
        {
          "address": "0x726e563e45b798590a68fef57830773894b2c73a",
          "topics": [
            "0xddf252ad1be2c89b69c2b068fc378daa952ba7f163c4a11628f55a4df523b3ef",
            "0x0000000000000000000000000000000000000000000000000000000000000000",
            "0x000000000000000000000000ce23256ae677765a41e8d7e4d099359771615ca4",
            "0x0000000000000000000000000000000000000000000000000000000000000000"
          ],
          "data": "0x",
          "blockHash": "0xa5f172ef67d9dd7b3bb1f3042671a0d1c44ffb358dc4017bd059e550e36a6146",
          "blockNumber": "0x83a5af",
          "blockTimestamp": "0x685c3de8",
          "transactionHash": "0x888511fba22df879bb23dd21d5b02173b2af7cd0524c495d16a8a538638a7d55",
          "transactionIndex": "0x77",
          "logIndex": "0x9b",
          "removed": false
        },
        {
          "address": "0x726e563e45b798590a68fef57830773894b2c73a",
          "topics": [
            "0x1cbc5ab135991bd2b6a4b034a04aa2aa086dac1371cb9b16b8b5e2ed6b036bed",
            "0x000000000000000000000000ce23256ae677765a41e8d7e4d099359771615ca4",
            "0x0000000000000000000000000000000000000000000000000000000000000000"
          ],
          "data": "0x0000000000000000000000000000000000000000000000000000000000000064",
          "blockHash": "0xa5f172ef67d9dd7b3bb1f3042671a0d1c44ffb358dc4017bd059e550e36a6146",
          "blockNumber": "0x83a5af",
          "blockTimestamp": "0x685c3de8",
          "transactionHash": "0x888511fba22df879bb23dd21d5b02173b2af7cd0524c495d16a8a538638a7d55",
          "transactionIndex": "0x77",
          "logIndex": "0x9c",
          "removed": false
        },
        {
          "address": "0x726e563e45b798590a68fef57830773894b2c73a",
          "topics": [
            "0xddf252ad1be2c89b69c2b068fc378daa952ba7f163c4a11628f55a4df523b3ef",
            "0x0000000000000000000000000000000000000000000000000000000000000000",
            "0x000000000000000000000000ce23256ae677765a41e8d7e4d099359771615ca4",
            "0x0000000000000000000000000000000000000000000000000000000000000001"
          ],
          "data": "0x",
          "blockHash": "0xa5f172ef67d9dd7b3bb1f3042671a0d1c44ffb358dc4017bd059e550e36a6146",
          "blockNumber": "0x83a5af",
          "blockTimestamp": "0x685c3de8",
          "transactionHash": "0x888511fba22df879bb23dd21d5b02173b2af7cd0524c495d16a8a538638a7d55",
          "transactionIndex": "0x77",
          "logIndex": "0x9d",
          "removed": false
        },
        {
          "address": "0x726e563e45b798590a68fef57830773894b2c73a",
          "topics": [
            "0x1cbc5ab135991bd2b6a4b034a04aa2aa086dac1371cb9b16b8b5e2ed6b036bed",
            "0x000000000000000000000000ce23256ae677765a41e8d7e4d099359771615ca4",
            "0x0000000000000000000000000000000000000000000000000000000000000001"
          ],
          "data": "0x0000000000000000000000000000000000000000000000000000000000000064",
          "blockHash": "0xa5f172ef67d9dd7b3bb1f3042671a0d1c44ffb358dc4017bd059e550e36a6146",
          "blockNumber": "0x83a5af",
          "blockTimestamp": "0x685c3de8",
          "transactionHash": "0x888511fba22df879bb23dd21d5b02173b2af7cd0524c495d16a8a538638a7d55",
          "transactionIndex": "0x77",
          "logIndex": "0x9e",
          "removed": false
        },
        {
          "address": "0x726e563e45b798590a68fef57830773894b2c73a",
          "topics": [
            "0xddf252ad1be2c89b69c2b068fc378daa952ba7f163c4a11628f55a4df523b3ef",
            "0x0000000000000000000000000000000000000000000000000000000000000000",
            "0x000000000000000000000000ce23256ae677765a41e8d7e4d099359771615ca4",
            "0x0000000000000000000000000000000000000000000000000000000000000002"
          ],
          "data": "0x",
          "blockHash": "0xa5f172ef67d9dd7b3bb1f3042671a0d1c44ffb358dc4017bd059e550e36a6146",
          "blockNumber": "0x83a5af",
          "blockTimestamp": "0x685c3de8",
          "transactionHash": "0x888511fba22df879bb23dd21d5b02173b2af7cd0524c495d16a8a538638a7d55",
          "transactionIndex": "0x77",
          "logIndex": "0x9f",
          "removed": false
        },
        {
          "address": "0x726e563e45b798590a68fef57830773894b2c73a",
          "topics": [
            "0x1cbc5ab135991bd2b6a4b034a04aa2aa086dac1371cb9b16b8b5e2ed6b036bed",
            "0x000000000000000000000000ce23256ae677765a41e8d7e4d099359771615ca4",
            "0x0000000000000000000000000000000000000000000000000000000000000002"
          ],
          "data": "0x0000000000000000000000000000000000000000000000000000000000000064",
          "blockHash": "0xa5f172ef67d9dd7b3bb1f3042671a0d1c44ffb358dc4017bd059e550e36a6146",
          "blockNumber": "0x83a5af",
          "blockTimestamp": "0x685c3de8",
          "transactionHash": "0x888511fba22df879bb23dd21d5b02173b2af7cd0524c495d16a8a538638a7d55",
          "transactionIndex": "0x77",
          "logIndex": "0xa0",
          "removed": false
        },
        {
          "address": "0x726e563e45b798590a68fef57830773894b2c73a",
          "topics": [
            "0xddf252ad1be2c89b69c2b068fc378daa952ba7f163c4a11628f55a4df523b3ef",
            "0x0000000000000000000000000000000000000000000000000000000000000000",
            "0x000000000000000000000000ce23256ae677765a41e8d7e4d099359771615ca4",
            "0x0000000000000000000000000000000000000000000000000000000000000003"
          ],
          "data": "0x",
          "blockHash": "0xa5f172ef67d9dd7b3bb1f3042671a0d1c44ffb358dc4017bd059e550e36a6146",
          "blockNumber": "0x83a5af",
          "blockTimestamp": "0x685c3de8",
          "transactionHash": "0x888511fba22df879bb23dd21d5b02173b2af7cd0524c495d16a8a538638a7d55",
          "transactionIndex": "0x77",
          "logIndex": "0xa1",
          "removed": false
        },
        {
          "address": "0x726e563e45b798590a68fef57830773894b2c73a",
          "topics": [
            "0x1cbc5ab135991bd2b6a4b034a04aa2aa086dac1371cb9b16b8b5e2ed6b036bed",
            "0x000000000000000000000000ce23256ae677765a41e8d7e4d099359771615ca4",
            "0x0000000000000000000000000000000000000000000000000000000000000003"
          ],
          "data": "0x0000000000000000000000000000000000000000000000000000000000000064",
          "blockHash": "0xa5f172ef67d9dd7b3bb1f3042671a0d1c44ffb358dc4017bd059e550e36a6146",
          "blockNumber": "0x83a5af",
          "blockTimestamp": "0x685c3de8",
          "transactionHash": "0x888511fba22df879bb23dd21d5b02173b2af7cd0524c495d16a8a538638a7d55",
          "transactionIndex": "0x77",
          "logIndex": "0xa2",
          "removed": false
        }
      ],
      "logsBloom": "0x04000000000000000000000000000000000000000000000000400000000000000000000200000000000000040000000000000000020000000000000000040000000000000000000000000008008000000000000000041000000000000000000000000000020000000000000000000800000000000000000000000010000000000000000000000100000000000000000000000000000000000000000000000000000000000400000040000100000000000000000000800000000000000000400000000002000000000000000000000000000000000000000000000000000060000000000000000000000000000000000000000000008000000000000080000000",
      "type": "0x2",
      "transactionHash": "0x888511fba22df879bb23dd21d5b02173b2af7cd0524c495d16a8a538638a7d55",
      "transactionIndex": "0x77",
      "blockHash": "0xa5f172ef67d9dd7b3bb1f3042671a0d1c44ffb358dc4017bd059e550e36a6146",
      "blockNumber": "0x83a5af",
      "gasUsed": "0x9b6fa",
      "effectiveGasPrice": "0x2a88f2a6",
      "from": "0xce23256ae677765a41e8d7e4d099359771615ca4",
      "to": "0x726e563e45b798590a68fef57830773894b2c73a",
      "contractAddress": null
    }
  ],
  "libraries": [],
  "pending": [],
  "returns": {},
  "timestamp": 1750875618,
  "chain": 11155111,
  "commit": null
}