{
  "transactions": [
    {
      "hash": "0x5f8459a2f86a9ad8515cbd7ca4825eb1ef096cc441ddec44abbcca501c9c39e9",
      "transactionType": "CALL",
      "contractName": null,
      "contractAddress": "0xceca2e1bca3b27d8435f99f61cea52e51a8ee6cb",
      "function": "buy(uint256,uint256)",
      "arguments": [
        "40000000000000000000000",
        "4"
      ],
      "transaction": {
        "from": "0xce23256ae677765a41e8d7e4d099359771615ca4",
        "to": "0xceca2e1bca3b27d8435f99f61cea52e51a8ee6cb",
        "gas": "0xed4d9",
        "value": "0x0",
        "input": "0xd6febde8000000000000000000000000000000000000000000000878678326eac90000000000000000000000000000000000000000000000000000000000000000000004",
        "nonce": "0x10d",
        "chainId": "0xaa36a7"
      },
      "additionalContracts": [],
      "isFixedGasLimit": false
    }
  ],
  "receipts": [
    {
      "status": "0x1",
      "cumulativeGasUsed": "0x2063dfe",
      "logs": [
        {
          "address": "0xceca2e1bca3b27d8435f99f61cea52e51a8ee6cb",
          "topics": [
            "0xddf252ad1be2c89b69c2b068fc378daa952ba7f163c4a11628f55a4df523b3ef",
            "0x0000000000000000000000000000000000000000000000000000000000000000",
            "0x000000000000000000000000ce23256ae677765a41e8d7e4d099359771615ca4",
            "0x0000000000000000000000000000000000000000000000000000000000000014"
          ],
          "data": "0x",
          "blockHash": "0x4b61c3f927c8339c24022a0b8c2fdb1b5b2134c941cbf86ef16e76bf49514e58",
          "blockNumber": "0x846e24",
          "blockTimestamp": "0x6865ad00",
          "transactionHash": "0x5f8459a2f86a9ad8515cbd7ca4825eb1ef096cc441ddec44abbcca501c9c39e9",
          "transactionIndex": "0x1d3",
          "logIndex": "0x27f",
          "removed": false
        },
        {
          "address": "0xceca2e1bca3b27d8435f99f61cea52e51a8ee6cb",
          "topics": [
            "0x1cbc5ab135991bd2b6a4b034a04aa2aa086dac1371cb9b16b8b5e2ed6b036bed",
            "0x000000000000000000000000ce23256ae677765a41e8d7e4d099359771615ca4",
            "0x0000000000000000000000000000000000000000000000000000000000000014"
          ],
          "data": "0x000000000000000000000000000000000000000000000878678326eac9000000",
          "blockHash": "0x4b61c3f927c8339c24022a0b8c2fdb1b5b2134c941cbf86ef16e76bf49514e58",
          "blockNumber": "0x846e24",
          "blockTimestamp": "0x6865ad00",
          "transactionHash": "0x5f8459a2f86a9ad8515cbd7ca4825eb1ef096cc441ddec44abbcca501c9c39e9",
          "transactionIndex": "0x1d3",
          "logIndex": "0x280",
          "removed": false
        },
        {
          "address": "0xceca2e1bca3b27d8435f99f61cea52e51a8ee6cb",
          "topics": [
            "0xddf252ad1be2c89b69c2b068fc378daa952ba7f163c4a11628f55a4df523b3ef",
            "0x0000000000000000000000000000000000000000000000000000000000000000",
            "0x000000000000000000000000ce23256ae677765a41e8d7e4d099359771615ca4",
            "0x0000000000000000000000000000000000000000000000000000000000000015"
          ],
          "data": "0x",
          "blockHash": "0x4b61c3f927c8339c24022a0b8c2fdb1b5b2134c941cbf86ef16e76bf49514e58",
          "blockNumber": "0x846e24",
          "blockTimestamp": "0x6865ad00",
          "transactionHash": "0x5f8459a2f86a9ad8515cbd7ca4825eb1ef096cc441ddec44abbcca501c9c39e9",
          "transactionIndex": "0x1d3",
          "logIndex": "0x281",
          "removed": false
        },
        {
          "address": "0xceca2e1bca3b27d8435f99f61cea52e51a8ee6cb",
          "topics": [
            "0x1cbc5ab135991bd2b6a4b034a04aa2aa086dac1371cb9b16b8b5e2ed6b036bed",
            "0x000000000000000000000000ce23256ae677765a41e8d7e4d099359771615ca4",
            "0x0000000000000000000000000000000000000000000000000000000000000015"
          ],
          "data": "0x000000000000000000000000000000000000000000000878678326eac9000000",
          "blockHash": "0x4b61c3f927c8339c24022a0b8c2fdb1b5b2134c941cbf86ef16e76bf49514e58",
          "blockNumber": "0x846e24",
          "blockTimestamp": "0x6865ad00",
          "transactionHash": "0x5f8459a2f86a9ad8515cbd7ca4825eb1ef096cc441ddec44abbcca501c9c39e9",
          "transactionIndex": "0x1d3",
          "logIndex": "0x282",
          "removed": false
        },
        {
          "address": "0xceca2e1bca3b27d8435f99f61cea52e51a8ee6cb",
          "topics": [
            "0xddf252ad1be2c89b69c2b068fc378daa952ba7f163c4a11628f55a4df523b3ef",
            "0x0000000000000000000000000000000000000000000000000000000000000000",
            "0x000000000000000000000000ce23256ae677765a41e8d7e4d099359771615ca4",
            "0x0000000000000000000000000000000000000000000000000000000000000016"
          ],
          "data": "0x",
          "blockHash": "0x4b61c3f927c8339c24022a0b8c2fdb1b5b2134c941cbf86ef16e76bf49514e58",
          "blockNumber": "0x846e24",
          "blockTimestamp": "0x6865ad00",
          "transactionHash": "0x5f8459a2f86a9ad8515cbd7ca4825eb1ef096cc441ddec44abbcca501c9c39e9",
          "transactionIndex": "0x1d3",
          "logIndex": "0x283",
          "removed": false
        },
        {
          "address": "0xceca2e1bca3b27d8435f99f61cea52e51a8ee6cb",
          "topics": [
            "0x1cbc5ab135991bd2b6a4b034a04aa2aa086dac1371cb9b16b8b5e2ed6b036bed",
            "0x000000000000000000000000ce23256ae677765a41e8d7e4d099359771615ca4",
            "0x0000000000000000000000000000000000000000000000000000000000000016"
          ],
          "data": "0x000000000000000000000000000000000000000000000878678326eac9000000",
          "blockHash": "0x4b61c3f927c8339c24022a0b8c2fdb1b5b2134c941cbf86ef16e76bf49514e58",
          "blockNumber": "0x846e24",
          "blockTimestamp": "0x6865ad00",
          "transactionHash": "0x5f8459a2f86a9ad8515cbd7ca4825eb1ef096cc441ddec44abbcca501c9c39e9",
          "transactionIndex": "0x1d3",
          "logIndex": "0x284",
          "removed": false
        },
        {
          "address": "0xceca2e1bca3b27d8435f99f61cea52e51a8ee6cb",
          "topics": [
            "0xddf252ad1be2c89b69c2b068fc378daa952ba7f163c4a11628f55a4df523b3ef",
            "0x0000000000000000000000000000000000000000000000000000000000000000",
            "0x000000000000000000000000ce23256ae677765a41e8d7e4d099359771615ca4",
            "0x0000000000000000000000000000000000000000000000000000000000000017"
          ],
          "data": "0x",
          "blockHash": "0x4b61c3f927c8339c24022a0b8c2fdb1b5b2134c941cbf86ef16e76bf49514e58",
          "blockNumber": "0x846e24",
          "blockTimestamp": "0x6865ad00",
          "transactionHash": "0x5f8459a2f86a9ad8515cbd7ca4825eb1ef096cc441ddec44abbcca501c9c39e9",
          "transactionIndex": "0x1d3",
          "logIndex": "0x285",
          "removed": false
        },
        {
          "address": "0xceca2e1bca3b27d8435f99f61cea52e51a8ee6cb",
          "topics": [
            "0x1cbc5ab135991bd2b6a4b034a04aa2aa086dac1371cb9b16b8b5e2ed6b036bed",
            "0x000000000000000000000000ce23256ae677765a41e8d7e4d099359771615ca4",
            "0x0000000000000000000000000000000000000000000000000000000000000017"
          ],
          "data": "0x000000000000000000000000000000000000000000000878678326eac9000000",
          "blockHash": "0x4b61c3f927c8339c24022a0b8c2fdb1b5b2134c941cbf86ef16e76bf49514e58",
          "blockNumber": "0x846e24",
          "blockTimestamp": "0x6865ad00",
          "transactionHash": "0x5f8459a2f86a9ad8515cbd7ca4825eb1ef096cc441ddec44abbcca501c9c39e9",
          "transactionIndex": "0x1d3",
          "logIndex": "0x286",
          "removed": false
        },
        {
          "address": "0x34abd99554ef53edba3b6abebb97df2864cfa07c",
          "topics": [
            "0x8c5be1e5ebec7d5bd14f71427d1e84f3dd0314c0f7b2291e5b200ac8c7c3b925",
            "0x000000000000000000000000ce23256ae677765a41e8d7e4d099359771615ca4",
            "0x000000000000000000000000ceca2e1bca3b27d8435f99f61cea52e51a8ee6cb"
          ],
          "data": "0x00000000000000000000000000000000000000000007bd0a687fea1927000000",
          "blockHash": "0x4b61c3f927c8339c24022a0b8c2fdb1b5b2134c941cbf86ef16e76bf49514e58",
          "blockNumber": "0x846e24",
          "blockTimestamp": "0x6865ad00",
          "transactionHash": "0x5f8459a2f86a9ad8515cbd7ca4825eb1ef096cc441ddec44abbcca501c9c39e9",
          "transactionIndex": "0x1d3",
          "logIndex": "0x287",
          "removed": false
        },
        {
          "address": "0x34abd99554ef53edba3b6abebb97df2864cfa07c",
          "topics": [
            "0xddf252ad1be2c89b69c2b068fc378daa952ba7f163c4a11628f55a4df523b3ef",
            "0x000000000000000000000000ce23256ae677765a41e8d7e4d099359771615ca4",
            "0x0000000000000000000000008d6051dedbe3b08590674b0c4324c1d8b3ad2a00"
          ],
          "data": "0x0000000000000000000000000000000000000000000021e19e0c9bab24000000",
          "blockHash": "0x4b61c3f927c8339c24022a0b8c2fdb1b5b2134c941cbf86ef16e76bf49514e58",
          "blockNumber": "0x846e24",
          "blockTimestamp": "0x6865ad00",
          "transactionHash": "0x5f8459a2f86a9ad8515cbd7ca4825eb1ef096cc441ddec44abbcca501c9c39e9",
          "transactionIndex": "0x1d3",
          "logIndex": "0x288",
          "removed": false
        },
        {
          "address": "0x34abd99554ef53edba3b6abebb97df2864cfa07c",
          "topics": [
            "0x8c5be1e5ebec7d5bd14f71427d1e84f3dd0314c0f7b2291e5b200ac8c7c3b925",
            "0x000000000000000000000000ce23256ae677765a41e8d7e4d099359771615ca4",
            "0x000000000000000000000000ceca2e1bca3b27d8435f99f61cea52e51a8ee6cb"
          ],
          "data": "0x00000000000000000000000000000000000000000007bcb3ac0a0742f6000000",
          "blockHash": "0x4b61c3f927c8339c24022a0b8c2fdb1b5b2134c941cbf86ef16e76bf49514e58",
          "blockNumber": "0x846e24",
          "blockTimestamp": "0x6865ad00",
          "transactionHash": "0x5f8459a2f86a9ad8515cbd7ca4825eb1ef096cc441ddec44abbcca501c9c39e9",
          "transactionIndex": "0x1d3",
          "logIndex": "0x289",
          "removed": false
        },
        {
          "address": "0x34abd99554ef53edba3b6abebb97df2864cfa07c",
          "topics": [
            "0xddf252ad1be2c89b69c2b068fc378daa952ba7f163c4a11628f55a4df523b3ef",
            "0x000000000000000000000000ce23256ae677765a41e8d7e4d099359771615ca4",
            "0x0000000000000000000000008d6051dedbe3b08590674b0c4324c1d8b3ad2a00"
          ],
          "data": "0x000000000000000000000000000000000000000000000056bc75e2d631000000",
          "blockHash": "0x4b61c3f927c8339c24022a0b8c2fdb1b5b2134c941cbf86ef16e76bf49514e58",
          "blockNumber": "0x846e24",
          "blockTimestamp": "0x6865ad00",
          "transactionHash": "0x5f8459a2f86a9ad8515cbd7ca4825eb1ef096cc441ddec44abbcca501c9c39e9",
          "transactionIndex": "0x1d3",
          "logIndex": "0x28a",
          "removed": false
        }
      ],
      "logsBloom": "0x00000000000000000000000000000000000000000000000000400000000000000200000200000000000000000000000000003000000000000000001000200000001000000000000800000008000000000000008000001000000000000000000000000000020000000000000000000840200000000000000000000010000020000000000000000100000000000000000000000000000400040000000000000000020000000400000060000000010080000000000000008000000000000000000000000002000000000000000000000000000000000002000000000000000020002010000004000000080008000000000000000000000000000008000000080000",
      "type": "0x2",
      "transactionHash": "0x5f8459a2f86a9ad8515cbd7ca4825eb1ef096cc441ddec44abbcca501c9c39e9",
      "transactionIndex": "0x1d3",
      "blockHash": "0x4b61c3f927c8339c24022a0b8c2fdb1b5b2134c941cbf86ef16e76bf49514e58",
      "blockNumber": "0x846e24",
      "gasUsed": "0xa2423",
      "effectiveGasPrice": "0x1362f8c",
      "from": "0xce23256ae677765a41e8d7e4d099359771615ca4",
      "to": "0xceca2e1bca3b27d8435f99f61cea52e51a8ee6cb",
      "contractAddress": null
    }
  ],
  "libraries": [],
  "pending": [],
  "returns": {},
  "timestamp": 1751493888,
  "chain": 11155111,
  "commit": null
}