{
  "transactions": [
    {
      "hash": "0xe211f939678aa0db1b5d6e3427db6d4ee6095f97ca69af51b1837639c23d104e",
      "transactionType": "CALL",
      "contractName": null,
      "contractAddress": "0xceca2e1bca3b27d8435f99f61cea52e51a8ee6cb",
      "function": "buy(uint256,uint256)",
      "arguments": [
        "40000000000000000000",
        "4"
      ],
      "transaction": {
        "from": "0x129aa6ab9afc5135a72cef4868175cf906942a14",
        "to": "0xceca2e1bca3b27d8435f99f61cea52e51a8ee6cb",
        "gas": "0xe287c",
        "value": "0x0",
        "input": "0xd6febde80000000000000000000000000000000000000000000000022b1c8c1227a000000000000000000000000000000000000000000000000000000000000000000004",
        "nonce": "0xa",
        "chainId": "0xaa36a7"
      },
      "additionalContracts": [],
      "isFixedGasLimit": false
    }
  ],
  "receipts": [
    {
      "status": "0x1",
      "cumulativeGasUsed": "0x18f4232",
      "logs": [
        {
          "address": "0xceca2e1bca3b27d8435f99f61cea52e51a8ee6cb",
          "topics": [
            "0xddf252ad1be2c89b69c2b068fc378daa952ba7f163c4a11628f55a4df523b3ef",
            "0x0000000000000000000000000000000000000000000000000000000000000000",
            "0x000000000000000000000000129aa6ab9afc5135a72cef4868175cf906942a14",
            "0x0000000000000000000000000000000000000000000000000000000000000018"
          ],
          "data": "0x",
          "blockHash": "0xfd126c476d9710da68ab75cf740d1e5d177030c95e7fa9cd8aec0a7b6c7d14df",
          "blockNumber": "0x846e81",
          "blockTimestamp": "0x6865b15c",
          "transactionHash": "0xe211f939678aa0db1b5d6e3427db6d4ee6095f97ca69af51b1837639c23d104e",
          "transactionIndex": "0x170",
          "logIndex": "0x19b",
          "removed": false
        },
        {
          "address": "0xceca2e1bca3b27d8435f99f61cea52e51a8ee6cb",
          "topics": [
            "0x1cbc5ab135991bd2b6a4b034a04aa2aa086dac1371cb9b16b8b5e2ed6b036bed",
            "0x000000000000000000000000129aa6ab9afc5135a72cef4868175cf906942a14",
            "0x0000000000000000000000000000000000000000000000000000000000000018"
          ],
          "data": "0x0000000000000000000000000000000000000000000000022b1c8c1227a00000",
          "blockHash": "0xfd126c476d9710da68ab75cf740d1e5d177030c95e7fa9cd8aec0a7b6c7d14df",
          "blockNumber": "0x846e81",
          "blockTimestamp": "0x6865b15c",
          "transactionHash": "0xe211f939678aa0db1b5d6e3427db6d4ee6095f97ca69af51b1837639c23d104e",
          "transactionIndex": "0x170",
          "logIndex": "0x19c",
          "removed": false
        },
        {
          "address": "0xceca2e1bca3b27d8435f99f61cea52e51a8ee6cb",
          "topics": [
            "0xddf252ad1be2c89b69c2b068fc378daa952ba7f163c4a11628f55a4df523b3ef",
            "0x0000000000000000000000000000000000000000000000000000000000000000",
            "0x000000000000000000000000129aa6ab9afc5135a72cef4868175cf906942a14",
            "0x0000000000000000000000000000000000000000000000000000000000000019"
          ],
          "data": "0x",
          "blockHash": "0xfd126c476d9710da68ab75cf740d1e5d177030c95e7fa9cd8aec0a7b6c7d14df",
          "blockNumber": "0x846e81",
          "blockTimestamp": "0x6865b15c",
          "transactionHash": "0xe211f939678aa0db1b5d6e3427db6d4ee6095f97ca69af51b1837639c23d104e",
          "transactionIndex": "0x170",
          "logIndex": "0x19d",
          "removed": false
        },
        {
          "address": "0xceca2e1bca3b27d8435f99f61cea52e51a8ee6cb",
          "topics": [
            "0x1cbc5ab135991bd2b6a4b034a04aa2aa086dac1371cb9b16b8b5e2ed6b036bed",
            "0x000000000000000000000000129aa6ab9afc5135a72cef4868175cf906942a14",
            "0x0000000000000000000000000000000000000000000000000000000000000019"
          ],
          "data": "0x0000000000000000000000000000000000000000000000022b1c8c1227a00000",
          "blockHash": "0xfd126c476d9710da68ab75cf740d1e5d177030c95e7fa9cd8aec0a7b6c7d14df",
          "blockNumber": "0x846e81",
          "blockTimestamp": "0x6865b15c",
          "transactionHash": "0xe211f939678aa0db1b5d6e3427db6d4ee6095f97ca69af51b1837639c23d104e",
          "transactionIndex": "0x170",
          "logIndex": "0x19e",
          "removed": false
        },
        {
          "address": "0xceca2e1bca3b27d8435f99f61cea52e51a8ee6cb",
          "topics": [
            "0xddf252ad1be2c89b69c2b068fc378daa952ba7f163c4a11628f55a4df523b3ef",
            "0x0000000000000000000000000000000000000000000000000000000000000000",
            "0x000000000000000000000000129aa6ab9afc5135a72cef4868175cf906942a14",
            "0x000000000000000000000000000000000000000000000000000000000000001a"
          ],
          "data": "0x",
          "blockHash": "0xfd126c476d9710da68ab75cf740d1e5d177030c95e7fa9cd8aec0a7b6c7d14df",
          "blockNumber": "0x846e81",
          "blockTimestamp": "0x6865b15c",
          "transactionHash": "0xe211f939678aa0db1b5d6e3427db6d4ee6095f97ca69af51b1837639c23d104e",
          "transactionIndex": "0x170",
          "logIndex": "0x19f",
          "removed": false
        },
        {
          "address": "0xceca2e1bca3b27d8435f99f61cea52e51a8ee6cb",
          "topics": [
            "0x1cbc5ab135991bd2b6a4b034a04aa2aa086dac1371cb9b16b8b5e2ed6b036bed",
            "0x000000000000000000000000129aa6ab9afc5135a72cef4868175cf906942a14",
            "0x000000000000000000000000000000000000000000000000000000000000001a"
          ],
          "data": "0x0000000000000000000000000000000000000000000000022b1c8c1227a00000",
          "blockHash": "0xfd126c476d9710da68ab75cf740d1e5d177030c95e7fa9cd8aec0a7b6c7d14df",
          "blockNumber": "0x846e81",
          "blockTimestamp": "0x6865b15c",
          "transactionHash": "0xe211f939678aa0db1b5d6e3427db6d4ee6095f97ca69af51b1837639c23d104e",
          "transactionIndex": "0x170",
          "logIndex": "0x1a0",
          "removed": false
        },
        {
          "address": "0xceca2e1bca3b27d8435f99f61cea52e51a8ee6cb",
          "topics": [
            "0xddf252ad1be2c89b69c2b068fc378daa952ba7f163c4a11628f55a4df523b3ef",
            "0x0000000000000000000000000000000000000000000000000000000000000000",
            "0x000000000000000000000000129aa6ab9afc5135a72cef4868175cf906942a14",
            "0x000000000000000000000000000000000000000000000000000000000000001b"
          ],
          "data": "0x",
          "blockHash": "0xfd126c476d9710da68ab75cf740d1e5d177030c95e7fa9cd8aec0a7b6c7d14df",
          "blockNumber": "0x846e81",
          "blockTimestamp": "0x6865b15c",
          "transactionHash": "0xe211f939678aa0db1b5d6e3427db6d4ee6095f97ca69af51b1837639c23d104e",
          "transactionIndex": "0x170",
          "logIndex": "0x1a1",
          "removed": false
        },
        {
          "address": "0xceca2e1bca3b27d8435f99f61cea52e51a8ee6cb",
          "topics": [
            "0x1cbc5ab135991bd2b6a4b034a04aa2aa086dac1371cb9b16b8b5e2ed6b036bed",
            "0x000000000000000000000000129aa6ab9afc5135a72cef4868175cf906942a14",
            "0x000000000000000000000000000000000000000000000000000000000000001b"
          ],
          "data": "0x0000000000000000000000000000000000000000000000022b1c8c1227a00000",
          "blockHash": "0xfd126c476d9710da68ab75cf740d1e5d177030c95e7fa9cd8aec0a7b6c7d14df",
          "blockNumber": "0x846e81",
          "blockTimestamp": "0x6865b15c",
          "transactionHash": "0xe211f939678aa0db1b5d6e3427db6d4ee6095f97ca69af51b1837639c23d104e",
          "transactionIndex": "0x170",
          "logIndex": "0x1a2",
          "removed": false
        },
        {
          "address": "0x34abd99554ef53edba3b6abebb97df2864cfa07c",
          "topics": [
            "0x8c5be1e5ebec7d5bd14f71427d1e84f3dd0314c0f7b2291e5b200ac8c7c3b925",
            "0x000000000000000000000000129aa6ab9afc5135a72cef4868175cf906942a14",
            "0x000000000000000000000000ceca2e1bca3b27d8435f99f61cea52e51a8ee6cb"
          ],
          "data": "0x00000000000000000000000000000000000000000008458c69a1d0ffab800000",
          "blockHash": "0xfd126c476d9710da68ab75cf740d1e5d177030c95e7fa9cd8aec0a7b6c7d14df",
          "blockNumber": "0x846e81",
          "blockTimestamp": "0x6865b15c",
          "transactionHash": "0xe211f939678aa0db1b5d6e3427db6d4ee6095f97ca69af51b1837639c23d104e",
          "transactionIndex": "0x170",
          "logIndex": "0x1a3",
          "removed": false
        },
        {
          "address": "0x34abd99554ef53edba3b6abebb97df2864cfa07c",
          "topics": [
            "0xddf252ad1be2c89b69c2b068fc378daa952ba7f163c4a11628f55a4df523b3ef",
            "0x000000000000000000000000129aa6ab9afc5135a72cef4868175cf906942a14",
            "0x0000000000000000000000008d6051dedbe3b08590674b0c4324c1d8b3ad2a00"
          ],
          "data": "0x000000000000000000000000000000000000000000000008ac7230489e800000",
          "blockHash": "0xfd126c476d9710da68ab75cf740d1e5d177030c95e7fa9cd8aec0a7b6c7d14df",
          "blockNumber": "0x846e81",
          "blockTimestamp": "0x6865b15c",
          "transactionHash": "0xe211f939678aa0db1b5d6e3427db6d4ee6095f97ca69af51b1837639c23d104e",
          "transactionIndex": "0x170",
          "logIndex": "0x1a4",
          "removed": false
        },
        {
          "address": "0x34abd99554ef53edba3b6abebb97df2864cfa07c",
          "topics": [
            "0x8c5be1e5ebec7d5bd14f71427d1e84f3dd0314c0f7b2291e5b200ac8c7c3b925",
            "0x000000000000000000000000129aa6ab9afc5135a72cef4868175cf906942a14",
            "0x000000000000000000000000ceca2e1bca3b27d8435f99f61cea52e51a8ee6cb"
          ],
          "data": "0x00000000000000000000000000000000000000000008458c536d7979d2e00000",
          "blockHash": "0xfd126c476d9710da68ab75cf740d1e5d177030c95e7fa9cd8aec0a7b6c7d14df",
          "blockNumber": "0x846e81",
          "blockTimestamp": "0x6865b15c",
          "transactionHash": "0xe211f939678aa0db1b5d6e3427db6d4ee6095f97ca69af51b1837639c23d104e",
          "transactionIndex": "0x170",
          "logIndex": "0x1a5",
          "removed": false
        },
        {
          "address": "0x34abd99554ef53edba3b6abebb97df2864cfa07c",
          "topics": [
            "0xddf252ad1be2c89b69c2b068fc378daa952ba7f163c4a11628f55a4df523b3ef",
            "0x000000000000000000000000129aa6ab9afc5135a72cef4868175cf906942a14",
            "0x0000000000000000000000008d6051dedbe3b08590674b0c4324c1d8b3ad2a00"
          ],
          "data": "0x00000000000000000000000000000000000000000000000016345785d8a00000",
          "blockHash": "0xfd126c476d9710da68ab75cf740d1e5d177030c95e7fa9cd8aec0a7b6c7d14df",
          "blockNumber": "0x846e81",
          "blockTimestamp": "0x6865b15c",
          "transactionHash": "0xe211f939678aa0db1b5d6e3427db6d4ee6095f97ca69af51b1837639c23d104e",
          "transactionIndex": "0x170",
          "logIndex": "0x1a6",
          "removed": false
        }
      ],
      "logsBloom": "0x00000000000000000000000000000000000000000010000000000000000000000200000200000000000000000000000000000000000000800000000000200000000000000010000800000008000000001040008000000000000000001000000000000000020080000000000000000840200000000000020000000010000020000000000000000000000000000000000000000000000000040000000000000000020000000500000040000000000080000000000000008000000000000000000000100002000000000000000000000000000000000002000020000000000020000010000004000000080008000000000000000000000004000000008000000000",
      "type": "0x2",
      "transactionHash": "0xe211f939678aa0db1b5d6e3427db6d4ee6095f97ca69af51b1837639c23d104e",
      "transactionIndex": "0x170",
      "blockHash": "0xfd126c476d9710da68ab75cf740d1e5d177030c95e7fa9cd8aec0a7b6c7d14df",
      "blockNumber": "0x846e81",
      "gasUsed": "0xa4010",
      "effectiveGasPrice": "0xd374e3",
      "from": "0x129aa6ab9afc5135a72cef4868175cf906942a14",
      "to": "0xceca2e1bca3b27d8435f99f61cea52e51a8ee6cb",
      "contractAddress": null
    }
  ],
  "libraries": [],
  "pending": [],
  "returns": {},
  "timestamp": 1751495005,
  "chain": 11155111,
  "commit": null
}