{
  "transactions": [
    {
      "hash": "0x7981da9506cdc043c9c88a41990c2c86c1b8af2fdeac4a0c952926af38d496bc",
      "transactionType": "CALL",
      "contractName": null,
      "contractAddress": "0xceca2e1bca3b27d8435f99f61cea52e51a8ee6cb",
      "function": "putOnSale(uint256,uint256)",
      "arguments": [
        "5",
        "40000000000000000000000"
      ],
      "transaction": {
        "from": "0x129aa6ab9afc5135a72cef4868175cf906942a14",
        "to": "0xceca2e1bca3b27d8435f99f61cea52e51a8ee6cb",
        "gas": "0x22add",
        "value": "0x0",
        "input": "0x36f7992b0000000000000000000000000000000000000000000000000000000000000005000000000000000000000000000000000000000000000878678326eac9000000",
        "nonce": "0x7",
        "chainId": "0xaa36a7"
      },
      "additionalContracts": [],
      "isFixedGasLimit": false
    }
  ],
  "receipts": [
    {
      "status": "0x1",
      "cumulativeGasUsed": "0x2b34fb1",
      "logs": [
        {
          "address": "0xceca2e1bca3b27d8435f99f61cea52e51a8ee6cb",
          "topics": [
            "0x7c11ba8301c87f8a6d59779bcbe2b7446e865bd1a4359a69e5c400212e0a5795",
            "0x0000000000000000000000000000000000000000000000000000000000000005"
          ],
          "data": "0x000000000000000000000000000000000000000000000878678326eac9000000",
          "blockHash": "0xd698c86d5d4e764f2f5621395b30624ebadda7b1fce84535dd1b1227f49cf267",
          "blockNumber": "0x8457dd",
          "blockTimestamp": "0x6864a11c",
          "transactionHash": "0x7981da9506cdc043c9c88a41990c2c86c1b8af2fdeac4a0c952926af38d496bc",
          "transactionIndex": "0x1fe",
          "logIndex": "0x3fa",
          "removed": false
        }
      ],
      "logsBloom": "0x00000000000000000000000000000000000000000000000000000000000000000000000000000000000000000000000000000000000000000000000000000000000010000000000000000000000000000000000100000000000000000000000000000000000000000000000000000040000000000000000000000000000000000000000000000000000000000000001000000800000000040000000000200000000000000000000000000000000000000000000000000000000000000000000000000000000000000000000200000000000000000000000000000000000000000000000000000000000008000000000000000000000000000000000000000000",
      "type": "0x2",
      "transactionHash": "0x7981da9506cdc043c9c88a41990c2c86c1b8af2fdeac4a0c952926af38d496bc",
      "transactionIndex": "0x1fe",
      "blockHash": "0xd698c86d5d4e764f2f5621395b30624ebadda7b1fce84535dd1b1227f49cf267",
      "blockNumber": "0x8457dd",
      "gasUsed": "0x191b7",
      "effectiveGasPrice": "0x1d9578de9",
      "from": "0x129aa6ab9afc5135a72cef4868175cf906942a14",
      "to": "0xceca2e1bca3b27d8435f99f61cea52e51a8ee6cb",
      "contractAddress": null
    }
  ],
  "libraries": [],
  "pending": [],
  "returns": {},
  "timestamp": 1751425309,
  "chain": 11155111,
  "commit": null
}