{
  "transactions": [
    {
      "hash": "0x33f5ea08cc46fa32627357ba903156e1d6091ff8f43943759b999d6b63eadcb3",
      "transactionType": "CALL",
      "contractName": null,
      "contractAddress": "0xcf4658e9074bc3a7d3faec07cb3752375eac271c",
      "function": "buy(address,uint256,uint256)",
      "arguments": [
        "0xcE23256ae677765a41E8D7E4d099359771615ca4",
        "1000",
        "4"
      ],
      "transaction": {
        "from": "0xce23256ae677765a41e8d7e4d099359771615ca4",
        "to": "0xcf4658e9074bc3a7d3faec07cb3752375eac271c",
        "gas": "0xf69f8",
        "value": "0x0",
        "input": "0xa59ac6dd000000000000000000000000ce23256ae677765a41e8d7e4d099359771615ca400000000000000000000000000000000000000000000000000000000000003e80000000000000000000000000000000000000000000000000000000000000004",
        "nonce": "0xd9",
        "chainId": "0xaa36a7"
      },
      "additionalContracts": [],
      "isFixedGasLimit": false
    }
  ],
  "receipts": [
    {
      "status": "0x1",
      "cumulativeGasUsed": "0x131a4b9",
      "logs": [
        {
          "address": "0xcf4658e9074bc3a7d3faec07cb3752375eac271c",
          "topics": [
            "0xddf252ad1be2c89b69c2b068fc378daa952ba7f163c4a11628f55a4df523b3ef",
            "0x0000000000000000000000000000000000000000000000000000000000000000",
            "0x000000000000000000000000ce23256ae677765a41e8d7e4d099359771615ca4",
            "0x0000000000000000000000000000000000000000000000000000000000000000"
          ],
          "data": "0x",
          "blockHash": "0xa2f8ceec93826e641b495d5729bb3f6a0693f43425cec13c417b77c85005de05",
          "blockNumber": "0x83ab5a",
          "blockTimestamp": "0x685c8210",
          "transactionHash": "0x33f5ea08cc46fa32627357ba903156e1d6091ff8f43943759b999d6b63eadcb3",
          "transactionIndex": "0x88",
          "logIndex": "0x8b",
          "removed": false
        },
        {
          "address": "0xcf4658e9074bc3a7d3faec07cb3752375eac271c",
          "topics": [
            "0x1cbc5ab135991bd2b6a4b034a04aa2aa086dac1371cb9b16b8b5e2ed6b036bed",
            "0x000000000000000000000000ce23256ae677765a41e8d7e4d099359771615ca4",
            "0x0000000000000000000000000000000000000000000000000000000000000000"
          ],
          "data": "0x00000000000000000000000000000000000000000000000000000000000003e8",
          "blockHash": "0xa2f8ceec93826e641b495d5729bb3f6a0693f43425cec13c417b77c85005de05",
          "blockNumber": "0x83ab5a",
          "blockTimestamp": "0x685c8210",
          "transactionHash": "0x33f5ea08cc46fa32627357ba903156e1d6091ff8f43943759b999d6b63eadcb3",
          "transactionIndex": "0x88",
          "logIndex": "0x8c",
          "removed": false
        },
        {
          "address": "0xcf4658e9074bc3a7d3faec07cb3752375eac271c",
          "topics": [
            "0xddf252ad1be2c89b69c2b068fc378daa952ba7f163c4a11628f55a4df523b3ef",
            "0x0000000000000000000000000000000000000000000000000000000000000000",
            "0x000000000000000000000000ce23256ae677765a41e8d7e4d099359771615ca4",
            "0x0000000000000000000000000000000000000000000000000000000000000001"
          ],
          "data": "0x",
          "blockHash": "0xa2f8ceec93826e641b495d5729bb3f6a0693f43425cec13c417b77c85005de05",
          "blockNumber": "0x83ab5a",
          "blockTimestamp": "0x685c8210",
          "transactionHash": "0x33f5ea08cc46fa32627357ba903156e1d6091ff8f43943759b999d6b63eadcb3",
          "transactionIndex": "0x88",
          "logIndex": "0x8d",
          "removed": false
        },
        {
          "address": "0xcf4658e9074bc3a7d3faec07cb3752375eac271c",
          "topics": [
            "0x1cbc5ab135991bd2b6a4b034a04aa2aa086dac1371cb9b16b8b5e2ed6b036bed",
            "0x000000000000000000000000ce23256ae677765a41e8d7e4d099359771615ca4",
            "0x0000000000000000000000000000000000000000000000000000000000000001"
          ],
          "data": "0x00000000000000000000000000000000000000000000000000000000000003e8",
          "blockHash": "0xa2f8ceec93826e641b495d5729bb3f6a0693f43425cec13c417b77c85005de05",
          "blockNumber": "0x83ab5a",
          "blockTimestamp": "0x685c8210",
          "transactionHash": "0x33f5ea08cc46fa32627357ba903156e1d6091ff8f43943759b999d6b63eadcb3",
          "transactionIndex": "0x88",
          "logIndex": "0x8e",
          "removed": false
        },
        {
          "address": "0xcf4658e9074bc3a7d3faec07cb3752375eac271c",
          "topics": [
            "0xddf252ad1be2c89b69c2b068fc378daa952ba7f163c4a11628f55a4df523b3ef",
            "0x0000000000000000000000000000000000000000000000000000000000000000",
            "0x000000000000000000000000ce23256ae677765a41e8d7e4d099359771615ca4",
            "0x0000000000000000000000000000000000000000000000000000000000000002"
          ],
          "data": "0x",
          "blockHash": "0xa2f8ceec93826e641b495d5729bb3f6a0693f43425cec13c417b77c85005de05",
          "blockNumber": "0x83ab5a",
          "blockTimestamp": "0x685c8210",
          "transactionHash": "0x33f5ea08cc46fa32627357ba903156e1d6091ff8f43943759b999d6b63eadcb3",
          "transactionIndex": "0x88",
          "logIndex": "0x8f",
          "removed": false
        },
        {
          "address": "0xcf4658e9074bc3a7d3faec07cb3752375eac271c",
          "topics": [
            "0x1cbc5ab135991bd2b6a4b034a04aa2aa086dac1371cb9b16b8b5e2ed6b036bed",
            "0x000000000000000000000000ce23256ae677765a41e8d7e4d099359771615ca4",
            "0x0000000000000000000000000000000000000000000000000000000000000002"
          ],
          "data": "0x00000000000000000000000000000000000000000000000000000000000003e8",
          "blockHash": "0xa2f8ceec93826e641b495d5729bb3f6a0693f43425cec13c417b77c85005de05",
          "blockNumber": "0x83ab5a",
          "blockTimestamp": "0x685c8210",
          "transactionHash": "0x33f5ea08cc46fa32627357ba903156e1d6091ff8f43943759b999d6b63eadcb3",
          "transactionIndex": "0x88",
          "logIndex": "0x90",
          "removed": false
        },
        {
          "address": "0xcf4658e9074bc3a7d3faec07cb3752375eac271c",
          "topics": [
            "0xddf252ad1be2c89b69c2b068fc378daa952ba7f163c4a11628f55a4df523b3ef",
            "0x0000000000000000000000000000000000000000000000000000000000000000",
            "0x000000000000000000000000ce23256ae677765a41e8d7e4d099359771615ca4",
            "0x0000000000000000000000000000000000000000000000000000000000000003"
          ],
          "data": "0x",
          "blockHash": "0xa2f8ceec93826e641b495d5729bb3f6a0693f43425cec13c417b77c85005de05",
          "blockNumber": "0x83ab5a",
          "blockTimestamp": "0x685c8210",
          "transactionHash": "0x33f5ea08cc46fa32627357ba903156e1d6091ff8f43943759b999d6b63eadcb3",
          "transactionIndex": "0x88",
          "logIndex": "0x91",
          "removed": false
        },
        {
          "address": "0xcf4658e9074bc3a7d3faec07cb3752375eac271c",
          "topics": [
            "0x1cbc5ab135991bd2b6a4b034a04aa2aa086dac1371cb9b16b8b5e2ed6b036bed",
            "0x000000000000000000000000ce23256ae677765a41e8d7e4d099359771615ca4",
            "0x0000000000000000000000000000000000000000000000000000000000000003"
          ],
          "data": "0x00000000000000000000000000000000000000000000000000000000000003e8",
          "blockHash": "0xa2f8ceec93826e641b495d5729bb3f6a0693f43425cec13c417b77c85005de05",
          "blockNumber": "0x83ab5a",
          "blockTimestamp": "0x685c8210",
          "transactionHash": "0x33f5ea08cc46fa32627357ba903156e1d6091ff8f43943759b999d6b63eadcb3",
          "transactionIndex": "0x88",
          "logIndex": "0x92",
          "removed": false
        },
        {
          "address": "0x34abd99554ef53edba3b6abebb97df2864cfa07c",
          "topics": [
            "0x8c5be1e5ebec7d5bd14f71427d1e84f3dd0314c0f7b2291e5b200ac8c7c3b925",
            "0x000000000000000000000000ce23256ae677765a41e8d7e4d099359771615ca4",
            "0x000000000000000000000000cf4658e9074bc3a7d3faec07cb3752375eac271c"
          ],
          "data": "0x0000000000000000000000000000000000000000000000022b1c8c12279ff060",
          "blockHash": "0xa2f8ceec93826e641b495d5729bb3f6a0693f43425cec13c417b77c85005de05",
          "blockNumber": "0x83ab5a",
          "blockTimestamp": "0x685c8210",
          "transactionHash": "0x33f5ea08cc46fa32627357ba903156e1d6091ff8f43943759b999d6b63eadcb3",
          "transactionIndex": "0x88",
          "logIndex": "0x93",
          "removed": false
        },
        {
          "address": "0x34abd99554ef53edba3b6abebb97df2864cfa07c",
          "topics": [
            "0xddf252ad1be2c89b69c2b068fc378daa952ba7f163c4a11628f55a4df523b3ef",
            "0x000000000000000000000000ce23256ae677765a41e8d7e4d099359771615ca4",
            "0x0000000000000000000000008d6051dedbe3b08590674b0c4324c1d8b3ad2a00"
          ],
          "data": "0x0000000000000000000000000000000000000000000000000000000000000fa0",
          "blockHash": "0xa2f8ceec93826e641b495d5729bb3f6a0693f43425cec13c417b77c85005de05",
          "blockNumber": "0x83ab5a",
          "blockTimestamp": "0x685c8210",
          "transactionHash": "0x33f5ea08cc46fa32627357ba903156e1d6091ff8f43943759b999d6b63eadcb3",
          "transactionIndex": "0x88",
          "logIndex": "0x94",
          "removed": false
        },
        {
          "address": "0x34abd99554ef53edba3b6abebb97df2864cfa07c",
          "topics": [
            "0x8c5be1e5ebec7d5bd14f71427d1e84f3dd0314c0f7b2291e5b200ac8c7c3b925",
            "0x000000000000000000000000ce23256ae677765a41e8d7e4d099359771615ca4",
            "0x000000000000000000000000cf4658e9074bc3a7d3faec07cb3752375eac271c"
          ],
          "data": "0x0000000000000000000000000000000000000000000000022b1c8c12279ff038",
          "blockHash": "0xa2f8ceec93826e641b495d5729bb3f6a0693f43425cec13c417b77c85005de05",
          "blockNumber": "0x83ab5a",
          "blockTimestamp": "0x685c8210",
          "transactionHash": "0x33f5ea08cc46fa32627357ba903156e1d6091ff8f43943759b999d6b63eadcb3",
          "transactionIndex": "0x88",
          "logIndex": "0x95",
          "removed": false
        },
        {
          "address": "0x34abd99554ef53edba3b6abebb97df2864cfa07c",
          "topics": [
            "0xddf252ad1be2c89b69c2b068fc378daa952ba7f163c4a11628f55a4df523b3ef",
            "0x000000000000000000000000ce23256ae677765a41e8d7e4d099359771615ca4",
            "0x0000000000000000000000008d6051dedbe3b08590674b0c4324c1d8b3ad2a00"
          ],
          "data": "0x0000000000000000000000000000000000000000000000000000000000000028",
          "blockHash": "0xa2f8ceec93826e641b495d5729bb3f6a0693f43425cec13c417b77c85005de05",
          "blockNumber": "0x83ab5a",
          "blockTimestamp": "0x685c8210",
          "transactionHash": "0x33f5ea08cc46fa32627357ba903156e1d6091ff8f43943759b999d6b63eadcb3",
          "transactionIndex": "0x88",
          "logIndex": "0x96",
          "removed": false
        }
      ],
      "logsBloom": "0x04000000000000000000000000000000000000000000000000400000000000000200000200000000000000000000000000000000020000000000000000240000000000000000000000000008000000000000008000041000000000000000012000000000020000000000000000000800000000000400000000000010000020000000000000000100000000000000000000000000000000000000000000100000020000000400000040000100000080000800000000800000000000000000400000000002000000000000000000000000000000000002000000000000000060000010000004000000000000000000000000000000008000000000000000000000",
      "type": "0x2",
      "transactionHash": "0x33f5ea08cc46fa32627357ba903156e1d6091ff8f43943759b999d6b63eadcb3",
      "transactionIndex": "0x88",
      "blockHash": "0xa2f8ceec93826e641b495d5729bb3f6a0693f43425cec13c417b77c85005de05",
      "blockNumber": "0x83ab5a",
      "gasUsed": "0xa8a1a",
      "effectiveGasPrice": "0x3859ce5",
      "from": "0xce23256ae677765a41e8d7e4d099359771615ca4",
      "to": "0xcf4658e9074bc3a7d3faec07cb3752375eac271c",
      "contractAddress": null
    }
  ],
  "libraries": [],
  "pending": [],
  "returns": {},
  "timestamp": 1750893072,
  "chain": 11155111,
  "commit": null
}