{
  "transactions": [
    {
      "hash": "0x4832fcf2c7a852de3b5056c8306f48e4b2c5f722119019a5e37d789f219f9a12",
      "transactionType": "CALL",
      "contractName": null,
      "contractAddress": "0x5a939425c4f35ccf78db5fcc2711a8e9036a325f",
      "function": "putOnSale(uint256,uint256)",
      "arguments": [
        "2",
        "4000000000000000000"
      ],
      "transaction": {
        "from": "0xce23256ae677765a41e8d7e4d099359771615ca4",
        "to": "0x5a939425c4f35ccf78db5fcc2711a8e9036a325f",
        "gas": "0x27acd",
        "value": "0x0",
        "input": "0x36f7992b00000000000000000000000000000000000000000000000000000000000000020000000000000000000000000000000000000000000000003782dace9d900000",
        "nonce": "0x112",
        "chainId": "0xaa36a7"
      },
      "additionalContracts": [],
      "isFixedGasLimit": false
    }
  ],
  "receipts": [
    {
      "status": "0x1",
      "cumulativeGasUsed": "0x27b0db9",
      "logs": [
        {
          "address": "0x5a939425c4f35ccf78db5fcc2711a8e9036a325f",
          "topics": [
            "0x7c11ba8301c87f8a6d59779bcbe2b7446e865bd1a4359a69e5c400212e0a5795",
            "0x0000000000000000000000000000000000000000000000000000000000000002"
          ],
          "data": "0x0000000000000000000000000000000000000000000000003782dace9d900000",
          "blockHash": "0x1dce132c9a37160db9c23dda3da0db3a09c6d2fea2aa5c66f1562ff870035dc6",
          "blockNumber": "0x846f1a",
          "blockTimestamp": "0x6865b888",
          "transactionHash": "0x4832fcf2c7a852de3b5056c8306f48e4b2c5f722119019a5e37d789f219f9a12",
          "transactionIndex": "0x24b",
          "logIndex": "0x2aa",
          "removed": false
        }
      ],
      "logsBloom": "0x04000000000000000000000000000000000000000000000000000000000000000000000000000000100000000000000000000000000000000000000000000000000000000000000000000000000000000000000100001000000000000000000000000000000000000000000000000000000000000000000000000000000000000000000000000000000000000000000000000000000000000000000000200000000000000000000000000100000000000000000000000001000000000000000000000000000000000000000200000000000000000000000000000000000000000000000000000000000000000000000000000000008000000000000000000000",
      "type": "0x2",
      "transactionHash": "0x4832fcf2c7a852de3b5056c8306f48e4b2c5f722119019a5e37d789f219f9a12",
      "transactionIndex": "0x24b",
      "blockHash": "0x1dce132c9a37160db9c23dda3da0db3a09c6d2fea2aa5c66f1562ff870035dc6",
      "blockNumber": "0x846f1a",
      "gasUsed": "0x1cb96",
      "effectiveGasPrice": "0xad8012",
      "from": "0xce23256ae677765a41e8d7e4d099359771615ca4",
      "to": "0x5a939425c4f35ccf78db5fcc2711a8e9036a325f",
      "contractAddress": null
    }
  ],
  "libraries": [],
  "pending": [],
  "returns": {},
  "timestamp": 1751496840,
  "chain": 11155111,
  "commit": null
}