{
  "transactions": [
    {
      "hash": "0x6b6440396087999e13643b9fbe74a663abaae9beb22857c81699a806c074c83e",
      "transactionType": "CALL",
      "contractName": null,
      "contractAddress": "0x9cdcb6446da733b6d37b486f918ba59caaa4f8a5",
      "function": "buy(uint256,uint256)",
      "arguments": [
        "100",
        "4"
      ],
      "transaction": {
        "from": "0xce23256ae677765a41e8d7e4d099359771615ca4",
        "to": "0x9cdcb6446da733b6d37b486f918ba59caaa4f8a5",
        "gas": "0xd3c13",
        "value": "0x0",
        "input": "0xd6febde800000000000000000000000000000000000000000000000000000000000000640000000000000000000000000000000000000000000000000000000000000004",
        "nonce": "0x80",
        "chainId": "0xaa36a7"
      },
      "additionalContracts": [],
      "isFixedGasLimit": false
    }
  ],
  "receipts": [
    {
      "status": "0x1",
      "cumulativeGasUsed": "0xa312ac",
      "logs": [
        {
          "address": "0x9cdcb6446da733b6d37b486f918ba59caaa4f8a5",
          "topics": [
            "0xddf252ad1be2c89b69c2b068fc378daa952ba7f163c4a11628f55a4df523b3ef",
            "0x0000000000000000000000000000000000000000000000000000000000000000",
            "0x000000000000000000000000ce23256ae677765a41e8d7e4d099359771615ca4",
            "0x0000000000000000000000000000000000000000000000000000000000000004"
          ],
          "data": "0x",
          "blockHash": "0x0ab92508cd2bb578215ac228ed2dca73469581df3e61045606c35af19f27471d",
          "blockNumber": "0x83405c",
          "blockTimestamp": "0x685778b8",
          "transactionHash": "0x6b6440396087999e13643b9fbe74a663abaae9beb22857c81699a806c074c83e",
          "transactionIndex": "0x5a",
          "logIndex": "0x50",
          "removed": false
        },
        {
          "address": "0x9cdcb6446da733b6d37b486f918ba59caaa4f8a5",
          "topics": [
            "0x1cbc5ab135991bd2b6a4b034a04aa2aa086dac1371cb9b16b8b5e2ed6b036bed",
            "0x000000000000000000000000ce23256ae677765a41e8d7e4d099359771615ca4",
            "0x0000000000000000000000000000000000000000000000000000000000000004"
          ],
          "data": "0x0000000000000000000000000000000000000000000000000000000000000064",
          "blockHash": "0x0ab92508cd2bb578215ac228ed2dca73469581df3e61045606c35af19f27471d",
          "blockNumber": "0x83405c",
          "blockTimestamp": "0x685778b8",
          "transactionHash": "0x6b6440396087999e13643b9fbe74a663abaae9beb22857c81699a806c074c83e",
          "transactionIndex": "0x5a",
          "logIndex": "0x51",
          "removed": false
        },
        {
          "address": "0x9cdcb6446da733b6d37b486f918ba59caaa4f8a5",
          "topics": [
            "0xddf252ad1be2c89b69c2b068fc378daa952ba7f163c4a11628f55a4df523b3ef",
            "0x0000000000000000000000000000000000000000000000000000000000000000",
            "0x000000000000000000000000ce23256ae677765a41e8d7e4d099359771615ca4",
            "0x0000000000000000000000000000000000000000000000000000000000000005"
          ],
          "data": "0x",
          "blockHash": "0x0ab92508cd2bb578215ac228ed2dca73469581df3e61045606c35af19f27471d",
          "blockNumber": "0x83405c",
          "blockTimestamp": "0x685778b8",
          "transactionHash": "0x6b6440396087999e13643b9fbe74a663abaae9beb22857c81699a806c074c83e",
          "transactionIndex": "0x5a",
          "logIndex": "0x52",
          "removed": false
        },
        {
          "address": "0x9cdcb6446da733b6d37b486f918ba59caaa4f8a5",
          "topics": [
            "0x1cbc5ab135991bd2b6a4b034a04aa2aa086dac1371cb9b16b8b5e2ed6b036bed",
            "0x000000000000000000000000ce23256ae677765a41e8d7e4d099359771615ca4",
            "0x0000000000000000000000000000000000000000000000000000000000000005"
          ],
          "data": "0x0000000000000000000000000000000000000000000000000000000000000064",
          "blockHash": "0x0ab92508cd2bb578215ac228ed2dca73469581df3e61045606c35af19f27471d",
          "blockNumber": "0x83405c",
          "blockTimestamp": "0x685778b8",
          "transactionHash": "0x6b6440396087999e13643b9fbe74a663abaae9beb22857c81699a806c074c83e",
          "transactionIndex": "0x5a",
          "logIndex": "0x53",
          "removed": false
        },
        {
          "address": "0x9cdcb6446da733b6d37b486f918ba59caaa4f8a5",
          "topics": [
            "0xddf252ad1be2c89b69c2b068fc378daa952ba7f163c4a11628f55a4df523b3ef",
            "0x0000000000000000000000000000000000000000000000000000000000000000",
            "0x000000000000000000000000ce23256ae677765a41e8d7e4d099359771615ca4",
            "0x0000000000000000000000000000000000000000000000000000000000000006"
          ],
          "data": "0x",
          "blockHash": "0x0ab92508cd2bb578215ac228ed2dca73469581df3e61045606c35af19f27471d",
          "blockNumber": "0x83405c",
          "blockTimestamp": "0x685778b8",
          "transactionHash": "0x6b6440396087999e13643b9fbe74a663abaae9beb22857c81699a806c074c83e",
          "transactionIndex": "0x5a",
          "logIndex": "0x54",
          "removed": false
        },
        {
          "address": "0x9cdcb6446da733b6d37b486f918ba59caaa4f8a5",
          "topics": [
            "0x1cbc5ab135991bd2b6a4b034a04aa2aa086dac1371cb9b16b8b5e2ed6b036bed",
            "0x000000000000000000000000ce23256ae677765a41e8d7e4d099359771615ca4",
            "0x0000000000000000000000000000000000000000000000000000000000000006"
          ],
          "data": "0x0000000000000000000000000000000000000000000000000000000000000064",
          "blockHash": "0x0ab92508cd2bb578215ac228ed2dca73469581df3e61045606c35af19f27471d",
          "blockNumber": "0x83405c",
          "blockTimestamp": "0x685778b8",
          "transactionHash": "0x6b6440396087999e13643b9fbe74a663abaae9beb22857c81699a806c074c83e",
          "transactionIndex": "0x5a",
          "logIndex": "0x55",
          "removed": false
        },
        {
          "address": "0x9cdcb6446da733b6d37b486f918ba59caaa4f8a5",
          "topics": [
            "0xddf252ad1be2c89b69c2b068fc378daa952ba7f163c4a11628f55a4df523b3ef",
            "0x0000000000000000000000000000000000000000000000000000000000000000",
            "0x000000000000000000000000ce23256ae677765a41e8d7e4d099359771615ca4",
            "0x0000000000000000000000000000000000000000000000000000000000000007"
          ],
          "data": "0x",
          "blockHash": "0x0ab92508cd2bb578215ac228ed2dca73469581df3e61045606c35af19f27471d",
          "blockNumber": "0x83405c",
          "blockTimestamp": "0x685778b8",
          "transactionHash": "0x6b6440396087999e13643b9fbe74a663abaae9beb22857c81699a806c074c83e",
          "transactionIndex": "0x5a",
          "logIndex": "0x56",
          "removed": false
        },
        {
          "address": "0x9cdcb6446da733b6d37b486f918ba59caaa4f8a5",
          "topics": [
            "0x1cbc5ab135991bd2b6a4b034a04aa2aa086dac1371cb9b16b8b5e2ed6b036bed",
            "0x000000000000000000000000ce23256ae677765a41e8d7e4d099359771615ca4",
            "0x0000000000000000000000000000000000000000000000000000000000000007"
          ],
          "data": "0x0000000000000000000000000000000000000000000000000000000000000064",
          "blockHash": "0x0ab92508cd2bb578215ac228ed2dca73469581df3e61045606c35af19f27471d",
          "blockNumber": "0x83405c",
          "blockTimestamp": "0x685778b8",
          "transactionHash": "0x6b6440396087999e13643b9fbe74a663abaae9beb22857c81699a806c074c83e",
          "transactionIndex": "0x5a",
          "logIndex": "0x57",
          "removed": false
        }
      ],
      "logsBloom": "0x00000000000000000004000000000000000000000000000000400000000000000000000200000000000000000000000000001000000400000000000000000000000030000000000000000008000000000010000000001000000000000000000008000000020000000000000000000800000000000000000000000010000000000000000400000100000000000000001000000800000000000000000000000000000000000400000040000000000000000000020000000000002000080000000000000002000000000000000000000000000000008000000000000100000020000000000000000000000000000000000000000000000000000000000000000000",
      "type": "0x2",
      "transactionHash": "0x6b6440396087999e13643b9fbe74a663abaae9beb22857c81699a806c074c83e",
      "transactionIndex": "0x5a",
      "blockHash": "0x0ab92508cd2bb578215ac228ed2dca73469581df3e61045606c35af19f27471d",
      "blockNumber": "0x83405c",
      "gasUsed": "0x994e8",
      "effectiveGasPrice": "0xf42b0",
      "from": "0xce23256ae677765a41e8d7e4d099359771615ca4",
      "to": "0x9cdcb6446da733b6d37b486f918ba59caaa4f8a5",
      "contractAddress": null
    }
  ],
  "libraries": [],
  "pending": [],
  "returns": {},
  "timestamp": 1750562999,
  "chain": 11155111,
  "commit": null
}