{
  "transactions": [
    {
      "hash": "0x31e9a75c1d0a9e2dcb3a3053b1eeedafea099f135fdce31f8294c60e8558d298",
      "transactionType": "CALL",
      "contractName": null,
      "contractAddress": "0x5a9adafa3eaeb4347e0524dcc83e5ef7510bcc4b",
      "function": "buy(uint256,uint256)",
      "arguments": [
        "100",
        "4"
      ],
      "transaction": {
        "from": "0xce23256ae677765a41e8d7e4d099359771615ca4",
        "to": "0x5a9adafa3eaeb4347e0524dcc83e5ef7510bcc4b",
        "gas": "0xe3533",
        "value": "0x0",
        "input": "0xd6febde800000000000000000000000000000000000000000000000000000000000000640000000000000000000000000000000000000000000000000000000000000004",
        "nonce": "0x8e",
        "chainId": "0xaa36a7"
      },
      "additionalContracts": [],
      "isFixedGasLimit": false
    }
  ],
  "receipts": [
    {
      "status": "0x1",
      "cumulativeGasUsed": "0x115eb32",
      "logs": [
        {
          "address": "0x5a9adafa3eaeb4347e0524dcc83e5ef7510bcc4b",
          "topics": [
            "0xddf252ad1be2c89b69c2b068fc378daa952ba7f163c4a11628f55a4df523b3ef",
            "0x0000000000000000000000000000000000000000000000000000000000000000",
            "0x000000000000000000000000ce23256ae677765a41e8d7e4d099359771615ca4",
            "0x0000000000000000000000000000000000000000000000000000000000000000"
          ],
          "data": "0x",
          "blockHash": "0x3b59a3b5cf07cb3d618dfca494c24d2ee3b440cc170229f80f39946802d25844",
          "blockNumber": "0x83a551",
          "blockTimestamp": "0x685c3980",
          "transactionHash": "0x31e9a75c1d0a9e2dcb3a3053b1eeedafea099f135fdce31f8294c60e8558d298",
          "transactionIndex": "0x94",
          "logIndex": "0xe9",
          "removed": false
        },
        {
          "address": "0x5a9adafa3eaeb4347e0524dcc83e5ef7510bcc4b",
          "topics": [
            "0x1cbc5ab135991bd2b6a4b034a04aa2aa086dac1371cb9b16b8b5e2ed6b036bed",
            "0x000000000000000000000000ce23256ae677765a41e8d7e4d099359771615ca4",
            "0x0000000000000000000000000000000000000000000000000000000000000000"
          ],
          "data": "0x0000000000000000000000000000000000000000000000000000000000000064",
          "blockHash": "0x3b59a3b5cf07cb3d618dfca494c24d2ee3b440cc170229f80f39946802d25844",
          "blockNumber": "0x83a551",
          "blockTimestamp": "0x685c3980",
          "transactionHash": "0x31e9a75c1d0a9e2dcb3a3053b1eeedafea099f135fdce31f8294c60e8558d298",
          "transactionIndex": "0x94",
          "logIndex": "0xea",
          "removed": false
        },
        {
          "address": "0x5a9adafa3eaeb4347e0524dcc83e5ef7510bcc4b",
          "topics": [
            "0xddf252ad1be2c89b69c2b068fc378daa952ba7f163c4a11628f55a4df523b3ef",
            "0x0000000000000000000000000000000000000000000000000000000000000000",
            "0x000000000000000000000000ce23256ae677765a41e8d7e4d099359771615ca4",
            "0x0000000000000000000000000000000000000000000000000000000000000001"
          ],
          "data": "0x",
          "blockHash": "0x3b59a3b5cf07cb3d618dfca494c24d2ee3b440cc170229f80f39946802d25844",
          "blockNumber": "0x83a551",
          "blockTimestamp": "0x685c3980",
          "transactionHash": "0x31e9a75c1d0a9e2dcb3a3053b1eeedafea099f135fdce31f8294c60e8558d298",
          "transactionIndex": "0x94",
          "logIndex": "0xeb",
          "removed": false
        },
        {
          "address": "0x5a9adafa3eaeb4347e0524dcc83e5ef7510bcc4b",
          "topics": [
            "0x1cbc5ab135991bd2b6a4b034a04aa2aa086dac1371cb9b16b8b5e2ed6b036bed",
            "0x000000000000000000000000ce23256ae677765a41e8d7e4d099359771615ca4",
            "0x0000000000000000000000000000000000000000000000000000000000000001"
          ],
          "data": "0x0000000000000000000000000000000000000000000000000000000000000064",
          "blockHash": "0x3b59a3b5cf07cb3d618dfca494c24d2ee3b440cc170229f80f39946802d25844",
          "blockNumber": "0x83a551",
          "blockTimestamp": "0x685c3980",
          "transactionHash": "0x31e9a75c1d0a9e2dcb3a3053b1eeedafea099f135fdce31f8294c60e8558d298",
          "transactionIndex": "0x94",
          "logIndex": "0xec",
          "removed": false
        },
        {
          "address": "0x5a9adafa3eaeb4347e0524dcc83e5ef7510bcc4b",
          "topics": [
            "0xddf252ad1be2c89b69c2b068fc378daa952ba7f163c4a11628f55a4df523b3ef",
            "0x0000000000000000000000000000000000000000000000000000000000000000",
            "0x000000000000000000000000ce23256ae677765a41e8d7e4d099359771615ca4",
            "0x0000000000000000000000000000000000000000000000000000000000000002"
          ],
          "data": "0x",
          "blockHash": "0x3b59a3b5cf07cb3d618dfca494c24d2ee3b440cc170229f80f39946802d25844",
          "blockNumber": "0x83a551",
          "blockTimestamp": "0x685c3980",
          "transactionHash": "0x31e9a75c1d0a9e2dcb3a3053b1eeedafea099f135fdce31f8294c60e8558d298",
          "transactionIndex": "0x94",
          "logIndex": "0xed",
          "removed": false
        },
        {
          "address": "0x5a9adafa3eaeb4347e0524dcc83e5ef7510bcc4b",
          "topics": [
            "0x1cbc5ab135991bd2b6a4b034a04aa2aa086dac1371cb9b16b8b5e2ed6b036bed",
            "0x000000000000000000000000ce23256ae677765a41e8d7e4d099359771615ca4",
            "0x0000000000000000000000000000000000000000000000000000000000000002"
          ],
          "data": "0x0000000000000000000000000000000000000000000000000000000000000064",
          "blockHash": "0x3b59a3b5cf07cb3d618dfca494c24d2ee3b440cc170229f80f39946802d25844",
          "blockNumber": "0x83a551",
          "blockTimestamp": "0x685c3980",
          "transactionHash": "0x31e9a75c1d0a9e2dcb3a3053b1eeedafea099f135fdce31f8294c60e8558d298",
          "transactionIndex": "0x94",
          "logIndex": "0xee",
          "removed": false
        },
        {
          "address": "0x5a9adafa3eaeb4347e0524dcc83e5ef7510bcc4b",
          "topics": [
            "0xddf252ad1be2c89b69c2b068fc378daa952ba7f163c4a11628f55a4df523b3ef",
            "0x0000000000000000000000000000000000000000000000000000000000000000",
            "0x000000000000000000000000ce23256ae677765a41e8d7e4d099359771615ca4",
            "0x0000000000000000000000000000000000000000000000000000000000000003"
          ],
          "data": "0x",
          "blockHash": "0x3b59a3b5cf07cb3d618dfca494c24d2ee3b440cc170229f80f39946802d25844",
          "blockNumber": "0x83a551",
          "blockTimestamp": "0x685c3980",
          "transactionHash": "0x31e9a75c1d0a9e2dcb3a3053b1eeedafea099f135fdce31f8294c60e8558d298",
          "transactionIndex": "0x94",
          "logIndex": "0xef",
          "removed": false
        },
        {
          "address": "0x5a9adafa3eaeb4347e0524dcc83e5ef7510bcc4b",
          "topics": [
            "0x1cbc5ab135991bd2b6a4b034a04aa2aa086dac1371cb9b16b8b5e2ed6b036bed",
            "0x000000000000000000000000ce23256ae677765a41e8d7e4d099359771615ca4",
            "0x0000000000000000000000000000000000000000000000000000000000000003"
          ],
          "data": "0x0000000000000000000000000000000000000000000000000000000000000064",
          "blockHash": "0x3b59a3b5cf07cb3d618dfca494c24d2ee3b440cc170229f80f39946802d25844",
          "blockNumber": "0x83a551",
          "blockTimestamp": "0x685c3980",
          "transactionHash": "0x31e9a75c1d0a9e2dcb3a3053b1eeedafea099f135fdce31f8294c60e8558d298",
          "transactionIndex": "0x94",
          "logIndex": "0xf0",
          "removed": false
        }
      ],
      "logsBloom": "0x04000000000000000000000000000000000000000000000000400000000000000000000200000000000000000000000000000000020000000000000000040000000000000000000000000008000000000000000000041000000000000000000100000000020000000000000000000800000000000000000000000010000000000000080000000100000000000000000000000000000000000000000000000000000000000400000040000100000000000000000000800000000000000000400000000002000000000000000000000000000000000000200000000000000060000000000000000000000000000000000000000000008000000000000000000000",
      "type": "0x2",
      "transactionHash": "0x31e9a75c1d0a9e2dcb3a3053b1eeedafea099f135fdce31f8294c60e8558d298",
      "transactionIndex": "0x94",
      "blockHash": "0x3b59a3b5cf07cb3d618dfca494c24d2ee3b440cc170229f80f39946802d25844",
      "blockNumber": "0x83a551",
      "gasUsed": "0x9b6fa",
      "effectiveGasPrice": "0x1e6e87c2",
      "from": "0xce23256ae677765a41e8d7e4d099359771615ca4",
      "to": "0x5a9adafa3eaeb4347e0524dcc83e5ef7510bcc4b",
      "contractAddress": null
    }
  ],
  "libraries": [],
  "pending": [],
  "returns": {},
  "timestamp": 1750874489,
  "chain": 11155111,
  "commit": null
}