{
  "transactions": [
    {
      "hash": "0x9499d9b75f379b4466a3f1f3350a3325d45e9f87d1a0e0c40c936ac87f951970",
      "transactionType": "CALL",
      "contractName": null,
      "contractAddress": "0x560cb009b499015cadfab0a75b645183fdab44a6",
      "function": "buy(address,uint256,uint256)",
      "arguments": [
        "0xcE23256ae677765a41E8D7E4d099359771615ca4",
        "1000",
        "4"
      ],
      "transaction": {
        "from": "0xce23256ae677765a41e8d7e4d099359771615ca4",
        "to": "0x560cb009b499015cadfab0a75b645183fdab44a6",
        "gas": "0xd6d46",
        "value": "0x0",
        "input": "0xa59ac6dd000000000000000000000000ce23256ae677765a41e8d7e4d099359771615ca400000000000000000000000000000000000000000000000000000000000003e80000000000000000000000000000000000000000000000000000000000000004",
        "nonce": "0x99",
        "chainId": "0xaa36a7"
      },
      "additionalContracts": [],
      "isFixedGasLimit": false
    }
  ],
  "receipts": [
    {
      "status": "0x1",
      "cumulativeGasUsed": "0x1cf844e",
      "logs": [
        {
          "address": "0x560cb009b499015cadfab0a75b645183fdab44a6",
          "topics": [
            "0xddf252ad1be2c89b69c2b068fc378daa952ba7f163c4a11628f55a4df523b3ef",
            "0x0000000000000000000000000000000000000000000000000000000000000000",
            "0x000000000000000000000000ce23256ae677765a41e8d7e4d099359771615ca4",
            "0x0000000000000000000000000000000000000000000000000000000000000000"
          ],
          "data": "0x",
          "blockHash": "0x65db52ef02d0d5f252e4781f2cea98466856f6201fb61e044dee43168d107284",
          "blockNumber": "0x83a60a",
          "blockTimestamp": "0x685c422c",
          "transactionHash": "0x9499d9b75f379b4466a3f1f3350a3325d45e9f87d1a0e0c40c936ac87f951970",
          "transactionIndex": "0x8f",
          "logIndex": "0xbb",
          "removed": false
        },
        {
          "address": "0x560cb009b499015cadfab0a75b645183fdab44a6",
          "topics": [
            "0x1cbc5ab135991bd2b6a4b034a04aa2aa086dac1371cb9b16b8b5e2ed6b036bed",
            "0x000000000000000000000000ce23256ae677765a41e8d7e4d099359771615ca4",
            "0x0000000000000000000000000000000000000000000000000000000000000000"
          ],
          "data": "0x00000000000000000000000000000000000000000000000000000000000003e8",
          "blockHash": "0x65db52ef02d0d5f252e4781f2cea98466856f6201fb61e044dee43168d107284",
          "blockNumber": "0x83a60a",
          "blockTimestamp": "0x685c422c",
          "transactionHash": "0x9499d9b75f379b4466a3f1f3350a3325d45e9f87d1a0e0c40c936ac87f951970",
          "transactionIndex": "0x8f",
          "logIndex": "0xbc",
          "removed": false
        },
        {
          "address": "0x560cb009b499015cadfab0a75b645183fdab44a6",
          "topics": [
            "0xddf252ad1be2c89b69c2b068fc378daa952ba7f163c4a11628f55a4df523b3ef",
            "0x0000000000000000000000000000000000000000000000000000000000000000",
            "0x000000000000000000000000ce23256ae677765a41e8d7e4d099359771615ca4",
            "0x0000000000000000000000000000000000000000000000000000000000000001"
          ],
          "data": "0x",
          "blockHash": "0x65db52ef02d0d5f252e4781f2cea98466856f6201fb61e044dee43168d107284",
          "blockNumber": "0x83a60a",
          "blockTimestamp": "0x685c422c",
          "transactionHash": "0x9499d9b75f379b4466a3f1f3350a3325d45e9f87d1a0e0c40c936ac87f951970",
          "transactionIndex": "0x8f",
          "logIndex": "0xbd",
          "removed": false
        },
        {
          "address": "0x560cb009b499015cadfab0a75b645183fdab44a6",
          "topics": [
            "0x1cbc5ab135991bd2b6a4b034a04aa2aa086dac1371cb9b16b8b5e2ed6b036bed",
            "0x000000000000000000000000ce23256ae677765a41e8d7e4d099359771615ca4",
            "0x0000000000000000000000000000000000000000000000000000000000000001"
          ],
          "data": "0x00000000000000000000000000000000000000000000000000000000000003e8",
          "blockHash": "0x65db52ef02d0d5f252e4781f2cea98466856f6201fb61e044dee43168d107284",
          "blockNumber": "0x83a60a",
          "blockTimestamp": "0x685c422c",
          "transactionHash": "0x9499d9b75f379b4466a3f1f3350a3325d45e9f87d1a0e0c40c936ac87f951970",
          "transactionIndex": "0x8f",
          "logIndex": "0xbe",
          "removed": false
        },
        {
          "address": "0x560cb009b499015cadfab0a75b645183fdab44a6",
          "topics": [
            "0xddf252ad1be2c89b69c2b068fc378daa952ba7f163c4a11628f55a4df523b3ef",
            "0x0000000000000000000000000000000000000000000000000000000000000000",
            "0x000000000000000000000000ce23256ae677765a41e8d7e4d099359771615ca4",
            "0x0000000000000000000000000000000000000000000000000000000000000002"
          ],
          "data": "0x",
          "blockHash": "0x65db52ef02d0d5f252e4781f2cea98466856f6201fb61e044dee43168d107284",
          "blockNumber": "0x83a60a",
          "blockTimestamp": "0x685c422c",
          "transactionHash": "0x9499d9b75f379b4466a3f1f3350a3325d45e9f87d1a0e0c40c936ac87f951970",
          "transactionIndex": "0x8f",
          "logIndex": "0xbf",
          "removed": false
        },
        {
          "address": "0x560cb009b499015cadfab0a75b645183fdab44a6",
          "topics": [
            "0x1cbc5ab135991bd2b6a4b034a04aa2aa086dac1371cb9b16b8b5e2ed6b036bed",
            "0x000000000000000000000000ce23256ae677765a41e8d7e4d099359771615ca4",
            "0x0000000000000000000000000000000000000000000000000000000000000002"
          ],
          "data": "0x00000000000000000000000000000000000000000000000000000000000003e8",
          "blockHash": "0x65db52ef02d0d5f252e4781f2cea98466856f6201fb61e044dee43168d107284",
          "blockNumber": "0x83a60a",
          "blockTimestamp": "0x685c422c",
          "transactionHash": "0x9499d9b75f379b4466a3f1f3350a3325d45e9f87d1a0e0c40c936ac87f951970",
          "transactionIndex": "0x8f",
          "logIndex": "0xc0",
          "removed": false
        },
        {
          "address": "0x560cb009b499015cadfab0a75b645183fdab44a6",
          "topics": [
            "0xddf252ad1be2c89b69c2b068fc378daa952ba7f163c4a11628f55a4df523b3ef",
            "0x0000000000000000000000000000000000000000000000000000000000000000",
            "0x000000000000000000000000ce23256ae677765a41e8d7e4d099359771615ca4",
            "0x0000000000000000000000000000000000000000000000000000000000000003"
          ],
          "data": "0x",
          "blockHash": "0x65db52ef02d0d5f252e4781f2cea98466856f6201fb61e044dee43168d107284",
          "blockNumber": "0x83a60a",
          "blockTimestamp": "0x685c422c",
          "transactionHash": "0x9499d9b75f379b4466a3f1f3350a3325d45e9f87d1a0e0c40c936ac87f951970",
          "transactionIndex": "0x8f",
          "logIndex": "0xc1",
          "removed": false
        },
        {
          "address": "0x560cb009b499015cadfab0a75b645183fdab44a6",
          "topics": [
            "0x1cbc5ab135991bd2b6a4b034a04aa2aa086dac1371cb9b16b8b5e2ed6b036bed",
            "0x000000000000000000000000ce23256ae677765a41e8d7e4d099359771615ca4",
            "0x0000000000000000000000000000000000000000000000000000000000000003"
          ],
          "data": "0x00000000000000000000000000000000000000000000000000000000000003e8",
          "blockHash": "0x65db52ef02d0d5f252e4781f2cea98466856f6201fb61e044dee43168d107284",
          "blockNumber": "0x83a60a",
          "blockTimestamp": "0x685c422c",
          "transactionHash": "0x9499d9b75f379b4466a3f1f3350a3325d45e9f87d1a0e0c40c936ac87f951970",
          "transactionIndex": "0x8f",
          "logIndex": "0xc2",
          "removed": false
        }
      ],
      "logsBloom": "0x04000000000000000000000000000000000000000000000000400000000000000000000200000000000000000000000000000000020000000000000000040000000000000000000008000008000000000000000000041000000000000000000000000000020000000000000000080800000000000000000000000010000000000000000000000100000000000000000000000000000000000000000000000000000000000400000040000100000000000000000000800800000000000000400000000002000000000000000000000000000000000000000000000000000060000000000000000000000000000000000000000000008000000000000000000000",
      "type": "0x2",
      "transactionHash": "0x9499d9b75f379b4466a3f1f3350a3325d45e9f87d1a0e0c40c936ac87f951970",
      "transactionIndex": "0x8f",
      "blockHash": "0x65db52ef02d0d5f252e4781f2cea98466856f6201fb61e044dee43168d107284",
      "blockNumber": "0x83a60a",
      "gasUsed": "0x9b887",
      "effectiveGasPrice": "0x31e6fe46",
      "from": "0xce23256ae677765a41e8d7e4d099359771615ca4",
      "to": "0x560cb009b499015cadfab0a75b645183fdab44a6",
      "contractAddress": null
    }
  ],
  "libraries": [],
  "pending": [],
  "returns": {},
  "timestamp": 1750876710,
  "chain": 11155111,
  "commit": null
}