{
  "transactions": [
    {
      "hash": "0xb90bb787f13be47441ad4966b40545d1ad2e0093109cab22949549758ba1a837",
      "transactionType": "CALL",
      "contractName": null,
      "contractAddress": "0x16461f2d02730b1e64ae2a5ce0bc06c91a9d8d00",
      "function": "putOnSale(uint256,uint256)",
      "arguments": [
        "1",
        "4000"
      ],
      "transaction": {
        "from": "0xce23256ae677765a41e8d7e4d099359771615ca4",
        "to": "0x16461f2d02730b1e64ae2a5ce0bc06c91a9d8d00",
        "gas": "0x26056",
        "value": "0x0",
        "input": "0x36f7992b00000000000000000000000000000000000000000000000000000000000000010000000000000000000000000000000000000000000000000000000000000fa0",
        "nonce": "0x92",
        "chainId": "0xaa36a7"
      },
      "additionalContracts": [],
      "isFixedGasLimit": false
    }
  ],
  "receipts": [
    {
      "status": "0x1",
      "cumulativeGasUsed": "0x18ffa7b",
      "logs": [
        {
          "address": "0x16461f2d02730b1e64ae2a5ce0bc06c91a9d8d00",
          "topics": [
            "0x7c11ba8301c87f8a6d59779bcbe2b7446e865bd1a4359a69e5c400212e0a5795",
            "0x0000000000000000000000000000000000000000000000000000000000000001"
          ],
          "data": "0x0000000000000000000000000000000000000000000000000000000000000fa0",
          "blockHash": "0x3c5c40a247545205227a3139cdab5e61df23e622aa4de3316ad20e57574dd83e",
          "blockNumber": "0x83a574",
          "blockTimestamp": "0x685c3b24",
          "transactionHash": "0xb90bb787f13be47441ad4966b40545d1ad2e0093109cab22949549758ba1a837",
          "transactionIndex": "0x62",
          "logIndex": "0x87",
          "removed": false
        }
      ],
      "logsBloom": "0x00000000000000000000000000000000000000000000000000000000000000000000000000000000000000000000000000002000000000000000000000040000000000000000000000000000000000000000000100040000000000000000000000000000000000000000000000000000000000000000000000000000000000000000000000000000000000000000000000000000000000000000000000200000000000000000000000000000000000000000000400000000000000000000000000000000000000000000000200000000000000000000000000000000000044000000000000000000000000000000000000000000000000000000000000000000",
      "type": "0x2",
      "transactionHash": "0xb90bb787f13be47441ad4966b40545d1ad2e0093109cab22949549758ba1a837",
      "transactionIndex": "0x62",
      "blockHash": "0x3c5c40a247545205227a3139cdab5e61df23e622aa4de3316ad20e57574dd83e",
      "blockNumber": "0x83a574",
      "gasUsed": "0x1b86e",
      "effectiveGasPrice": "0x62562dba",
      "from": "0xce23256ae677765a41e8d7e4d099359771615ca4",
      "to": "0x16461f2d02730b1e64ae2a5ce0bc06c91a9d8d00",
      "contractAddress": null
    }
  ],
  "libraries": [],
  "pending": [],
  "returns": {},
  "timestamp": 1750874911,
  "chain": 11155111,
  "commit": null
}